{
  "contractName": "KYC_Contract",
  "abi": [
    {
      "inputs": [],
      "stateMutability": "nonpayable",
      "type": "constructor"
    },
    {
      "anonymous": false,
      "inputs": [
        {
          "indexed": false,
          "internalType": "string",
          "name": "_bankName",
          "type": "string"
        },
        {
          "indexed": false,
          "internalType": "address",
          "name": "_bankAddress",
          "type": "address"
        },
        {
          "indexed": false,
          "internalType": "string",
          "name": "_bankRegistration",
          "type": "string"
        },
        {
          "indexed": false,
          "internalType": "uint32",
          "name": "_complaintsReported",
          "type": "uint32"
        },
        {
          "indexed": false,
          "internalType": "bool",
          "name": "_KYCPermission",
          "type": "bool"
        }
      ],
      "name": "AddBank",
      "type": "event"
    },
    {
      "anonymous": false,
      "inputs": [
        {
          "indexed": false,
          "internalType": "string",
          "name": "_customerName",
          "type": "string"
        },
        {
          "indexed": false,
          "internalType": "string",
          "name": "_customerData",
          "type": "string"
        },
        {
          "indexed": false,
          "internalType": "address",
          "name": "validatorBank",
          "type": "address"
        }
      ],
      "name": "AddCustomer",
      "type": "event"
    },
    {
      "anonymous": false,
      "inputs": [
        {
          "indexed": false,
          "internalType": "string",
          "name": "_customerName",
          "type": "string"
        },
        {
          "indexed": false,
          "internalType": "string",
          "name": "_customerData",
          "type": "string"
        },
        {
          "indexed": false,
          "internalType": "address",
          "name": "KYCRequestingBank",
          "type": "address"
        }
      ],
      "name": "AddKYCRequest",
      "type": "event"
    },
    {
      "anonymous": false,
      "inputs": [
        {
          "indexed": false,
          "internalType": "string",
          "name": "_customerName",
          "type": "string"
        },
        {
          "indexed": false,
          "internalType": "bool",
          "name": "_KYCStatus",
          "type": "bool"
        }
      ],
      "name": "CustomerKYCStatus",
      "type": "event"
    },
    {
      "anonymous": false,
      "inputs": [
        {
          "indexed": false,
          "internalType": "string",
          "name": "_customerName",
          "type": "string"
        },
        {
          "indexed": false,
          "internalType": "address",
          "name": "bankAddress",
          "type": "address"
        }
      ],
      "name": "DownVoteCustomer",
      "type": "event"
    },
    {
      "anonymous": false,
      "inputs": [
        {
          "indexed": false,
          "internalType": "string",
          "name": "_customerName",
          "type": "string"
        },
        {
          "indexed": false,
          "internalType": "string",
          "name": "_newCustomerData",
          "type": "string"
        },
        {
          "indexed": false,
          "internalType": "address",
          "name": "bankAddress",
          "type": "address"
        }
      ],
      "name": "ModifyCustomer",
      "type": "event"
    },
    {
      "anonymous": false,
      "inputs": [
        {
          "indexed": false,
          "internalType": "address",
          "name": "_bankAddress",
          "type": "address"
        },
        {
          "indexed": false,
          "internalType": "bool",
          "name": "_isAllowedToVote",
          "type": "bool"
        }
      ],
      "name": "ModifyIfBankAllowedToVote",
      "type": "event"
    },
    {
      "anonymous": false,
      "inputs": [
        {
          "indexed": false,
          "internalType": "address",
          "name": "_bankAddress",
          "type": "address"
        }
      ],
      "name": "RemoveBank",
      "type": "event"
    },
    {
      "anonymous": false,
      "inputs": [
        {
          "indexed": false,
          "internalType": "string",
          "name": "_customerName",
          "type": "string"
        },
        {
          "indexed": false,
          "internalType": "address",
          "name": "bankAddress",
          "type": "address"
        }
      ],
      "name": "RemoveDownVoteCustomer",
      "type": "event"
    },
    {
      "anonymous": false,
      "inputs": [
        {
          "indexed": false,
          "internalType": "string",
          "name": "_customerName",
          "type": "string"
        },
        {
          "indexed": false,
          "internalType": "address",
          "name": "KYCRemovingBank",
          "type": "address"
        }
      ],
      "name": "RemoveKYCRequest",
      "type": "event"
    },
    {
      "anonymous": false,
      "inputs": [
        {
          "indexed": false,
          "internalType": "string",
          "name": "_customerName",
          "type": "string"
        },
        {
          "indexed": false,
          "internalType": "address",
          "name": "bankAddress",
          "type": "address"
        }
      ],
      "name": "RemoveUpVoteCustomer",
      "type": "event"
    },
    {
      "anonymous": false,
      "inputs": [
        {
          "indexed": false,
          "internalType": "address",
          "name": "_bankAddress",
          "type": "address"
        },
        {
          "indexed": false,
          "internalType": "address",
          "name": "reportingBank",
          "type": "address"
        },
        {
          "indexed": false,
          "internalType": "bool",
          "name": "isAllowedToVote",
          "type": "bool"
        }
      ],
      "name": "ReportBank",
      "type": "event"
    },
    {
      "anonymous": false,
      "inputs": [
        {
          "indexed": false,
          "internalType": "string",
          "name": "_customerName",
          "type": "string"
        },
        {
          "indexed": false,
          "internalType": "address",
          "name": "bankAddress",
          "type": "address"
        }
      ],
      "name": "UpVoteCustomer",
      "type": "event"
    },
    {
      "inputs": [
        {
          "internalType": "string",
          "name": "_customerName",
          "type": "string"
        },
        {
          "internalType": "string",
          "name": "_customerData",
          "type": "string"
        }
      ],
      "name": "addKYCRequest",
      "outputs": [
        {
          "internalType": "bool",
          "name": "",
          "type": "bool"
        }
      ],
      "stateMutability": "nonpayable",
      "type": "function"
    },
    {
      "inputs": [
        {
          "internalType": "string",
          "name": "_customerName",
          "type": "string"
        }
      ],
      "name": "removeKYCRequest",
      "outputs": [
        {
          "internalType": "bool",
          "name": "",
          "type": "bool"
        }
      ],
      "stateMutability": "nonpayable",
      "type": "function"
    },
    {
      "inputs": [
        {
          "internalType": "string",
          "name": "_customerName",
          "type": "string"
        }
      ],
      "name": "viewCustomer",
      "outputs": [
        {
          "internalType": "string",
          "name": "",
          "type": "string"
        },
        {
          "internalType": "string",
          "name": "",
          "type": "string"
        },
        {
          "internalType": "address",
          "name": "",
          "type": "address"
        },
        {
          "internalType": "uint32",
          "name": "",
          "type": "uint32"
        },
        {
          "internalType": "uint32",
          "name": "",
          "type": "uint32"
        }
      ],
      "stateMutability": "view",
      "type": "function",
      "constant": true
    },
    {
      "inputs": [
        {
          "internalType": "string",
          "name": "_customerName",
          "type": "string"
        },
        {
          "internalType": "string",
          "name": "_customerData",
          "type": "string"
        }
      ],
      "name": "addCustomer",
      "outputs": [
        {
          "internalType": "bool",
          "name": "",
          "type": "bool"
        }
      ],
      "stateMutability": "nonpayable",
      "type": "function"
    },
    {
      "inputs": [
        {
          "internalType": "string",
          "name": "_customerName",
          "type": "string"
        },
        {
          "internalType": "string",
          "name": "_newCustomerData",
          "type": "string"
        }
      ],
      "name": "modifyCustomer",
      "outputs": [
        {
          "internalType": "bool",
          "name": "",
          "type": "bool"
        }
      ],
      "stateMutability": "nonpayable",
      "type": "function"
    },
    {
      "inputs": [
        {
          "internalType": "string",
          "name": "_customerName",
          "type": "string"
        }
      ],
      "name": "customerKYCStatus",
      "outputs": [
        {
          "internalType": "bool",
          "name": "",
          "type": "bool"
        }
      ],
      "stateMutability": "nonpayable",
      "type": "function"
    },
    {
      "inputs": [
        {
          "internalType": "string",
          "name": "_customerName",
          "type": "string"
        }
      ],
      "name": "upVoteCustomer",
      "outputs": [
        {
          "internalType": "bool",
          "name": "",
          "type": "bool"
        }
      ],
      "stateMutability": "nonpayable",
      "type": "function"
    },
    {
      "inputs": [
        {
          "internalType": "string",
          "name": "_customerName",
          "type": "string"
        }
      ],
      "name": "removeUpVoteCustomer",
      "outputs": [
        {
          "internalType": "bool",
          "name": "",
          "type": "bool"
        }
      ],
      "stateMutability": "nonpayable",
      "type": "function"
    },
    {
      "inputs": [
        {
          "internalType": "string",
          "name": "_customerName",
          "type": "string"
        }
      ],
      "name": "downVoteCustomer",
      "outputs": [
        {
          "internalType": "bool",
          "name": "",
          "type": "bool"
        }
      ],
      "stateMutability": "nonpayable",
      "type": "function"
    },
    {
      "inputs": [
        {
          "internalType": "string",
          "name": "_customerName",
          "type": "string"
        }
      ],
      "name": "removeDownVoteCustomer",
      "outputs": [
        {
          "internalType": "bool",
          "name": "",
          "type": "bool"
        }
      ],
      "stateMutability": "nonpayable",
      "type": "function"
    },
    {
      "inputs": [
        {
          "internalType": "address",
          "name": "_bankAddress",
          "type": "address"
        }
      ],
      "name": "getBankDetails",
      "outputs": [
        {
          "internalType": "string",
          "name": "",
          "type": "string"
        },
        {
          "internalType": "address",
          "name": "",
          "type": "address"
        },
        {
          "internalType": "uint32",
          "name": "",
          "type": "uint32"
        },
        {
          "internalType": "uint32",
          "name": "",
          "type": "uint32"
        },
        {
          "internalType": "bool",
          "name": "",
          "type": "bool"
        },
        {
          "internalType": "string",
          "name": "",
          "type": "string"
        }
      ],
      "stateMutability": "view",
      "type": "function",
      "constant": true
    },
    {
      "inputs": [
        {
          "internalType": "address",
          "name": "_bankAddress",
          "type": "address"
        }
      ],
      "name": "reportBank",
      "outputs": [
        {
          "internalType": "bool",
          "name": "",
          "type": "bool"
        }
      ],
      "stateMutability": "nonpayable",
      "type": "function"
    },
    {
      "inputs": [
        {
          "internalType": "address",
          "name": "_bankAddress",
          "type": "address"
        }
      ],
      "name": "getBankComplaints",
      "outputs": [
        {
          "internalType": "uint32",
          "name": "",
          "type": "uint32"
        }
      ],
      "stateMutability": "view",
      "type": "function",
      "constant": true
    },
    {
      "inputs": [
        {
          "internalType": "string",
          "name": "_bankName",
          "type": "string"
        },
        {
          "internalType": "address",
          "name": "_bankAddress",
          "type": "address"
        },
        {
          "internalType": "string",
          "name": "_bankRegistration",
          "type": "string"
        }
      ],
      "name": "addBank",
      "outputs": [
        {
          "internalType": "bool",
          "name": "",
          "type": "bool"
        }
      ],
      "stateMutability": "nonpayable",
      "type": "function"
    },
    {
      "inputs": [
        {
          "internalType": "address",
          "name": "_bankAddress",
          "type": "address"
        },
        {
          "internalType": "bool",
          "name": "_isAllowedToVote",
          "type": "bool"
        }
      ],
      "name": "modifyIfBankAllowedToVote",
      "outputs": [
        {
          "internalType": "bool",
          "name": "",
          "type": "bool"
        }
      ],
      "stateMutability": "nonpayable",
      "type": "function"
    },
    {
      "inputs": [
        {
          "internalType": "address",
          "name": "_bankAddress",
          "type": "address"
        }
      ],
      "name": "removeBank",
      "outputs": [
        {
          "internalType": "bool",
          "name": "",
          "type": "bool"
        }
      ],
      "stateMutability": "nonpayable",
      "type": "function"
    }
  ],
  "bytecode": "0x608060405234801561001057600080fd5b50336000806101000a81548173ffffffffffffffffffffffffffffffffffffffff021916908373ffffffffffffffffffffffffffffffffffffffff160217905550614953806100606000396000f3fe608060405234801561001057600080fd5b50600436106101005760003560e01c8063a5a4980011610097578063c924059a11610066578063c924059a1461034e578063cae55c3f1461037e578063ccfa8e71146103ae578063f72860ca146103de57610100565b8063a5a498001461028e578063b7d12190146102be578063ba03ef3a146102ee578063bd561e141461031e57610100565b8063569e64bc116100d3578063569e64bc146101ce5780635ec2a7f2146101fe57806382e0438a1461022e5780639649650c1461025e57610100565b8063107925bb1461010557806315101e02146101395780631e8eba6e1461016e5780633190abc01461019e575b600080fd5b61011f600480360381019061011a9190613559565b61040e565b60405161013095949392919061368a565b60405180910390f35b610153600480360381019061014e9190613717565b6106d8565b6040516101659695949392919061375f565b60405180910390f35b61018860048036038101906101839190613559565b610abc565b60405161019591906137ce565b60405180910390f35b6101b860048036038101906101b391906137e9565b610d8a565b6040516101c591906137ce565b60405180910390f35b6101e860048036038101906101e39190613559565b610f57565b6040516101f591906137ce565b60405180910390f35b61021860048036038101906102139190613717565b61130c565b6040516102259190613861565b60405180910390f35b61024860048036038101906102439190613559565b611438565b60405161025591906137ce565b60405180910390f35b61027860048036038101906102739190613717565b6117ed565b60405161028591906137ce565b60405180910390f35b6102a860048036038101906102a39190613717565b611a59565b6040516102b591906137ce565b60405180910390f35b6102d860048036038101906102d391906138a8565b611d36565b6040516102e591906137ce565b60405180910390f35b61030860048036038101906103039190613559565b611f34565b60405161031591906137ce565b60405180910390f35b610338600480360381019061033391906137e9565b6122e9565b60405161034591906137ce565b60405180910390f35b61036860048036038101906103639190613559565b61261f565b60405161037591906137ce565b60405180910390f35b61039860048036038101906103939190613559565b612839565b6040516103a591906137ce565b60405180910390f35b6103c860048036038101906103c391906138e8565b612bee565b6040516103d591906137ce565b60405180910390f35b6103f860048036038101906103f391906137e9565b613197565b60405161040591906137ce565b60405180910390f35b60608060008060003373ffffffffffffffffffffffffffffffffffffffff1660018760405161043d91906139af565b908152602001604051809103902060020160099054906101000a900473ffffffffffffffffffffffffffffffffffffffff1673ffffffffffffffffffffffffffffffffffffffff16146104c5576040517f08c379a00000000000000000000000000000000000000000000000000000000081526004016104bc90613a5e565b60405180910390fd5b6001866040516104d591906139af565b90815260200160405180910390206000016001876040516104f691906139af565b908152602001604051809103902060010160018860405161051791906139af565b908152602001604051809103902060020160099054906101000a900473ffffffffffffffffffffffffffffffffffffffff1660018960405161055991906139af565b908152602001604051809103902060020160019054906101000a900463ffffffff1660018a60405161058b91906139af565b908152602001604051809103902060020160059054906101000a900463ffffffff168480546105b990613aad565b80601f01602080910402602001604051908101604052809291908181526020018280546105e590613aad565b80156106325780601f1061060757610100808354040283529160200191610632565b820191906000526020600020905b81548152906001019060200180831161061557829003601f168201915b5050505050945083805461064590613aad565b80601f016020809104026020016040519081016040528092919081815260200182805461067190613aad565b80156106be5780601f10610693576101008083540402835291602001916106be565b820191906000526020600020905b8154815290600101906020018083116106a157829003601f168201915b505050505093509450945094509450945091939590929450565b606060008060008060608673ffffffffffffffffffffffffffffffffffffffff16600260008973ffffffffffffffffffffffffffffffffffffffff1673ffffffffffffffffffffffffffffffffffffffff16815260200190815260200160002060010160009054906101000a900473ffffffffffffffffffffffffffffffffffffffff1673ffffffffffffffffffffffffffffffffffffffff16146107b2576040517f08c379a00000000000000000000000000000000000000000000000000000000081526004016107a990613b51565b60405180910390fd5b600260008873ffffffffffffffffffffffffffffffffffffffff1673ffffffffffffffffffffffffffffffffffffffff168152602001908152602001600020600001600260008973ffffffffffffffffffffffffffffffffffffffff1673ffffffffffffffffffffffffffffffffffffffff16815260200190815260200160002060010160009054906101000a900473ffffffffffffffffffffffffffffffffffffffff16600260008a73ffffffffffffffffffffffffffffffffffffffff1673ffffffffffffffffffffffffffffffffffffffff16815260200190815260200160002060010160149054906101000a900463ffffffff16600260008b73ffffffffffffffffffffffffffffffffffffffff1673ffffffffffffffffffffffffffffffffffffffff16815260200190815260200160002060010160189054906101000a900463ffffffff16600260008c73ffffffffffffffffffffffffffffffffffffffff1673ffffffffffffffffffffffffffffffffffffffff168152602001908152602001600020600101601c9054906101000a900460ff16600260008d73ffffffffffffffffffffffffffffffffffffffff1673ffffffffffffffffffffffffffffffffffffffff16815260200190815260200160002060020185805461099b90613aad565b80601f01602080910402602001604051908101604052809291908181526020018280546109c790613aad565b8015610a145780601f106109e957610100808354040283529160200191610a14565b820191906000526020600020905b8154815290600101906020018083116109f757829003601f168201915b50505050509550808054610a2790613aad565b80601f0160208091040260200160405190810160405280929190818152602001828054610a5390613aad565b8015610aa05780601f10610a7557610100808354040283529160200191610aa0565b820191906000526020600020905b815481529060010190602001808311610a8357829003601f168201915b5050505050905095509550955095509550955091939550919395565b60003373ffffffffffffffffffffffffffffffffffffffff16600383604051610ae591906139af565b908152602001604051809103902060020160009054906101000a900473ffffffffffffffffffffffffffffffffffffffff1673ffffffffffffffffffffffffffffffffffffffff1614610b6d576040517f08c379a0000000000000000000000000000000000000000000000000000000008152600401610b6490613c09565b60405180910390fd5b610c20600183604051610b8091906139af565b90815260200160405180910390206000018054610b9c90613aad565b80601f0160208091040260200160405190810160405280929190818152602001828054610bc890613aad565b8015610c155780601f10610bea57610100808354040283529160200191610c15565b820191906000526020600020905b815481529060010190602001808311610bf857829003601f168201915b5050505050836132c3565b610c5f576040517f08c379a0000000000000000000000000000000000000000000000000000000008152600401610c5690613cc1565b60405180910390fd5b600382604051610c6f91906139af565b908152602001604051809103902060008082016000610c8e919061331c565b600182016000610c9e919061331c565b6002820160006101000a81549073ffffffffffffffffffffffffffffffffffffffff02191690555050600260003373ffffffffffffffffffffffffffffffffffffffff1673ffffffffffffffffffffffffffffffffffffffff168152602001908152602001600020600101601881819054906101000a900463ffffffff1680929190610d2990613d10565b91906101000a81548163ffffffff021916908363ffffffff160217905550507f496d5d5434647bc8da1b957c8a39657a0fe5021a5ee01bfb6566ee87c56639dd8233604051610d79929190613d3a565b60405180910390a160019050919050565b60008073ffffffffffffffffffffffffffffffffffffffff16600184604051610db391906139af565b908152602001604051809103902060020160099054906101000a900473ffffffffffffffffffffffffffffffffffffffff1673ffffffffffffffffffffffffffffffffffffffff1614610e3b576040517f08c379a0000000000000000000000000000000000000000000000000000000008152600401610e3290613ddc565b60405180910390fd5b82600184604051610e4c91906139af565b90815260200160405180910390206000019080519060200190610e7092919061335c565b5081600184604051610e8291906139af565b90815260200160405180910390206001019080519060200190610ea692919061335c565b5033600184604051610eb891906139af565b908152602001604051809103902060020160096101000a81548173ffffffffffffffffffffffffffffffffffffffff021916908373ffffffffffffffffffffffffffffffffffffffff160217905550610f1183836122e9565b507f720f91ef7267a7db0cf726ddb013dd753364a2e1e65319cd32e1d96c3aa38dbd838333604051610f4593929190613dfc565b60405180910390a16001905092915050565b600061100c82600184604051610f6d91906139af565b90815260200160405180910390206000018054610f8990613aad565b80601f0160208091040260200160405190810160405280929190818152602001828054610fb590613aad565b80156110025780601f10610fd757610100808354040283529160200191611002565b820191906000526020600020905b815481529060010190602001808311610fe557829003601f168201915b50505050506132c3565b61104b576040517f08c379a000000000000000000000000000000000000000000000000000000000815260040161104290613eb3565b60405180910390fd5b6110fe60038360405161105e91906139af565b9081526020016040518091039020600001805461107a90613aad565b80601f01602080910402602001604051908101604052809291908181526020018280546110a690613aad565b80156110f35780601f106110c8576101008083540402835291602001916110f3565b820191906000526020600020905b8154815290600101906020018083116110d657829003601f168201915b5050505050836132c3565b61113d576040517f08c379a000000000000000000000000000000000000000000000000000000000815260040161113490613f45565b60405180910390fd5b600060048360405161114f91906139af565b908152602001604051809103902060003373ffffffffffffffffffffffffffffffffffffffff1673ffffffffffffffffffffffffffffffffffffffff16815260200190815260200160002060009054906101000a900460ff1660ff16146111eb576040517f08c379a00000000000000000000000000000000000000000000000000000000081526004016111e290613fd7565b60405180910390fd5b6001826040516111fb91906139af565b9081526020016040518091039020600201600181819054906101000a900463ffffffff168092919061122c90613ff7565b91906101000a81548163ffffffff021916908363ffffffff16021790555050600160048360405161125d91906139af565b908152602001604051809103902060003373ffffffffffffffffffffffffffffffffffffffff1673ffffffffffffffffffffffffffffffffffffffff16815260200190815260200160002060006101000a81548160ff021916908360ff1602179055506112c98261261f565b507f8204fd0d7ac1bb685e9147e1259497a085786f9ec68e8b44514f432d7d7fdfe182336040516112fb929190613d3a565b60405180910390a160019050919050565b60008173ffffffffffffffffffffffffffffffffffffffff16600260008473ffffffffffffffffffffffffffffffffffffffff1673ffffffffffffffffffffffffffffffffffffffff16815260200190815260200160002060010160009054906101000a900473ffffffffffffffffffffffffffffffffffffffff1673ffffffffffffffffffffffffffffffffffffffff16146113de576040517f08c379a00000000000000000000000000000000000000000000000000000000081526004016113d590613b51565b60405180910390fd5b600260008373ffffffffffffffffffffffffffffffffffffffff1673ffffffffffffffffffffffffffffffffffffffff16815260200190815260200160002060010160149054906101000a900463ffffffff169050919050565b60006114ed8260018460405161144e91906139af565b9081526020016040518091039020600001805461146a90613aad565b80601f016020809104026020016040519081016040528092919081815260200182805461149690613aad565b80156114e35780601f106114b8576101008083540402835291602001916114e3565b820191906000526020600020905b8154815290600101906020018083116114c657829003601f168201915b50505050506132c3565b61152c576040517f08c379a000000000000000000000000000000000000000000000000000000000815260040161152390613eb3565b60405180910390fd5b6115df60038360405161153f91906139af565b9081526020016040518091039020600001805461155b90613aad565b80601f016020809104026020016040519081016040528092919081815260200182805461158790613aad565b80156115d45780601f106115a9576101008083540402835291602001916115d4565b820191906000526020600020905b8154815290600101906020018083116115b757829003601f168201915b5050505050836132c3565b61161e576040517f08c379a000000000000000000000000000000000000000000000000000000000815260040161161590614096565b60405180910390fd5b600060058360405161163091906139af565b908152602001604051809103902060003373ffffffffffffffffffffffffffffffffffffffff1673ffffffffffffffffffffffffffffffffffffffff16815260200190815260200160002060009054906101000a900460ff1660ff16146116cc576040517f08c379a00000000000000000000000000000000000000000000000000000000081526004016116c390614128565b60405180910390fd5b6001826040516116dc91906139af565b9081526020016040518091039020600201600581819054906101000a900463ffffffff168092919061170d90613ff7565b91906101000a81548163ffffffff021916908363ffffffff16021790555050600160058360405161173e91906139af565b908152602001604051809103902060003373ffffffffffffffffffffffffffffffffffffffff1673ffffffffffffffffffffffffffffffffffffffff16815260200190815260200160002060006101000a81548160ff021916908360ff1602179055506117aa8261261f565b507ff76612a4db926c845e0a50031eb928cbbf707428872d88840995c7b8da5f414582336040516117dc929190613d3a565b60405180910390a160019050919050565b60008060009054906101000a900473ffffffffffffffffffffffffffffffffffffffff1673ffffffffffffffffffffffffffffffffffffffff163373ffffffffffffffffffffffffffffffffffffffff161461187e576040517f08c379a0000000000000000000000000000000000000000000000000000000008152600401611875906141ba565b60405180910390fd5b8173ffffffffffffffffffffffffffffffffffffffff16600260008473ffffffffffffffffffffffffffffffffffffffff1673ffffffffffffffffffffffffffffffffffffffff16815260200190815260200160002060010160009054906101000a900473ffffffffffffffffffffffffffffffffffffffff1673ffffffffffffffffffffffffffffffffffffffff161461194e576040517f08c379a000000000000000000000000000000000000000000000000000000000815260040161194590613b51565b60405180910390fd5b600260008373ffffffffffffffffffffffffffffffffffffffff1673ffffffffffffffffffffffffffffffffffffffff1681526020019081526020016000206000808201600061199e919061331c565b6001820160006101000a81549073ffffffffffffffffffffffffffffffffffffffff02191690556001820160146101000a81549063ffffffff02191690556001820160186101000a81549063ffffffff021916905560018201601c6101000a81549060ff0219169055600282016000611a17919061331c565b50507f6767608704ef368658d85df2d4ab099786fa097072ca3721d0be392020360a7e82604051611a4891906141da565b60405180910390a160019050919050565b60008173ffffffffffffffffffffffffffffffffffffffff16600260008473ffffffffffffffffffffffffffffffffffffffff1673ffffffffffffffffffffffffffffffffffffffff16815260200190815260200160002060010160009054906101000a900473ffffffffffffffffffffffffffffffffffffffff1673ffffffffffffffffffffffffffffffffffffffff1614611b2b576040517f08c379a0000000000000000000000000000000000000000000000000000000008152600401611b2290613b51565b60405180910390fd5b600260008373ffffffffffffffffffffffffffffffffffffffff1673ffffffffffffffffffffffffffffffffffffffff168152602001908152602001600020600101601481819054906101000a900463ffffffff1680929190611b8d90613ff7565b91906101000a81548163ffffffff021916908363ffffffff1602179055505060006064600260008573ffffffffffffffffffffffffffffffffffffffff1673ffffffffffffffffffffffffffffffffffffffff16815260200190815260200160002060010160149054906101000a900463ffffffff16611c0d91906141f5565b905060008060149054906101000a900463ffffffff166021611c2f91906141f5565b90508063ffffffff168263ffffffff161115611ca1576000600260008673ffffffffffffffffffffffffffffffffffffffff1673ffffffffffffffffffffffffffffffffffffffff168152602001908152602001600020600101601c6101000a81548160ff0219169083151502179055505b7f65f47f0fa74a4b8d006ccd51dc625d47139721a7906092a96e0333d7bd684cd18433600260008873ffffffffffffffffffffffffffffffffffffffff1673ffffffffffffffffffffffffffffffffffffffff168152602001908152602001600020600101601c9054906101000a900460ff16604051611d2393929190614233565b60405180910390a1600192505050919050565b60008060009054906101000a900473ffffffffffffffffffffffffffffffffffffffff1673ffffffffffffffffffffffffffffffffffffffff163373ffffffffffffffffffffffffffffffffffffffff1614611dc7576040517f08c379a0000000000000000000000000000000000000000000000000000000008152600401611dbe906141ba565b60405180910390fd5b8273ffffffffffffffffffffffffffffffffffffffff16600260008573ffffffffffffffffffffffffffffffffffffffff1673ffffffffffffffffffffffffffffffffffffffff16815260200190815260200160002060010160009054906101000a900473ffffffffffffffffffffffffffffffffffffffff1673ffffffffffffffffffffffffffffffffffffffff1614611e97576040517f08c379a0000000000000000000000000000000000000000000000000000000008152600401611e8e90613b51565b60405180910390fd5b81600260008573ffffffffffffffffffffffffffffffffffffffff1673ffffffffffffffffffffffffffffffffffffffff168152602001908152602001600020600101601c6101000a81548160ff0219169083151502179055507f1562979b03fccfb5bb5189a02f4dbef9f48c35bf52a47c09e23271e92ed7bcc38383604051611f2292919061426a565b60405180910390a16001905092915050565b6000611fe982600184604051611f4a91906139af565b90815260200160405180910390206000018054611f6690613aad565b80601f0160208091040260200160405190810160405280929190818152602001828054611f9290613aad565b8015611fdf5780601f10611fb457610100808354040283529160200191611fdf565b820191906000526020600020905b815481529060010190602001808311611fc257829003601f168201915b50505050506132c3565b612028576040517f08c379a000000000000000000000000000000000000000000000000000000000815260040161201f90613eb3565b60405180910390fd5b6120db60038360405161203b91906139af565b9081526020016040518091039020600001805461205790613aad565b80601f016020809104026020016040519081016040528092919081815260200182805461208390613aad565b80156120d05780601f106120a5576101008083540402835291602001916120d0565b820191906000526020600020905b8154815290600101906020018083116120b357829003601f168201915b5050505050836132c3565b61211a576040517f08c379a000000000000000000000000000000000000000000000000000000000815260040161211190614305565b60405180910390fd5b600160058360405161212c91906139af565b908152602001604051809103902060003373ffffffffffffffffffffffffffffffffffffffff1673ffffffffffffffffffffffffffffffffffffffff16815260200190815260200160002060009054906101000a900460ff1660ff16146121c8576040517f08c379a00000000000000000000000000000000000000000000000000000000081526004016121bf90614397565b60405180910390fd5b6001826040516121d891906139af565b9081526020016040518091039020600201600581819054906101000a900463ffffffff168092919061220990613d10565b91906101000a81548163ffffffff021916908363ffffffff16021790555050600060058360405161223a91906139af565b908152602001604051809103902060003373ffffffffffffffffffffffffffffffffffffffff1673ffffffffffffffffffffffffffffffffffffffff16815260200190815260200160002060006101000a81548160ff021916908360ff1602179055506122a68261261f565b507f884e374f9a1d1ef39e4f98a04c2a047354902ad3143ff7a278d9937b56e114d082336040516122d8929190613d3a565b60405180910390a160019050919050565b60003373ffffffffffffffffffffffffffffffffffffffff1660038460405161231291906139af565b908152602001604051809103902060020160009054906101000a900473ffffffffffffffffffffffffffffffffffffffff1673ffffffffffffffffffffffffffffffffffffffff16141561239b576040517f08c379a000000000000000000000000000000000000000000000000000000000815260040161239290614429565b60405180910390fd5b61244e6001846040516123ae91906139af565b908152602001604051809103902060010180546123ca90613aad565b80601f01602080910402602001604051908101604052809291908181526020018280546123f690613aad565b80156124435780601f1061241857610100808354040283529160200191612443565b820191906000526020600020905b81548152906001019060200180831161242657829003601f168201915b5050505050836132c3565b61248d576040517f08c379a0000000000000000000000000000000000000000000000000000000008152600401612484906144bb565b60405180910390fd5b8260038460405161249e91906139af565b908152602001604051809103902060000190805190602001906124c292919061335c565b50816003846040516124d491906139af565b908152602001604051809103902060010190805190602001906124f892919061335c565b503360038460405161250a91906139af565b908152602001604051809103902060020160006101000a81548173ffffffffffffffffffffffffffffffffffffffff021916908373ffffffffffffffffffffffffffffffffffffffff160217905550600260003373ffffffffffffffffffffffffffffffffffffffff1673ffffffffffffffffffffffffffffffffffffffff168152602001908152602001600020600101601881819054906101000a900463ffffffff16809291906125bb90613ff7565b91906101000a81548163ffffffff021916908363ffffffff160217905550507f7fbec8867635bbaab7103c5d6cc8b0ef0767df0159177b6a07b8dbd5afba08cf83833360405161260d93929190613dfc565b60405180910390a16001905092915050565b600080606460018460405161263491906139af565b908152602001604051809103902060020160059054906101000a900463ffffffff1661266091906141f5565b905060008060149054906101000a900463ffffffff16602161268291906141f5565b90508063ffffffff168263ffffffff16101561278c576001846040516126a891906139af565b908152602001604051809103902060020160059054906101000a900463ffffffff1663ffffffff166001856040516126e091906139af565b908152602001604051809103902060020160019054906101000a900463ffffffff1663ffffffff16111561274c576001808560405161271f91906139af565b908152602001604051809103902060020160006101000a81548160ff021916908315150217905550612787565b600060018560405161275e91906139af565b908152602001604051809103902060020160006101000a81548160ff0219169083151502179055505b6127c7565b600060018560405161279e91906139af565b908152602001604051809103902060020160006101000a81548160ff0219169083151502179055505b7f01e100d0a829e863025b93f03221900ea97cc91afa79d8941528a2a3daea15ff846001866040516127f991906139af565b908152602001604051809103902060020160009054906101000a900460ff166040516128269291906144db565b60405180910390a1600192505050919050565b60006128ee8260018460405161284f91906139af565b9081526020016040518091039020600001805461286b90613aad565b80601f016020809104026020016040519081016040528092919081815260200182805461289790613aad565b80156128e45780601f106128b9576101008083540402835291602001916128e4565b820191906000526020600020905b8154815290600101906020018083116128c757829003601f168201915b50505050506132c3565b61292d576040517f08c379a000000000000000000000000000000000000000000000000000000000815260040161292490613eb3565b60405180910390fd5b6129e060038360405161294091906139af565b9081526020016040518091039020600001805461295c90613aad565b80601f016020809104026020016040519081016040528092919081815260200182805461298890613aad565b80156129d55780601f106129aa576101008083540402835291602001916129d5565b820191906000526020600020905b8154815290600101906020018083116129b857829003601f168201915b5050505050836132c3565b612a1f576040517f08c379a0000000000000000000000000000000000000000000000000000000008152600401612a169061457d565b60405180910390fd5b6001600483604051612a3191906139af565b908152602001604051809103902060003373ffffffffffffffffffffffffffffffffffffffff1673ffffffffffffffffffffffffffffffffffffffff16815260200190815260200160002060009054906101000a900460ff1660ff1614612acd576040517f08c379a0000000000000000000000000000000000000000000000000000000008152600401612ac49061460f565b60405180910390fd5b600182604051612add91906139af565b9081526020016040518091039020600201600181819054906101000a900463ffffffff1680929190612b0e90613d10565b91906101000a81548163ffffffff021916908363ffffffff160217905550506000600483604051612b3f91906139af565b908152602001604051809103902060003373ffffffffffffffffffffffffffffffffffffffff1673ffffffffffffffffffffffffffffffffffffffff16815260200190815260200160002060006101000a81548160ff021916908360ff160217905550612bab8261261f565b507fb16a6a90c9dc1e72f7d5f1fd2bb19bfe10570dd0f64cc907ba4561c1b252e9878233604051612bdd929190613d3a565b60405180910390a160019050919050565b60008060009054906101000a900473ffffffffffffffffffffffffffffffffffffffff1673ffffffffffffffffffffffffffffffffffffffff163373ffffffffffffffffffffffffffffffffffffffff1614612c7f576040517f08c379a0000000000000000000000000000000000000000000000000000000008152600401612c76906141ba565b60405180910390fd5b60001515600760008573ffffffffffffffffffffffffffffffffffffffff1673ffffffffffffffffffffffffffffffffffffffff16815260200190815260200160002060009054906101000a900460ff16151514612d12576040517f08c379a0000000000000000000000000000000000000000000000000000000008152600401612d099061467b565b60405180910390fd5b60001515600683604051612d2691906139af565b908152602001604051809103902060009054906101000a900460ff16151514612d84576040517f08c379a0000000000000000000000000000000000000000000000000000000008152600401612d7b90614733565b60405180910390fd5b60001515600885604051612d9891906139af565b908152602001604051809103902060009054906101000a900460ff16151514612df6576040517f08c379a0000000000000000000000000000000000000000000000000000000008152600401612ded906147c5565b60405180910390fd5b83600260008573ffffffffffffffffffffffffffffffffffffffff1673ffffffffffffffffffffffffffffffffffffffff1681526020019081526020016000206000019080519060200190612e4c92919061335c565b5082600260008573ffffffffffffffffffffffffffffffffffffffff1673ffffffffffffffffffffffffffffffffffffffff16815260200190815260200160002060010160006101000a81548173ffffffffffffffffffffffffffffffffffffffff021916908373ffffffffffffffffffffffffffffffffffffffff1602179055506000600260008573ffffffffffffffffffffffffffffffffffffffff1673ffffffffffffffffffffffffffffffffffffffff16815260200190815260200160002060010160146101000a81548163ffffffff021916908363ffffffff1602179055506000600260008573ffffffffffffffffffffffffffffffffffffffff1673ffffffffffffffffffffffffffffffffffffffff16815260200190815260200160002060010160186101000a81548163ffffffff021916908363ffffffff1602179055506001600260008573ffffffffffffffffffffffffffffffffffffffff1673ffffffffffffffffffffffffffffffffffffffff168152602001908152602001600020600101601c6101000a81548160ff02191690831515021790555081600260008573ffffffffffffffffffffffffffffffffffffffff1673ffffffffffffffffffffffffffffffffffffffff168152602001908152602001600020600201908051906020019061304392919061335c565b50600160068360405161305691906139af565b908152602001604051809103902060006101000a81548160ff0219169083151502179055506001600760008573ffffffffffffffffffffffffffffffffffffffff1673ffffffffffffffffffffffffffffffffffffffff16815260200190815260200160002060006101000a81548160ff02191690831515021790555060016008856040516130e591906139af565b908152602001604051809103902060006101000a81548160ff0219169083151502179055506000601481819054906101000a900463ffffffff168092919061312c90613ff7565b91906101000a81548163ffffffff021916908363ffffffff160217905550507fdc6397ebcff1d3cd4d51b023f775b4c6c94fd13339bc330fd0275673b618974b8484846000600160405161318495949392919061482a565b60405180910390a1600190509392505050565b60003373ffffffffffffffffffffffffffffffffffffffff166001846040516131c091906139af565b908152602001604051809103902060020160099054906101000a900473ffffffffffffffffffffffffffffffffffffffff1673ffffffffffffffffffffffffffffffffffffffff1614613248576040517f08c379a000000000000000000000000000000000000000000000000000000000815260040161323f906148fd565b60405180910390fd5b8160018460405161325991906139af565b9081526020016040518091039020600101908051906020019061327d92919061335c565b507f31d240a9505c05976d93451a6c6c97988c5719ef448ebed149c0e8e534a481298383336040516132b193929190613dfc565b60405180910390a16001905092915050565b6000816040516020016132d691906139af565b60405160208183030381529060405280519060200120836040516020016132fd91906139af565b6040516020818303038152906040528051906020012014905092915050565b50805461332890613aad565b6000825580601f1061333a5750613359565b601f01602090049060005260206000209081019061335891906133e2565b5b50565b82805461336890613aad565b90600052602060002090601f01602090048101928261338a57600085556133d1565b82601f106133a357805160ff19168380011785556133d1565b828001600101855582156133d1579182015b828111156133d05782518255916020019190600101906133b5565b5b5090506133de91906133e2565b5090565b5b808211156133fb5760008160009055506001016133e3565b5090565b6000604051905090565b600080fd5b600080fd5b600080fd5b600080fd5b6000601f19601f8301169050919050565b7f4e487b7100000000000000000000000000000000000000000000000000000000600052604160045260246000fd5b6134668261341d565b810181811067ffffffffffffffff821117156134855761348461342e565b5b80604052505050565b60006134986133ff565b90506134a4828261345d565b919050565b600067ffffffffffffffff8211156134c4576134c361342e565b5b6134cd8261341d565b9050602081019050919050565b82818337600083830152505050565b60006134fc6134f7846134a9565b61348e565b90508281526020810184848401111561351857613517613418565b5b6135238482856134da565b509392505050565b600082601f8301126135405761353f613413565b5b81356135508482602086016134e9565b91505092915050565b60006020828403121561356f5761356e613409565b5b600082013567ffffffffffffffff81111561358d5761358c61340e565b5b6135998482850161352b565b91505092915050565b600081519050919050565b600082825260208201905092915050565b60005b838110156135dc5780820151818401526020810190506135c1565b838111156135eb576000848401525b50505050565b60006135fc826135a2565b61360681856135ad565b93506136168185602086016135be565b61361f8161341d565b840191505092915050565b600073ffffffffffffffffffffffffffffffffffffffff82169050919050565b60006136558261362a565b9050919050565b6136658161364a565b82525050565b600063ffffffff82169050919050565b6136848161366b565b82525050565b600060a08201905081810360008301526136a481886135f1565b905081810360208301526136b881876135f1565b90506136c7604083018661365c565b6136d4606083018561367b565b6136e1608083018461367b565b9695505050505050565b6136f48161364a565b81146136ff57600080fd5b50565b600081359050613711816136eb565b92915050565b60006020828403121561372d5761372c613409565b5b600061373b84828501613702565b91505092915050565b60008115159050919050565b61375981613744565b82525050565b600060c082019050818103600083015261377981896135f1565b9050613788602083018861365c565b613795604083018761367b565b6137a2606083018661367b565b6137af6080830185613750565b81810360a08301526137c181846135f1565b9050979650505050505050565b60006020820190506137e36000830184613750565b92915050565b60008060408385031215613800576137ff613409565b5b600083013567ffffffffffffffff81111561381e5761381d61340e565b5b61382a8582860161352b565b925050602083013567ffffffffffffffff81111561384b5761384a61340e565b5b6138578582860161352b565b9150509250929050565b6000602082019050613876600083018461367b565b92915050565b61388581613744565b811461389057600080fd5b50565b6000813590506138a28161387c565b92915050565b600080604083850312156138bf576138be613409565b5b60006138cd85828601613702565b92505060206138de85828601613893565b9150509250929050565b60008060006060848603121561390157613900613409565b5b600084013567ffffffffffffffff81111561391f5761391e61340e565b5b61392b8682870161352b565b935050602061393c86828701613702565b925050604084013567ffffffffffffffff81111561395d5761395c61340e565b5b6139698682870161352b565b9150509250925092565b600081905092915050565b6000613989826135a2565b6139938185613973565b93506139a38185602086016135be565b80840191505092915050565b60006139bb828461397e565b915081905092915050565b7f5573657220646f65736e2774206578697374206f6e207468697320646174616260008201527f6173652e2055736520616464437573746f6d657220746f20637265617465207560208201527f7365720000000000000000000000000000000000000000000000000000000000604082015250565b6000613a486043836135ad565b9150613a53826139c6565b606082019050919050565b60006020820190508181036000830152613a7781613a3b565b9050919050565b7f4e487b7100000000000000000000000000000000000000000000000000000000600052602260045260246000fd5b60006002820490506001821680613ac557607f821691505b60208210811415613ad957613ad8613a7e565b5b50919050565b7f42616e6b206164647265737320697320696e636f72726563742e204e6f20737560008201527f6368207265636f72642065786973747300000000000000000000000000000000602082015250565b6000613b3b6030836135ad565b9150613b4682613adf565b604082019050919050565b60006020820190508181036000830152613b6a81613b2e565b9050919050565b7f4e6f204b594320726571756573742065786973747320666f722074686973206360008201527f7573746f6d65722e20506c6561736520757365206164644b594352657175657360208201527f742066756e6374696f6e00000000000000000000000000000000000000000000604082015250565b6000613bf3604a836135ad565b9150613bfe82613b71565b606082019050919050565b60006020820190508181036000830152613c2281613be6565b9050919050565b7f4e6f20726571756573742065786973747320666f72207468697320637573746f60008201527f6d65722e20506c6561736520757365206164644b59435265717565737420667560208201527f6e6374696f6e0000000000000000000000000000000000000000000000000000604082015250565b6000613cab6046836135ad565b9150613cb682613c29565b606082019050919050565b60006020820190508181036000830152613cda81613c9e565b9050919050565b7f4e487b7100000000000000000000000000000000000000000000000000000000600052601160045260246000fd5b6000613d1b8261366b565b91506000821415613d2f57613d2e613ce1565b5b600182039050919050565b60006040820190508181036000830152613d5481856135f1565b9050613d63602083018461365c565b9392505050565b7f55736572206578697374732e20506c656173652063616c6c206d6f646966794360008201527f7573746f6d657220746f206d616b6520616e79206368616e6765730000000000602082015250565b6000613dc6603b836135ad565b9150613dd182613d6a565b604082019050919050565b60006020820190508181036000830152613df581613db9565b9050919050565b60006060820190508181036000830152613e1681866135f1565b90508181036020830152613e2a81856135f1565b9050613e39604083018461365c565b949350505050565b7f437573746f6d657220646f65736e27742065786973742e20557365206164644360008201527f7573746f6d657220746f20637265617465206e65772075736572000000000000602082015250565b6000613e9d603a836135ad565b9150613ea882613e41565b604082019050919050565b60006020820190508181036000830152613ecc81613e90565b9050919050565b7f43616e6e6f74207570766f7465206173206e6f204b594320657869737473206660008201527f6f72207468697320637573746f6d6572207965742e0000000000000000000000602082015250565b6000613f2f6035836135ad565b9150613f3a82613ed3565b604082019050919050565b60006020820190508181036000830152613f5e81613f22565b9050919050565b7f437573746f6d65722068617320616c7265616479206265656e207570766f746560008201527f6420627920796f752e0000000000000000000000000000000000000000000000602082015250565b6000613fc16029836135ad565b9150613fcc82613f65565b604082019050919050565b60006020820190508181036000830152613ff081613fb4565b9050919050565b60006140028261366b565b915063ffffffff82141561401957614018613ce1565b5b600182019050919050565b7f43616e6e6f7420646f776e766f7465206173206e6f204b59432065786973747360008201527f20666f72207468697320637573746f6d6572207965742e000000000000000000602082015250565b60006140806037836135ad565b915061408b82614024565b604082019050919050565b600060208201905081810360008301526140af81614073565b9050919050565b7f437573746f6d65722068617320616c7265616479206265656e20646f776e207660008201527f6f74656420627920796f752e0000000000000000000000000000000000000000602082015250565b6000614112602c836135ad565b915061411d826140b6565b604082019050919050565b6000602082019050818103600083015261414181614105565b9050919050565b7f596f75206d75737420686176652061646d696e2070726976696c65646765732060008201527f746f2072756e2074686973000000000000000000000000000000000000000000602082015250565b60006141a4602b836135ad565b91506141af82614148565b604082019050919050565b600060208201905081810360008301526141d381614197565b9050919050565b60006020820190506141ef600083018461365c565b92915050565b60006142008261366b565b915061420b8361366b565b92508163ffffffff048311821515161561422857614227613ce1565b5b828202905092915050565b6000606082019050614248600083018661365c565b614255602083018561365c565b6142626040830184613750565b949350505050565b600060408201905061427f600083018561365c565b61428c6020830184613750565b9392505050565b7f43616e6e6f742072656d6f766520646f776e766f7465206173206e6f204b594360008201527f2065786973747320666f72207468697320637573746f6d6572207965742e0000602082015250565b60006142ef603e836135ad565b91506142fa82614293565b604082019050919050565b6000602082019050818103600083015261431e816142e2565b9050919050565b7f437573746f6d6572206861736e2774206265656e20646f776e20766f7465642060008201527f627920796f752e2055736520646f776e566f7465437573746f6d65722e000000602082015250565b6000614381603d836135ad565b915061438c82614325565b604082019050919050565b600060208201905081810360008301526143b081614374565b9050919050565b7f41204b5943207265717565737420616c72656164792065786973747320666f7260008201527f207468697320757365722066726f6d20746869732062616e6b00000000000000602082015250565b60006144136039836135ad565b915061441e826143b7565b604082019050919050565b6000602082019050818103600083015261444281614406565b9050919050565b7f506c6561736520636865636b20686173682e2054686973207265636f7264206460008201527f6f65736e27742065786973740000000000000000000000000000000000000000602082015250565b60006144a5602c836135ad565b91506144b082614449565b604082019050919050565b600060208201905081810360008301526144d481614498565b9050919050565b600060408201905081810360008301526144f581856135f1565b90506145046020830184613750565b9392505050565b7f43616e6e6f742072656d6f7665207570766f7465206173206e6f204b5943206560008201527f786973747320666f72207468697320637573746f6d6572207965742e00000000602082015250565b6000614567603c836135ad565b91506145728261450b565b604082019050919050565b600060208201905081810360008301526145968161455a565b9050919050565b7f437573746f6d6572206861736e2774206265656e207570766f7465642062792060008201527f796f752e20757365207570566f7465437573746f6d6572000000000000000000602082015250565b60006145f96037836135ad565b91506146048261459d565b604082019050919050565b60006020820190508181036000830152614628816145ec565b9050919050565b7f546869732062616e6b2068617320616c7265616479206265656e206164646564600082015250565b60006146656020836135ad565b91506146708261462f565b602082019050919050565b6000602082019050818103600083015261469481614658565b9050919050565b7f5468697320726567697374726174696f6e206e756d626572206861732062656560008201527f6e2074616b656e2e20506c6561736520656e74657220616e6f74686572206f6e60208201527f652e000000000000000000000000000000000000000000000000000000000000604082015250565b600061471d6042836135ad565b91506147288261469b565b606082019050919050565b6000602082019050818103600083015261474c81614710565b9050919050565b7f412062616e6b206f662074686973206e616d6520616c7265616479206578697360008201527f747320696e20746865206e6574776f726b000000000000000000000000000000602082015250565b60006147af6031836135ad565b91506147ba82614753565b604082019050919050565b600060208201905081810360008301526147de816147a2565b9050919050565b6000819050919050565b6000819050919050565b600061481461480f61480a846147e5565b6147ef565b61366b565b9050919050565b614824816147f9565b82525050565b600060a082019050818103600083015261484481886135f1565b9050614853602083018761365c565b818103604083015261486581866135f1565b9050614874606083018561481b565b6148816080830184613750565b9695505050505050565b7f5573657220646f65736e27742065786973742e20506c656173652063616c6c2060008201527f616464437573746f6d657220746f20637265617465206e657720757365720000602082015250565b60006148e7603e836135ad565b91506148f28261488b565b604082019050919050565b60006020820190508181036000830152614916816148da565b905091905056fea26469706673582212209e5cf45ed92795b6b7144f8cbdb8ec6524508f8f09eec07d1cdcfcf51c4ae0b164736f6c63430008090033",
  "immutableReferences": {},
  "source": "// SPDX-License-Identifier: MIT\n\npragma solidity ^0.8.9;\n\ncontract KYC_Contract {\n    constructor() {\n        admin = msg.sender;\n    }\n\n    address admin;\n\n    modifier onlyAdmin() {\n        require(\n            msg.sender == admin,\n            \"You must have admin priviledges to run this\"\n        );\n        _;\n    }\n\n    struct Customer {\n        string username;\n        // hash that points to customer documents in secure storage\n        string customerData;\n        // status of KYC request. if conditions are met, set to true. else false\n        bool kycStatus;\n        // number of upvotes from other banks to customer data\n        uint32 upVotes;\n        // number of downvotes from other banks to customer data\n        uint32 downVotes;\n        // unique address of the validating bank\n        address validatorBankAddress;\n    }\n\n    struct Bank {\n        string name;\n        // unique ethereum address of the bank\n        address ethAddress;\n        // total complaints against the bank by other banks in the network\n        uint32 complaintsReported;\n        //number of KYC requests initiated by bank\n        uint32 KYC_count;\n        // status. if false, bank cannot up/down vote any more customers\n        bool isAllowedToVote;\n        // registration number of the bank\n        string regNumber;\n    }\n\n    struct KYC_Request {\n        // map KYC request to customer data\n        string username;\n        // hash that points to customer documents in secure storage\n        string customerData;\n        // unique account address of the bank\n        address bankAddress;\n    }\n\n    // count of total banks in the network\n    uint32 totalBanks;\n\n    /* Mappings */\n\n    // customer name to view customer details\n    mapping(string => Customer) customers;\n\n    // unique bank address to view bank details\n    mapping(address => Bank) banks;\n\n    // customer name to view KYC requests\n    mapping(string => KYC_Request) KYC_requests;\n\n    // keep track of up votes for the customer by all the banks in the network\n    mapping(string => mapping(address => uint8)) up_votes;\n\n    // keep track of down votes for the customer by all the banks in the network\n    mapping(string => mapping(address => uint8)) down_votes;\n\n    // make sure all bank registration numbers are unique\n    mapping(string => bool) bank_registration_numbers;\n\n    // keep track of banks added to the network\n    mapping(address => bool) added_banks;\n\n    // keep track of bank names added to the system\n    mapping(string => bool) bank_names;\n\n    /* Events */\n\n    event AddKYCRequest(\n        string _customerName,\n        string _customerData,\n        address KYCRequestingBank\n    );\n    event RemoveKYCRequest(string _customerName, address KYCRemovingBank);\n\n    event AddCustomer(\n        string _customerName,\n        string _customerData,\n        address validatorBank\n    );\n    event ModifyCustomer(\n        string _customerName,\n        string _newCustomerData,\n        address bankAddress\n    );\n\n    event CustomerKYCStatus(string _customerName, bool _KYCStatus);\n\n    event UpVoteCustomer(string _customerName, address bankAddress);\n    event RemoveUpVoteCustomer(string _customerName, address bankAddress);\n\n    event DownVoteCustomer(string _customerName, address bankAddress);\n    event RemoveDownVoteCustomer(string _customerName, address bankAddress);\n\n    event ReportBank(\n        address _bankAddress,\n        address reportingBank,\n        bool isAllowedToVote\n    );\n\n    event AddBank(\n        string _bankName,\n        address _bankAddress,\n        string _bankRegistration,\n        uint32 _complaintsReported,\n        bool _KYCPermission\n    );\n\n    event ModifyIfBankAllowedToVote(\n        address _bankAddress,\n        bool _isAllowedToVote\n    );\n\n    event RemoveBank(address _bankAddress);\n\n    /**\n     * Record a new KYC request on behalf of a customer\n     * Bank is the sender of this request\n     * @param _customerName The name of the customer for whom KYC is to be done\n     * @param _customerData The hash of the customer data being requested\n     * @return bool confirmation that KYC request was added\n     */\n    function addKYCRequest(\n        string memory _customerName,\n        string memory _customerData\n    ) public returns (bool) {\n        // require that the request the bank is making isn't a duplicate\n        require(\n            !(KYC_requests[_customerName].bankAddress == msg.sender),\n            \"A KYC request already exists for this user from this bank\"\n        );\n\n        require(\n            compareStringsbyBytes(\n                customers[_customerName].customerData,\n                _customerData\n            ),\n            \"Please check hash. This record doesn't exist\"\n        );\n\n        // update KYC requests mapping\n        KYC_requests[_customerName].username = _customerName;\n        KYC_requests[_customerName].customerData = _customerData;\n        KYC_requests[_customerName].bankAddress = msg.sender;\n\n        // add KYC requests made by this bank\n        banks[msg.sender].KYC_count++;\n\n        emit AddKYCRequest(_customerName, _customerData, msg.sender);\n        return true;\n    }\n\n    /**\n     * Remove KYC request\n     * @param _customerName The name of the customer for whom KYC is to be removed\n     * @return bool confirmation that KYC request was removed\n     */\n    function removeKYCRequest(string memory _customerName)\n        public\n        returns (bool)\n    {\n        // require that the username in fact exists as a KYC request\n        require(\n            (KYC_requests[_customerName].bankAddress == msg.sender),\n            \"No KYC request exists for this customer. Please use addKYCRequest function\"\n        );\n\n        require(\n            compareStringsbyBytes(\n                customers[_customerName].username,\n                _customerName\n            ),\n            \"No request exists for this customer. Please use addKYCRequest function\"\n        );\n\n        // delete the customer's KYC request\n        delete KYC_requests[_customerName];\n\n        // reduce KYC requests made by this bank\n        banks[msg.sender].KYC_count--;\n\n        emit RemoveKYCRequest(_customerName, msg.sender);\n        return true;\n    }\n\n    /**\n     * View customer information\n     * @param _customerName Name of the customer\n     * @return struct Customer\n     */\n    function viewCustomer(string memory _customerName)\n        public\n        view\n        returns (\n            string memory,\n            string memory,\n            address,\n            uint32,\n            uint32\n        )\n    {\n        require(\n            customers[_customerName].validatorBankAddress ==\n                address(msg.sender),\n            \"User doesn't exist on this database. Use addCustomer to create user\"\n        );\n\n        return (\n            customers[_customerName].username,\n            customers[_customerName].customerData,\n            customers[_customerName].validatorBankAddress,\n            customers[_customerName].upVotes,\n            customers[_customerName].downVotes\n        );\n    }\n\n    /**\n     * Add a new customer\n     * @param _customerName Name of the customer\n     * @param _customerData Hash of the customer docs\n     * @return bool confirmation that user was added\n     */\n    function addCustomer(\n        string memory _customerName,\n        string memory _customerData\n    ) public returns (bool) {\n        require(\n            customers[_customerName].validatorBankAddress == address(0x0),\n            \"User exists. Please call modifyCustomer to make any changes\"\n        );\n\n        customers[_customerName].username = _customerName;\n        customers[_customerName].customerData = _customerData;\n        customers[_customerName].validatorBankAddress = msg.sender;\n\n        // initiate KYC request on creation of customer\n        addKYCRequest(_customerName, _customerData);\n\n        emit AddCustomer(_customerName, _customerData, msg.sender);\n        return true;\n    }\n\n    /**\n     * Modify customer data\n     * @param _customerName Name of the customer\n     * @param _newCustomerData New hash of the updated docs\n     * @return bool confirmation that user was modified\n     */\n    function modifyCustomer(\n        string memory _customerName,\n        string memory _newCustomerData\n    ) public returns (bool) {\n        require(\n            customers[_customerName].validatorBankAddress ==\n                address(msg.sender),\n            \"User doesn't exist. Please call addCustomer to create new user\"\n        );\n\n        customers[_customerName].customerData = _newCustomerData;\n\n        emit ModifyCustomer(_customerName, _newCustomerData, msg.sender);\n        return true;\n    }\n\n    /**\n     * Function to change the KYC status of customer based on up or down votes\n     * @param _customerName Name of the customer to be upvoted\n     * @return bool true if KYC status was updated\n     */\n    function customerKYCStatus(string memory _customerName)\n        public\n        returns (bool)\n    {\n        // solidity doesn't support float or rational numbers\n        // hence we multiply 100 to both sides of the equation\n        uint32 condition1 = customers[_customerName].downVotes * 100;\n        uint32 condition2 = 33 * totalBanks;\n\n        // if total down votes is lesser than a third of the total banks in the network\n        if (condition1 < condition2) {\n            // if upvotes is greater than down votes\n            if (\n                customers[_customerName].upVotes >\n                customers[_customerName].downVotes\n            ) {\n                customers[_customerName].kycStatus = true;\n            } else {\n                customers[_customerName].kycStatus = false;\n            }\n        } else {\n            customers[_customerName].kycStatus = false;\n        }\n\n        emit CustomerKYCStatus(\n            _customerName,\n            customers[_customerName].kycStatus\n        );\n        return true;\n    }\n\n    /**\n     * Function to add a new up vote for a customer\n     * @param _customerName Name of the customer to be upvoted\n     * @return bool confirmation that up votes were updated\n     */\n    function upVoteCustomer(string memory _customerName) public returns (bool) {\n        require(\n            compareStringsbyBytes(\n                _customerName,\n                customers[_customerName].username\n            ),\n            \"Customer doesn't exist. Use addCustomer to create new user\"\n        );\n\n        require(\n            compareStringsbyBytes(\n                KYC_requests[_customerName].username,\n                _customerName\n            ),\n            \"Cannot upvote as no KYC exists for this customer yet.\"\n        );\n\n        require(\n            up_votes[_customerName][msg.sender] == 0,\n            \"Customer has already been upvoted by you.\"\n        );\n\n        // update upVote count\n        customers[_customerName].upVotes++;\n        up_votes[_customerName][msg.sender] = 1;\n\n        // update customer KYC status in light of vote update\n        customerKYCStatus(_customerName);\n\n        emit UpVoteCustomer(_customerName, msg.sender);\n        return true;\n    }\n\n    /**\n     * Function to remove an up vote for a customer\n     * @param _customerName Name of the customer to be upvoted\n     * @return bool confirmation that up votes were updated\n     */\n    function removeUpVoteCustomer(string memory _customerName)\n        public\n        returns (bool)\n    {\n        require(\n            compareStringsbyBytes(\n                _customerName,\n                customers[_customerName].username\n            ),\n            \"Customer doesn't exist. Use addCustomer to create new user\"\n        );\n\n        require(\n            compareStringsbyBytes(\n                KYC_requests[_customerName].username,\n                _customerName\n            ),\n            \"Cannot remove upvote as no KYC exists for this customer yet.\"\n        );\n\n        require(\n            up_votes[_customerName][msg.sender] == 1,\n            \"Customer hasn't been upvoted by you. use upVoteCustomer\"\n        );\n\n        // update upVote count\n        customers[_customerName].upVotes--;\n        up_votes[_customerName][msg.sender] = 0;\n\n        // update customer KYC status in light of vote update\n        customerKYCStatus(_customerName);\n\n        emit RemoveUpVoteCustomer(_customerName, msg.sender);\n        return true;\n    }\n\n    /**\n     * Function to add a new down vote for a customer\n     * @param _customerName Name of the customer to be upvoted\n     * @return bool confirmation that down votes were updated\n     */\n    function downVoteCustomer(string memory _customerName)\n        public\n        returns (bool)\n    {\n        require(\n            compareStringsbyBytes(\n                _customerName,\n                customers[_customerName].username\n            ),\n            \"Customer doesn't exist. Use addCustomer to create new user\"\n        );\n\n        require(\n            compareStringsbyBytes(\n                KYC_requests[_customerName].username,\n                _customerName\n            ),\n            \"Cannot downvote as no KYC exists for this customer yet.\"\n        );\n\n        require(\n            down_votes[_customerName][msg.sender] == 0,\n            \"Customer has already been down voted by you.\"\n        );\n\n        // update downVote count\n        customers[_customerName].downVotes++;\n        down_votes[_customerName][msg.sender] = 1;\n\n        // update customer KYC status in light of vote update\n        customerKYCStatus(_customerName);\n\n        emit DownVoteCustomer(_customerName, msg.sender);\n        return true;\n    }\n\n    /**\n     * Function to remove a down vote for a customer\n     * @param _customerName Name of the customer to be upvoted\n     * @return bool confirmation that down votes were updated\n     */\n    function removeDownVoteCustomer(string memory _customerName)\n        public\n        returns (bool)\n    {\n        require(\n            compareStringsbyBytes(\n                _customerName,\n                customers[_customerName].username\n            ),\n            \"Customer doesn't exist. Use addCustomer to create new user\"\n        );\n\n        require(\n            compareStringsbyBytes(\n                KYC_requests[_customerName].username,\n                _customerName\n            ),\n            \"Cannot remove downvote as no KYC exists for this customer yet.\"\n        );\n\n        require(\n            down_votes[_customerName][msg.sender] == 1,\n            \"Customer hasn't been down voted by you. Use downVoteCustomer.\"\n        );\n\n        // update downVote count\n        customers[_customerName].downVotes--;\n        down_votes[_customerName][msg.sender] = 0;\n\n        // update customer KYC status in light of vote update\n        customerKYCStatus(_customerName);\n\n        emit RemoveDownVoteCustomer(_customerName, msg.sender);\n        return true;\n    }\n\n    /**\n     * View bank information\n     * @param _bankAddress Unique address of the bank\n     * @return struct Bank\n     */\n    function getBankDetails(address _bankAddress)\n        public\n        view\n        returns (\n            string memory,\n            address,\n            uint32,\n            uint32,\n            bool,\n            string memory\n        )\n    {\n        require(\n            banks[_bankAddress].ethAddress == _bankAddress,\n            \"Bank address is incorrect. No such record exists\"\n        );\n\n        return (\n            banks[_bankAddress].name,\n            banks[_bankAddress].ethAddress,\n            banks[_bankAddress].complaintsReported,\n            banks[_bankAddress].KYC_count,\n            banks[_bankAddress].isAllowedToVote,\n            banks[_bankAddress].regNumber\n        );\n    }\n\n    /**\n     * Report a complaint against a bank\n     * @param _bankAddress Unique address of the bank\n     * @return bool confirmation that report was submitted\n     */\n    function reportBank(address _bankAddress) public returns (bool) {\n        require(\n            banks[_bankAddress].ethAddress == _bankAddress,\n            \"Bank address is incorrect. No such record exists\"\n        );\n\n        // update count of the complaints reported\n        banks[_bankAddress].complaintsReported++;\n\n        // solidity doesn't support float or rational numbers\n        // hence we multiply 100 to both sides of the equation\n        uint32 condition1 = banks[_bankAddress].complaintsReported * 100;\n        uint32 condition2 = 33 * totalBanks;\n        if (condition1 > condition2) {\n            banks[_bankAddress].isAllowedToVote = false;\n        }\n\n        emit ReportBank(\n            _bankAddress,\n            msg.sender,\n            banks[_bankAddress].isAllowedToVote\n        );\n        return true;\n    }\n\n    /**\n     * View total number of bank complaints\n     * @param _bankAddress unique address of the bank\n     * @return uint32 total number of bank complaints\n     */\n    function getBankComplaints(address _bankAddress)\n        public\n        view\n        returns (uint32)\n    {\n        require(\n            banks[_bankAddress].ethAddress == _bankAddress,\n            \"Bank address is incorrect. No such record exists\"\n        );\n\n        return banks[_bankAddress].complaintsReported;\n    }\n\n    /**\n     * Add a new bank to the network\n     * @param _bankName name of the bank\n     * @param _bankAddress unique address of the bank\n     * @param _bankRegistration unique registration number of the bank\n     * @return bool New bank has been added to the network\n     */\n    function addBank(\n        string memory _bankName,\n        address _bankAddress,\n        string memory _bankRegistration\n    ) public onlyAdmin returns (bool) {\n        require(\n            added_banks[_bankAddress] == false,\n            \"This bank has already been added\"\n        );\n\n        // require a unique registration number\n        require(\n            bank_registration_numbers[_bankRegistration] == false,\n            \"This registration number has been taken. Please enter another one.\"\n        );\n\n        require(\n            bank_names[_bankName] == false,\n            \"A bank of this name already exists in the network\"\n        );\n\n        banks[_bankAddress].name = _bankName;\n        banks[_bankAddress].ethAddress = _bankAddress;\n        banks[_bankAddress].complaintsReported = 0;\n        banks[_bankAddress].KYC_count = 0;\n        banks[_bankAddress].isAllowedToVote = true;\n        banks[_bankAddress].regNumber = _bankRegistration;\n\n        // update registration number and name mappings\n        bank_registration_numbers[_bankRegistration] = true;\n        added_banks[_bankAddress] = true;\n        bank_names[_bankName] = true;\n\n        // update count of total banks in the network\n        totalBanks++;\n\n        emit AddBank(_bankName, _bankAddress, _bankRegistration, 0, true);\n        return true;\n    }\n\n    /**\n     * Modify if a bank is allowed to vote in the KYC process\n     * @param _bankAddress unique address of the bank\n     * @param _isAllowedToVote boolean value, true if bank is allowed, false if not\n     * @return bool true if bank's voting rights were revoked by admin\n     */\n\n    function modifyIfBankAllowedToVote(\n        address _bankAddress,\n        bool _isAllowedToVote\n    ) public onlyAdmin returns (bool) {\n        require(\n            banks[_bankAddress].ethAddress == _bankAddress,\n            \"Bank address is incorrect. No such record exists\"\n        );\n\n        banks[_bankAddress].isAllowedToVote = _isAllowedToVote;\n\n        emit ModifyIfBankAllowedToVote(_bankAddress, _isAllowedToVote);\n        return true;\n    }\n\n    /**\n     * Remove a bank from the network\n     * @param _bankAddress unique address of the bank\n     * @return bool true if bank has been removed from the network by admin\n     */\n    function removeBank(address _bankAddress) public onlyAdmin returns (bool) {\n        require(\n            banks[_bankAddress].ethAddress == _bankAddress,\n            \"Bank address is incorrect. No such record exists\"\n        );\n\n        delete banks[_bankAddress];\n\n        emit RemoveBank(_bankAddress);\n        return true;\n    }\n\n    // source: https://ethereum.stackexchange.com/questions/45813/compare-strings-in-solidity\n    function compareStringsbyBytes(string memory s1, string memory s2)\n        private\n        pure\n        returns (bool)\n    {\n        return\n            keccak256(abi.encodePacked(s1)) == keccak256(abi.encodePacked(s2));\n    }\n}\n",
  "sourcePath": "/home/dhruv/Desktop/projects/dApp/KYC/contracts/KYC_Contract.sol",
  "compiler": {
    "name": "solc",
    "version": "0.8.9+commit.e5eed63a.Emscripten.clang"
  },
  "schemaVersion": "3.4.3",
  "updatedAt": "2021-12-04T14:10:28.119Z",
  "networkType": "ethereum",
  "devdoc": {
    "kind": "dev",
    "methods": {
      "addBank(string,address,string)": {
        "params": {
          "_bankAddress": "unique address of the bank",
          "_bankName": "name of the bank",
          "_bankRegistration": "unique registration number of the bank"
        },
        "returns": {
          "_0": "bool New bank has been added to the network"
        }
      },
      "addCustomer(string,string)": {
        "params": {
          "_customerData": "Hash of the customer docs",
          "_customerName": "Name of the customer"
        },
        "returns": {
          "_0": "bool confirmation that user was added"
        }
      },
      "addKYCRequest(string,string)": {
        "params": {
          "_customerData": "The hash of the customer data being requested",
          "_customerName": "The name of the customer for whom KYC is to be done"
        },
        "returns": {
          "_0": "bool confirmation that KYC request was added"
        }
      },
      "customerKYCStatus(string)": {
        "params": {
          "_customerName": "Name of the customer to be upvoted"
        },
        "returns": {
          "_0": "bool true if KYC status was updated"
        }
      },
      "downVoteCustomer(string)": {
        "params": {
          "_customerName": "Name of the customer to be upvoted"
        },
        "returns": {
          "_0": "bool confirmation that down votes were updated"
        }
      },
      "getBankComplaints(address)": {
        "params": {
          "_bankAddress": "unique address of the bank"
        },
        "returns": {
          "_0": "uint32 total number of bank complaints"
        }
      },
      "getBankDetails(address)": {
        "params": {
          "_bankAddress": "Unique address of the bank"
        },
        "returns": {
          "_0": "struct Bank"
        }
      },
      "modifyCustomer(string,string)": {
        "params": {
          "_customerName": "Name of the customer",
          "_newCustomerData": "New hash of the updated docs"
        },
        "returns": {
          "_0": "bool confirmation that user was modified"
        }
      },
      "modifyIfBankAllowedToVote(address,bool)": {
        "params": {
          "_bankAddress": "unique address of the bank",
          "_isAllowedToVote": "boolean value, true if bank is allowed, false if not"
        },
        "returns": {
          "_0": "bool true if bank's voting rights were revoked by admin"
        }
      },
      "removeBank(address)": {
        "params": {
          "_bankAddress": "unique address of the bank"
        },
        "returns": {
          "_0": "bool true if bank has been removed from the network by admin"
        }
      },
      "removeDownVoteCustomer(string)": {
        "params": {
          "_customerName": "Name of the customer to be upvoted"
        },
        "returns": {
          "_0": "bool confirmation that down votes were updated"
        }
      },
      "removeKYCRequest(string)": {
        "params": {
          "_customerName": "The name of the customer for whom KYC is to be removed"
        },
        "returns": {
          "_0": "bool confirmation that KYC request was removed"
        }
      },
      "removeUpVoteCustomer(string)": {
        "params": {
          "_customerName": "Name of the customer to be upvoted"
        },
        "returns": {
          "_0": "bool confirmation that up votes were updated"
        }
      },
      "reportBank(address)": {
        "params": {
          "_bankAddress": "Unique address of the bank"
        },
        "returns": {
          "_0": "bool confirmation that report was submitted"
        }
      },
      "upVoteCustomer(string)": {
        "params": {
          "_customerName": "Name of the customer to be upvoted"
        },
        "returns": {
          "_0": "bool confirmation that up votes were updated"
        }
      },
      "viewCustomer(string)": {
        "params": {
          "_customerName": "Name of the customer"
        },
        "returns": {
          "_0": "struct Customer"
        }
      }
    },
    "version": 1
  },
  "userdoc": {
    "kind": "user",
    "methods": {
      "addBank(string,address,string)": {
        "notice": "Add a new bank to the network"
      },
      "addCustomer(string,string)": {
        "notice": "Add a new customer"
      },
      "addKYCRequest(string,string)": {
        "notice": "Record a new KYC request on behalf of a customer Bank is the sender of this request"
      },
      "customerKYCStatus(string)": {
        "notice": "Function to change the KYC status of customer based on up or down votes"
      },
      "downVoteCustomer(string)": {
        "notice": "Function to add a new down vote for a customer"
      },
      "getBankComplaints(address)": {
        "notice": "View total number of bank complaints"
      },
      "getBankDetails(address)": {
        "notice": "View bank information"
      },
      "modifyCustomer(string,string)": {
        "notice": "Modify customer data"
      },
      "modifyIfBankAllowedToVote(address,bool)": {
        "notice": "Modify if a bank is allowed to vote in the KYC process"
      },
      "removeBank(address)": {
        "notice": "Remove a bank from the network"
      },
      "removeDownVoteCustomer(string)": {
        "notice": "Function to remove a down vote for a customer"
      },
      "removeKYCRequest(string)": {
        "notice": "Remove KYC request"
      },
      "removeUpVoteCustomer(string)": {
        "notice": "Function to remove an up vote for a customer"
      },
      "reportBank(address)": {
        "notice": "Report a complaint against a bank"
      },
      "upVoteCustomer(string)": {
        "notice": "Function to add a new up vote for a customer"
      },
      "viewCustomer(string)": {
        "notice": "View customer information"
      }
    },
    "version": 1
  }
}