{
  "contractName": "KYC_Contract",
  "abi": [
    {
      "inputs": [],
      "stateMutability": "nonpayable",
      "type": "constructor"
    },
    {
      "anonymous": false,
      "inputs": [
        {
          "indexed": false,
          "internalType": "string",
          "name": "_customerName",
          "type": "string"
        },
        {
          "indexed": false,
          "internalType": "string",
          "name": "_customerData",
          "type": "string"
        },
        {
          "indexed": false,
          "internalType": "address",
          "name": "validatorBank",
          "type": "address"
        }
      ],
      "name": "AddCustomer",
      "type": "event"
    },
    {
      "anonymous": false,
      "inputs": [
        {
          "indexed": false,
          "internalType": "string",
          "name": "_customerName",
          "type": "string"
        },
        {
          "indexed": false,
          "internalType": "string",
          "name": "_customerData",
          "type": "string"
        },
        {
          "indexed": false,
          "internalType": "address",
          "name": "KYCRequestingBank",
          "type": "address"
        }
      ],
      "name": "AddKYCRequest",
      "type": "event"
    },
    {
      "anonymous": false,
      "inputs": [
        {
          "indexed": false,
          "internalType": "string",
          "name": "_customerName",
          "type": "string"
        },
        {
          "indexed": false,
          "internalType": "address",
          "name": "bankAddress",
          "type": "address"
        }
      ],
      "name": "DownVoteCustomer",
      "type": "event"
    },
    {
      "anonymous": false,
      "inputs": [
        {
          "indexed": false,
          "internalType": "string",
          "name": "_customerName",
          "type": "string"
        },
        {
          "indexed": false,
          "internalType": "string",
          "name": "_newCustomerData",
          "type": "string"
        },
        {
          "indexed": false,
          "internalType": "address",
          "name": "bankAddress",
          "type": "address"
        }
      ],
      "name": "ModifyCustomer",
      "type": "event"
    },
    {
      "anonymous": false,
      "inputs": [
        {
          "indexed": false,
          "internalType": "string",
          "name": "_customerName",
          "type": "string"
        },
        {
          "indexed": false,
          "internalType": "address",
          "name": "bankAddress",
          "type": "address"
        }
      ],
      "name": "RemoveDownVoteCustomer",
      "type": "event"
    },
    {
      "anonymous": false,
      "inputs": [
        {
          "indexed": false,
          "internalType": "string",
          "name": "_customerName",
          "type": "string"
        },
        {
          "indexed": false,
          "internalType": "address",
          "name": "KYCRemovingBank",
          "type": "address"
        }
      ],
      "name": "RemoveKYCRequest",
      "type": "event"
    },
    {
      "anonymous": false,
      "inputs": [
        {
          "indexed": false,
          "internalType": "string",
          "name": "_customerName",
          "type": "string"
        },
        {
          "indexed": false,
          "internalType": "address",
          "name": "bankAddress",
          "type": "address"
        }
      ],
      "name": "RemoveUpVoteCustomer",
      "type": "event"
    },
    {
      "anonymous": false,
      "inputs": [
        {
          "indexed": false,
          "internalType": "string",
          "name": "_customerName",
          "type": "string"
        },
        {
          "indexed": false,
          "internalType": "address",
          "name": "bankAddress",
          "type": "address"
        }
      ],
      "name": "UpVoteCustomer",
      "type": "event"
    },
    {
      "inputs": [
        {
          "internalType": "string",
          "name": "_customerName",
          "type": "string"
        },
        {
          "internalType": "string",
          "name": "_customerData",
          "type": "string"
        }
      ],
      "name": "addKYCRequest",
      "outputs": [
        {
          "internalType": "bool",
          "name": "",
          "type": "bool"
        }
      ],
      "stateMutability": "nonpayable",
      "type": "function"
    },
    {
      "inputs": [
        {
          "internalType": "string",
          "name": "_customerName",
          "type": "string"
        }
      ],
      "name": "removeKYCRequest",
      "outputs": [
        {
          "internalType": "bool",
          "name": "",
          "type": "bool"
        }
      ],
      "stateMutability": "nonpayable",
      "type": "function"
    },
    {
      "inputs": [
        {
          "internalType": "string",
          "name": "_customerName",
          "type": "string"
        }
      ],
      "name": "viewCustomer",
      "outputs": [
        {
          "internalType": "string",
          "name": "",
          "type": "string"
        },
        {
          "internalType": "string",
          "name": "",
          "type": "string"
        },
        {
          "internalType": "address",
          "name": "",
          "type": "address"
        },
        {
          "internalType": "uint32",
          "name": "",
          "type": "uint32"
        },
        {
          "internalType": "uint32",
          "name": "",
          "type": "uint32"
        }
      ],
      "stateMutability": "view",
      "type": "function",
      "constant": true
    },
    {
      "inputs": [
        {
          "internalType": "string",
          "name": "_customerName",
          "type": "string"
        },
        {
          "internalType": "string",
          "name": "_customerData",
          "type": "string"
        }
      ],
      "name": "addCustomer",
      "outputs": [
        {
          "internalType": "bool",
          "name": "",
          "type": "bool"
        }
      ],
      "stateMutability": "nonpayable",
      "type": "function"
    },
    {
      "inputs": [
        {
          "internalType": "string",
          "name": "_customerName",
          "type": "string"
        },
        {
          "internalType": "string",
          "name": "_newCustomerData",
          "type": "string"
        }
      ],
      "name": "modifyCustomer",
      "outputs": [
        {
          "internalType": "bool",
          "name": "",
          "type": "bool"
        }
      ],
      "stateMutability": "nonpayable",
      "type": "function"
    },
    {
      "inputs": [
        {
          "internalType": "string",
          "name": "_customerName",
          "type": "string"
        }
      ],
      "name": "upVoteCustomer",
      "outputs": [
        {
          "internalType": "bool",
          "name": "",
          "type": "bool"
        }
      ],
      "stateMutability": "nonpayable",
      "type": "function"
    },
    {
      "inputs": [
        {
          "internalType": "string",
          "name": "_customerName",
          "type": "string"
        }
      ],
      "name": "removeUpVoteCustomer",
      "outputs": [
        {
          "internalType": "bool",
          "name": "",
          "type": "bool"
        }
      ],
      "stateMutability": "nonpayable",
      "type": "function"
    },
    {
      "inputs": [
        {
          "internalType": "string",
          "name": "_customerName",
          "type": "string"
        }
      ],
      "name": "downVoteCustomer",
      "outputs": [
        {
          "internalType": "bool",
          "name": "",
          "type": "bool"
        }
      ],
      "stateMutability": "nonpayable",
      "type": "function"
    },
    {
      "inputs": [
        {
          "internalType": "string",
          "name": "_customerName",
          "type": "string"
        }
      ],
      "name": "removeDownVoteCustomer",
      "outputs": [
        {
          "internalType": "bool",
          "name": "",
          "type": "bool"
        }
      ],
      "stateMutability": "nonpayable",
      "type": "function"
    },
    {
      "inputs": [
        {
          "internalType": "address",
          "name": "_bankAddress",
          "type": "address"
        }
      ],
      "name": "getBankComplaints",
      "outputs": [
        {
          "internalType": "uint32",
          "name": "",
          "type": "uint32"
        }
      ],
      "stateMutability": "view",
      "type": "function",
      "constant": true
    }
  ],
  "bytecode": "0x608060405234801561001057600080fd5b50336000806101000a81548173ffffffffffffffffffffffffffffffffffffffff021916908373ffffffffffffffffffffffffffffffffffffffff16021790555061295e806100606000396000f3fe608060405234801561001057600080fd5b506004361061009e5760003560e01c806382e0438a1161006657806382e0438a14610197578063ba03ef3a146101c7578063bd561e14146101f7578063cae55c3f14610227578063f72860ca146102575761009e565b8063107925bb146100a35780631e8eba6e146100d75780633190abc014610107578063569e64bc146101375780635ec2a7f214610167575b600080fd5b6100bd60048036038101906100b89190611ce9565b610287565b6040516100ce959493929190611e1a565b60405180910390f35b6100f160048036038101906100ec9190611ce9565b610551565b6040516100fe9190611e96565b60405180910390f35b610121600480360381019061011c9190611eb1565b61081f565b60405161012e9190611e96565b60405180910390f35b610151600480360381019061014c9190611ce9565b6109e1565b60405161015e9190611e96565b60405180910390f35b610181600480360381019061017c9190611f55565b610c9a565b60405161018e9190611f82565b60405180910390f35b6101b160048036038101906101ac9190611ce9565b610dc6565b6040516101be9190611e96565b60405180910390f35b6101e160048036038101906101dc9190611ce9565b61107f565b6040516101ee9190611e96565b60405180910390f35b610211600480360381019061020c9190611eb1565b611338565b60405161021e9190611e96565b60405180910390f35b610241600480360381019061023c9190611ce9565b61166e565b60405161024e9190611e96565b60405180910390f35b610271600480360381019061026c9190611eb1565b611927565b60405161027e9190611e96565b60405180910390f35b60608060008060003373ffffffffffffffffffffffffffffffffffffffff166001876040516102b69190611fd9565b908152602001604051809103902060020160099054906101000a900473ffffffffffffffffffffffffffffffffffffffff1673ffffffffffffffffffffffffffffffffffffffff161461033e576040517f08c379a000000000000000000000000000000000000000000000000000000000815260040161033590612088565b60405180910390fd5b60018660405161034e9190611fd9565b908152602001604051809103902060000160018760405161036f9190611fd9565b90815260200160405180910390206001016001886040516103909190611fd9565b908152602001604051809103902060020160099054906101000a900473ffffffffffffffffffffffffffffffffffffffff166001896040516103d29190611fd9565b908152602001604051809103902060020160019054906101000a900463ffffffff1660018a6040516104049190611fd9565b908152602001604051809103902060020160059054906101000a900463ffffffff16848054610432906120d7565b80601f016020809104026020016040519081016040528092919081815260200182805461045e906120d7565b80156104ab5780601f10610480576101008083540402835291602001916104ab565b820191906000526020600020905b81548152906001019060200180831161048e57829003601f168201915b505050505094508380546104be906120d7565b80601f01602080910402602001604051908101604052809291908181526020018280546104ea906120d7565b80156105375780601f1061050c57610100808354040283529160200191610537565b820191906000526020600020905b81548152906001019060200180831161051a57829003601f168201915b505050505093509450945094509450945091939590929450565b60003373ffffffffffffffffffffffffffffffffffffffff1660038360405161057a9190611fd9565b908152602001604051809103902060020160009054906101000a900473ffffffffffffffffffffffffffffffffffffffff1673ffffffffffffffffffffffffffffffffffffffff1614610602576040517f08c379a00000000000000000000000000000000000000000000000000000000081526004016105f9906121a1565b60405180910390fd5b6106b56001836040516106159190611fd9565b90815260200160405180910390206000018054610631906120d7565b80601f016020809104026020016040519081016040528092919081815260200182805461065d906120d7565b80156106aa5780601f1061067f576101008083540402835291602001916106aa565b820191906000526020600020905b81548152906001019060200180831161068d57829003601f168201915b505050505083611a53565b6106f4576040517f08c379a00000000000000000000000000000000000000000000000000000000081526004016106eb90612259565b60405180910390fd5b6003826040516107049190611fd9565b9081526020016040518091039020600080820160006107239190611aac565b6001820160006107339190611aac565b6002820160006101000a81549073ffffffffffffffffffffffffffffffffffffffff02191690555050600260003373ffffffffffffffffffffffffffffffffffffffff1673ffffffffffffffffffffffffffffffffffffffff168152602001908152602001600020600101601881819054906101000a900463ffffffff16809291906107be906122a8565b91906101000a81548163ffffffff021916908363ffffffff160217905550507f496d5d5434647bc8da1b957c8a39657a0fe5021a5ee01bfb6566ee87c56639dd823360405161080e9291906122d2565b60405180910390a160019050919050565b60008073ffffffffffffffffffffffffffffffffffffffff166001846040516108489190611fd9565b908152602001604051809103902060020160099054906101000a900473ffffffffffffffffffffffffffffffffffffffff1673ffffffffffffffffffffffffffffffffffffffff16146108d0576040517f08c379a00000000000000000000000000000000000000000000000000000000081526004016108c790612374565b60405180910390fd5b826001846040516108e19190611fd9565b90815260200160405180910390206000019080519060200190610905929190611aec565b50816001846040516109179190611fd9565b9081526020016040518091039020600101908051906020019061093b929190611aec565b503360018460405161094d9190611fd9565b908152602001604051809103902060020160096101000a81548173ffffffffffffffffffffffffffffffffffffffff021916908373ffffffffffffffffffffffffffffffffffffffff1602179055507f720f91ef7267a7db0cf726ddb013dd753364a2e1e65319cd32e1d96c3aa38dbd8383336040516109cf93929190612394565b60405180910390a16001905092915050565b6000610a96826001846040516109f79190611fd9565b90815260200160405180910390206000018054610a13906120d7565b80601f0160208091040260200160405190810160405280929190818152602001828054610a3f906120d7565b8015610a8c5780601f10610a6157610100808354040283529160200191610a8c565b820191906000526020600020905b815481529060010190602001808311610a6f57829003601f168201915b5050505050611a53565b610ad5576040517f08c379a0000000000000000000000000000000000000000000000000000000008152600401610acc9061244b565b60405180910390fd5b6000600483604051610ae79190611fd9565b908152602001604051809103902060003373ffffffffffffffffffffffffffffffffffffffff1673ffffffffffffffffffffffffffffffffffffffff16815260200190815260200160002060009054906101000a900460ff1660ff1614610b83576040517f08c379a0000000000000000000000000000000000000000000000000000000008152600401610b7a906124dd565b60405180910390fd5b600182604051610b939190611fd9565b9081526020016040518091039020600201600181819054906101000a900463ffffffff1680929190610bc4906124fd565b91906101000a81548163ffffffff021916908363ffffffff160217905550506001600483604051610bf59190611fd9565b908152602001604051809103902060003373ffffffffffffffffffffffffffffffffffffffff1673ffffffffffffffffffffffffffffffffffffffff16815260200190815260200160002060006101000a81548160ff021916908360ff1602179055507f8204fd0d7ac1bb685e9147e1259497a085786f9ec68e8b44514f432d7d7fdfe18233604051610c899291906122d2565b60405180910390a160019050919050565b60008173ffffffffffffffffffffffffffffffffffffffff16600260008473ffffffffffffffffffffffffffffffffffffffff1673ffffffffffffffffffffffffffffffffffffffff16815260200190815260200160002060010160009054906101000a900473ffffffffffffffffffffffffffffffffffffffff1673ffffffffffffffffffffffffffffffffffffffff1614610d6c576040517f08c379a0000000000000000000000000000000000000000000000000000000008152600401610d639061259c565b60405180910390fd5b600260008373ffffffffffffffffffffffffffffffffffffffff1673ffffffffffffffffffffffffffffffffffffffff16815260200190815260200160002060010160149054906101000a900463ffffffff169050919050565b6000610e7b82600184604051610ddc9190611fd9565b90815260200160405180910390206000018054610df8906120d7565b80601f0160208091040260200160405190810160405280929190818152602001828054610e24906120d7565b8015610e715780601f10610e4657610100808354040283529160200191610e71565b820191906000526020600020905b815481529060010190602001808311610e5457829003601f168201915b5050505050611a53565b610eba576040517f08c379a0000000000000000000000000000000000000000000000000000000008152600401610eb19061244b565b60405180910390fd5b6000600583604051610ecc9190611fd9565b908152602001604051809103902060003373ffffffffffffffffffffffffffffffffffffffff1673ffffffffffffffffffffffffffffffffffffffff16815260200190815260200160002060009054906101000a900460ff1660ff1614610f68576040517f08c379a0000000000000000000000000000000000000000000000000000000008152600401610f5f9061262e565b60405180910390fd5b600182604051610f789190611fd9565b9081526020016040518091039020600201600581819054906101000a900463ffffffff1680929190610fa9906124fd565b91906101000a81548163ffffffff021916908363ffffffff160217905550506001600583604051610fda9190611fd9565b908152602001604051809103902060003373ffffffffffffffffffffffffffffffffffffffff1673ffffffffffffffffffffffffffffffffffffffff16815260200190815260200160002060006101000a81548160ff021916908360ff1602179055507ff76612a4db926c845e0a50031eb928cbbf707428872d88840995c7b8da5f4145823360405161106e9291906122d2565b60405180910390a160019050919050565b6000611134826001846040516110959190611fd9565b908152602001604051809103902060000180546110b1906120d7565b80601f01602080910402602001604051908101604052809291908181526020018280546110dd906120d7565b801561112a5780601f106110ff5761010080835404028352916020019161112a565b820191906000526020600020905b81548152906001019060200180831161110d57829003601f168201915b5050505050611a53565b611173576040517f08c379a000000000000000000000000000000000000000000000000000000000815260040161116a9061244b565b60405180910390fd5b60016005836040516111859190611fd9565b908152602001604051809103902060003373ffffffffffffffffffffffffffffffffffffffff1673ffffffffffffffffffffffffffffffffffffffff16815260200190815260200160002060009054906101000a900460ff1660ff1614611221576040517f08c379a0000000000000000000000000000000000000000000000000000000008152600401611218906126c0565b60405180910390fd5b6001826040516112319190611fd9565b9081526020016040518091039020600201600581819054906101000a900463ffffffff1680929190611262906122a8565b91906101000a81548163ffffffff021916908363ffffffff1602179055505060006005836040516112939190611fd9565b908152602001604051809103902060003373ffffffffffffffffffffffffffffffffffffffff1673ffffffffffffffffffffffffffffffffffffffff16815260200190815260200160002060006101000a81548160ff021916908360ff1602179055507f884e374f9a1d1ef39e4f98a04c2a047354902ad3143ff7a278d9937b56e114d082336040516113279291906122d2565b60405180910390a160019050919050565b60003373ffffffffffffffffffffffffffffffffffffffff166003846040516113619190611fd9565b908152602001604051809103902060020160009054906101000a900473ffffffffffffffffffffffffffffffffffffffff1673ffffffffffffffffffffffffffffffffffffffff1614156113ea576040517f08c379a00000000000000000000000000000000000000000000000000000000081526004016113e190612752565b60405180910390fd5b61149d6001846040516113fd9190611fd9565b90815260200160405180910390206001018054611419906120d7565b80601f0160208091040260200160405190810160405280929190818152602001828054611445906120d7565b80156114925780601f1061146757610100808354040283529160200191611492565b820191906000526020600020905b81548152906001019060200180831161147557829003601f168201915b505050505083611a53565b6114dc576040517f08c379a00000000000000000000000000000000000000000000000000000000081526004016114d3906127e4565b60405180910390fd5b826003846040516114ed9190611fd9565b90815260200160405180910390206000019080519060200190611511929190611aec565b50816003846040516115239190611fd9565b90815260200160405180910390206001019080519060200190611547929190611aec565b50336003846040516115599190611fd9565b908152602001604051809103902060020160006101000a81548173ffffffffffffffffffffffffffffffffffffffff021916908373ffffffffffffffffffffffffffffffffffffffff160217905550600260003373ffffffffffffffffffffffffffffffffffffffff1673ffffffffffffffffffffffffffffffffffffffff168152602001908152602001600020600101601881819054906101000a900463ffffffff168092919061160a906124fd565b91906101000a81548163ffffffff021916908363ffffffff160217905550507f7fbec8867635bbaab7103c5d6cc8b0ef0767df0159177b6a07b8dbd5afba08cf83833360405161165c93929190612394565b60405180910390a16001905092915050565b6000611723826001846040516116849190611fd9565b908152602001604051809103902060000180546116a0906120d7565b80601f01602080910402602001604051908101604052809291908181526020018280546116cc906120d7565b80156117195780601f106116ee57610100808354040283529160200191611719565b820191906000526020600020905b8154815290600101906020018083116116fc57829003601f168201915b5050505050611a53565b611762576040517f08c379a00000000000000000000000000000000000000000000000000000000081526004016117599061244b565b60405180910390fd5b60016004836040516117749190611fd9565b908152602001604051809103902060003373ffffffffffffffffffffffffffffffffffffffff1673ffffffffffffffffffffffffffffffffffffffff16815260200190815260200160002060009054906101000a900460ff1660ff1614611810576040517f08c379a000000000000000000000000000000000000000000000000000000000815260040161180790612876565b60405180910390fd5b6001826040516118209190611fd9565b9081526020016040518091039020600201600181819054906101000a900463ffffffff1680929190611851906122a8565b91906101000a81548163ffffffff021916908363ffffffff1602179055505060006004836040516118829190611fd9565b908152602001604051809103902060003373ffffffffffffffffffffffffffffffffffffffff1673ffffffffffffffffffffffffffffffffffffffff16815260200190815260200160002060006101000a81548160ff021916908360ff1602179055507fb16a6a90c9dc1e72f7d5f1fd2bb19bfe10570dd0f64cc907ba4561c1b252e98782336040516119169291906122d2565b60405180910390a160019050919050565b60003373ffffffffffffffffffffffffffffffffffffffff166001846040516119509190611fd9565b908152602001604051809103902060020160099054906101000a900473ffffffffffffffffffffffffffffffffffffffff1673ffffffffffffffffffffffffffffffffffffffff16146119d8576040517f08c379a00000000000000000000000000000000000000000000000000000000081526004016119cf90612908565b60405180910390fd5b816001846040516119e99190611fd9565b90815260200160405180910390206001019080519060200190611a0d929190611aec565b507f31d240a9505c05976d93451a6c6c97988c5719ef448ebed149c0e8e534a48129838333604051611a4193929190612394565b60405180910390a16001905092915050565b600081604051602001611a669190611fd9565b6040516020818303038152906040528051906020012083604051602001611a8d9190611fd9565b6040516020818303038152906040528051906020012014905092915050565b508054611ab8906120d7565b6000825580601f10611aca5750611ae9565b601f016020900490600052602060002090810190611ae89190611b72565b5b50565b828054611af8906120d7565b90600052602060002090601f016020900481019282611b1a5760008555611b61565b82601f10611b3357805160ff1916838001178555611b61565b82800160010185558215611b61579182015b82811115611b60578251825591602001919060010190611b45565b5b509050611b6e9190611b72565b5090565b5b80821115611b8b576000816000905550600101611b73565b5090565b6000604051905090565b600080fd5b600080fd5b600080fd5b600080fd5b6000601f19601f8301169050919050565b7f4e487b7100000000000000000000000000000000000000000000000000000000600052604160045260246000fd5b611bf682611bad565b810181811067ffffffffffffffff82111715611c1557611c14611bbe565b5b80604052505050565b6000611c28611b8f565b9050611c348282611bed565b919050565b600067ffffffffffffffff821115611c5457611c53611bbe565b5b611c5d82611bad565b9050602081019050919050565b82818337600083830152505050565b6000611c8c611c8784611c39565b611c1e565b905082815260208101848484011115611ca857611ca7611ba8565b5b611cb3848285611c6a565b509392505050565b600082601f830112611cd057611ccf611ba3565b5b8135611ce0848260208601611c79565b91505092915050565b600060208284031215611cff57611cfe611b99565b5b600082013567ffffffffffffffff811115611d1d57611d1c611b9e565b5b611d2984828501611cbb565b91505092915050565b600081519050919050565b600082825260208201905092915050565b60005b83811015611d6c578082015181840152602081019050611d51565b83811115611d7b576000848401525b50505050565b6000611d8c82611d32565b611d968185611d3d565b9350611da6818560208601611d4e565b611daf81611bad565b840191505092915050565b600073ffffffffffffffffffffffffffffffffffffffff82169050919050565b6000611de582611dba565b9050919050565b611df581611dda565b82525050565b600063ffffffff82169050919050565b611e1481611dfb565b82525050565b600060a0820190508181036000830152611e348188611d81565b90508181036020830152611e488187611d81565b9050611e576040830186611dec565b611e646060830185611e0b565b611e716080830184611e0b565b9695505050505050565b60008115159050919050565b611e9081611e7b565b82525050565b6000602082019050611eab6000830184611e87565b92915050565b60008060408385031215611ec857611ec7611b99565b5b600083013567ffffffffffffffff811115611ee657611ee5611b9e565b5b611ef285828601611cbb565b925050602083013567ffffffffffffffff811115611f1357611f12611b9e565b5b611f1f85828601611cbb565b9150509250929050565b611f3281611dda565b8114611f3d57600080fd5b50565b600081359050611f4f81611f29565b92915050565b600060208284031215611f6b57611f6a611b99565b5b6000611f7984828501611f40565b91505092915050565b6000602082019050611f976000830184611e0b565b92915050565b600081905092915050565b6000611fb382611d32565b611fbd8185611f9d565b9350611fcd818560208601611d4e565b80840191505092915050565b6000611fe58284611fa8565b915081905092915050565b7f5573657220646f65736e2774206578697374206f6e207468697320646174616260008201527f6173652e2055736520616464437573746f6d657220746f20637265617465207560208201527f7365720000000000000000000000000000000000000000000000000000000000604082015250565b6000612072604383611d3d565b915061207d82611ff0565b606082019050919050565b600060208201905081810360008301526120a181612065565b9050919050565b7f4e487b7100000000000000000000000000000000000000000000000000000000600052602260045260246000fd5b600060028204905060018216806120ef57607f821691505b60208210811415612103576121026120a8565b5b50919050565b7f4e6f204b594320726571756573742065786973747320666f722074686973206360008201527f7573746f6d65722e20506c6561736520757365206164644b594352657175657360208201527f742066756e6374696f6e00000000000000000000000000000000000000000000604082015250565b600061218b604a83611d3d565b915061219682612109565b606082019050919050565b600060208201905081810360008301526121ba8161217e565b9050919050565b7f4e6f20726571756573742065786973747320666f72207468697320637573746f60008201527f6d65722e20506c6561736520757365206164644b59435265717565737420667560208201527f6e6374696f6e0000000000000000000000000000000000000000000000000000604082015250565b6000612243604683611d3d565b915061224e826121c1565b606082019050919050565b6000602082019050818103600083015261227281612236565b9050919050565b7f4e487b7100000000000000000000000000000000000000000000000000000000600052601160045260246000fd5b60006122b382611dfb565b915060008214156122c7576122c6612279565b5b600182039050919050565b600060408201905081810360008301526122ec8185611d81565b90506122fb6020830184611dec565b9392505050565b7f55736572206578697374732e20506c656173652063616c6c206d6f646966794360008201527f7573746f6d657220746f206d616b6520616e79206368616e6765730000000000602082015250565b600061235e603b83611d3d565b915061236982612302565b604082019050919050565b6000602082019050818103600083015261238d81612351565b9050919050565b600060608201905081810360008301526123ae8186611d81565b905081810360208301526123c28185611d81565b90506123d16040830184611dec565b949350505050565b7f437573746f6d657220646f65736e27742065786973742e20557365206164644360008201527f7573746f6d657220746f20637265617465206e65772075736572000000000000602082015250565b6000612435603a83611d3d565b9150612440826123d9565b604082019050919050565b6000602082019050818103600083015261246481612428565b9050919050565b7f437573746f6d65722068617320616c7265616479206265656e207570766f746560008201527f6420627920796f752e0000000000000000000000000000000000000000000000602082015250565b60006124c7602983611d3d565b91506124d28261246b565b604082019050919050565b600060208201905081810360008301526124f6816124ba565b9050919050565b600061250882611dfb565b915063ffffffff82141561251f5761251e612279565b5b600182019050919050565b7f42616e6b206164647265737320697320696e636f72726563742e204e6f20737560008201527f6368207265636f72642065786973747300000000000000000000000000000000602082015250565b6000612586603083611d3d565b91506125918261252a565b604082019050919050565b600060208201905081810360008301526125b581612579565b9050919050565b7f437573746f6d65722068617320616c7265616479206265656e20646f776e207660008201527f6f74656420627920796f752e0000000000000000000000000000000000000000602082015250565b6000612618602c83611d3d565b9150612623826125bc565b604082019050919050565b600060208201905081810360008301526126478161260b565b9050919050565b7f437573746f6d6572206861736e2774206265656e20646f776e20766f7465642060008201527f627920796f752e2055736520646f776e566f7465437573746f6d65722e000000602082015250565b60006126aa603d83611d3d565b91506126b58261264e565b604082019050919050565b600060208201905081810360008301526126d98161269d565b9050919050565b7f41204b5943207265717565737420616c72656164792065786973747320666f7260008201527f207468697320757365722066726f6d20746869732062616e6b00000000000000602082015250565b600061273c603983611d3d565b9150612747826126e0565b604082019050919050565b6000602082019050818103600083015261276b8161272f565b9050919050565b7f506c6561736520636865636b20686173682e2054686973207265636f7264206460008201527f6f65736e27742065786973740000000000000000000000000000000000000000602082015250565b60006127ce602c83611d3d565b91506127d982612772565b604082019050919050565b600060208201905081810360008301526127fd816127c1565b9050919050565b7f437573746f6d6572206861736e2774206265656e207570766f7465642062792060008201527f796f752e20757365207570566f7465437573746f6d6572000000000000000000602082015250565b6000612860603783611d3d565b915061286b82612804565b604082019050919050565b6000602082019050818103600083015261288f81612853565b9050919050565b7f5573657220646f65736e27742065786973742e20506c656173652063616c6c2060008201527f616464437573746f6d657220746f20637265617465206e657720757365720000602082015250565b60006128f2603e83611d3d565b91506128fd82612896565b604082019050919050565b60006020820190508181036000830152612921816128e5565b905091905056fea2646970667358221220999a35b8c36f65884f7cbe2369de1d31347268d00c267a4a0c2e44d7a41c381764736f6c63430008090033",
  "immutableReferences": {},
  "source": "// SPDX-License-Identifier: MIT\n\npragma solidity ^0.8.9;\n\ncontract KYC_Contract {\n    constructor() {\n        admin = msg.sender;\n    }\n\n    address admin;\n\n    modifier onlyAdmin() {\n        require(\n            msg.sender == admin,\n            \"You must have admin priviledges to run this\"\n        );\n        _;\n    }\n\n    struct Customer {\n        string username;\n        // hash that points to customer documents in secure storage\n        string customerData;\n        // status of KYC request. if conditions are met, set to true. else false\n        bool kycRequest;\n        // number of upvotes from other banks to customer data\n        uint32 upVotes;\n        // number of downvotes from other banks to customer data\n        uint32 downVotes;\n        // unique address of the validating bank\n        address validatorBankAddress;\n    }\n\n    struct Bank {\n        string name;\n        // unique ethereum address of the bank\n        address ethAddress;\n        // total complaints against the bank by other banks in the network\n        uint32 complaintsReported;\n        //number of KYC requests initiated by bank\n        uint32 KYC_count;\n        // status. if false, bank cannot up/down vote any more customers\n        bool isAllowedToVote;\n        // registration number of the bank\n        string regNumber;\n    }\n\n    // count of total banks in the network\n    uint32 totalBanks;\n\n    struct KYC_Request {\n        // map KYC request to customer data\n        string username;\n        // hash that points to customer documents in secure storage\n        string customerData;\n        // unique account address of the bank\n        address bankAddress;\n    }\n\n    /* Mappings */\n\n    // customer name to view customer details\n    mapping(string => Customer) customers;\n\n    // unique bank address to view bank details\n    mapping(address => Bank) banks;\n\n    // customer name to view KYC requests\n    mapping(string => KYC_Request) KYC_requests;\n\n    // keep track of up votes for the customer by all the banks in the network\n    mapping(string => mapping(address => uint8)) up_votes;\n\n    // keep track of down votes for the customer by all the banks in the network\n    mapping(string => mapping(address => uint8)) down_votes;\n\n    /* Events */\n\n    event AddKYCRequest(\n        string _customerName,\n        string _customerData,\n        address KYCRequestingBank\n    );\n    event RemoveKYCRequest(string _customerName, address KYCRemovingBank);\n\n    event AddCustomer(\n        string _customerName,\n        string _customerData,\n        address validatorBank\n    );\n    event ModifyCustomer(\n        string _customerName,\n        string _newCustomerData,\n        address bankAddress\n    );\n\n    event UpVoteCustomer(string _customerName, address bankAddress);\n    event RemoveUpVoteCustomer(string _customerName, address bankAddress);\n\n    event DownVoteCustomer(string _customerName, address bankAddress);\n    event RemoveDownVoteCustomer(string _customerName, address bankAddress);\n\n    /**\n     * Record a new KYC request on behalf of a customer\n     * Bank is the sender of this request\n     * @param _customerName The name of the customer for whom KYC is to be done\n     * @param _customerData The hash of the customer data being requested\n     * @return bool\n     */\n    function addKYCRequest(\n        string memory _customerName,\n        string memory _customerData\n    ) public returns (bool) {\n        // require that the request the bank is making isn't a duplicate\n        require(\n            !(KYC_requests[_customerName].bankAddress == msg.sender),\n            \"A KYC request already exists for this user from this bank\"\n        );\n\n        require(\n            compareStringsbyBytes(\n                customers[_customerName].customerData,\n                _customerData\n            ),\n            \"Please check hash. This record doesn't exist\"\n        );\n\n        // update KYC requests mapping\n        KYC_requests[_customerName].username = _customerName;\n        KYC_requests[_customerName].customerData = _customerData;\n        KYC_requests[_customerName].bankAddress = msg.sender;\n\n        // add KYC requests made by this bank\n        banks[msg.sender].KYC_count++;\n\n        emit AddKYCRequest(_customerName, _customerData, msg.sender);\n        return true;\n    }\n\n    /**\n     * Remove KYC request\n     * @param _customerName The name of the customer for whom KYC is to be removed\n     * @return bool\n     */\n    function removeKYCRequest(string memory _customerName)\n        public\n        returns (bool)\n    {\n        // require that the username in fact exists as a KYC request\n        require(\n            (KYC_requests[_customerName].bankAddress == msg.sender),\n            \"No KYC request exists for this customer. Please use addKYCRequest function\"\n        );\n\n        require(\n            compareStringsbyBytes(\n                customers[_customerName].username,\n                _customerName\n            ),\n            \"No request exists for this customer. Please use addKYCRequest function\"\n        );\n\n        // delete the customer's KYC request\n        delete KYC_requests[_customerName];\n\n        // reduce KYC requests made by this bank\n        banks[msg.sender].KYC_count--;\n\n        emit RemoveKYCRequest(_customerName, msg.sender);\n        return true;\n    }\n\n    /**\n     * View customer information\n     * @param _customerName Name of the customer\n     * @return struct Customer - The customer struct as an object\n     */\n    function viewCustomer(string memory _customerName)\n        public\n        view\n        returns (\n            string memory,\n            string memory,\n            address,\n            uint32,\n            uint32\n        )\n    {\n        require(\n            customers[_customerName].validatorBankAddress ==\n                address(msg.sender),\n            \"User doesn't exist on this database. Use addCustomer to create user\"\n        );\n\n        return (\n            customers[_customerName].username,\n            customers[_customerName].customerData,\n            customers[_customerName].validatorBankAddress,\n            customers[_customerName].upVotes,\n            customers[_customerName].downVotes\n        );\n    }\n\n    /**\n     * Add a new customer\n     * @param _customerName Name of the customer\n     * @param _customerData Hash of the customer docs\n     * @return bool\n     */\n    function addCustomer(\n        string memory _customerName,\n        string memory _customerData\n    ) public returns (bool) {\n        require(\n            customers[_customerName].validatorBankAddress == address(0x0),\n            \"User exists. Please call modifyCustomer to make any changes\"\n        );\n\n        customers[_customerName].username = _customerName;\n        customers[_customerName].customerData = _customerData;\n        customers[_customerName].validatorBankAddress = msg.sender;\n\n        emit AddCustomer(_customerName, _customerData, msg.sender);\n        return true;\n    }\n\n    /**\n     * Modify customer data\n     * @param _customerName Name of the customer\n     * @param _newCustomerData New hash of the updated docs\n     * @return bool\n     */\n    function modifyCustomer(\n        string memory _customerName,\n        string memory _newCustomerData\n    ) public returns (bool) {\n        require(\n            customers[_customerName].validatorBankAddress ==\n                address(msg.sender),\n            \"User doesn't exist. Please call addCustomer to create new user\"\n        );\n\n        customers[_customerName].customerData = _newCustomerData;\n\n        emit ModifyCustomer(_customerName, _newCustomerData, msg.sender);\n        return true;\n    }\n\n    /**\n     * Function to add a new up vote for a customer\n     * @param _customerName Name of the customer to be upvoted\n     * @return bool\n     */\n    function upVoteCustomer(string memory _customerName) public returns (bool) {\n        require(\n            compareStringsbyBytes(\n                _customerName,\n                customers[_customerName].username\n            ),\n            \"Customer doesn't exist. Use addCustomer to create new user\"\n        );\n\n        require(\n            up_votes[_customerName][msg.sender] == 0,\n            \"Customer has already been upvoted by you.\"\n        );\n\n        // update upVote count\n        customers[_customerName].upVotes++;\n        up_votes[_customerName][msg.sender] = 1;\n\n        emit UpVoteCustomer(_customerName, msg.sender);\n        return true;\n    }\n\n    /**\n     * Function to remove an up vote for a customer\n     * @param _customerName Name of the customer to be upvoted\n     * @return bool\n     */\n    function removeUpVoteCustomer(string memory _customerName)\n        public\n        returns (bool)\n    {\n        require(\n            compareStringsbyBytes(\n                _customerName,\n                customers[_customerName].username\n            ),\n            \"Customer doesn't exist. Use addCustomer to create new user\"\n        );\n\n        require(\n            up_votes[_customerName][msg.sender] == 1,\n            \"Customer hasn't been upvoted by you. use upVoteCustomer\"\n        );\n\n        // update upVote count\n        customers[_customerName].upVotes--;\n        up_votes[_customerName][msg.sender] = 0;\n\n        emit RemoveUpVoteCustomer(_customerName, msg.sender);\n        return true;\n    }\n\n    /**\n     * Function to add a new down vote for a customer\n     * @param _customerName Name of the customer to be upvoted\n     * @return bool\n     */\n    function downVoteCustomer(string memory _customerName)\n        public\n        returns (bool)\n    {\n        require(\n            compareStringsbyBytes(\n                _customerName,\n                customers[_customerName].username\n            ),\n            \"Customer doesn't exist. Use addCustomer to create new user\"\n        );\n\n        require(\n            down_votes[_customerName][msg.sender] == 0,\n            \"Customer has already been down voted by you.\"\n        );\n\n        // update downVote count\n        customers[_customerName].downVotes++;\n        down_votes[_customerName][msg.sender] = 1;\n\n        emit DownVoteCustomer(_customerName, msg.sender);\n        return true;\n    }\n\n    /**\n     * Function to remove a down vote for a customer\n     * @param _customerName Name of the customer to be upvoted\n     * @return bool\n     */\n    function removeDownVoteCustomer(string memory _customerName)\n        public\n        returns (bool)\n    {\n        require(\n            compareStringsbyBytes(\n                _customerName,\n                customers[_customerName].username\n            ),\n            \"Customer doesn't exist. Use addCustomer to create new user\"\n        );\n\n        require(\n            down_votes[_customerName][msg.sender] == 1,\n            \"Customer hasn't been down voted by you. Use downVoteCustomer.\"\n        );\n\n        // update downVote count\n        customers[_customerName].downVotes--;\n        down_votes[_customerName][msg.sender] = 0;\n\n        emit RemoveDownVoteCustomer(_customerName, msg.sender);\n        return true;\n    }\n\n    /**\n     * View total number of bank complaints\n     * @param _bankAddress unique address of the bank\n     * @return uint32 total number of bank complaints\n     */\n    function getBankComplaints(address _bankAddress)\n        public\n        view\n        returns (uint32)\n    {\n        require(\n            banks[_bankAddress].ethAddress == _bankAddress,\n            \"Bank address is incorrect. No such record exists\"\n        );\n\n        return banks[_bankAddress].complaintsReported;\n    }\n\n    // source: https://ethereum.stackexchange.com/questions/45813/compare-strings-in-solidity\n    function compareStringsbyBytes(string memory s1, string memory s2)\n        private\n        pure\n        returns (bool)\n    {\n        return\n            keccak256(abi.encodePacked(s1)) == keccak256(abi.encodePacked(s2));\n    }\n}\n",
  "sourcePath": "/home/dhruv/Desktop/projects/dApp/KYC/contracts/KYC_Contract.sol",
  "compiler": {
    "name": "solc",
    "version": "0.8.9+commit.e5eed63a.Emscripten.clang"
  },
  "schemaVersion": "3.4.3",
  "updatedAt": "2021-12-04T07:00:55.310Z",
  "networkType": "ethereum",
  "devdoc": {
    "kind": "dev",
    "methods": {
      "addCustomer(string,string)": {
        "params": {
          "_customerData": "Hash of the customer docs",
          "_customerName": "Name of the customer"
        },
        "returns": {
          "_0": "bool"
        }
      },
      "addKYCRequest(string,string)": {
        "params": {
          "_customerData": "The hash of the customer data being requested",
          "_customerName": "The name of the customer for whom KYC is to be done"
        },
        "returns": {
          "_0": "bool"
        }
      },
      "downVoteCustomer(string)": {
        "params": {
          "_customerName": "Name of the customer to be upvoted"
        },
        "returns": {
          "_0": "bool"
        }
      },
      "getBankComplaints(address)": {
        "params": {
          "_bankAddress": "unique address of the bank"
        },
        "returns": {
          "_0": "uint32 total number of bank complaints"
        }
      },
      "modifyCustomer(string,string)": {
        "params": {
          "_customerName": "Name of the customer",
          "_newCustomerData": "New hash of the updated docs"
        },
        "returns": {
          "_0": "bool"
        }
      },
      "removeDownVoteCustomer(string)": {
        "params": {
          "_customerName": "Name of the customer to be upvoted"
        },
        "returns": {
          "_0": "bool"
        }
      },
      "removeKYCRequest(string)": {
        "params": {
          "_customerName": "The name of the customer for whom KYC is to be removed"
        },
        "returns": {
          "_0": "bool"
        }
      },
      "removeUpVoteCustomer(string)": {
        "params": {
          "_customerName": "Name of the customer to be upvoted"
        },
        "returns": {
          "_0": "bool"
        }
      },
      "upVoteCustomer(string)": {
        "params": {
          "_customerName": "Name of the customer to be upvoted"
        },
        "returns": {
          "_0": "bool"
        }
      },
      "viewCustomer(string)": {
        "params": {
          "_customerName": "Name of the customer"
        },
        "returns": {
          "_0": "struct Customer - The customer struct as an object"
        }
      }
    },
    "version": 1
  },
  "userdoc": {
    "kind": "user",
    "methods": {
      "addCustomer(string,string)": {
        "notice": "Add a new customer"
      },
      "addKYCRequest(string,string)": {
        "notice": "Record a new KYC request on behalf of a customer Bank is the sender of this request"
      },
      "downVoteCustomer(string)": {
        "notice": "Function to add a new down vote for a customer"
      },
      "getBankComplaints(address)": {
        "notice": "View total number of bank complaints"
      },
      "modifyCustomer(string,string)": {
        "notice": "Modify customer data"
      },
      "removeDownVoteCustomer(string)": {
        "notice": "Function to remove a down vote for a customer"
      },
      "removeKYCRequest(string)": {
        "notice": "Remove KYC request"
      },
      "removeUpVoteCustomer(string)": {
        "notice": "Function to remove an up vote for a customer"
      },
      "upVoteCustomer(string)": {
        "notice": "Function to add a new up vote for a customer"
      },
      "viewCustomer(string)": {
        "notice": "View customer information"
      }
    },
    "version": 1
  }
}