{
  "contractName": "KYC_Contract",
  "abi": [
    {
      "inputs": [],
      "stateMutability": "nonpayable",
      "type": "constructor"
    },
    {
      "anonymous": false,
      "inputs": [
        {
          "indexed": false,
          "internalType": "string",
          "name": "_bankName",
          "type": "string"
        },
        {
          "indexed": false,
          "internalType": "address",
          "name": "_bankAddress",
          "type": "address"
        },
        {
          "indexed": false,
          "internalType": "string",
          "name": "_bankRegistration",
          "type": "string"
        },
        {
          "indexed": false,
          "internalType": "uint32",
          "name": "_complaintsReported",
          "type": "uint32"
        },
        {
          "indexed": false,
          "internalType": "bool",
          "name": "_KYCPermission",
          "type": "bool"
        }
      ],
      "name": "AddBank",
      "type": "event"
    },
    {
      "anonymous": false,
      "inputs": [
        {
          "indexed": false,
          "internalType": "string",
          "name": "_customerName",
          "type": "string"
        },
        {
          "indexed": false,
          "internalType": "string",
          "name": "_customerData",
          "type": "string"
        },
        {
          "indexed": false,
          "internalType": "address",
          "name": "validatorBank",
          "type": "address"
        }
      ],
      "name": "AddCustomer",
      "type": "event"
    },
    {
      "anonymous": false,
      "inputs": [
        {
          "indexed": false,
          "internalType": "string",
          "name": "_customerName",
          "type": "string"
        },
        {
          "indexed": false,
          "internalType": "string",
          "name": "_customerData",
          "type": "string"
        },
        {
          "indexed": false,
          "internalType": "address",
          "name": "KYCRequestingBank",
          "type": "address"
        }
      ],
      "name": "AddKYCRequest",
      "type": "event"
    },
    {
      "anonymous": false,
      "inputs": [
        {
          "indexed": false,
          "internalType": "string",
          "name": "_customerName",
          "type": "string"
        },
        {
          "indexed": false,
          "internalType": "bool",
          "name": "_KYCStatus",
          "type": "bool"
        }
      ],
      "name": "CustomerKYCStatus",
      "type": "event"
    },
    {
      "anonymous": false,
      "inputs": [
        {
          "indexed": false,
          "internalType": "string",
          "name": "_customerName",
          "type": "string"
        },
        {
          "indexed": false,
          "internalType": "address",
          "name": "bankAddress",
          "type": "address"
        }
      ],
      "name": "DownVoteCustomer",
      "type": "event"
    },
    {
      "anonymous": false,
      "inputs": [
        {
          "indexed": false,
          "internalType": "string",
          "name": "_customerName",
          "type": "string"
        },
        {
          "indexed": false,
          "internalType": "string",
          "name": "_newCustomerData",
          "type": "string"
        },
        {
          "indexed": false,
          "internalType": "address",
          "name": "bankAddress",
          "type": "address"
        }
      ],
      "name": "ModifyCustomer",
      "type": "event"
    },
    {
      "anonymous": false,
      "inputs": [
        {
          "indexed": false,
          "internalType": "address",
          "name": "_bankAddress",
          "type": "address"
        },
        {
          "indexed": false,
          "internalType": "bool",
          "name": "_isAllowedToVote",
          "type": "bool"
        }
      ],
      "name": "ModifyIfBankAllowedToVote",
      "type": "event"
    },
    {
      "anonymous": false,
      "inputs": [
        {
          "indexed": false,
          "internalType": "address",
          "name": "_bankAddress",
          "type": "address"
        }
      ],
      "name": "RemoveBank",
      "type": "event"
    },
    {
      "anonymous": false,
      "inputs": [
        {
          "indexed": false,
          "internalType": "string",
          "name": "_customerName",
          "type": "string"
        },
        {
          "indexed": false,
          "internalType": "address",
          "name": "bankAddress",
          "type": "address"
        }
      ],
      "name": "RemoveDownVoteCustomer",
      "type": "event"
    },
    {
      "anonymous": false,
      "inputs": [
        {
          "indexed": false,
          "internalType": "string",
          "name": "_customerName",
          "type": "string"
        },
        {
          "indexed": false,
          "internalType": "address",
          "name": "KYCRemovingBank",
          "type": "address"
        }
      ],
      "name": "RemoveKYCRequest",
      "type": "event"
    },
    {
      "anonymous": false,
      "inputs": [
        {
          "indexed": false,
          "internalType": "string",
          "name": "_customerName",
          "type": "string"
        },
        {
          "indexed": false,
          "internalType": "address",
          "name": "bankAddress",
          "type": "address"
        }
      ],
      "name": "RemoveUpVoteCustomer",
      "type": "event"
    },
    {
      "anonymous": false,
      "inputs": [
        {
          "indexed": false,
          "internalType": "address",
          "name": "_bankAddress",
          "type": "address"
        },
        {
          "indexed": false,
          "internalType": "address",
          "name": "reportingBank",
          "type": "address"
        },
        {
          "indexed": false,
          "internalType": "bool",
          "name": "isAllowedToVote",
          "type": "bool"
        }
      ],
      "name": "ReportBank",
      "type": "event"
    },
    {
      "anonymous": false,
      "inputs": [
        {
          "indexed": false,
          "internalType": "string",
          "name": "_customerName",
          "type": "string"
        },
        {
          "indexed": false,
          "internalType": "address",
          "name": "bankAddress",
          "type": "address"
        }
      ],
      "name": "UpVoteCustomer",
      "type": "event"
    },
    {
      "inputs": [
        {
          "internalType": "string",
          "name": "_customerName",
          "type": "string"
        },
        {
          "internalType": "string",
          "name": "_customerData",
          "type": "string"
        }
      ],
      "name": "addKYCRequest",
      "outputs": [
        {
          "internalType": "bool",
          "name": "",
          "type": "bool"
        }
      ],
      "stateMutability": "nonpayable",
      "type": "function"
    },
    {
      "inputs": [
        {
          "internalType": "string",
          "name": "_customerName",
          "type": "string"
        }
      ],
      "name": "removeKYCRequest",
      "outputs": [
        {
          "internalType": "bool",
          "name": "",
          "type": "bool"
        }
      ],
      "stateMutability": "nonpayable",
      "type": "function"
    },
    {
      "inputs": [
        {
          "internalType": "string",
          "name": "_customerName",
          "type": "string"
        }
      ],
      "name": "viewCustomer",
      "outputs": [
        {
          "internalType": "string",
          "name": "",
          "type": "string"
        },
        {
          "internalType": "string",
          "name": "",
          "type": "string"
        },
        {
          "internalType": "address",
          "name": "",
          "type": "address"
        },
        {
          "internalType": "bool",
          "name": "",
          "type": "bool"
        },
        {
          "internalType": "uint32",
          "name": "",
          "type": "uint32"
        },
        {
          "internalType": "uint32",
          "name": "",
          "type": "uint32"
        }
      ],
      "stateMutability": "view",
      "type": "function",
      "constant": true
    },
    {
      "inputs": [
        {
          "internalType": "string",
          "name": "_customerName",
          "type": "string"
        },
        {
          "internalType": "string",
          "name": "_customerData",
          "type": "string"
        }
      ],
      "name": "addCustomer",
      "outputs": [
        {
          "internalType": "bool",
          "name": "",
          "type": "bool"
        }
      ],
      "stateMutability": "nonpayable",
      "type": "function"
    },
    {
      "inputs": [
        {
          "internalType": "string",
          "name": "_customerName",
          "type": "string"
        },
        {
          "internalType": "string",
          "name": "_newCustomerData",
          "type": "string"
        }
      ],
      "name": "modifyCustomer",
      "outputs": [
        {
          "internalType": "bool",
          "name": "",
          "type": "bool"
        }
      ],
      "stateMutability": "nonpayable",
      "type": "function"
    },
    {
      "inputs": [
        {
          "internalType": "string",
          "name": "_customerName",
          "type": "string"
        }
      ],
      "name": "upVoteCustomer",
      "outputs": [
        {
          "internalType": "bool",
          "name": "",
          "type": "bool"
        }
      ],
      "stateMutability": "nonpayable",
      "type": "function"
    },
    {
      "inputs": [
        {
          "internalType": "string",
          "name": "_customerName",
          "type": "string"
        }
      ],
      "name": "removeUpVoteCustomer",
      "outputs": [
        {
          "internalType": "bool",
          "name": "",
          "type": "bool"
        }
      ],
      "stateMutability": "nonpayable",
      "type": "function"
    },
    {
      "inputs": [
        {
          "internalType": "string",
          "name": "_customerName",
          "type": "string"
        }
      ],
      "name": "downVoteCustomer",
      "outputs": [
        {
          "internalType": "bool",
          "name": "",
          "type": "bool"
        }
      ],
      "stateMutability": "nonpayable",
      "type": "function"
    },
    {
      "inputs": [
        {
          "internalType": "string",
          "name": "_customerName",
          "type": "string"
        }
      ],
      "name": "removeDownVoteCustomer",
      "outputs": [
        {
          "internalType": "bool",
          "name": "",
          "type": "bool"
        }
      ],
      "stateMutability": "nonpayable",
      "type": "function"
    },
    {
      "inputs": [
        {
          "internalType": "address",
          "name": "_bankAddress",
          "type": "address"
        }
      ],
      "name": "getBankDetails",
      "outputs": [
        {
          "internalType": "string",
          "name": "",
          "type": "string"
        },
        {
          "internalType": "address",
          "name": "",
          "type": "address"
        },
        {
          "internalType": "uint32",
          "name": "",
          "type": "uint32"
        },
        {
          "internalType": "uint32",
          "name": "",
          "type": "uint32"
        },
        {
          "internalType": "bool",
          "name": "",
          "type": "bool"
        },
        {
          "internalType": "string",
          "name": "",
          "type": "string"
        }
      ],
      "stateMutability": "view",
      "type": "function",
      "constant": true
    },
    {
      "inputs": [
        {
          "internalType": "address",
          "name": "_bankAddress",
          "type": "address"
        }
      ],
      "name": "reportBank",
      "outputs": [
        {
          "internalType": "bool",
          "name": "",
          "type": "bool"
        }
      ],
      "stateMutability": "nonpayable",
      "type": "function"
    },
    {
      "inputs": [
        {
          "internalType": "address",
          "name": "_bankAddress",
          "type": "address"
        }
      ],
      "name": "getBankComplaints",
      "outputs": [
        {
          "internalType": "uint32",
          "name": "",
          "type": "uint32"
        }
      ],
      "stateMutability": "view",
      "type": "function",
      "constant": true
    },
    {
      "inputs": [
        {
          "internalType": "string",
          "name": "_bankName",
          "type": "string"
        },
        {
          "internalType": "address",
          "name": "_bankAddress",
          "type": "address"
        },
        {
          "internalType": "string",
          "name": "_bankRegistration",
          "type": "string"
        }
      ],
      "name": "addBank",
      "outputs": [
        {
          "internalType": "bool",
          "name": "",
          "type": "bool"
        }
      ],
      "stateMutability": "nonpayable",
      "type": "function"
    },
    {
      "inputs": [
        {
          "internalType": "address",
          "name": "_bankAddress",
          "type": "address"
        },
        {
          "internalType": "bool",
          "name": "_isAllowedToVote",
          "type": "bool"
        }
      ],
      "name": "modifyIfBankAllowedToVote",
      "outputs": [
        {
          "internalType": "bool",
          "name": "",
          "type": "bool"
        }
      ],
      "stateMutability": "nonpayable",
      "type": "function"
    },
    {
      "inputs": [
        {
          "internalType": "address",
          "name": "_bankAddress",
          "type": "address"
        }
      ],
      "name": "removeBank",
      "outputs": [
        {
          "internalType": "bool",
          "name": "",
          "type": "bool"
        }
      ],
      "stateMutability": "nonpayable",
      "type": "function"
    }
  ],
  "bytecode": "0x608060405234801561001057600080fd5b50336000806101000a81548173ffffffffffffffffffffffffffffffffffffffff021916908373ffffffffffffffffffffffffffffffffffffffff1602179055506156b480620000616000396000f3fe608060405234801561001057600080fd5b50600436106100f55760003560e01c80639649650c11610097578063bd561e1411610066578063bd561e1414610314578063cae55c3f14610344578063ccfa8e7114610374578063f72860ca146103a4576100f5565b80639649650c14610254578063a5a4980014610284578063b7d12190146102b4578063ba03ef3a146102e4576100f5565b80633190abc0116100d35780633190abc014610194578063569e64bc146101c45780635ec2a7f2146101f457806382e0438a14610224576100f5565b8063107925bb146100fa57806315101e021461012f5780631e8eba6e14610164575b600080fd5b610114600480360381019061010f91906140d0565b6103d4565b6040516101269695949392919061421c565b60405180910390f35b610149600480360381019061014491906142b7565b6107a6565b60405161015b969594939291906142e4565b60405180910390f35b61017e600480360381019061017991906140d0565b610c1d565b60405161018b9190614353565b60405180910390f35b6101ae60048036038101906101a9919061436e565b610f7e565b6040516101bb9190614353565b60405180910390f35b6101de60048036038101906101d991906140d0565b6111df565b6040516101eb9190614353565b60405180910390f35b61020e600480360381019061020991906142b7565b61176b565b60405161021b91906143e6565b60405180910390f35b61023e600480360381019061023991906140d0565b61192a565b60405161024b9190614353565b60405180910390f35b61026e600480360381019061026991906142b7565b611eb6565b60405161027b9190614353565b60405180910390f35b61029e600480360381019061029991906142b7565b612122565b6040516102ab9190614353565b60405180910390f35b6102ce60048036038101906102c9919061442d565b612492565b6040516102db9190614353565b60405180910390f35b6102fe60048036038101906102f991906140d0565b612690565b60405161030b9190614353565b60405180910390f35b61032e6004803603810190610329919061436e565b612b6e565b60405161033b9190614353565b60405180910390f35b61035e600480360381019061035991906140d0565b612ea4565b60405161036b9190614353565b60405180910390f35b61038e6004803603810190610389919061446d565b613382565b60405161039b9190614353565b60405180910390f35b6103be60048036038101906103b9919061436e565b61392b565b6040516103cb9190614353565b60405180910390f35b60608060008060008060011515600760003373ffffffffffffffffffffffffffffffffffffffff1673ffffffffffffffffffffffffffffffffffffffff16815260200190815260200160002060009054906101000a900460ff16151514610470576040517f08c379a00000000000000000000000000000000000000000000000000000000081526004016104679061456a565b60405180910390fd5b6105238760018960405161048491906145c6565b908152602001604051809103902060000180546104a09061460c565b80601f01602080910402602001604051908101604052809291908181526020018280546104cc9061460c565b80156105195780601f106104ee57610100808354040283529160200191610519565b820191906000526020600020905b8154815290600101906020018083116104fc57829003601f168201915b5050505050613c20565b610562576040517f08c379a0000000000000000000000000000000000000000000000000000000008152600401610559906146b0565b60405180910390fd5b60018760405161057291906145c6565b908152602001604051809103902060000160018860405161059391906145c6565b90815260200160405180910390206001016001896040516105b491906145c6565b908152602001604051809103902060020160099054906101000a900473ffffffffffffffffffffffffffffffffffffffff1660018a6040516105f691906145c6565b908152602001604051809103902060020160009054906101000a900460ff1660018b60405161062591906145c6565b908152602001604051809103902060020160019054906101000a900463ffffffff1660018c60405161065791906145c6565b908152602001604051809103902060020160059054906101000a900463ffffffff168580546106859061460c565b80601f01602080910402602001604051908101604052809291908181526020018280546106b19061460c565b80156106fe5780601f106106d3576101008083540402835291602001916106fe565b820191906000526020600020905b8154815290600101906020018083116106e157829003601f168201915b505050505095508480546107119061460c565b80601f016020809104026020016040519081016040528092919081815260200182805461073d9061460c565b801561078a5780601f1061075f5761010080835404028352916020019161078a565b820191906000526020600020905b81548152906001019060200180831161076d57829003601f168201915b5050505050945095509550955095509550955091939550919395565b6060600080600080606060011515600760003373ffffffffffffffffffffffffffffffffffffffff1673ffffffffffffffffffffffffffffffffffffffff16815260200190815260200160002060009054906101000a900460ff16151514610843576040517f08c379a000000000000000000000000000000000000000000000000000000000815260040161083a9061456a565b60405180910390fd5b8673ffffffffffffffffffffffffffffffffffffffff16600260008973ffffffffffffffffffffffffffffffffffffffff1673ffffffffffffffffffffffffffffffffffffffff16815260200190815260200160002060010160009054906101000a900473ffffffffffffffffffffffffffffffffffffffff1673ffffffffffffffffffffffffffffffffffffffff1614610913576040517f08c379a000000000000000000000000000000000000000000000000000000000815260040161090a90614742565b60405180910390fd5b600260008873ffffffffffffffffffffffffffffffffffffffff1673ffffffffffffffffffffffffffffffffffffffff168152602001908152602001600020600001600260008973ffffffffffffffffffffffffffffffffffffffff1673ffffffffffffffffffffffffffffffffffffffff16815260200190815260200160002060010160009054906101000a900473ffffffffffffffffffffffffffffffffffffffff16600260008a73ffffffffffffffffffffffffffffffffffffffff1673ffffffffffffffffffffffffffffffffffffffff16815260200190815260200160002060010160149054906101000a900463ffffffff16600260008b73ffffffffffffffffffffffffffffffffffffffff1673ffffffffffffffffffffffffffffffffffffffff16815260200190815260200160002060010160189054906101000a900463ffffffff16600260008c73ffffffffffffffffffffffffffffffffffffffff1673ffffffffffffffffffffffffffffffffffffffff168152602001908152602001600020600101601c9054906101000a900460ff16600260008d73ffffffffffffffffffffffffffffffffffffffff1673ffffffffffffffffffffffffffffffffffffffff168152602001908152602001600020600201858054610afc9061460c565b80601f0160208091040260200160405190810160405280929190818152602001828054610b289061460c565b8015610b755780601f10610b4a57610100808354040283529160200191610b75565b820191906000526020600020905b815481529060010190602001808311610b5857829003601f168201915b50505050509550808054610b889061460c565b80601f0160208091040260200160405190810160405280929190818152602001828054610bb49061460c565b8015610c015780601f10610bd657610100808354040283529160200191610c01565b820191906000526020600020905b815481529060010190602001808311610be457829003601f168201915b5050505050905095509550955095509550955091939550919395565b600060011515600760003373ffffffffffffffffffffffffffffffffffffffff1673ffffffffffffffffffffffffffffffffffffffff16815260200190815260200160002060009054906101000a900460ff16151514610cb2576040517f08c379a0000000000000000000000000000000000000000000000000000000008152600401610ca99061456a565b60405180910390fd5b3373ffffffffffffffffffffffffffffffffffffffff16600383604051610cd991906145c6565b908152602001604051809103902060020160009054906101000a900473ffffffffffffffffffffffffffffffffffffffff1673ffffffffffffffffffffffffffffffffffffffff1614610d61576040517f08c379a0000000000000000000000000000000000000000000000000000000008152600401610d58906147fa565b60405180910390fd5b610e14600183604051610d7491906145c6565b90815260200160405180910390206000018054610d909061460c565b80601f0160208091040260200160405190810160405280929190818152602001828054610dbc9061460c565b8015610e095780601f10610dde57610100808354040283529160200191610e09565b820191906000526020600020905b815481529060010190602001808311610dec57829003601f168201915b505050505083613c20565b610e53576040517f08c379a0000000000000000000000000000000000000000000000000000000008152600401610e4a906148b2565b60405180910390fd5b600382604051610e6391906145c6565b908152602001604051809103902060008082016000610e829190613e93565b600182016000610e929190613e93565b6002820160006101000a81549073ffffffffffffffffffffffffffffffffffffffff02191690555050600260003373ffffffffffffffffffffffffffffffffffffffff1673ffffffffffffffffffffffffffffffffffffffff168152602001908152602001600020600101601881819054906101000a900463ffffffff1680929190610f1d90614901565b91906101000a81548163ffffffff021916908363ffffffff160217905550507f496d5d5434647bc8da1b957c8a39657a0fe5021a5ee01bfb6566ee87c56639dd8233604051610f6d92919061492b565b60405180910390a160019050919050565b600060011515600760003373ffffffffffffffffffffffffffffffffffffffff1673ffffffffffffffffffffffffffffffffffffffff16815260200190815260200160002060009054906101000a900460ff16151514611013576040517f08c379a000000000000000000000000000000000000000000000000000000000815260040161100a9061456a565b60405180910390fd5b600073ffffffffffffffffffffffffffffffffffffffff1660018460405161103b91906145c6565b908152602001604051809103902060020160099054906101000a900473ffffffffffffffffffffffffffffffffffffffff1673ffffffffffffffffffffffffffffffffffffffff16146110c3576040517f08c379a00000000000000000000000000000000000000000000000000000000081526004016110ba906149cd565b60405180910390fd5b826001846040516110d491906145c6565b908152602001604051809103902060000190805190602001906110f8929190613ed3565b508160018460405161110a91906145c6565b9081526020016040518091039020600101908051906020019061112e929190613ed3565b503360018460405161114091906145c6565b908152602001604051809103902060020160096101000a81548173ffffffffffffffffffffffffffffffffffffffff021916908373ffffffffffffffffffffffffffffffffffffffff1602179055506111998383612b6e565b507f720f91ef7267a7db0cf726ddb013dd753364a2e1e65319cd32e1d96c3aa38dbd8383336040516111cd939291906149ed565b60405180910390a16001905092915050565b600060011515600760003373ffffffffffffffffffffffffffffffffffffffff1673ffffffffffffffffffffffffffffffffffffffff16815260200190815260200160002060009054906101000a900460ff16151514611274576040517f08c379a000000000000000000000000000000000000000000000000000000000815260040161126b9061456a565b60405180910390fd5b60011515600260003373ffffffffffffffffffffffffffffffffffffffff1673ffffffffffffffffffffffffffffffffffffffff168152602001908152602001600020600101601c9054906101000a900460ff1615151461130a576040517f08c379a000000000000000000000000000000000000000000000000000000000815260040161130190614aa4565b60405180910390fd5b6113bd8260018460405161131e91906145c6565b9081526020016040518091039020600001805461133a9061460c565b80601f01602080910402602001604051908101604052809291908181526020018280546113669061460c565b80156113b35780601f10611388576101008083540402835291602001916113b3565b820191906000526020600020905b81548152906001019060200180831161139657829003601f168201915b5050505050613c20565b6113fc576040517f08c379a00000000000000000000000000000000000000000000000000000000081526004016113f3906146b0565b60405180910390fd5b6114af60038360405161140f91906145c6565b9081526020016040518091039020600001805461142b9061460c565b80601f01602080910402602001604051908101604052809291908181526020018280546114579061460c565b80156114a45780601f10611479576101008083540402835291602001916114a4565b820191906000526020600020905b81548152906001019060200180831161148757829003601f168201915b505050505083613c20565b6114ee576040517f08c379a00000000000000000000000000000000000000000000000000000000081526004016114e590614b36565b60405180910390fd5b600060048360405161150091906145c6565b908152602001604051809103902060003373ffffffffffffffffffffffffffffffffffffffff1673ffffffffffffffffffffffffffffffffffffffff16815260200190815260200160002060009054906101000a900460ff1660ff161461159c576040517f08c379a000000000000000000000000000000000000000000000000000000000815260040161159390614bc8565b60405180910390fd5b60006005836040516115ae91906145c6565b908152602001604051809103902060003373ffffffffffffffffffffffffffffffffffffffff1673ffffffffffffffffffffffffffffffffffffffff16815260200190815260200160002060009054906101000a900460ff1660ff161461164a576040517f08c379a000000000000000000000000000000000000000000000000000000000815260040161164190614c80565b60405180910390fd5b60018260405161165a91906145c6565b9081526020016040518091039020600201600181819054906101000a900463ffffffff168092919061168b90614ca0565b91906101000a81548163ffffffff021916908363ffffffff1602179055505060016004836040516116bc91906145c6565b908152602001604051809103902060003373ffffffffffffffffffffffffffffffffffffffff1673ffffffffffffffffffffffffffffffffffffffff16815260200190815260200160002060006101000a81548160ff021916908360ff16021790555061172882613c79565b507f8204fd0d7ac1bb685e9147e1259497a085786f9ec68e8b44514f432d7d7fdfe1823360405161175a92919061492b565b60405180910390a160019050919050565b600060011515600760003373ffffffffffffffffffffffffffffffffffffffff1673ffffffffffffffffffffffffffffffffffffffff16815260200190815260200160002060009054906101000a900460ff16151514611800576040517f08c379a00000000000000000000000000000000000000000000000000000000081526004016117f79061456a565b60405180910390fd5b8173ffffffffffffffffffffffffffffffffffffffff16600260008473ffffffffffffffffffffffffffffffffffffffff1673ffffffffffffffffffffffffffffffffffffffff16815260200190815260200160002060010160009054906101000a900473ffffffffffffffffffffffffffffffffffffffff1673ffffffffffffffffffffffffffffffffffffffff16146118d0576040517f08c379a00000000000000000000000000000000000000000000000000000000081526004016118c790614742565b60405180910390fd5b600260008373ffffffffffffffffffffffffffffffffffffffff1673ffffffffffffffffffffffffffffffffffffffff16815260200190815260200160002060010160149054906101000a900463ffffffff169050919050565b600060011515600760003373ffffffffffffffffffffffffffffffffffffffff1673ffffffffffffffffffffffffffffffffffffffff16815260200190815260200160002060009054906101000a900460ff161515146119bf576040517f08c379a00000000000000000000000000000000000000000000000000000000081526004016119b69061456a565b60405180910390fd5b60011515600260003373ffffffffffffffffffffffffffffffffffffffff1673ffffffffffffffffffffffffffffffffffffffff168152602001908152602001600020600101601c9054906101000a900460ff16151514611a55576040517f08c379a0000000000000000000000000000000000000000000000000000000008152600401611a4c90614aa4565b60405180910390fd5b611b0882600184604051611a6991906145c6565b90815260200160405180910390206000018054611a859061460c565b80601f0160208091040260200160405190810160405280929190818152602001828054611ab19061460c565b8015611afe5780601f10611ad357610100808354040283529160200191611afe565b820191906000526020600020905b815481529060010190602001808311611ae157829003601f168201915b5050505050613c20565b611b47576040517f08c379a0000000000000000000000000000000000000000000000000000000008152600401611b3e906146b0565b60405180910390fd5b611bfa600383604051611b5a91906145c6565b90815260200160405180910390206000018054611b769061460c565b80601f0160208091040260200160405190810160405280929190818152602001828054611ba29061460c565b8015611bef5780601f10611bc457610100808354040283529160200191611bef565b820191906000526020600020905b815481529060010190602001808311611bd257829003601f168201915b505050505083613c20565b611c39576040517f08c379a0000000000000000000000000000000000000000000000000000000008152600401611c3090614d3f565b60405180910390fd5b6000600583604051611c4b91906145c6565b908152602001604051809103902060003373ffffffffffffffffffffffffffffffffffffffff1673ffffffffffffffffffffffffffffffffffffffff16815260200190815260200160002060009054906101000a900460ff1660ff1614611ce7576040517f08c379a0000000000000000000000000000000000000000000000000000000008152600401611cde90614dd1565b60405180910390fd5b6000600483604051611cf991906145c6565b908152602001604051809103902060003373ffffffffffffffffffffffffffffffffffffffff1673ffffffffffffffffffffffffffffffffffffffff16815260200190815260200160002060009054906101000a900460ff1660ff1614611d95576040517f08c379a0000000000000000000000000000000000000000000000000000000008152600401611d8c90614e89565b60405180910390fd5b600182604051611da591906145c6565b9081526020016040518091039020600201600581819054906101000a900463ffffffff1680929190611dd690614ca0565b91906101000a81548163ffffffff021916908363ffffffff160217905550506001600583604051611e0791906145c6565b908152602001604051809103902060003373ffffffffffffffffffffffffffffffffffffffff1673ffffffffffffffffffffffffffffffffffffffff16815260200190815260200160002060006101000a81548160ff021916908360ff160217905550611e7382613c79565b507ff76612a4db926c845e0a50031eb928cbbf707428872d88840995c7b8da5f41458233604051611ea592919061492b565b60405180910390a160019050919050565b60008060009054906101000a900473ffffffffffffffffffffffffffffffffffffffff1673ffffffffffffffffffffffffffffffffffffffff163373ffffffffffffffffffffffffffffffffffffffff1614611f47576040517f08c379a0000000000000000000000000000000000000000000000000000000008152600401611f3e90614f1b565b60405180910390fd5b8173ffffffffffffffffffffffffffffffffffffffff16600260008473ffffffffffffffffffffffffffffffffffffffff1673ffffffffffffffffffffffffffffffffffffffff16815260200190815260200160002060010160009054906101000a900473ffffffffffffffffffffffffffffffffffffffff1673ffffffffffffffffffffffffffffffffffffffff1614612017576040517f08c379a000000000000000000000000000000000000000000000000000000000815260040161200e90614742565b60405180910390fd5b600260008373ffffffffffffffffffffffffffffffffffffffff1673ffffffffffffffffffffffffffffffffffffffff168152602001908152602001600020600080820160006120679190613e93565b6001820160006101000a81549073ffffffffffffffffffffffffffffffffffffffff02191690556001820160146101000a81549063ffffffff02191690556001820160186101000a81549063ffffffff021916905560018201601c6101000a81549060ff02191690556002820160006120e09190613e93565b50507f6767608704ef368658d85df2d4ab099786fa097072ca3721d0be392020360a7e826040516121119190614f3b565b60405180910390a160019050919050565b600060011515600760003373ffffffffffffffffffffffffffffffffffffffff1673ffffffffffffffffffffffffffffffffffffffff16815260200190815260200160002060009054906101000a900460ff161515146121b7576040517f08c379a00000000000000000000000000000000000000000000000000000000081526004016121ae9061456a565b60405180910390fd5b8173ffffffffffffffffffffffffffffffffffffffff16600260008473ffffffffffffffffffffffffffffffffffffffff1673ffffffffffffffffffffffffffffffffffffffff16815260200190815260200160002060010160009054906101000a900473ffffffffffffffffffffffffffffffffffffffff1673ffffffffffffffffffffffffffffffffffffffff1614612287576040517f08c379a000000000000000000000000000000000000000000000000000000000815260040161227e90614742565b60405180910390fd5b600260008373ffffffffffffffffffffffffffffffffffffffff1673ffffffffffffffffffffffffffffffffffffffff168152602001908152602001600020600101601481819054906101000a900463ffffffff16809291906122e990614ca0565b91906101000a81548163ffffffff021916908363ffffffff1602179055505060006064600260008573ffffffffffffffffffffffffffffffffffffffff1673ffffffffffffffffffffffffffffffffffffffff16815260200190815260200160002060010160149054906101000a900463ffffffff166123699190614f56565b905060008060149054906101000a900463ffffffff16602161238b9190614f56565b90508063ffffffff168263ffffffff1611156123fd576000600260008673ffffffffffffffffffffffffffffffffffffffff1673ffffffffffffffffffffffffffffffffffffffff168152602001908152602001600020600101601c6101000a81548160ff0219169083151502179055505b7f65f47f0fa74a4b8d006ccd51dc625d47139721a7906092a96e0333d7bd684cd18433600260008873ffffffffffffffffffffffffffffffffffffffff1673ffffffffffffffffffffffffffffffffffffffff168152602001908152602001600020600101601c9054906101000a900460ff1660405161247f93929190614f94565b60405180910390a1600192505050919050565b60008060009054906101000a900473ffffffffffffffffffffffffffffffffffffffff1673ffffffffffffffffffffffffffffffffffffffff163373ffffffffffffffffffffffffffffffffffffffff1614612523576040517f08c379a000000000000000000000000000000000000000000000000000000000815260040161251a90614f1b565b60405180910390fd5b8273ffffffffffffffffffffffffffffffffffffffff16600260008573ffffffffffffffffffffffffffffffffffffffff1673ffffffffffffffffffffffffffffffffffffffff16815260200190815260200160002060010160009054906101000a900473ffffffffffffffffffffffffffffffffffffffff1673ffffffffffffffffffffffffffffffffffffffff16146125f3576040517f08c379a00000000000000000000000000000000000000000000000000000000081526004016125ea90614742565b60405180910390fd5b81600260008573ffffffffffffffffffffffffffffffffffffffff1673ffffffffffffffffffffffffffffffffffffffff168152602001908152602001600020600101601c6101000a81548160ff0219169083151502179055507f1562979b03fccfb5bb5189a02f4dbef9f48c35bf52a47c09e23271e92ed7bcc3838360405161267e929190614fcb565b60405180910390a16001905092915050565b600060011515600760003373ffffffffffffffffffffffffffffffffffffffff1673ffffffffffffffffffffffffffffffffffffffff16815260200190815260200160002060009054906101000a900460ff16151514612725576040517f08c379a000000000000000000000000000000000000000000000000000000000815260040161271c9061456a565b60405180910390fd5b60011515600260003373ffffffffffffffffffffffffffffffffffffffff1673ffffffffffffffffffffffffffffffffffffffff168152602001908152602001600020600101601c9054906101000a900460ff161515146127bb576040517f08c379a00000000000000000000000000000000000000000000000000000000081526004016127b290614aa4565b60405180910390fd5b61286e826001846040516127cf91906145c6565b908152602001604051809103902060000180546127eb9061460c565b80601f01602080910402602001604051908101604052809291908181526020018280546128179061460c565b80156128645780601f1061283957610100808354040283529160200191612864565b820191906000526020600020905b81548152906001019060200180831161284757829003601f168201915b5050505050613c20565b6128ad576040517f08c379a00000000000000000000000000000000000000000000000000000000081526004016128a4906146b0565b60405180910390fd5b6129606003836040516128c091906145c6565b908152602001604051809103902060000180546128dc9061460c565b80601f01602080910402602001604051908101604052809291908181526020018280546129089061460c565b80156129555780601f1061292a57610100808354040283529160200191612955565b820191906000526020600020905b81548152906001019060200180831161293857829003601f168201915b505050505083613c20565b61299f576040517f08c379a000000000000000000000000000000000000000000000000000000000815260040161299690615066565b60405180910390fd5b60016005836040516129b191906145c6565b908152602001604051809103902060003373ffffffffffffffffffffffffffffffffffffffff1673ffffffffffffffffffffffffffffffffffffffff16815260200190815260200160002060009054906101000a900460ff1660ff1614612a4d576040517f08c379a0000000000000000000000000000000000000000000000000000000008152600401612a44906150f8565b60405180910390fd5b600182604051612a5d91906145c6565b9081526020016040518091039020600201600581819054906101000a900463ffffffff1680929190612a8e90614901565b91906101000a81548163ffffffff021916908363ffffffff160217905550506000600583604051612abf91906145c6565b908152602001604051809103902060003373ffffffffffffffffffffffffffffffffffffffff1673ffffffffffffffffffffffffffffffffffffffff16815260200190815260200160002060006101000a81548160ff021916908360ff160217905550612b2b82613c79565b507f884e374f9a1d1ef39e4f98a04c2a047354902ad3143ff7a278d9937b56e114d08233604051612b5d92919061492b565b60405180910390a160019050919050565b60003373ffffffffffffffffffffffffffffffffffffffff16600384604051612b9791906145c6565b908152602001604051809103902060020160009054906101000a900473ffffffffffffffffffffffffffffffffffffffff1673ffffffffffffffffffffffffffffffffffffffff161415612c20576040517f08c379a0000000000000000000000000000000000000000000000000000000008152600401612c179061518a565b60405180910390fd5b612cd3600184604051612c3391906145c6565b90815260200160405180910390206001018054612c4f9061460c565b80601f0160208091040260200160405190810160405280929190818152602001828054612c7b9061460c565b8015612cc85780601f10612c9d57610100808354040283529160200191612cc8565b820191906000526020600020905b815481529060010190602001808311612cab57829003601f168201915b505050505083613c20565b612d12576040517f08c379a0000000000000000000000000000000000000000000000000000000008152600401612d099061521c565b60405180910390fd5b82600384604051612d2391906145c6565b90815260200160405180910390206000019080519060200190612d47929190613ed3565b5081600384604051612d5991906145c6565b90815260200160405180910390206001019080519060200190612d7d929190613ed3565b5033600384604051612d8f91906145c6565b908152602001604051809103902060020160006101000a81548173ffffffffffffffffffffffffffffffffffffffff021916908373ffffffffffffffffffffffffffffffffffffffff160217905550600260003373ffffffffffffffffffffffffffffffffffffffff1673ffffffffffffffffffffffffffffffffffffffff168152602001908152602001600020600101601881819054906101000a900463ffffffff1680929190612e4090614ca0565b91906101000a81548163ffffffff021916908363ffffffff160217905550507f7fbec8867635bbaab7103c5d6cc8b0ef0767df0159177b6a07b8dbd5afba08cf838333604051612e92939291906149ed565b60405180910390a16001905092915050565b600060011515600760003373ffffffffffffffffffffffffffffffffffffffff1673ffffffffffffffffffffffffffffffffffffffff16815260200190815260200160002060009054906101000a900460ff16151514612f39576040517f08c379a0000000000000000000000000000000000000000000000000000000008152600401612f309061456a565b60405180910390fd5b60011515600260003373ffffffffffffffffffffffffffffffffffffffff1673ffffffffffffffffffffffffffffffffffffffff168152602001908152602001600020600101601c9054906101000a900460ff16151514612fcf576040517f08c379a0000000000000000000000000000000000000000000000000000000008152600401612fc690614aa4565b60405180910390fd5b61308282600184604051612fe391906145c6565b90815260200160405180910390206000018054612fff9061460c565b80601f016020809104026020016040519081016040528092919081815260200182805461302b9061460c565b80156130785780601f1061304d57610100808354040283529160200191613078565b820191906000526020600020905b81548152906001019060200180831161305b57829003601f168201915b5050505050613c20565b6130c1576040517f08c379a00000000000000000000000000000000000000000000000000000000081526004016130b8906146b0565b60405180910390fd5b6131746003836040516130d491906145c6565b908152602001604051809103902060000180546130f09061460c565b80601f016020809104026020016040519081016040528092919081815260200182805461311c9061460c565b80156131695780601f1061313e57610100808354040283529160200191613169565b820191906000526020600020905b81548152906001019060200180831161314c57829003601f168201915b505050505083613c20565b6131b3576040517f08c379a00000000000000000000000000000000000000000000000000000000081526004016131aa906152ae565b60405180910390fd5b60016004836040516131c591906145c6565b908152602001604051809103902060003373ffffffffffffffffffffffffffffffffffffffff1673ffffffffffffffffffffffffffffffffffffffff16815260200190815260200160002060009054906101000a900460ff1660ff1614613261576040517f08c379a000000000000000000000000000000000000000000000000000000000815260040161325890615340565b60405180910390fd5b60018260405161327191906145c6565b9081526020016040518091039020600201600181819054906101000a900463ffffffff16809291906132a290614901565b91906101000a81548163ffffffff021916908363ffffffff1602179055505060006004836040516132d391906145c6565b908152602001604051809103902060003373ffffffffffffffffffffffffffffffffffffffff1673ffffffffffffffffffffffffffffffffffffffff16815260200190815260200160002060006101000a81548160ff021916908360ff16021790555061333f82613c79565b507fb16a6a90c9dc1e72f7d5f1fd2bb19bfe10570dd0f64cc907ba4561c1b252e987823360405161337192919061492b565b60405180910390a160019050919050565b60008060009054906101000a900473ffffffffffffffffffffffffffffffffffffffff1673ffffffffffffffffffffffffffffffffffffffff163373ffffffffffffffffffffffffffffffffffffffff1614613413576040517f08c379a000000000000000000000000000000000000000000000000000000000815260040161340a90614f1b565b60405180910390fd5b60001515600760008573ffffffffffffffffffffffffffffffffffffffff1673ffffffffffffffffffffffffffffffffffffffff16815260200190815260200160002060009054906101000a900460ff161515146134a6576040517f08c379a000000000000000000000000000000000000000000000000000000000815260040161349d906153ac565b60405180910390fd5b600015156006836040516134ba91906145c6565b908152602001604051809103902060009054906101000a900460ff16151514613518576040517f08c379a000000000000000000000000000000000000000000000000000000000815260040161350f90615464565b60405180910390fd5b6000151560088560405161352c91906145c6565b908152602001604051809103902060009054906101000a900460ff1615151461358a576040517f08c379a0000000000000000000000000000000000000000000000000000000008152600401613581906154f6565b60405180910390fd5b83600260008573ffffffffffffffffffffffffffffffffffffffff1673ffffffffffffffffffffffffffffffffffffffff16815260200190815260200160002060000190805190602001906135e0929190613ed3565b5082600260008573ffffffffffffffffffffffffffffffffffffffff1673ffffffffffffffffffffffffffffffffffffffff16815260200190815260200160002060010160006101000a81548173ffffffffffffffffffffffffffffffffffffffff021916908373ffffffffffffffffffffffffffffffffffffffff1602179055506000600260008573ffffffffffffffffffffffffffffffffffffffff1673ffffffffffffffffffffffffffffffffffffffff16815260200190815260200160002060010160146101000a81548163ffffffff021916908363ffffffff1602179055506000600260008573ffffffffffffffffffffffffffffffffffffffff1673ffffffffffffffffffffffffffffffffffffffff16815260200190815260200160002060010160186101000a81548163ffffffff021916908363ffffffff1602179055506001600260008573ffffffffffffffffffffffffffffffffffffffff1673ffffffffffffffffffffffffffffffffffffffff168152602001908152602001600020600101601c6101000a81548160ff02191690831515021790555081600260008573ffffffffffffffffffffffffffffffffffffffff1673ffffffffffffffffffffffffffffffffffffffff16815260200190815260200160002060020190805190602001906137d7929190613ed3565b5060016006836040516137ea91906145c6565b908152602001604051809103902060006101000a81548160ff0219169083151502179055506001600760008573ffffffffffffffffffffffffffffffffffffffff1673ffffffffffffffffffffffffffffffffffffffff16815260200190815260200160002060006101000a81548160ff021916908315150217905550600160088560405161387991906145c6565b908152602001604051809103902060006101000a81548160ff0219169083151502179055506000601481819054906101000a900463ffffffff16809291906138c090614ca0565b91906101000a81548163ffffffff021916908363ffffffff160217905550507fdc6397ebcff1d3cd4d51b023f775b4c6c94fd13339bc330fd0275673b618974b8484846000600160405161391895949392919061555b565b60405180910390a1600190509392505050565b600060011515600760003373ffffffffffffffffffffffffffffffffffffffff1673ffffffffffffffffffffffffffffffffffffffff16815260200190815260200160002060009054906101000a900460ff161515146139c0576040517f08c379a00000000000000000000000000000000000000000000000000000000081526004016139b79061456a565b60405180910390fd5b613a73836001856040516139d491906145c6565b908152602001604051809103902060000180546139f09061460c565b80601f0160208091040260200160405190810160405280929190818152602001828054613a1c9061460c565b8015613a695780601f10613a3e57610100808354040283529160200191613a69565b820191906000526020600020905b815481529060010190602001808311613a4c57829003601f168201915b5050505050613c20565b613ab2576040517f08c379a0000000000000000000000000000000000000000000000000000000008152600401613aa9906146b0565b60405180910390fd5b613b6582600185604051613ac691906145c6565b90815260200160405180910390206001018054613ae29061460c565b80601f0160208091040260200160405190810160405280929190818152602001828054613b0e9061460c565b8015613b5b5780601f10613b3057610100808354040283529160200191613b5b565b820191906000526020600020905b815481529060010190602001808311613b3e57829003601f168201915b5050505050613c20565b15613ba5576040517f08c379a0000000000000000000000000000000000000000000000000000000008152600401613b9c9061562e565b60405180910390fd5b81600184604051613bb691906145c6565b90815260200160405180910390206001019080519060200190613bda929190613ed3565b507f31d240a9505c05976d93451a6c6c97988c5719ef448ebed149c0e8e534a48129838333604051613c0e939291906149ed565b60405180910390a16001905092915050565b600081604051602001613c3391906145c6565b6040516020818303038152906040528051906020012083604051602001613c5a91906145c6565b6040516020818303038152906040528051906020012014905092915050565b6000806064600184604051613c8e91906145c6565b908152602001604051809103902060020160059054906101000a900463ffffffff16613cba9190614f56565b905060008060149054906101000a900463ffffffff166021613cdc9190614f56565b90508063ffffffff168263ffffffff161015613de657600184604051613d0291906145c6565b908152602001604051809103902060020160059054906101000a900463ffffffff1663ffffffff16600185604051613d3a91906145c6565b908152602001604051809103902060020160019054906101000a900463ffffffff1663ffffffff161115613da65760018085604051613d7991906145c6565b908152602001604051809103902060020160006101000a81548160ff021916908315150217905550613de1565b6000600185604051613db891906145c6565b908152602001604051809103902060020160006101000a81548160ff0219169083151502179055505b613e21565b6000600185604051613df891906145c6565b908152602001604051809103902060020160006101000a81548160ff0219169083151502179055505b7f01e100d0a829e863025b93f03221900ea97cc91afa79d8941528a2a3daea15ff84600186604051613e5391906145c6565b908152602001604051809103902060020160009054906101000a900460ff16604051613e8092919061564e565b60405180910390a1600192505050919050565b508054613e9f9061460c565b6000825580601f10613eb15750613ed0565b601f016020900490600052602060002090810190613ecf9190613f59565b5b50565b828054613edf9061460c565b90600052602060002090601f016020900481019282613f015760008555613f48565b82601f10613f1a57805160ff1916838001178555613f48565b82800160010185558215613f48579182015b82811115613f47578251825591602001919060010190613f2c565b5b509050613f559190613f59565b5090565b5b80821115613f72576000816000905550600101613f5a565b5090565b6000604051905090565b600080fd5b600080fd5b600080fd5b600080fd5b6000601f19601f8301169050919050565b7f4e487b7100000000000000000000000000000000000000000000000000000000600052604160045260246000fd5b613fdd82613f94565b810181811067ffffffffffffffff82111715613ffc57613ffb613fa5565b5b80604052505050565b600061400f613f76565b905061401b8282613fd4565b919050565b600067ffffffffffffffff82111561403b5761403a613fa5565b5b61404482613f94565b9050602081019050919050565b82818337600083830152505050565b600061407361406e84614020565b614005565b90508281526020810184848401111561408f5761408e613f8f565b5b61409a848285614051565b509392505050565b600082601f8301126140b7576140b6613f8a565b5b81356140c7848260208601614060565b91505092915050565b6000602082840312156140e6576140e5613f80565b5b600082013567ffffffffffffffff81111561410457614103613f85565b5b614110848285016140a2565b91505092915050565b600081519050919050565b600082825260208201905092915050565b60005b83811015614153578082015181840152602081019050614138565b83811115614162576000848401525b50505050565b600061417382614119565b61417d8185614124565b935061418d818560208601614135565b61419681613f94565b840191505092915050565b600073ffffffffffffffffffffffffffffffffffffffff82169050919050565b60006141cc826141a1565b9050919050565b6141dc816141c1565b82525050565b60008115159050919050565b6141f7816141e2565b82525050565b600063ffffffff82169050919050565b614216816141fd565b82525050565b600060c08201905081810360008301526142368189614168565b9050818103602083015261424a8188614168565b905061425960408301876141d3565b61426660608301866141ee565b614273608083018561420d565b61428060a083018461420d565b979650505050505050565b614294816141c1565b811461429f57600080fd5b50565b6000813590506142b18161428b565b92915050565b6000602082840312156142cd576142cc613f80565b5b60006142db848285016142a2565b91505092915050565b600060c08201905081810360008301526142fe8189614168565b905061430d60208301886141d3565b61431a604083018761420d565b614327606083018661420d565b61433460808301856141ee565b81810360a08301526143468184614168565b9050979650505050505050565b600060208201905061436860008301846141ee565b92915050565b6000806040838503121561438557614384613f80565b5b600083013567ffffffffffffffff8111156143a3576143a2613f85565b5b6143af858286016140a2565b925050602083013567ffffffffffffffff8111156143d0576143cf613f85565b5b6143dc858286016140a2565b9150509250929050565b60006020820190506143fb600083018461420d565b92915050565b61440a816141e2565b811461441557600080fd5b50565b60008135905061442781614401565b92915050565b6000806040838503121561444457614443613f80565b5b6000614452858286016142a2565b925050602061446385828601614418565b9150509250929050565b60008060006060848603121561448657614485613f80565b5b600084013567ffffffffffffffff8111156144a4576144a3613f85565b5b6144b0868287016140a2565b93505060206144c1868287016142a2565b925050604084013567ffffffffffffffff8111156144e2576144e1613f85565b5b6144ee868287016140a2565b9150509250925092565b7f4f6e6c7920617070726f7665642062616e6b732061726520616c6c6f7765642060008201527f746f20706572666f726d2074686973206f7065726174696f6e00000000000000602082015250565b6000614554603983614124565b915061455f826144f8565b604082019050919050565b6000602082019050818103600083015261458381614547565b9050919050565b600081905092915050565b60006145a082614119565b6145aa818561458a565b93506145ba818560208601614135565b80840191505092915050565b60006145d28284614595565b915081905092915050565b7f4e487b7100000000000000000000000000000000000000000000000000000000600052602260045260246000fd5b6000600282049050600182168061462457607f821691505b60208210811415614638576146376145dd565b5b50919050565b7f437573746f6d657220646f65736e27742065786973742e20557365206164644360008201527f7573746f6d657220746f20637265617465206e65772075736572000000000000602082015250565b600061469a603a83614124565b91506146a58261463e565b604082019050919050565b600060208201905081810360008301526146c98161468d565b9050919050565b7f42616e6b206164647265737320697320696e636f72726563742e204e6f20737560008201527f6368207265636f72642065786973747300000000000000000000000000000000602082015250565b600061472c603083614124565b9150614737826146d0565b604082019050919050565b6000602082019050818103600083015261475b8161471f565b9050919050565b7f4e6f204b594320726571756573742065786973747320666f722074686973206360008201527f7573746f6d65722e20506c6561736520757365206164644b594352657175657360208201527f742066756e6374696f6e00000000000000000000000000000000000000000000604082015250565b60006147e4604a83614124565b91506147ef82614762565b606082019050919050565b60006020820190508181036000830152614813816147d7565b9050919050565b7f4e6f20726571756573742065786973747320666f72207468697320637573746f60008201527f6d65722e20506c6561736520757365206164644b59435265717565737420667560208201527f6e6374696f6e0000000000000000000000000000000000000000000000000000604082015250565b600061489c604683614124565b91506148a78261481a565b606082019050919050565b600060208201905081810360008301526148cb8161488f565b9050919050565b7f4e487b7100000000000000000000000000000000000000000000000000000000600052601160045260246000fd5b600061490c826141fd565b915060008214156149205761491f6148d2565b5b600182039050919050565b600060408201905081810360008301526149458185614168565b905061495460208301846141d3565b9392505050565b7f55736572206578697374732e20506c656173652063616c6c206d6f646966794360008201527f7573746f6d657220746f206d616b6520616e79206368616e6765730000000000602082015250565b60006149b7603b83614124565b91506149c28261495b565b604082019050919050565b600060208201905081810360008301526149e6816149aa565b9050919050565b60006060820190508181036000830152614a078186614168565b90508181036020830152614a1b8185614168565b9050614a2a60408301846141d3565b949350505050565b7f596f757220726967687420746f20766f746520686173206265656e207265766f60008201527f6b65642e20506c6561736520636f6e746163742061646d696e2e000000000000602082015250565b6000614a8e603a83614124565b9150614a9982614a32565b604082019050919050565b60006020820190508181036000830152614abd81614a81565b9050919050565b7f43616e6e6f74207570766f7465206173206e6f204b594320657869737473206660008201527f6f72207468697320637573746f6d6572207965742e0000000000000000000000602082015250565b6000614b20603583614124565b9150614b2b82614ac4565b604082019050919050565b60006020820190508181036000830152614b4f81614b13565b9050919050565b7f437573746f6d65722068617320616c7265616479206265656e207570766f746560008201527f6420627920796f752e0000000000000000000000000000000000000000000000602082015250565b6000614bb2602983614124565b9150614bbd82614b56565b604082019050919050565b60006020820190508181036000830152614be181614ba5565b9050919050565b7f437573746f6d65722068617320646f776e20766f74656420627920796f752e2060008201527f506c656173652072656d6f766520646f776e20766f746520746f20706c61636560208201527f20616e20757020766f7465000000000000000000000000000000000000000000604082015250565b6000614c6a604b83614124565b9150614c7582614be8565b606082019050919050565b60006020820190508181036000830152614c9981614c5d565b9050919050565b6000614cab826141fd565b915063ffffffff821415614cc257614cc16148d2565b5b600182019050919050565b7f43616e6e6f7420646f776e766f7465206173206e6f204b59432065786973747360008201527f20666f72207468697320637573746f6d6572207965742e000000000000000000602082015250565b6000614d29603783614124565b9150614d3482614ccd565b604082019050919050565b60006020820190508181036000830152614d5881614d1c565b9050919050565b7f437573746f6d65722068617320616c7265616479206265656e20646f776e207660008201527f6f74656420627920796f752e0000000000000000000000000000000000000000602082015250565b6000614dbb602c83614124565b9150614dc682614d5f565b604082019050919050565b60006020820190508181036000830152614dea81614dae565b9050919050565b7f437573746f6d657220686173207570766f74656420627920796f752e20506c6560008201527f6173652072656d6f766520646f776e20766f746520746f20706c61636520616e60208201527f20757020766f7465000000000000000000000000000000000000000000000000604082015250565b6000614e73604883614124565b9150614e7e82614df1565b606082019050919050565b60006020820190508181036000830152614ea281614e66565b9050919050565b7f596f75206d75737420686176652061646d696e2070726976696c65646765732060008201527f746f2072756e2074686973000000000000000000000000000000000000000000602082015250565b6000614f05602b83614124565b9150614f1082614ea9565b604082019050919050565b60006020820190508181036000830152614f3481614ef8565b9050919050565b6000602082019050614f5060008301846141d3565b92915050565b6000614f61826141fd565b9150614f6c836141fd565b92508163ffffffff0483118215151615614f8957614f886148d2565b5b828202905092915050565b6000606082019050614fa960008301866141d3565b614fb660208301856141d3565b614fc360408301846141ee565b949350505050565b6000604082019050614fe060008301856141d3565b614fed60208301846141ee565b9392505050565b7f43616e6e6f742072656d6f766520646f776e766f7465206173206e6f204b594360008201527f2065786973747320666f72207468697320637573746f6d6572207965742e0000602082015250565b6000615050603e83614124565b915061505b82614ff4565b604082019050919050565b6000602082019050818103600083015261507f81615043565b9050919050565b7f437573746f6d6572206861736e2774206265656e20646f776e20766f7465642060008201527f627920796f752e2055736520646f776e566f7465437573746f6d65722e000000602082015250565b60006150e2603d83614124565b91506150ed82615086565b604082019050919050565b60006020820190508181036000830152615111816150d5565b9050919050565b7f41204b5943207265717565737420616c72656164792065786973747320666f7260008201527f207468697320757365722066726f6d20746869732062616e6b00000000000000602082015250565b6000615174603983614124565b915061517f82615118565b604082019050919050565b600060208201905081810360008301526151a381615167565b9050919050565b7f506c6561736520636865636b20686173682e2054686973207265636f7264206460008201527f6f65736e27742065786973740000000000000000000000000000000000000000602082015250565b6000615206602c83614124565b9150615211826151aa565b604082019050919050565b60006020820190508181036000830152615235816151f9565b9050919050565b7f43616e6e6f742072656d6f7665207570766f7465206173206e6f204b5943206560008201527f786973747320666f72207468697320637573746f6d6572207965742e00000000602082015250565b6000615298603c83614124565b91506152a38261523c565b604082019050919050565b600060208201905081810360008301526152c78161528b565b9050919050565b7f437573746f6d6572206861736e2774206265656e207570766f7465642062792060008201527f796f752e20757365207570566f7465437573746f6d6572000000000000000000602082015250565b600061532a603783614124565b9150615335826152ce565b604082019050919050565b600060208201905081810360008301526153598161531d565b9050919050565b7f546869732062616e6b2068617320616c7265616479206265656e206164646564600082015250565b6000615396602083614124565b91506153a182615360565b602082019050919050565b600060208201905081810360008301526153c581615389565b9050919050565b7f5468697320726567697374726174696f6e206e756d626572206861732062656560008201527f6e2074616b656e2e20506c6561736520656e74657220616e6f74686572206f6e60208201527f652e000000000000000000000000000000000000000000000000000000000000604082015250565b600061544e604283614124565b9150615459826153cc565b606082019050919050565b6000602082019050818103600083015261547d81615441565b9050919050565b7f412062616e6b206f662074686973206e616d6520616c7265616479206578697360008201527f747320696e20746865206e6574776f726b000000000000000000000000000000602082015250565b60006154e0603183614124565b91506154eb82615484565b604082019050919050565b6000602082019050818103600083015261550f816154d3565b9050919050565b6000819050919050565b6000819050919050565b600061554561554061553b84615516565b615520565b6141fd565b9050919050565b6155558161552a565b82525050565b600060a08201905081810360008301526155758188614168565b905061558460208301876141d3565b81810360408301526155968186614168565b90506155a5606083018561554c565b6155b260808301846141ee565b9695505050505050565b7f5468697320646f63756d656e7420616c72656164792065786973747320696e2060008201527f7468652073797374656d2e000000000000000000000000000000000000000000602082015250565b6000615618602b83614124565b9150615623826155bc565b604082019050919050565b600060208201905081810360008301526156478161560b565b9050919050565b600060408201905081810360008301526156688185614168565b905061567760208301846141ee565b939250505056fea2646970667358221220aa47ec23827e9daa47cb0e87971413e17ac8deff76018511bfb78d9c4d7c37c664736f6c63430008090033",
  "immutableReferences": {},
  "source": "// SPDX-License-Identifier: MIT\n\npragma solidity ^0.8.9;\n\ncontract KYC_Contract {\n    constructor() {\n        admin = msg.sender;\n    }\n\n    address admin;\n\n    modifier onlyAdmin() {\n        require(\n            msg.sender == admin,\n            \"You must have admin priviledges to run this\"\n        );\n        _;\n    }\n\n    modifier onlyApprovedBank() {\n        require(\n            added_banks[msg.sender] == true,\n            \"Only approved banks are allowed to perform this operation\"\n        );\n        _;\n    }\n\n    modifier bankAllowedToVote() {\n        require(\n            banks[msg.sender].isAllowedToVote == true,\n            \"Your right to vote has been revoked. Please contact admin.\"\n        );\n        _;\n    }\n\n    struct Customer {\n        string username;\n        // hash that points to customer documents in secure storage\n        string customerData;\n        // status of KYC request. if conditions are met, set to true. else false\n        bool kycStatus;\n        // number of upvotes from other banks to customer data\n        uint32 upVotes;\n        // number of downvotes from other banks to customer data\n        uint32 downVotes;\n        // unique address of the validating bank\n        address validatorBankAddress;\n    }\n\n    struct Bank {\n        string name;\n        // unique ethereum address of the bank\n        address ethAddress;\n        // total complaints against the bank by other banks in the network\n        uint32 complaintsReported;\n        //number of KYC requests initiated by bank\n        uint32 KYC_count;\n        // status. if false, bank cannot up/down vote any more customers\n        bool isAllowedToVote;\n        // registration number of the bank\n        string regNumber;\n    }\n\n    struct KYC_Request {\n        // map KYC request to customer data\n        string username;\n        // hash that points to customer documents in secure storage\n        string customerData;\n        // unique account address of the bank\n        address bankAddress;\n    }\n\n    // count of total banks in the network\n    uint32 totalBanks;\n\n    /* Mappings */\n\n    // customer name to view customer details\n    mapping(string => Customer) customers;\n\n    // unique bank address to view bank details\n    mapping(address => Bank) banks;\n\n    // customer name to view KYC requests\n    mapping(string => KYC_Request) KYC_requests;\n\n    // keep track of up votes for the customer by all the banks in the network\n    mapping(string => mapping(address => uint8)) up_votes;\n\n    // keep track of down votes for the customer by all the banks in the network\n    mapping(string => mapping(address => uint8)) down_votes;\n\n    // make sure all bank registration numbers are unique\n    mapping(string => bool) bank_registration_numbers;\n\n    // keep track of banks added to the network\n    mapping(address => bool) added_banks;\n\n    // keep track of bank names added to the system\n    mapping(string => bool) bank_names;\n\n    /* Events */\n\n    event AddKYCRequest(\n        string _customerName,\n        string _customerData,\n        address KYCRequestingBank\n    );\n    event RemoveKYCRequest(string _customerName, address KYCRemovingBank);\n\n    event AddCustomer(\n        string _customerName,\n        string _customerData,\n        address validatorBank\n    );\n    event ModifyCustomer(\n        string _customerName,\n        string _newCustomerData,\n        address bankAddress\n    );\n\n    event CustomerKYCStatus(string _customerName, bool _KYCStatus);\n\n    event UpVoteCustomer(string _customerName, address bankAddress);\n    event RemoveUpVoteCustomer(string _customerName, address bankAddress);\n\n    event DownVoteCustomer(string _customerName, address bankAddress);\n    event RemoveDownVoteCustomer(string _customerName, address bankAddress);\n\n    event ReportBank(\n        address _bankAddress,\n        address reportingBank,\n        bool isAllowedToVote\n    );\n\n    event AddBank(\n        string _bankName,\n        address _bankAddress,\n        string _bankRegistration,\n        uint32 _complaintsReported,\n        bool _KYCPermission\n    );\n\n    event ModifyIfBankAllowedToVote(\n        address _bankAddress,\n        bool _isAllowedToVote\n    );\n\n    event RemoveBank(address _bankAddress);\n\n    /**\n     * Record a new KYC request on behalf of a customer\n     * Bank is the sender of this request\n     * @param _customerName The name of the customer for whom KYC is to be done\n     * @param _customerData The hash of the customer data being requested\n     * @return bool confirmation that KYC request was added\n     */\n    function addKYCRequest(\n        string memory _customerName,\n        string memory _customerData\n    ) public returns (bool) {\n        // require that the request the bank is making isn't a duplicate\n        require(\n            !(KYC_requests[_customerName].bankAddress == msg.sender),\n            \"A KYC request already exists for this user from this bank\"\n        );\n\n        require(\n            compareStringsbyBytes(\n                customers[_customerName].customerData,\n                _customerData\n            ),\n            \"Please check hash. This record doesn't exist\"\n        );\n\n        // update KYC requests mapping\n        KYC_requests[_customerName].username = _customerName;\n        KYC_requests[_customerName].customerData = _customerData;\n        KYC_requests[_customerName].bankAddress = msg.sender;\n\n        // add KYC requests made by this bank\n        banks[msg.sender].KYC_count++;\n\n        emit AddKYCRequest(_customerName, _customerData, msg.sender);\n        return true;\n    }\n\n    /**\n     * Remove KYC request\n     * @param _customerName The name of the customer for whom KYC is to be removed\n     * @return bool confirmation that KYC request was removed\n     */\n    function removeKYCRequest(string memory _customerName)\n        public\n        onlyApprovedBank\n        returns (bool)\n    {\n        // require that the username in fact exists as a KYC request\n        require(\n            (KYC_requests[_customerName].bankAddress == msg.sender),\n            \"No KYC request exists for this customer. Please use addKYCRequest function\"\n        );\n\n        require(\n            compareStringsbyBytes(\n                customers[_customerName].username,\n                _customerName\n            ),\n            \"No request exists for this customer. Please use addKYCRequest function\"\n        );\n\n        // delete the customer's KYC request\n        delete KYC_requests[_customerName];\n\n        // reduce KYC requests made by this bank\n        banks[msg.sender].KYC_count--;\n\n        emit RemoveKYCRequest(_customerName, msg.sender);\n        return true;\n    }\n\n    /**\n     * View customer information\n     * @param _customerName Name of the customer\n     * @return struct Customer\n     */\n    function viewCustomer(string memory _customerName)\n        public\n        view\n        onlyApprovedBank\n        returns (\n            string memory,\n            string memory,\n            address,\n            bool,\n            uint32,\n            uint32\n        )\n    {\n        require(\n            compareStringsbyBytes(\n                _customerName,\n                customers[_customerName].username\n            ),\n            \"Customer doesn't exist. Use addCustomer to create new user\"\n        );\n\n        return (\n            customers[_customerName].username,\n            customers[_customerName].customerData,\n            customers[_customerName].validatorBankAddress,\n            customers[_customerName].kycStatus,\n            customers[_customerName].upVotes,\n            customers[_customerName].downVotes\n        );\n    }\n\n    /**\n     * Add a new customer\n     * @param _customerName Name of the customer\n     * @param _customerData Hash of the customer docs\n     * @return bool confirmation that user was added\n     */\n    function addCustomer(\n        string memory _customerName,\n        string memory _customerData\n    ) public onlyApprovedBank returns (bool) {\n        require(\n            customers[_customerName].validatorBankAddress == address(0x0),\n            \"User exists. Please call modifyCustomer to make any changes\"\n        );\n\n        customers[_customerName].username = _customerName;\n        customers[_customerName].customerData = _customerData;\n        customers[_customerName].validatorBankAddress = msg.sender;\n\n        // initiate KYC request on creation of customer\n        addKYCRequest(_customerName, _customerData);\n\n        emit AddCustomer(_customerName, _customerData, msg.sender);\n        return true;\n    }\n\n    /**\n     * Modify customer data\n     * @param _customerName Name of the customer\n     * @param _newCustomerData New hash of the updated docs\n     * @return bool confirmation that user was modified\n     */\n    function modifyCustomer(\n        string memory _customerName,\n        string memory _newCustomerData\n    ) public onlyApprovedBank returns (bool) {\n        require(\n            compareStringsbyBytes(\n                _customerName,\n                customers[_customerName].username\n            ),\n            \"Customer doesn't exist. Use addCustomer to create new user\"\n        );\n\n        require(\n            !compareStringsbyBytes(\n                _newCustomerData,\n                customers[_customerName].customerData\n            ),\n            \"This document already exists in the system.\"\n        );\n\n        customers[_customerName].customerData = _newCustomerData;\n\n        emit ModifyCustomer(_customerName, _newCustomerData, msg.sender);\n        return true;\n    }\n\n    /**\n     * Function to change the KYC status of customer based on up or down votes\n     * @param _customerName Name of the customer to be upvoted\n     * @return bool true if KYC status was updated\n     */\n    function customerKYCStatus(string memory _customerName)\n        private\n        returns (bool)\n    {\n        // solidity doesn't support float or rational numbers\n        // hence we multiply 100 to both sides of the equation\n        uint32 condition1 = customers[_customerName].downVotes * 100;\n        uint32 condition2 = 33 * totalBanks;\n\n        // if total down votes is lesser than a third of the total banks in the network\n        if (condition1 < condition2) {\n            // if upvotes is greater than down votes\n            if (\n                customers[_customerName].upVotes >\n                customers[_customerName].downVotes\n            ) {\n                customers[_customerName].kycStatus = true;\n            } else {\n                customers[_customerName].kycStatus = false;\n            }\n        } else {\n            customers[_customerName].kycStatus = false;\n        }\n\n        emit CustomerKYCStatus(\n            _customerName,\n            customers[_customerName].kycStatus\n        );\n        return true;\n    }\n\n    /**\n     * Function to add a new up vote for a customer\n     * @param _customerName Name of the customer to be upvoted\n     * @return bool confirmation that up votes were updated\n     */\n    function upVoteCustomer(string memory _customerName)\n        public\n        onlyApprovedBank\n        bankAllowedToVote\n        returns (bool)\n    {\n        require(\n            compareStringsbyBytes(\n                _customerName,\n                customers[_customerName].username\n            ),\n            \"Customer doesn't exist. Use addCustomer to create new user\"\n        );\n\n        require(\n            compareStringsbyBytes(\n                KYC_requests[_customerName].username,\n                _customerName\n            ),\n            \"Cannot upvote as no KYC exists for this customer yet.\"\n        );\n\n        require(\n            up_votes[_customerName][msg.sender] == 0,\n            \"Customer has already been upvoted by you.\"\n        );\n\n        require(\n            down_votes[_customerName][msg.sender] == 0,\n            \"Customer has down voted by you. Please remove down vote to place an up vote\"\n        );\n\n        // update upVote count\n        customers[_customerName].upVotes++;\n        up_votes[_customerName][msg.sender] = 1;\n\n        // update customer KYC status in light of vote update\n        customerKYCStatus(_customerName);\n\n        emit UpVoteCustomer(_customerName, msg.sender);\n        return true;\n    }\n\n    /**\n     * Function to remove an up vote for a customer\n     * @param _customerName Name of the customer to be upvoted\n     * @return bool confirmation that up votes were updated\n     */\n    function removeUpVoteCustomer(string memory _customerName)\n        public\n        onlyApprovedBank\n        bankAllowedToVote\n        returns (bool)\n    {\n        require(\n            compareStringsbyBytes(\n                _customerName,\n                customers[_customerName].username\n            ),\n            \"Customer doesn't exist. Use addCustomer to create new user\"\n        );\n\n        require(\n            compareStringsbyBytes(\n                KYC_requests[_customerName].username,\n                _customerName\n            ),\n            \"Cannot remove upvote as no KYC exists for this customer yet.\"\n        );\n\n        require(\n            up_votes[_customerName][msg.sender] == 1,\n            \"Customer hasn't been upvoted by you. use upVoteCustomer\"\n        );\n\n        // update upVote count\n        customers[_customerName].upVotes--;\n        up_votes[_customerName][msg.sender] = 0;\n\n        // update customer KYC status in light of vote update\n        customerKYCStatus(_customerName);\n\n        emit RemoveUpVoteCustomer(_customerName, msg.sender);\n        return true;\n    }\n\n    /**\n     * Function to add a new down vote for a customer\n     * @param _customerName Name of the customer to be upvoted\n     * @return bool confirmation that down votes were updated\n     */\n    function downVoteCustomer(string memory _customerName)\n        public\n        onlyApprovedBank\n        bankAllowedToVote\n        returns (bool)\n    {\n        require(\n            compareStringsbyBytes(\n                _customerName,\n                customers[_customerName].username\n            ),\n            \"Customer doesn't exist. Use addCustomer to create new user\"\n        );\n\n        require(\n            compareStringsbyBytes(\n                KYC_requests[_customerName].username,\n                _customerName\n            ),\n            \"Cannot downvote as no KYC exists for this customer yet.\"\n        );\n\n        require(\n            down_votes[_customerName][msg.sender] == 0,\n            \"Customer has already been down voted by you.\"\n        );\n\n        require(\n            up_votes[_customerName][msg.sender] == 0,\n            \"Customer has upvoted by you. Please remove down vote to place an up vote\"\n        );\n\n        // update downVote count\n        customers[_customerName].downVotes++;\n        down_votes[_customerName][msg.sender] = 1;\n\n        // update customer KYC status in light of vote update\n        customerKYCStatus(_customerName);\n\n        emit DownVoteCustomer(_customerName, msg.sender);\n        return true;\n    }\n\n    /**\n     * Function to remove a down vote for a customer\n     * @param _customerName Name of the customer to be upvoted\n     * @return bool confirmation that down votes were updated\n     */\n    function removeDownVoteCustomer(string memory _customerName)\n        public\n        onlyApprovedBank\n        bankAllowedToVote\n        returns (bool)\n    {\n        require(\n            compareStringsbyBytes(\n                _customerName,\n                customers[_customerName].username\n            ),\n            \"Customer doesn't exist. Use addCustomer to create new user\"\n        );\n\n        require(\n            compareStringsbyBytes(\n                KYC_requests[_customerName].username,\n                _customerName\n            ),\n            \"Cannot remove downvote as no KYC exists for this customer yet.\"\n        );\n\n        require(\n            down_votes[_customerName][msg.sender] == 1,\n            \"Customer hasn't been down voted by you. Use downVoteCustomer.\"\n        );\n\n        // update downVote count\n        customers[_customerName].downVotes--;\n        down_votes[_customerName][msg.sender] = 0;\n\n        // update customer KYC status in light of vote update\n        customerKYCStatus(_customerName);\n\n        emit RemoveDownVoteCustomer(_customerName, msg.sender);\n        return true;\n    }\n\n    /**\n     * View bank information\n     * @param _bankAddress Unique address of the bank\n     * @return struct Bank\n     */\n    function getBankDetails(address _bankAddress)\n        public\n        view\n        onlyApprovedBank\n        returns (\n            string memory,\n            address,\n            uint32,\n            uint32,\n            bool,\n            string memory\n        )\n    {\n        require(\n            banks[_bankAddress].ethAddress == _bankAddress,\n            \"Bank address is incorrect. No such record exists\"\n        );\n\n        return (\n            banks[_bankAddress].name,\n            banks[_bankAddress].ethAddress,\n            banks[_bankAddress].complaintsReported,\n            banks[_bankAddress].KYC_count,\n            banks[_bankAddress].isAllowedToVote,\n            banks[_bankAddress].regNumber\n        );\n    }\n\n    /**\n     * Report a complaint against a bank\n     * @param _bankAddress Unique address of the bank\n     * @return bool confirmation that report was submitted\n     */\n    function reportBank(address _bankAddress)\n        public\n        onlyApprovedBank\n        returns (bool)\n    {\n        require(\n            banks[_bankAddress].ethAddress == _bankAddress,\n            \"Bank address is incorrect. No such record exists\"\n        );\n\n        // update count of the complaints reported\n        banks[_bankAddress].complaintsReported++;\n\n        // solidity doesn't support float or rational numbers\n        // hence we multiply 100 to both sides of the equation\n        uint32 condition1 = banks[_bankAddress].complaintsReported * 100;\n        uint32 condition2 = 33 * totalBanks;\n        if (condition1 > condition2) {\n            banks[_bankAddress].isAllowedToVote = false;\n        }\n\n        emit ReportBank(\n            _bankAddress,\n            msg.sender,\n            banks[_bankAddress].isAllowedToVote\n        );\n        return true;\n    }\n\n    /**\n     * View total number of bank complaints\n     * @param _bankAddress unique address of the bank\n     * @return uint32 total number of bank complaints\n     */\n    function getBankComplaints(address _bankAddress)\n        public\n        view\n        onlyApprovedBank\n        returns (uint32)\n    {\n        require(\n            banks[_bankAddress].ethAddress == _bankAddress,\n            \"Bank address is incorrect. No such record exists\"\n        );\n\n        return banks[_bankAddress].complaintsReported;\n    }\n\n    /**\n     * Add a new bank to the network\n     * @param _bankName name of the bank\n     * @param _bankAddress unique address of the bank\n     * @param _bankRegistration unique registration number of the bank\n     * @return bool New bank has been added to the network\n     */\n    function addBank(\n        string memory _bankName,\n        address _bankAddress,\n        string memory _bankRegistration\n    ) public onlyAdmin returns (bool) {\n        require(\n            added_banks[_bankAddress] == false,\n            \"This bank has already been added\"\n        );\n\n        // require a unique registration number\n        require(\n            bank_registration_numbers[_bankRegistration] == false,\n            \"This registration number has been taken. Please enter another one.\"\n        );\n\n        require(\n            bank_names[_bankName] == false,\n            \"A bank of this name already exists in the network\"\n        );\n\n        banks[_bankAddress].name = _bankName;\n        banks[_bankAddress].ethAddress = _bankAddress;\n        banks[_bankAddress].complaintsReported = 0;\n        banks[_bankAddress].KYC_count = 0;\n        banks[_bankAddress].isAllowedToVote = true;\n        banks[_bankAddress].regNumber = _bankRegistration;\n\n        // update registration number and name mappings\n        bank_registration_numbers[_bankRegistration] = true;\n        added_banks[_bankAddress] = true;\n        bank_names[_bankName] = true;\n\n        // update count of total banks in the network\n        totalBanks++;\n\n        emit AddBank(_bankName, _bankAddress, _bankRegistration, 0, true);\n        return true;\n    }\n\n    /**\n     * Modify if a bank is allowed to vote in the KYC process\n     * @param _bankAddress unique address of the bank\n     * @param _isAllowedToVote boolean value, true if bank is allowed, false if not\n     * @return bool true if bank's voting rights were revoked by admin\n     */\n\n    function modifyIfBankAllowedToVote(\n        address _bankAddress,\n        bool _isAllowedToVote\n    ) public onlyAdmin returns (bool) {\n        require(\n            banks[_bankAddress].ethAddress == _bankAddress,\n            \"Bank address is incorrect. No such record exists\"\n        );\n\n        banks[_bankAddress].isAllowedToVote = _isAllowedToVote;\n\n        emit ModifyIfBankAllowedToVote(_bankAddress, _isAllowedToVote);\n        return true;\n    }\n\n    /**\n     * Remove a bank from the network\n     * @param _bankAddress unique address of the bank\n     * @return bool true if bank has been removed from the network by admin\n     */\n    function removeBank(address _bankAddress) public onlyAdmin returns (bool) {\n        require(\n            banks[_bankAddress].ethAddress == _bankAddress,\n            \"Bank address is incorrect. No such record exists\"\n        );\n\n        delete banks[_bankAddress];\n\n        emit RemoveBank(_bankAddress);\n        return true;\n    }\n\n    // source: https://ethereum.stackexchange.com/questions/45813/compare-strings-in-solidity\n    function compareStringsbyBytes(string memory s1, string memory s2)\n        private\n        pure\n        returns (bool)\n    {\n        return\n            keccak256(abi.encodePacked(s1)) == keccak256(abi.encodePacked(s2));\n    }\n}\n",
  "sourcePath": "/home/dhruv/Desktop/projects/dApp/KYC/contracts/KYC_Contract.sol",
  "compiler": {
    "name": "solc",
    "version": "0.8.9+commit.e5eed63a.Emscripten.clang"
  },
  "schemaVersion": "3.4.3",
  "updatedAt": "2021-12-05T02:55:32.832Z",
  "networkType": "ethereum",
  "devdoc": {
    "kind": "dev",
    "methods": {
      "addBank(string,address,string)": {
        "params": {
          "_bankAddress": "unique address of the bank",
          "_bankName": "name of the bank",
          "_bankRegistration": "unique registration number of the bank"
        },
        "returns": {
          "_0": "bool New bank has been added to the network"
        }
      },
      "addCustomer(string,string)": {
        "params": {
          "_customerData": "Hash of the customer docs",
          "_customerName": "Name of the customer"
        },
        "returns": {
          "_0": "bool confirmation that user was added"
        }
      },
      "addKYCRequest(string,string)": {
        "params": {
          "_customerData": "The hash of the customer data being requested",
          "_customerName": "The name of the customer for whom KYC is to be done"
        },
        "returns": {
          "_0": "bool confirmation that KYC request was added"
        }
      },
      "downVoteCustomer(string)": {
        "params": {
          "_customerName": "Name of the customer to be upvoted"
        },
        "returns": {
          "_0": "bool confirmation that down votes were updated"
        }
      },
      "getBankComplaints(address)": {
        "params": {
          "_bankAddress": "unique address of the bank"
        },
        "returns": {
          "_0": "uint32 total number of bank complaints"
        }
      },
      "getBankDetails(address)": {
        "params": {
          "_bankAddress": "Unique address of the bank"
        },
        "returns": {
          "_0": "struct Bank"
        }
      },
      "modifyCustomer(string,string)": {
        "params": {
          "_customerName": "Name of the customer",
          "_newCustomerData": "New hash of the updated docs"
        },
        "returns": {
          "_0": "bool confirmation that user was modified"
        }
      },
      "modifyIfBankAllowedToVote(address,bool)": {
        "params": {
          "_bankAddress": "unique address of the bank",
          "_isAllowedToVote": "boolean value, true if bank is allowed, false if not"
        },
        "returns": {
          "_0": "bool true if bank's voting rights were revoked by admin"
        }
      },
      "removeBank(address)": {
        "params": {
          "_bankAddress": "unique address of the bank"
        },
        "returns": {
          "_0": "bool true if bank has been removed from the network by admin"
        }
      },
      "removeDownVoteCustomer(string)": {
        "params": {
          "_customerName": "Name of the customer to be upvoted"
        },
        "returns": {
          "_0": "bool confirmation that down votes were updated"
        }
      },
      "removeKYCRequest(string)": {
        "params": {
          "_customerName": "The name of the customer for whom KYC is to be removed"
        },
        "returns": {
          "_0": "bool confirmation that KYC request was removed"
        }
      },
      "removeUpVoteCustomer(string)": {
        "params": {
          "_customerName": "Name of the customer to be upvoted"
        },
        "returns": {
          "_0": "bool confirmation that up votes were updated"
        }
      },
      "reportBank(address)": {
        "params": {
          "_bankAddress": "Unique address of the bank"
        },
        "returns": {
          "_0": "bool confirmation that report was submitted"
        }
      },
      "upVoteCustomer(string)": {
        "params": {
          "_customerName": "Name of the customer to be upvoted"
        },
        "returns": {
          "_0": "bool confirmation that up votes were updated"
        }
      },
      "viewCustomer(string)": {
        "params": {
          "_customerName": "Name of the customer"
        },
        "returns": {
          "_0": "struct Customer"
        }
      }
    },
    "version": 1
  },
  "userdoc": {
    "kind": "user",
    "methods": {
      "addBank(string,address,string)": {
        "notice": "Add a new bank to the network"
      },
      "addCustomer(string,string)": {
        "notice": "Add a new customer"
      },
      "addKYCRequest(string,string)": {
        "notice": "Record a new KYC request on behalf of a customer Bank is the sender of this request"
      },
      "downVoteCustomer(string)": {
        "notice": "Function to add a new down vote for a customer"
      },
      "getBankComplaints(address)": {
        "notice": "View total number of bank complaints"
      },
      "getBankDetails(address)": {
        "notice": "View bank information"
      },
      "modifyCustomer(string,string)": {
        "notice": "Modify customer data"
      },
      "modifyIfBankAllowedToVote(address,bool)": {
        "notice": "Modify if a bank is allowed to vote in the KYC process"
      },
      "removeBank(address)": {
        "notice": "Remove a bank from the network"
      },
      "removeDownVoteCustomer(string)": {
        "notice": "Function to remove a down vote for a customer"
      },
      "removeKYCRequest(string)": {
        "notice": "Remove KYC request"
      },
      "removeUpVoteCustomer(string)": {
        "notice": "Function to remove an up vote for a customer"
      },
      "reportBank(address)": {
        "notice": "Report a complaint against a bank"
      },
      "upVoteCustomer(string)": {
        "notice": "Function to add a new up vote for a customer"
      },
      "viewCustomer(string)": {
        "notice": "View customer information"
      }
    },
    "version": 1
  }
}