{
  "contractName": "KYC_Contract",
  "abi": [
    {
      "inputs": [],
      "stateMutability": "nonpayable",
      "type": "constructor"
    },
    {
      "anonymous": false,
      "inputs": [
        {
          "indexed": false,
          "internalType": "string",
          "name": "_bankName",
          "type": "string"
        },
        {
          "indexed": false,
          "internalType": "address",
          "name": "_bankAddress",
          "type": "address"
        },
        {
          "indexed": false,
          "internalType": "string",
          "name": "_bankRegistration",
          "type": "string"
        },
        {
          "indexed": false,
          "internalType": "uint32",
          "name": "_complaintsReported",
          "type": "uint32"
        },
        {
          "indexed": false,
          "internalType": "bool",
          "name": "_KYCPermission",
          "type": "bool"
        }
      ],
      "name": "AddBank",
      "type": "event"
    },
    {
      "anonymous": false,
      "inputs": [
        {
          "indexed": false,
          "internalType": "string",
          "name": "_customerName",
          "type": "string"
        },
        {
          "indexed": false,
          "internalType": "string",
          "name": "_customerData",
          "type": "string"
        },
        {
          "indexed": false,
          "internalType": "address",
          "name": "validatorBank",
          "type": "address"
        }
      ],
      "name": "AddCustomer",
      "type": "event"
    },
    {
      "anonymous": false,
      "inputs": [
        {
          "indexed": false,
          "internalType": "string",
          "name": "_customerName",
          "type": "string"
        },
        {
          "indexed": false,
          "internalType": "string",
          "name": "_customerData",
          "type": "string"
        },
        {
          "indexed": false,
          "internalType": "address",
          "name": "KYCRequestingBank",
          "type": "address"
        }
      ],
      "name": "AddKYCRequest",
      "type": "event"
    },
    {
      "anonymous": false,
      "inputs": [
        {
          "indexed": false,
          "internalType": "string",
          "name": "_customerName",
          "type": "string"
        },
        {
          "indexed": false,
          "internalType": "address",
          "name": "bankAddress",
          "type": "address"
        }
      ],
      "name": "DownVoteCustomer",
      "type": "event"
    },
    {
      "anonymous": false,
      "inputs": [
        {
          "indexed": false,
          "internalType": "string",
          "name": "_customerName",
          "type": "string"
        },
        {
          "indexed": false,
          "internalType": "string",
          "name": "_newCustomerData",
          "type": "string"
        },
        {
          "indexed": false,
          "internalType": "address",
          "name": "bankAddress",
          "type": "address"
        }
      ],
      "name": "ModifyCustomer",
      "type": "event"
    },
    {
      "anonymous": false,
      "inputs": [
        {
          "indexed": false,
          "internalType": "string",
          "name": "_customerName",
          "type": "string"
        },
        {
          "indexed": false,
          "internalType": "address",
          "name": "bankAddress",
          "type": "address"
        }
      ],
      "name": "RemoveDownVoteCustomer",
      "type": "event"
    },
    {
      "anonymous": false,
      "inputs": [
        {
          "indexed": false,
          "internalType": "string",
          "name": "_customerName",
          "type": "string"
        },
        {
          "indexed": false,
          "internalType": "address",
          "name": "KYCRemovingBank",
          "type": "address"
        }
      ],
      "name": "RemoveKYCRequest",
      "type": "event"
    },
    {
      "anonymous": false,
      "inputs": [
        {
          "indexed": false,
          "internalType": "string",
          "name": "_customerName",
          "type": "string"
        },
        {
          "indexed": false,
          "internalType": "address",
          "name": "bankAddress",
          "type": "address"
        }
      ],
      "name": "RemoveUpVoteCustomer",
      "type": "event"
    },
    {
      "anonymous": false,
      "inputs": [
        {
          "indexed": false,
          "internalType": "address",
          "name": "_bankAddress",
          "type": "address"
        },
        {
          "indexed": false,
          "internalType": "address",
          "name": "reportingBank",
          "type": "address"
        }
      ],
      "name": "ReportBank",
      "type": "event"
    },
    {
      "anonymous": false,
      "inputs": [
        {
          "indexed": false,
          "internalType": "string",
          "name": "_customerName",
          "type": "string"
        },
        {
          "indexed": false,
          "internalType": "address",
          "name": "bankAddress",
          "type": "address"
        }
      ],
      "name": "UpVoteCustomer",
      "type": "event"
    },
    {
      "inputs": [
        {
          "internalType": "string",
          "name": "_customerName",
          "type": "string"
        },
        {
          "internalType": "string",
          "name": "_customerData",
          "type": "string"
        }
      ],
      "name": "addKYCRequest",
      "outputs": [
        {
          "internalType": "bool",
          "name": "",
          "type": "bool"
        }
      ],
      "stateMutability": "nonpayable",
      "type": "function"
    },
    {
      "inputs": [
        {
          "internalType": "string",
          "name": "_customerName",
          "type": "string"
        }
      ],
      "name": "removeKYCRequest",
      "outputs": [
        {
          "internalType": "bool",
          "name": "",
          "type": "bool"
        }
      ],
      "stateMutability": "nonpayable",
      "type": "function"
    },
    {
      "inputs": [
        {
          "internalType": "string",
          "name": "_customerName",
          "type": "string"
        }
      ],
      "name": "viewCustomer",
      "outputs": [
        {
          "internalType": "string",
          "name": "",
          "type": "string"
        },
        {
          "internalType": "string",
          "name": "",
          "type": "string"
        },
        {
          "internalType": "address",
          "name": "",
          "type": "address"
        },
        {
          "internalType": "uint32",
          "name": "",
          "type": "uint32"
        },
        {
          "internalType": "uint32",
          "name": "",
          "type": "uint32"
        }
      ],
      "stateMutability": "view",
      "type": "function",
      "constant": true
    },
    {
      "inputs": [
        {
          "internalType": "string",
          "name": "_customerName",
          "type": "string"
        },
        {
          "internalType": "string",
          "name": "_customerData",
          "type": "string"
        }
      ],
      "name": "addCustomer",
      "outputs": [
        {
          "internalType": "bool",
          "name": "",
          "type": "bool"
        }
      ],
      "stateMutability": "nonpayable",
      "type": "function"
    },
    {
      "inputs": [
        {
          "internalType": "string",
          "name": "_customerName",
          "type": "string"
        },
        {
          "internalType": "string",
          "name": "_newCustomerData",
          "type": "string"
        }
      ],
      "name": "modifyCustomer",
      "outputs": [
        {
          "internalType": "bool",
          "name": "",
          "type": "bool"
        }
      ],
      "stateMutability": "nonpayable",
      "type": "function"
    },
    {
      "inputs": [
        {
          "internalType": "string",
          "name": "_customerName",
          "type": "string"
        }
      ],
      "name": "upVoteCustomer",
      "outputs": [
        {
          "internalType": "bool",
          "name": "",
          "type": "bool"
        }
      ],
      "stateMutability": "nonpayable",
      "type": "function"
    },
    {
      "inputs": [
        {
          "internalType": "string",
          "name": "_customerName",
          "type": "string"
        }
      ],
      "name": "removeUpVoteCustomer",
      "outputs": [
        {
          "internalType": "bool",
          "name": "",
          "type": "bool"
        }
      ],
      "stateMutability": "nonpayable",
      "type": "function"
    },
    {
      "inputs": [
        {
          "internalType": "string",
          "name": "_customerName",
          "type": "string"
        }
      ],
      "name": "downVoteCustomer",
      "outputs": [
        {
          "internalType": "bool",
          "name": "",
          "type": "bool"
        }
      ],
      "stateMutability": "nonpayable",
      "type": "function"
    },
    {
      "inputs": [
        {
          "internalType": "string",
          "name": "_customerName",
          "type": "string"
        }
      ],
      "name": "removeDownVoteCustomer",
      "outputs": [
        {
          "internalType": "bool",
          "name": "",
          "type": "bool"
        }
      ],
      "stateMutability": "nonpayable",
      "type": "function"
    },
    {
      "inputs": [
        {
          "internalType": "address",
          "name": "_bankAddress",
          "type": "address"
        }
      ],
      "name": "getBankDetails",
      "outputs": [
        {
          "internalType": "string",
          "name": "",
          "type": "string"
        },
        {
          "internalType": "address",
          "name": "",
          "type": "address"
        },
        {
          "internalType": "uint32",
          "name": "",
          "type": "uint32"
        },
        {
          "internalType": "uint32",
          "name": "",
          "type": "uint32"
        },
        {
          "internalType": "bool",
          "name": "",
          "type": "bool"
        },
        {
          "internalType": "string",
          "name": "",
          "type": "string"
        }
      ],
      "stateMutability": "view",
      "type": "function",
      "constant": true
    },
    {
      "inputs": [
        {
          "internalType": "address",
          "name": "_bankAddress",
          "type": "address"
        }
      ],
      "name": "reportBank",
      "outputs": [
        {
          "internalType": "bool",
          "name": "",
          "type": "bool"
        }
      ],
      "stateMutability": "nonpayable",
      "type": "function"
    },
    {
      "inputs": [
        {
          "internalType": "address",
          "name": "_bankAddress",
          "type": "address"
        }
      ],
      "name": "getBankComplaints",
      "outputs": [
        {
          "internalType": "uint32",
          "name": "",
          "type": "uint32"
        }
      ],
      "stateMutability": "view",
      "type": "function",
      "constant": true
    },
    {
      "inputs": [
        {
          "internalType": "string",
          "name": "_bankName",
          "type": "string"
        },
        {
          "internalType": "address",
          "name": "_bankAddress",
          "type": "address"
        },
        {
          "internalType": "string",
          "name": "_bankRegistration",
          "type": "string"
        }
      ],
      "name": "addBank",
      "outputs": [
        {
          "internalType": "bool",
          "name": "",
          "type": "bool"
        }
      ],
      "stateMutability": "nonpayable",
      "type": "function"
    }
  ],
  "bytecode": "0x608060405234801561001057600080fd5b50336000806101000a81548173ffffffffffffffffffffffffffffffffffffffff021916908373ffffffffffffffffffffffffffffffffffffffff160217905550613920806100606000396000f3fe608060405234801561001057600080fd5b50600436106100cf5760003560e01c806382e0438a1161008c578063bd561e1411610066578063bd561e141461028d578063cae55c3f146102bd578063ccfa8e71146102ed578063f72860ca1461031d576100cf565b806382e0438a146101fd578063a5a498001461022d578063ba03ef3a1461025d576100cf565b8063107925bb146100d457806315101e02146101085780631e8eba6e1461013d5780633190abc01461016d578063569e64bc1461019d5780635ec2a7f2146101cd575b600080fd5b6100ee60048036038101906100e9919061289a565b61034d565b6040516100ff9594939291906129cb565b60405180910390f35b610122600480360381019061011d9190612a58565b610617565b60405161013496959493929190612aa0565b60405180910390f35b6101576004803603810190610152919061289a565b6109fb565b6040516101649190612b0f565b60405180910390f35b61018760048036038101906101829190612b2a565b610cc9565b6040516101949190612b0f565b60405180910390f35b6101b760048036038101906101b2919061289a565b610e8b565b6040516101c49190612b0f565b60405180910390f35b6101e760048036038101906101e29190612a58565b611144565b6040516101f49190612ba2565b60405180910390f35b6102176004803603810190610212919061289a565b611270565b6040516102249190612b0f565b60405180910390f35b61024760048036038101906102429190612a58565b611529565b6040516102549190612b0f565b60405180910390f35b6102776004803603810190610272919061289a565b6116be565b6040516102849190612b0f565b60405180910390f35b6102a760048036038101906102a29190612b2a565b611977565b6040516102b49190612b0f565b60405180910390f35b6102d760048036038101906102d2919061289a565b611cad565b6040516102e49190612b0f565b60405180910390f35b61030760048036038101906103029190612bbd565b611f66565b6040516103149190612b0f565b60405180910390f35b61033760048036038101906103329190612b2a565b6124d8565b6040516103449190612b0f565b60405180910390f35b60608060008060003373ffffffffffffffffffffffffffffffffffffffff1660018760405161037c9190612c84565b908152602001604051809103902060020160099054906101000a900473ffffffffffffffffffffffffffffffffffffffff1673ffffffffffffffffffffffffffffffffffffffff1614610404576040517f08c379a00000000000000000000000000000000000000000000000000000000081526004016103fb90612d33565b60405180910390fd5b6001866040516104149190612c84565b90815260200160405180910390206000016001876040516104359190612c84565b90815260200160405180910390206001016001886040516104569190612c84565b908152602001604051809103902060020160099054906101000a900473ffffffffffffffffffffffffffffffffffffffff166001896040516104989190612c84565b908152602001604051809103902060020160019054906101000a900463ffffffff1660018a6040516104ca9190612c84565b908152602001604051809103902060020160059054906101000a900463ffffffff168480546104f890612d82565b80601f016020809104026020016040519081016040528092919081815260200182805461052490612d82565b80156105715780601f1061054657610100808354040283529160200191610571565b820191906000526020600020905b81548152906001019060200180831161055457829003601f168201915b5050505050945083805461058490612d82565b80601f01602080910402602001604051908101604052809291908181526020018280546105b090612d82565b80156105fd5780601f106105d2576101008083540402835291602001916105fd565b820191906000526020600020905b8154815290600101906020018083116105e057829003601f168201915b505050505093509450945094509450945091939590929450565b606060008060008060608673ffffffffffffffffffffffffffffffffffffffff16600260008973ffffffffffffffffffffffffffffffffffffffff1673ffffffffffffffffffffffffffffffffffffffff16815260200190815260200160002060010160009054906101000a900473ffffffffffffffffffffffffffffffffffffffff1673ffffffffffffffffffffffffffffffffffffffff16146106f1576040517f08c379a00000000000000000000000000000000000000000000000000000000081526004016106e890612e26565b60405180910390fd5b600260008873ffffffffffffffffffffffffffffffffffffffff1673ffffffffffffffffffffffffffffffffffffffff168152602001908152602001600020600001600260008973ffffffffffffffffffffffffffffffffffffffff1673ffffffffffffffffffffffffffffffffffffffff16815260200190815260200160002060010160009054906101000a900473ffffffffffffffffffffffffffffffffffffffff16600260008a73ffffffffffffffffffffffffffffffffffffffff1673ffffffffffffffffffffffffffffffffffffffff16815260200190815260200160002060010160149054906101000a900463ffffffff16600260008b73ffffffffffffffffffffffffffffffffffffffff1673ffffffffffffffffffffffffffffffffffffffff16815260200190815260200160002060010160189054906101000a900463ffffffff16600260008c73ffffffffffffffffffffffffffffffffffffffff1673ffffffffffffffffffffffffffffffffffffffff168152602001908152602001600020600101601c9054906101000a900460ff16600260008d73ffffffffffffffffffffffffffffffffffffffff1673ffffffffffffffffffffffffffffffffffffffff1681526020019081526020016000206002018580546108da90612d82565b80601f016020809104026020016040519081016040528092919081815260200182805461090690612d82565b80156109535780601f1061092857610100808354040283529160200191610953565b820191906000526020600020905b81548152906001019060200180831161093657829003601f168201915b5050505050955080805461096690612d82565b80601f016020809104026020016040519081016040528092919081815260200182805461099290612d82565b80156109df5780601f106109b4576101008083540402835291602001916109df565b820191906000526020600020905b8154815290600101906020018083116109c257829003601f168201915b5050505050905095509550955095509550955091939550919395565b60003373ffffffffffffffffffffffffffffffffffffffff16600383604051610a249190612c84565b908152602001604051809103902060020160009054906101000a900473ffffffffffffffffffffffffffffffffffffffff1673ffffffffffffffffffffffffffffffffffffffff1614610aac576040517f08c379a0000000000000000000000000000000000000000000000000000000008152600401610aa390612ede565b60405180910390fd5b610b5f600183604051610abf9190612c84565b90815260200160405180910390206000018054610adb90612d82565b80601f0160208091040260200160405190810160405280929190818152602001828054610b0790612d82565b8015610b545780601f10610b2957610100808354040283529160200191610b54565b820191906000526020600020905b815481529060010190602001808311610b3757829003601f168201915b505050505083612604565b610b9e576040517f08c379a0000000000000000000000000000000000000000000000000000000008152600401610b9590612f96565b60405180910390fd5b600382604051610bae9190612c84565b908152602001604051809103902060008082016000610bcd919061265d565b600182016000610bdd919061265d565b6002820160006101000a81549073ffffffffffffffffffffffffffffffffffffffff02191690555050600260003373ffffffffffffffffffffffffffffffffffffffff1673ffffffffffffffffffffffffffffffffffffffff168152602001908152602001600020600101601881819054906101000a900463ffffffff1680929190610c6890612fe5565b91906101000a81548163ffffffff021916908363ffffffff160217905550507f496d5d5434647bc8da1b957c8a39657a0fe5021a5ee01bfb6566ee87c56639dd8233604051610cb892919061300f565b60405180910390a160019050919050565b60008073ffffffffffffffffffffffffffffffffffffffff16600184604051610cf29190612c84565b908152602001604051809103902060020160099054906101000a900473ffffffffffffffffffffffffffffffffffffffff1673ffffffffffffffffffffffffffffffffffffffff1614610d7a576040517f08c379a0000000000000000000000000000000000000000000000000000000008152600401610d71906130b1565b60405180910390fd5b82600184604051610d8b9190612c84565b90815260200160405180910390206000019080519060200190610daf92919061269d565b5081600184604051610dc19190612c84565b90815260200160405180910390206001019080519060200190610de592919061269d565b5033600184604051610df79190612c84565b908152602001604051809103902060020160096101000a81548173ffffffffffffffffffffffffffffffffffffffff021916908373ffffffffffffffffffffffffffffffffffffffff1602179055507f720f91ef7267a7db0cf726ddb013dd753364a2e1e65319cd32e1d96c3aa38dbd838333604051610e79939291906130d1565b60405180910390a16001905092915050565b6000610f4082600184604051610ea19190612c84565b90815260200160405180910390206000018054610ebd90612d82565b80601f0160208091040260200160405190810160405280929190818152602001828054610ee990612d82565b8015610f365780601f10610f0b57610100808354040283529160200191610f36565b820191906000526020600020905b815481529060010190602001808311610f1957829003601f168201915b5050505050612604565b610f7f576040517f08c379a0000000000000000000000000000000000000000000000000000000008152600401610f7690613188565b60405180910390fd5b6000600483604051610f919190612c84565b908152602001604051809103902060003373ffffffffffffffffffffffffffffffffffffffff1673ffffffffffffffffffffffffffffffffffffffff16815260200190815260200160002060009054906101000a900460ff1660ff161461102d576040517f08c379a00000000000000000000000000000000000000000000000000000000081526004016110249061321a565b60405180910390fd5b60018260405161103d9190612c84565b9081526020016040518091039020600201600181819054906101000a900463ffffffff168092919061106e9061323a565b91906101000a81548163ffffffff021916908363ffffffff16021790555050600160048360405161109f9190612c84565b908152602001604051809103902060003373ffffffffffffffffffffffffffffffffffffffff1673ffffffffffffffffffffffffffffffffffffffff16815260200190815260200160002060006101000a81548160ff021916908360ff1602179055507f8204fd0d7ac1bb685e9147e1259497a085786f9ec68e8b44514f432d7d7fdfe1823360405161113392919061300f565b60405180910390a160019050919050565b60008173ffffffffffffffffffffffffffffffffffffffff16600260008473ffffffffffffffffffffffffffffffffffffffff1673ffffffffffffffffffffffffffffffffffffffff16815260200190815260200160002060010160009054906101000a900473ffffffffffffffffffffffffffffffffffffffff1673ffffffffffffffffffffffffffffffffffffffff1614611216576040517f08c379a000000000000000000000000000000000000000000000000000000000815260040161120d90612e26565b60405180910390fd5b600260008373ffffffffffffffffffffffffffffffffffffffff1673ffffffffffffffffffffffffffffffffffffffff16815260200190815260200160002060010160149054906101000a900463ffffffff169050919050565b6000611325826001846040516112869190612c84565b908152602001604051809103902060000180546112a290612d82565b80601f01602080910402602001604051908101604052809291908181526020018280546112ce90612d82565b801561131b5780601f106112f05761010080835404028352916020019161131b565b820191906000526020600020905b8154815290600101906020018083116112fe57829003601f168201915b5050505050612604565b611364576040517f08c379a000000000000000000000000000000000000000000000000000000000815260040161135b90613188565b60405180910390fd5b60006005836040516113769190612c84565b908152602001604051809103902060003373ffffffffffffffffffffffffffffffffffffffff1673ffffffffffffffffffffffffffffffffffffffff16815260200190815260200160002060009054906101000a900460ff1660ff1614611412576040517f08c379a0000000000000000000000000000000000000000000000000000000008152600401611409906132d9565b60405180910390fd5b6001826040516114229190612c84565b9081526020016040518091039020600201600581819054906101000a900463ffffffff16809291906114539061323a565b91906101000a81548163ffffffff021916908363ffffffff1602179055505060016005836040516114849190612c84565b908152602001604051809103902060003373ffffffffffffffffffffffffffffffffffffffff1673ffffffffffffffffffffffffffffffffffffffff16815260200190815260200160002060006101000a81548160ff021916908360ff1602179055507ff76612a4db926c845e0a50031eb928cbbf707428872d88840995c7b8da5f4145823360405161151892919061300f565b60405180910390a160019050919050565b60008173ffffffffffffffffffffffffffffffffffffffff16600260008473ffffffffffffffffffffffffffffffffffffffff1673ffffffffffffffffffffffffffffffffffffffff16815260200190815260200160002060010160009054906101000a900473ffffffffffffffffffffffffffffffffffffffff1673ffffffffffffffffffffffffffffffffffffffff16146115fb576040517f08c379a00000000000000000000000000000000000000000000000000000000081526004016115f290612e26565b60405180910390fd5b600260008373ffffffffffffffffffffffffffffffffffffffff1673ffffffffffffffffffffffffffffffffffffffff168152602001908152602001600020600101601481819054906101000a900463ffffffff168092919061165d9061323a565b91906101000a81548163ffffffff021916908363ffffffff160217905550507f9c7df5075c2f638a24f1e59a1e0fd6260dea105ba04529068032e622123bf0c182336040516116ad9291906132f9565b60405180910390a160019050919050565b6000611773826001846040516116d49190612c84565b908152602001604051809103902060000180546116f090612d82565b80601f016020809104026020016040519081016040528092919081815260200182805461171c90612d82565b80156117695780601f1061173e57610100808354040283529160200191611769565b820191906000526020600020905b81548152906001019060200180831161174c57829003601f168201915b5050505050612604565b6117b2576040517f08c379a00000000000000000000000000000000000000000000000000000000081526004016117a990613188565b60405180910390fd5b60016005836040516117c49190612c84565b908152602001604051809103902060003373ffffffffffffffffffffffffffffffffffffffff1673ffffffffffffffffffffffffffffffffffffffff16815260200190815260200160002060009054906101000a900460ff1660ff1614611860576040517f08c379a000000000000000000000000000000000000000000000000000000000815260040161185790613394565b60405180910390fd5b6001826040516118709190612c84565b9081526020016040518091039020600201600581819054906101000a900463ffffffff16809291906118a190612fe5565b91906101000a81548163ffffffff021916908363ffffffff1602179055505060006005836040516118d29190612c84565b908152602001604051809103902060003373ffffffffffffffffffffffffffffffffffffffff1673ffffffffffffffffffffffffffffffffffffffff16815260200190815260200160002060006101000a81548160ff021916908360ff1602179055507f884e374f9a1d1ef39e4f98a04c2a047354902ad3143ff7a278d9937b56e114d0823360405161196692919061300f565b60405180910390a160019050919050565b60003373ffffffffffffffffffffffffffffffffffffffff166003846040516119a09190612c84565b908152602001604051809103902060020160009054906101000a900473ffffffffffffffffffffffffffffffffffffffff1673ffffffffffffffffffffffffffffffffffffffff161415611a29576040517f08c379a0000000000000000000000000000000000000000000000000000000008152600401611a2090613426565b60405180910390fd5b611adc600184604051611a3c9190612c84565b90815260200160405180910390206001018054611a5890612d82565b80601f0160208091040260200160405190810160405280929190818152602001828054611a8490612d82565b8015611ad15780601f10611aa657610100808354040283529160200191611ad1565b820191906000526020600020905b815481529060010190602001808311611ab457829003601f168201915b505050505083612604565b611b1b576040517f08c379a0000000000000000000000000000000000000000000000000000000008152600401611b12906134b8565b60405180910390fd5b82600384604051611b2c9190612c84565b90815260200160405180910390206000019080519060200190611b5092919061269d565b5081600384604051611b629190612c84565b90815260200160405180910390206001019080519060200190611b8692919061269d565b5033600384604051611b989190612c84565b908152602001604051809103902060020160006101000a81548173ffffffffffffffffffffffffffffffffffffffff021916908373ffffffffffffffffffffffffffffffffffffffff160217905550600260003373ffffffffffffffffffffffffffffffffffffffff1673ffffffffffffffffffffffffffffffffffffffff168152602001908152602001600020600101601881819054906101000a900463ffffffff1680929190611c499061323a565b91906101000a81548163ffffffff021916908363ffffffff160217905550507f7fbec8867635bbaab7103c5d6cc8b0ef0767df0159177b6a07b8dbd5afba08cf838333604051611c9b939291906130d1565b60405180910390a16001905092915050565b6000611d6282600184604051611cc39190612c84565b90815260200160405180910390206000018054611cdf90612d82565b80601f0160208091040260200160405190810160405280929190818152602001828054611d0b90612d82565b8015611d585780601f10611d2d57610100808354040283529160200191611d58565b820191906000526020600020905b815481529060010190602001808311611d3b57829003601f168201915b5050505050612604565b611da1576040517f08c379a0000000000000000000000000000000000000000000000000000000008152600401611d9890613188565b60405180910390fd5b6001600483604051611db39190612c84565b908152602001604051809103902060003373ffffffffffffffffffffffffffffffffffffffff1673ffffffffffffffffffffffffffffffffffffffff16815260200190815260200160002060009054906101000a900460ff1660ff1614611e4f576040517f08c379a0000000000000000000000000000000000000000000000000000000008152600401611e469061354a565b60405180910390fd5b600182604051611e5f9190612c84565b9081526020016040518091039020600201600181819054906101000a900463ffffffff1680929190611e9090612fe5565b91906101000a81548163ffffffff021916908363ffffffff160217905550506000600483604051611ec19190612c84565b908152602001604051809103902060003373ffffffffffffffffffffffffffffffffffffffff1673ffffffffffffffffffffffffffffffffffffffff16815260200190815260200160002060006101000a81548160ff021916908360ff1602179055507fb16a6a90c9dc1e72f7d5f1fd2bb19bfe10570dd0f64cc907ba4561c1b252e9878233604051611f5592919061300f565b60405180910390a160019050919050565b60008060009054906101000a900473ffffffffffffffffffffffffffffffffffffffff1673ffffffffffffffffffffffffffffffffffffffff163373ffffffffffffffffffffffffffffffffffffffff1614611ff7576040517f08c379a0000000000000000000000000000000000000000000000000000000008152600401611fee906135dc565b60405180910390fd5b60001515600760008573ffffffffffffffffffffffffffffffffffffffff1673ffffffffffffffffffffffffffffffffffffffff16815260200190815260200160002060009054906101000a900460ff1615151461208a576040517f08c379a000000000000000000000000000000000000000000000000000000000815260040161208190613648565b60405180910390fd5b6000151560068360405161209e9190612c84565b908152602001604051809103902060009054906101000a900460ff161515146120fc576040517f08c379a00000000000000000000000000000000000000000000000000000000081526004016120f390613700565b60405180910390fd5b600015156008856040516121109190612c84565b908152602001604051809103902060009054906101000a900460ff1615151461216e576040517f08c379a000000000000000000000000000000000000000000000000000000000815260040161216590613792565b60405180910390fd5b83600260008573ffffffffffffffffffffffffffffffffffffffff1673ffffffffffffffffffffffffffffffffffffffff16815260200190815260200160002060000190805190602001906121c492919061269d565b5082600260008573ffffffffffffffffffffffffffffffffffffffff1673ffffffffffffffffffffffffffffffffffffffff16815260200190815260200160002060010160006101000a81548173ffffffffffffffffffffffffffffffffffffffff021916908373ffffffffffffffffffffffffffffffffffffffff1602179055506000600260008573ffffffffffffffffffffffffffffffffffffffff1673ffffffffffffffffffffffffffffffffffffffff16815260200190815260200160002060010160146101000a81548163ffffffff021916908363ffffffff1602179055506000600260008573ffffffffffffffffffffffffffffffffffffffff1673ffffffffffffffffffffffffffffffffffffffff16815260200190815260200160002060010160186101000a81548163ffffffff021916908363ffffffff1602179055506001600260008573ffffffffffffffffffffffffffffffffffffffff1673ffffffffffffffffffffffffffffffffffffffff168152602001908152602001600020600101601c6101000a81548160ff02191690831515021790555081600260008573ffffffffffffffffffffffffffffffffffffffff1673ffffffffffffffffffffffffffffffffffffffff16815260200190815260200160002060020190805190602001906123bb92919061269d565b5060016006836040516123ce9190612c84565b908152602001604051809103902060006101000a81548160ff0219169083151502179055506001600760008573ffffffffffffffffffffffffffffffffffffffff1673ffffffffffffffffffffffffffffffffffffffff16815260200190815260200160002060006101000a81548160ff0219169083151502179055506000601481819054906101000a900463ffffffff168092919061246d9061323a565b91906101000a81548163ffffffff021916908363ffffffff160217905550507fdc6397ebcff1d3cd4d51b023f775b4c6c94fd13339bc330fd0275673b618974b848484600060016040516124c59594939291906137f7565b60405180910390a1600190509392505050565b60003373ffffffffffffffffffffffffffffffffffffffff166001846040516125019190612c84565b908152602001604051809103902060020160099054906101000a900473ffffffffffffffffffffffffffffffffffffffff1673ffffffffffffffffffffffffffffffffffffffff1614612589576040517f08c379a0000000000000000000000000000000000000000000000000000000008152600401612580906138ca565b60405180910390fd5b8160018460405161259a9190612c84565b908152602001604051809103902060010190805190602001906125be92919061269d565b507f31d240a9505c05976d93451a6c6c97988c5719ef448ebed149c0e8e534a481298383336040516125f2939291906130d1565b60405180910390a16001905092915050565b6000816040516020016126179190612c84565b604051602081830303815290604052805190602001208360405160200161263e9190612c84565b6040516020818303038152906040528051906020012014905092915050565b50805461266990612d82565b6000825580601f1061267b575061269a565b601f0160209004906000526020600020908101906126999190612723565b5b50565b8280546126a990612d82565b90600052602060002090601f0160209004810192826126cb5760008555612712565b82601f106126e457805160ff1916838001178555612712565b82800160010185558215612712579182015b828111156127115782518255916020019190600101906126f6565b5b50905061271f9190612723565b5090565b5b8082111561273c576000816000905550600101612724565b5090565b6000604051905090565b600080fd5b600080fd5b600080fd5b600080fd5b6000601f19601f8301169050919050565b7f4e487b7100000000000000000000000000000000000000000000000000000000600052604160045260246000fd5b6127a78261275e565b810181811067ffffffffffffffff821117156127c6576127c561276f565b5b80604052505050565b60006127d9612740565b90506127e5828261279e565b919050565b600067ffffffffffffffff8211156128055761280461276f565b5b61280e8261275e565b9050602081019050919050565b82818337600083830152505050565b600061283d612838846127ea565b6127cf565b90508281526020810184848401111561285957612858612759565b5b61286484828561281b565b509392505050565b600082601f83011261288157612880612754565b5b813561289184826020860161282a565b91505092915050565b6000602082840312156128b0576128af61274a565b5b600082013567ffffffffffffffff8111156128ce576128cd61274f565b5b6128da8482850161286c565b91505092915050565b600081519050919050565b600082825260208201905092915050565b60005b8381101561291d578082015181840152602081019050612902565b8381111561292c576000848401525b50505050565b600061293d826128e3565b61294781856128ee565b93506129578185602086016128ff565b6129608161275e565b840191505092915050565b600073ffffffffffffffffffffffffffffffffffffffff82169050919050565b60006129968261296b565b9050919050565b6129a68161298b565b82525050565b600063ffffffff82169050919050565b6129c5816129ac565b82525050565b600060a08201905081810360008301526129e58188612932565b905081810360208301526129f98187612932565b9050612a08604083018661299d565b612a1560608301856129bc565b612a2260808301846129bc565b9695505050505050565b612a358161298b565b8114612a4057600080fd5b50565b600081359050612a5281612a2c565b92915050565b600060208284031215612a6e57612a6d61274a565b5b6000612a7c84828501612a43565b91505092915050565b60008115159050919050565b612a9a81612a85565b82525050565b600060c0820190508181036000830152612aba8189612932565b9050612ac9602083018861299d565b612ad660408301876129bc565b612ae360608301866129bc565b612af06080830185612a91565b81810360a0830152612b028184612932565b9050979650505050505050565b6000602082019050612b246000830184612a91565b92915050565b60008060408385031215612b4157612b4061274a565b5b600083013567ffffffffffffffff811115612b5f57612b5e61274f565b5b612b6b8582860161286c565b925050602083013567ffffffffffffffff811115612b8c57612b8b61274f565b5b612b988582860161286c565b9150509250929050565b6000602082019050612bb760008301846129bc565b92915050565b600080600060608486031215612bd657612bd561274a565b5b600084013567ffffffffffffffff811115612bf457612bf361274f565b5b612c008682870161286c565b9350506020612c1186828701612a43565b925050604084013567ffffffffffffffff811115612c3257612c3161274f565b5b612c3e8682870161286c565b9150509250925092565b600081905092915050565b6000612c5e826128e3565b612c688185612c48565b9350612c788185602086016128ff565b80840191505092915050565b6000612c908284612c53565b915081905092915050565b7f5573657220646f65736e2774206578697374206f6e207468697320646174616260008201527f6173652e2055736520616464437573746f6d657220746f20637265617465207560208201527f7365720000000000000000000000000000000000000000000000000000000000604082015250565b6000612d1d6043836128ee565b9150612d2882612c9b565b606082019050919050565b60006020820190508181036000830152612d4c81612d10565b9050919050565b7f4e487b7100000000000000000000000000000000000000000000000000000000600052602260045260246000fd5b60006002820490506001821680612d9a57607f821691505b60208210811415612dae57612dad612d53565b5b50919050565b7f42616e6b206164647265737320697320696e636f72726563742e204e6f20737560008201527f6368207265636f72642065786973747300000000000000000000000000000000602082015250565b6000612e106030836128ee565b9150612e1b82612db4565b604082019050919050565b60006020820190508181036000830152612e3f81612e03565b9050919050565b7f4e6f204b594320726571756573742065786973747320666f722074686973206360008201527f7573746f6d65722e20506c6561736520757365206164644b594352657175657360208201527f742066756e6374696f6e00000000000000000000000000000000000000000000604082015250565b6000612ec8604a836128ee565b9150612ed382612e46565b606082019050919050565b60006020820190508181036000830152612ef781612ebb565b9050919050565b7f4e6f20726571756573742065786973747320666f72207468697320637573746f60008201527f6d65722e20506c6561736520757365206164644b59435265717565737420667560208201527f6e6374696f6e0000000000000000000000000000000000000000000000000000604082015250565b6000612f806046836128ee565b9150612f8b82612efe565b606082019050919050565b60006020820190508181036000830152612faf81612f73565b9050919050565b7f4e487b7100000000000000000000000000000000000000000000000000000000600052601160045260246000fd5b6000612ff0826129ac565b9150600082141561300457613003612fb6565b5b600182039050919050565b600060408201905081810360008301526130298185612932565b9050613038602083018461299d565b9392505050565b7f55736572206578697374732e20506c656173652063616c6c206d6f646966794360008201527f7573746f6d657220746f206d616b6520616e79206368616e6765730000000000602082015250565b600061309b603b836128ee565b91506130a68261303f565b604082019050919050565b600060208201905081810360008301526130ca8161308e565b9050919050565b600060608201905081810360008301526130eb8186612932565b905081810360208301526130ff8185612932565b905061310e604083018461299d565b949350505050565b7f437573746f6d657220646f65736e27742065786973742e20557365206164644360008201527f7573746f6d657220746f20637265617465206e65772075736572000000000000602082015250565b6000613172603a836128ee565b915061317d82613116565b604082019050919050565b600060208201905081810360008301526131a181613165565b9050919050565b7f437573746f6d65722068617320616c7265616479206265656e207570766f746560008201527f6420627920796f752e0000000000000000000000000000000000000000000000602082015250565b60006132046029836128ee565b915061320f826131a8565b604082019050919050565b60006020820190508181036000830152613233816131f7565b9050919050565b6000613245826129ac565b915063ffffffff82141561325c5761325b612fb6565b5b600182019050919050565b7f437573746f6d65722068617320616c7265616479206265656e20646f776e207660008201527f6f74656420627920796f752e0000000000000000000000000000000000000000602082015250565b60006132c3602c836128ee565b91506132ce82613267565b604082019050919050565b600060208201905081810360008301526132f2816132b6565b9050919050565b600060408201905061330e600083018561299d565b61331b602083018461299d565b9392505050565b7f437573746f6d6572206861736e2774206265656e20646f776e20766f7465642060008201527f627920796f752e2055736520646f776e566f7465437573746f6d65722e000000602082015250565b600061337e603d836128ee565b915061338982613322565b604082019050919050565b600060208201905081810360008301526133ad81613371565b9050919050565b7f41204b5943207265717565737420616c72656164792065786973747320666f7260008201527f207468697320757365722066726f6d20746869732062616e6b00000000000000602082015250565b60006134106039836128ee565b915061341b826133b4565b604082019050919050565b6000602082019050818103600083015261343f81613403565b9050919050565b7f506c6561736520636865636b20686173682e2054686973207265636f7264206460008201527f6f65736e27742065786973740000000000000000000000000000000000000000602082015250565b60006134a2602c836128ee565b91506134ad82613446565b604082019050919050565b600060208201905081810360008301526134d181613495565b9050919050565b7f437573746f6d6572206861736e2774206265656e207570766f7465642062792060008201527f796f752e20757365207570566f7465437573746f6d6572000000000000000000602082015250565b60006135346037836128ee565b915061353f826134d8565b604082019050919050565b6000602082019050818103600083015261356381613527565b9050919050565b7f596f75206d75737420686176652061646d696e2070726976696c65646765732060008201527f746f2072756e2074686973000000000000000000000000000000000000000000602082015250565b60006135c6602b836128ee565b91506135d18261356a565b604082019050919050565b600060208201905081810360008301526135f5816135b9565b9050919050565b7f546869732062616e6b2068617320616c7265616479206265656e206164646564600082015250565b60006136326020836128ee565b915061363d826135fc565b602082019050919050565b6000602082019050818103600083015261366181613625565b9050919050565b7f5468697320726567697374726174696f6e206e756d626572206861732062656560008201527f6e2074616b656e2e20506c6561736520656e74657220616e6f74686572206f6e60208201527f652e000000000000000000000000000000000000000000000000000000000000604082015250565b60006136ea6042836128ee565b91506136f582613668565b606082019050919050565b60006020820190508181036000830152613719816136dd565b9050919050565b7f412062616e6b206f662074686973206e616d6520616c7265616479206578697360008201527f747320696e20746865206e6574776f726b000000000000000000000000000000602082015250565b600061377c6031836128ee565b915061378782613720565b604082019050919050565b600060208201905081810360008301526137ab8161376f565b9050919050565b6000819050919050565b6000819050919050565b60006137e16137dc6137d7846137b2565b6137bc565b6129ac565b9050919050565b6137f1816137c6565b82525050565b600060a08201905081810360008301526138118188612932565b9050613820602083018761299d565b81810360408301526138328186612932565b905061384160608301856137e8565b61384e6080830184612a91565b9695505050505050565b7f5573657220646f65736e27742065786973742e20506c656173652063616c6c2060008201527f616464437573746f6d657220746f20637265617465206e657720757365720000602082015250565b60006138b4603e836128ee565b91506138bf82613858565b604082019050919050565b600060208201905081810360008301526138e3816138a7565b905091905056fea2646970667358221220822aa9ed54faaf33ea8ca180f5ed7b3b5c39f73f120dd138971e1e929fc4fb5564736f6c63430008090033",
  "immutableReferences": {},
  "source": "// SPDX-License-Identifier: MIT\n\npragma solidity ^0.8.9;\n\ncontract KYC_Contract {\n    constructor() {\n        admin = msg.sender;\n    }\n\n    address admin;\n\n    modifier onlyAdmin() {\n        require(\n            msg.sender == admin,\n            \"You must have admin priviledges to run this\"\n        );\n        _;\n    }\n\n    struct Customer {\n        string username;\n        // hash that points to customer documents in secure storage\n        string customerData;\n        // status of KYC request. if conditions are met, set to true. else false\n        bool kycRequest;\n        // number of upvotes from other banks to customer data\n        uint32 upVotes;\n        // number of downvotes from other banks to customer data\n        uint32 downVotes;\n        // unique address of the validating bank\n        address validatorBankAddress;\n    }\n\n    struct Bank {\n        string name;\n        // unique ethereum address of the bank\n        address ethAddress;\n        // total complaints against the bank by other banks in the network\n        uint32 complaintsReported;\n        //number of KYC requests initiated by bank\n        uint32 KYC_count;\n        // status. if false, bank cannot up/down vote any more customers\n        bool isAllowedToVote;\n        // registration number of the bank\n        string regNumber;\n    }\n\n    // count of total banks in the network\n    uint32 totalBanks;\n\n    struct KYC_Request {\n        // map KYC request to customer data\n        string username;\n        // hash that points to customer documents in secure storage\n        string customerData;\n        // unique account address of the bank\n        address bankAddress;\n    }\n\n    /* Mappings */\n\n    // customer name to view customer details\n    mapping(string => Customer) customers;\n\n    // unique bank address to view bank details\n    mapping(address => Bank) banks;\n\n    // customer name to view KYC requests\n    mapping(string => KYC_Request) KYC_requests;\n\n    // keep track of up votes for the customer by all the banks in the network\n    mapping(string => mapping(address => uint8)) up_votes;\n\n    // keep track of down votes for the customer by all the banks in the network\n    mapping(string => mapping(address => uint8)) down_votes;\n\n    // make sure all bank registration numbers are unique\n    mapping(string => bool) bank_registration_numbers;\n\n    // keep track of banks added to the network\n    mapping(address => bool) added_banks;\n\n    // keep track of bank names added to the system\n    mapping(string => bool) bank_names;\n\n    /* Events */\n\n    event AddKYCRequest(\n        string _customerName,\n        string _customerData,\n        address KYCRequestingBank\n    );\n    event RemoveKYCRequest(string _customerName, address KYCRemovingBank);\n\n    event AddCustomer(\n        string _customerName,\n        string _customerData,\n        address validatorBank\n    );\n    event ModifyCustomer(\n        string _customerName,\n        string _newCustomerData,\n        address bankAddress\n    );\n\n    event UpVoteCustomer(string _customerName, address bankAddress);\n    event RemoveUpVoteCustomer(string _customerName, address bankAddress);\n\n    event DownVoteCustomer(string _customerName, address bankAddress);\n    event RemoveDownVoteCustomer(string _customerName, address bankAddress);\n\n    event ReportBank(address _bankAddress, address reportingBank);\n\n    event AddBank(\n        string _bankName,\n        address _bankAddress,\n        string _bankRegistration,\n        uint32 _complaintsReported,\n        bool _KYCPermission\n    );\n\n    /**\n     * Record a new KYC request on behalf of a customer\n     * Bank is the sender of this request\n     * @param _customerName The name of the customer for whom KYC is to be done\n     * @param _customerData The hash of the customer data being requested\n     * @return bool confirmation that KYC request was added\n     */\n    function addKYCRequest(\n        string memory _customerName,\n        string memory _customerData\n    ) public returns (bool) {\n        // require that the request the bank is making isn't a duplicate\n        require(\n            !(KYC_requests[_customerName].bankAddress == msg.sender),\n            \"A KYC request already exists for this user from this bank\"\n        );\n\n        require(\n            compareStringsbyBytes(\n                customers[_customerName].customerData,\n                _customerData\n            ),\n            \"Please check hash. This record doesn't exist\"\n        );\n\n        // update KYC requests mapping\n        KYC_requests[_customerName].username = _customerName;\n        KYC_requests[_customerName].customerData = _customerData;\n        KYC_requests[_customerName].bankAddress = msg.sender;\n\n        // add KYC requests made by this bank\n        banks[msg.sender].KYC_count++;\n\n        emit AddKYCRequest(_customerName, _customerData, msg.sender);\n        return true;\n    }\n\n    /**\n     * Remove KYC request\n     * @param _customerName The name of the customer for whom KYC is to be removed\n     * @return bool confirmation that KYC request was removed\n     */\n    function removeKYCRequest(string memory _customerName)\n        public\n        returns (bool)\n    {\n        // require that the username in fact exists as a KYC request\n        require(\n            (KYC_requests[_customerName].bankAddress == msg.sender),\n            \"No KYC request exists for this customer. Please use addKYCRequest function\"\n        );\n\n        require(\n            compareStringsbyBytes(\n                customers[_customerName].username,\n                _customerName\n            ),\n            \"No request exists for this customer. Please use addKYCRequest function\"\n        );\n\n        // delete the customer's KYC request\n        delete KYC_requests[_customerName];\n\n        // reduce KYC requests made by this bank\n        banks[msg.sender].KYC_count--;\n\n        emit RemoveKYCRequest(_customerName, msg.sender);\n        return true;\n    }\n\n    /**\n     * View customer information\n     * @param _customerName Name of the customer\n     * @return struct Customer\n     */\n    function viewCustomer(string memory _customerName)\n        public\n        view\n        returns (\n            string memory,\n            string memory,\n            address,\n            uint32,\n            uint32\n        )\n    {\n        require(\n            customers[_customerName].validatorBankAddress ==\n                address(msg.sender),\n            \"User doesn't exist on this database. Use addCustomer to create user\"\n        );\n\n        return (\n            customers[_customerName].username,\n            customers[_customerName].customerData,\n            customers[_customerName].validatorBankAddress,\n            customers[_customerName].upVotes,\n            customers[_customerName].downVotes\n        );\n    }\n\n    /**\n     * Add a new customer\n     * @param _customerName Name of the customer\n     * @param _customerData Hash of the customer docs\n     * @return bool confirmation that user was added\n     */\n    function addCustomer(\n        string memory _customerName,\n        string memory _customerData\n    ) public returns (bool) {\n        require(\n            customers[_customerName].validatorBankAddress == address(0x0),\n            \"User exists. Please call modifyCustomer to make any changes\"\n        );\n\n        customers[_customerName].username = _customerName;\n        customers[_customerName].customerData = _customerData;\n        customers[_customerName].validatorBankAddress = msg.sender;\n\n        emit AddCustomer(_customerName, _customerData, msg.sender);\n        return true;\n    }\n\n    /**\n     * Modify customer data\n     * @param _customerName Name of the customer\n     * @param _newCustomerData New hash of the updated docs\n     * @return bool confirmation that user was modified\n     */\n    function modifyCustomer(\n        string memory _customerName,\n        string memory _newCustomerData\n    ) public returns (bool) {\n        require(\n            customers[_customerName].validatorBankAddress ==\n                address(msg.sender),\n            \"User doesn't exist. Please call addCustomer to create new user\"\n        );\n\n        customers[_customerName].customerData = _newCustomerData;\n\n        emit ModifyCustomer(_customerName, _newCustomerData, msg.sender);\n        return true;\n    }\n\n    /**\n     * Function to add a new up vote for a customer\n     * @param _customerName Name of the customer to be upvoted\n     * @return bool confirmation that up votes were updated\n     */\n    function upVoteCustomer(string memory _customerName) public returns (bool) {\n        require(\n            compareStringsbyBytes(\n                _customerName,\n                customers[_customerName].username\n            ),\n            \"Customer doesn't exist. Use addCustomer to create new user\"\n        );\n\n        require(\n            up_votes[_customerName][msg.sender] == 0,\n            \"Customer has already been upvoted by you.\"\n        );\n\n        // update upVote count\n        customers[_customerName].upVotes++;\n        up_votes[_customerName][msg.sender] = 1;\n\n        emit UpVoteCustomer(_customerName, msg.sender);\n        return true;\n    }\n\n    /**\n     * Function to remove an up vote for a customer\n     * @param _customerName Name of the customer to be upvoted\n     * @return bool confirmation that up votes were updated\n     */\n    function removeUpVoteCustomer(string memory _customerName)\n        public\n        returns (bool)\n    {\n        require(\n            compareStringsbyBytes(\n                _customerName,\n                customers[_customerName].username\n            ),\n            \"Customer doesn't exist. Use addCustomer to create new user\"\n        );\n\n        require(\n            up_votes[_customerName][msg.sender] == 1,\n            \"Customer hasn't been upvoted by you. use upVoteCustomer\"\n        );\n\n        // update upVote count\n        customers[_customerName].upVotes--;\n        up_votes[_customerName][msg.sender] = 0;\n\n        emit RemoveUpVoteCustomer(_customerName, msg.sender);\n        return true;\n    }\n\n    /**\n     * Function to add a new down vote for a customer\n     * @param _customerName Name of the customer to be upvoted\n     * @return bool confirmation that down votes were updated\n     */\n    function downVoteCustomer(string memory _customerName)\n        public\n        returns (bool)\n    {\n        require(\n            compareStringsbyBytes(\n                _customerName,\n                customers[_customerName].username\n            ),\n            \"Customer doesn't exist. Use addCustomer to create new user\"\n        );\n\n        require(\n            down_votes[_customerName][msg.sender] == 0,\n            \"Customer has already been down voted by you.\"\n        );\n\n        // update downVote count\n        customers[_customerName].downVotes++;\n        down_votes[_customerName][msg.sender] = 1;\n\n        emit DownVoteCustomer(_customerName, msg.sender);\n        return true;\n    }\n\n    /**\n     * Function to remove a down vote for a customer\n     * @param _customerName Name of the customer to be upvoted\n     * @return bool confirmation that down votes were updated\n     */\n    function removeDownVoteCustomer(string memory _customerName)\n        public\n        returns (bool)\n    {\n        require(\n            compareStringsbyBytes(\n                _customerName,\n                customers[_customerName].username\n            ),\n            \"Customer doesn't exist. Use addCustomer to create new user\"\n        );\n\n        require(\n            down_votes[_customerName][msg.sender] == 1,\n            \"Customer hasn't been down voted by you. Use downVoteCustomer.\"\n        );\n\n        // update downVote count\n        customers[_customerName].downVotes--;\n        down_votes[_customerName][msg.sender] = 0;\n\n        emit RemoveDownVoteCustomer(_customerName, msg.sender);\n        return true;\n    }\n\n    /**\n     * View bank information\n     * @param _bankAddress Unique address of the bank\n     * @return struct Bank\n     */\n    function getBankDetails(address _bankAddress)\n        public\n        view\n        returns (\n            string memory,\n            address,\n            uint32,\n            uint32,\n            bool,\n            string memory\n        )\n    {\n        require(\n            banks[_bankAddress].ethAddress == _bankAddress,\n            \"Bank address is incorrect. No such record exists\"\n        );\n\n        return (\n            banks[_bankAddress].name,\n            banks[_bankAddress].ethAddress,\n            banks[_bankAddress].complaintsReported,\n            banks[_bankAddress].KYC_count,\n            banks[_bankAddress].isAllowedToVote,\n            banks[_bankAddress].regNumber\n        );\n    }\n\n    /**\n     * Report a complaint against a bank\n     * @param _bankAddress Unique address of the bank\n     * @return bool confirmation that report was submitted\n     */\n    function reportBank(address _bankAddress) public returns (bool) {\n        require(\n            banks[_bankAddress].ethAddress == _bankAddress,\n            \"Bank address is incorrect. No such record exists\"\n        );\n\n        // update count of the complaints reported\n        banks[_bankAddress].complaintsReported++;\n\n        // TODO: update isAllowedToVote status\n\n        emit ReportBank(_bankAddress, msg.sender);\n        return true;\n    }\n\n    /**\n     * View total number of bank complaints\n     * @param _bankAddress unique address of the bank\n     * @return uint32 total number of bank complaints\n     */\n    function getBankComplaints(address _bankAddress)\n        public\n        view\n        returns (uint32)\n    {\n        require(\n            banks[_bankAddress].ethAddress == _bankAddress,\n            \"Bank address is incorrect. No such record exists\"\n        );\n\n        return banks[_bankAddress].complaintsReported;\n    }\n\n    /**\n     * Add a new bank to the network\n     * @param _bankName name of the bank\n     * @param _bankAddress unique address of the bank\n     * @param _bankRegistration unique registration number of the bank\n     * @return bool New bank has been added to the network\n     */\n    function addBank(\n        string memory _bankName,\n        address _bankAddress,\n        string memory _bankRegistration\n    ) public onlyAdmin returns (bool) {\n        require(\n            added_banks[_bankAddress] == false,\n            \"This bank has already been added\"\n        );\n\n        // require a unique registration number\n        require(\n            bank_registration_numbers[_bankRegistration] == false,\n            \"This registration number has been taken. Please enter another one.\"\n        );\n\n        require(\n            bank_names[_bankName] == false,\n            \"A bank of this name already exists in the network\"\n        );\n\n        banks[_bankAddress].name = _bankName;\n        banks[_bankAddress].ethAddress = _bankAddress;\n        banks[_bankAddress].complaintsReported = 0;\n        banks[_bankAddress].KYC_count = 0;\n        banks[_bankAddress].isAllowedToVote = true;\n        banks[_bankAddress].regNumber = _bankRegistration;\n\n        // update registration number and name mappings\n        bank_registration_numbers[_bankRegistration] = true;\n        added_banks[_bankAddress] = true;\n\n        // update count of total banks in the network\n        totalBanks++;\n\n        emit AddBank(_bankName, _bankAddress, _bankRegistration, 0, true);\n        return true;\n    }\n\n    // source: https://ethereum.stackexchange.com/questions/45813/compare-strings-in-solidity\n    function compareStringsbyBytes(string memory s1, string memory s2)\n        private\n        pure\n        returns (bool)\n    {\n        return\n            keccak256(abi.encodePacked(s1)) == keccak256(abi.encodePacked(s2));\n    }\n}\n",
  "sourcePath": "/home/dhruv/Desktop/projects/dApp/KYC/contracts/KYC_Contract.sol",
  "compiler": {
    "name": "solc",
    "version": "0.8.9+commit.e5eed63a.Emscripten.clang"
  },
  "schemaVersion": "3.4.3",
  "updatedAt": "2021-12-04T12:33:11.000Z",
  "networkType": "ethereum",
  "devdoc": {
    "kind": "dev",
    "methods": {
      "addBank(string,address,string)": {
        "params": {
          "_bankAddress": "unique address of the bank",
          "_bankName": "name of the bank",
          "_bankRegistration": "unique registration number of the bank"
        },
        "returns": {
          "_0": "bool New bank has been added to the network"
        }
      },
      "addCustomer(string,string)": {
        "params": {
          "_customerData": "Hash of the customer docs",
          "_customerName": "Name of the customer"
        },
        "returns": {
          "_0": "bool confirmation that user was added"
        }
      },
      "addKYCRequest(string,string)": {
        "params": {
          "_customerData": "The hash of the customer data being requested",
          "_customerName": "The name of the customer for whom KYC is to be done"
        },
        "returns": {
          "_0": "bool confirmation that KYC request was added"
        }
      },
      "downVoteCustomer(string)": {
        "params": {
          "_customerName": "Name of the customer to be upvoted"
        },
        "returns": {
          "_0": "bool confirmation that down votes were updated"
        }
      },
      "getBankComplaints(address)": {
        "params": {
          "_bankAddress": "unique address of the bank"
        },
        "returns": {
          "_0": "uint32 total number of bank complaints"
        }
      },
      "getBankDetails(address)": {
        "params": {
          "_bankAddress": "Unique address of the bank"
        },
        "returns": {
          "_0": "struct Bank"
        }
      },
      "modifyCustomer(string,string)": {
        "params": {
          "_customerName": "Name of the customer",
          "_newCustomerData": "New hash of the updated docs"
        },
        "returns": {
          "_0": "bool confirmation that user was modified"
        }
      },
      "removeDownVoteCustomer(string)": {
        "params": {
          "_customerName": "Name of the customer to be upvoted"
        },
        "returns": {
          "_0": "bool confirmation that down votes were updated"
        }
      },
      "removeKYCRequest(string)": {
        "params": {
          "_customerName": "The name of the customer for whom KYC is to be removed"
        },
        "returns": {
          "_0": "bool confirmation that KYC request was removed"
        }
      },
      "removeUpVoteCustomer(string)": {
        "params": {
          "_customerName": "Name of the customer to be upvoted"
        },
        "returns": {
          "_0": "bool confirmation that up votes were updated"
        }
      },
      "reportBank(address)": {
        "params": {
          "_bankAddress": "Unique address of the bank"
        },
        "returns": {
          "_0": "bool confirmation that report was submitted"
        }
      },
      "upVoteCustomer(string)": {
        "params": {
          "_customerName": "Name of the customer to be upvoted"
        },
        "returns": {
          "_0": "bool confirmation that up votes were updated"
        }
      },
      "viewCustomer(string)": {
        "params": {
          "_customerName": "Name of the customer"
        },
        "returns": {
          "_0": "struct Customer"
        }
      }
    },
    "version": 1
  },
  "userdoc": {
    "kind": "user",
    "methods": {
      "addBank(string,address,string)": {
        "notice": "Add a new bank to the network"
      },
      "addCustomer(string,string)": {
        "notice": "Add a new customer"
      },
      "addKYCRequest(string,string)": {
        "notice": "Record a new KYC request on behalf of a customer Bank is the sender of this request"
      },
      "downVoteCustomer(string)": {
        "notice": "Function to add a new down vote for a customer"
      },
      "getBankComplaints(address)": {
        "notice": "View total number of bank complaints"
      },
      "getBankDetails(address)": {
        "notice": "View bank information"
      },
      "modifyCustomer(string,string)": {
        "notice": "Modify customer data"
      },
      "removeDownVoteCustomer(string)": {
        "notice": "Function to remove a down vote for a customer"
      },
      "removeKYCRequest(string)": {
        "notice": "Remove KYC request"
      },
      "removeUpVoteCustomer(string)": {
        "notice": "Function to remove an up vote for a customer"
      },
      "reportBank(address)": {
        "notice": "Report a complaint against a bank"
      },
      "upVoteCustomer(string)": {
        "notice": "Function to add a new up vote for a customer"
      },
      "viewCustomer(string)": {
        "notice": "View customer information"
      }
    },
    "version": 1
  }
}