{
  "contractName": "KYC_Contract",
  "abi": [
    {
      "inputs": [],
      "stateMutability": "nonpayable",
      "type": "constructor"
    },
    {
      "anonymous": false,
      "inputs": [
        {
          "indexed": false,
          "internalType": "string",
          "name": "_customerName",
          "type": "string"
        },
        {
          "indexed": false,
          "internalType": "string",
          "name": "_customerData",
          "type": "string"
        }
      ],
      "name": "AddCustomer",
      "type": "event"
    },
    {
      "anonymous": false,
      "inputs": [
        {
          "indexed": false,
          "internalType": "string",
          "name": "_customerName",
          "type": "string"
        },
        {
          "indexed": false,
          "internalType": "string",
          "name": "_customerData",
          "type": "string"
        }
      ],
      "name": "AddKYCRequest",
      "type": "event"
    },
    {
      "anonymous": false,
      "inputs": [
        {
          "indexed": false,
          "internalType": "string",
          "name": "_customerName",
          "type": "string"
        },
        {
          "indexed": false,
          "internalType": "string",
          "name": "_newCustomerData",
          "type": "string"
        }
      ],
      "name": "ModifyCustomer",
      "type": "event"
    },
    {
      "anonymous": false,
      "inputs": [
        {
          "indexed": false,
          "internalType": "string",
          "name": "_customerName",
          "type": "string"
        }
      ],
      "name": "RemoveKYCRequest",
      "type": "event"
    },
    {
      "inputs": [
        {
          "internalType": "string",
          "name": "_customerName",
          "type": "string"
        },
        {
          "internalType": "string",
          "name": "_customerData",
          "type": "string"
        }
      ],
      "name": "addKYCRequest",
      "outputs": [
        {
          "internalType": "bool",
          "name": "",
          "type": "bool"
        }
      ],
      "stateMutability": "nonpayable",
      "type": "function"
    },
    {
      "inputs": [
        {
          "internalType": "string",
          "name": "_customerName",
          "type": "string"
        }
      ],
      "name": "removeKYCRequest",
      "outputs": [
        {
          "internalType": "bool",
          "name": "",
          "type": "bool"
        }
      ],
      "stateMutability": "nonpayable",
      "type": "function"
    },
    {
      "inputs": [
        {
          "internalType": "string",
          "name": "_customerName",
          "type": "string"
        }
      ],
      "name": "viewCustomer",
      "outputs": [
        {
          "internalType": "string",
          "name": "",
          "type": "string"
        },
        {
          "internalType": "string",
          "name": "",
          "type": "string"
        },
        {
          "internalType": "address",
          "name": "",
          "type": "address"
        }
      ],
      "stateMutability": "view",
      "type": "function",
      "constant": true
    },
    {
      "inputs": [
        {
          "internalType": "string",
          "name": "_customerName",
          "type": "string"
        },
        {
          "internalType": "string",
          "name": "_customerData",
          "type": "string"
        }
      ],
      "name": "addCustomer",
      "outputs": [
        {
          "internalType": "bool",
          "name": "",
          "type": "bool"
        }
      ],
      "stateMutability": "nonpayable",
      "type": "function"
    },
    {
      "inputs": [
        {
          "internalType": "string",
          "name": "_customerName",
          "type": "string"
        },
        {
          "internalType": "string",
          "name": "_newCustomerData",
          "type": "string"
        }
      ],
      "name": "modifyCustomer",
      "outputs": [
        {
          "internalType": "bool",
          "name": "",
          "type": "bool"
        }
      ],
      "stateMutability": "nonpayable",
      "type": "function"
    }
  ],
  "bytecode": "0x608060405234801561001057600080fd5b50336000806101000a81548173ffffffffffffffffffffffffffffffffffffffff021916908373ffffffffffffffffffffffffffffffffffffffff160217905550611391806100606000396000f3fe608060405234801561001057600080fd5b50600436106100575760003560e01c8063107925bb1461005c5780631e8eba6e1461008e5780633190abc0146100be578063bd561e14146100ee578063f72860ca1461011e575b600080fd5b61007660048036038101906100719190610c9d565b61014e565b60405161008593929190610daf565b60405180910390f35b6100a860048036038101906100a39190610c9d565b6103ab565b6040516100b59190610e0f565b60405180910390f35b6100d860048036038101906100d39190610e2a565b61055d565b6040516100e59190610e0f565b60405180910390f35b61010860048036038101906101039190610e2a565b61071d565b6040516101159190610e0f565b60405180910390f35b61013860048036038101906101339190610e2a565b610936565b6040516101459190610e0f565b60405180910390f35b60608060008073ffffffffffffffffffffffffffffffffffffffff1660028560405161017a9190610ede565b908152602001604051809103902060050160009054906101000a900473ffffffffffffffffffffffffffffffffffffffff1673ffffffffffffffffffffffffffffffffffffffff1614610202576040517f08c379a00000000000000000000000000000000000000000000000000000000081526004016101f990610f67565b60405180910390fd5b6002846040516102129190610ede565b90815260200160405180910390206000016002856040516102339190610ede565b90815260200160405180910390206001016002866040516102549190610ede565b908152602001604051809103902060050160009054906101000a900473ffffffffffffffffffffffffffffffffffffffff1682805461029290610fb6565b80601f01602080910402602001604051908101604052809291908181526020018280546102be90610fb6565b801561030b5780601f106102e05761010080835404028352916020019161030b565b820191906000526020600020905b8154815290600101906020018083116102ee57829003601f168201915b5050505050925081805461031e90610fb6565b80601f016020809104026020016040519081016040528092919081815260200182805461034a90610fb6565b80156103975780601f1061036c57610100808354040283529160200191610397565b820191906000526020600020905b81548152906001019060200180831161037a57829003601f168201915b505050505091509250925092509193909250565b60003373ffffffffffffffffffffffffffffffffffffffff166004836040516103d49190610ede565b908152602001604051809103902060020160009054906101000a900473ffffffffffffffffffffffffffffffffffffffff1673ffffffffffffffffffffffffffffffffffffffff16141561045d576040517f08c379a000000000000000000000000000000000000000000000000000000000815260040161045490611080565b60405180910390fd5b60048260405161046d9190610ede565b90815260200160405180910390206000808201600061048c9190610a60565b60018201600061049c9190610a60565b6002820160006101000a81549073ffffffffffffffffffffffffffffffffffffffff02191690555050600360003373ffffffffffffffffffffffffffffffffffffffff1673ffffffffffffffffffffffffffffffffffffffff1681526020019081526020016000206003016000815480929190610518906110d9565b91905055507f4bba66ef84cb3723d3f4762971f7d47f0e3f7980f014326beafd863bf980ffb48260405161054c9190611103565b60405180910390a160019050919050565b60008073ffffffffffffffffffffffffffffffffffffffff166002846040516105869190610ede565b908152602001604051809103902060050160009054906101000a900473ffffffffffffffffffffffffffffffffffffffff1673ffffffffffffffffffffffffffffffffffffffff161461060e576040517f08c379a000000000000000000000000000000000000000000000000000000000815260040161060590611197565b60405180910390fd5b8260028460405161061f9190610ede565b90815260200160405180910390206000019080519060200190610643929190610aa0565b50816002846040516106559190610ede565b90815260200160405180910390206001019080519060200190610679929190610aa0565b503360028460405161068b9190610ede565b908152602001604051809103902060050160006101000a81548173ffffffffffffffffffffffffffffffffffffffff021916908373ffffffffffffffffffffffffffffffffffffffff1602179055507f2b06f997d2898d0de2363f32aa3cd8075c2b64c82055fb37fdd8581d3f613b44838360405161070b9291906111b7565b60405180910390a16001905092915050565b60003373ffffffffffffffffffffffffffffffffffffffff166004846040516107469190610ede565b908152602001604051809103902060020160009054906101000a900473ffffffffffffffffffffffffffffffffffffffff1673ffffffffffffffffffffffffffffffffffffffff1614156107cf576040517f08c379a00000000000000000000000000000000000000000000000000000000081526004016107c690611260565b60405180910390fd5b826004846040516107e09190610ede565b90815260200160405180910390206000019080519060200190610804929190610aa0565b50816004846040516108169190610ede565b9081526020016040518091039020600101908051906020019061083a929190610aa0565b503360048460405161084c9190610ede565b908152602001604051809103902060020160006101000a81548173ffffffffffffffffffffffffffffffffffffffff021916908373ffffffffffffffffffffffffffffffffffffffff160217905550600360003373ffffffffffffffffffffffffffffffffffffffff1673ffffffffffffffffffffffffffffffffffffffff16815260200190815260200160002060030160008154809291906108ee90611280565b91905055507fdbd57561554790b59a04e04ad4435d9a876e5bad96da4b3c3bf756d77d85466483836040516109249291906111b7565b60405180910390a16001905092915050565b60008073ffffffffffffffffffffffffffffffffffffffff1660028460405161095f9190610ede565b908152602001604051809103902060050160009054906101000a900473ffffffffffffffffffffffffffffffffffffffff1673ffffffffffffffffffffffffffffffffffffffff16146109e7576040517f08c379a00000000000000000000000000000000000000000000000000000000081526004016109de9061133b565b60405180910390fd5b816002846040516109f89190610ede565b90815260200160405180910390206001019080519060200190610a1c929190610aa0565b507f35fa22c3cbfeda53e8cf27ba959db8820f415885ffe84b4acae0689c8da6b2f18383604051610a4e9291906111b7565b60405180910390a16001905092915050565b508054610a6c90610fb6565b6000825580601f10610a7e5750610a9d565b601f016020900490600052602060002090810190610a9c9190610b26565b5b50565b828054610aac90610fb6565b90600052602060002090601f016020900481019282610ace5760008555610b15565b82601f10610ae757805160ff1916838001178555610b15565b82800160010185558215610b15579182015b82811115610b14578251825591602001919060010190610af9565b5b509050610b229190610b26565b5090565b5b80821115610b3f576000816000905550600101610b27565b5090565b6000604051905090565b600080fd5b600080fd5b600080fd5b600080fd5b6000601f19601f8301169050919050565b7f4e487b7100000000000000000000000000000000000000000000000000000000600052604160045260246000fd5b610baa82610b61565b810181811067ffffffffffffffff82111715610bc957610bc8610b72565b5b80604052505050565b6000610bdc610b43565b9050610be88282610ba1565b919050565b600067ffffffffffffffff821115610c0857610c07610b72565b5b610c1182610b61565b9050602081019050919050565b82818337600083830152505050565b6000610c40610c3b84610bed565b610bd2565b905082815260208101848484011115610c5c57610c5b610b5c565b5b610c67848285610c1e565b509392505050565b600082601f830112610c8457610c83610b57565b5b8135610c94848260208601610c2d565b91505092915050565b600060208284031215610cb357610cb2610b4d565b5b600082013567ffffffffffffffff811115610cd157610cd0610b52565b5b610cdd84828501610c6f565b91505092915050565b600081519050919050565b600082825260208201905092915050565b60005b83811015610d20578082015181840152602081019050610d05565b83811115610d2f576000848401525b50505050565b6000610d4082610ce6565b610d4a8185610cf1565b9350610d5a818560208601610d02565b610d6381610b61565b840191505092915050565b600073ffffffffffffffffffffffffffffffffffffffff82169050919050565b6000610d9982610d6e565b9050919050565b610da981610d8e565b82525050565b60006060820190508181036000830152610dc98186610d35565b90508181036020830152610ddd8185610d35565b9050610dec6040830184610da0565b949350505050565b60008115159050919050565b610e0981610df4565b82525050565b6000602082019050610e246000830184610e00565b92915050565b60008060408385031215610e4157610e40610b4d565b5b600083013567ffffffffffffffff811115610e5f57610e5e610b52565b5b610e6b85828601610c6f565b925050602083013567ffffffffffffffff811115610e8c57610e8b610b52565b5b610e9885828601610c6f565b9150509250929050565b600081905092915050565b6000610eb882610ce6565b610ec28185610ea2565b9350610ed2818560208601610d02565b80840191505092915050565b6000610eea8284610ead565b915081905092915050565b7f5573657220646f65736e2774206578697374206f6e207468697320646174616260008201527f6173650000000000000000000000000000000000000000000000000000000000602082015250565b6000610f51602383610cf1565b9150610f5c82610ef5565b604082019050919050565b60006020820190508181036000830152610f8081610f44565b9050919050565b7f4e487b7100000000000000000000000000000000000000000000000000000000600052602260045260246000fd5b60006002820490506001821680610fce57607f821691505b60208210811415610fe257610fe1610f87565b5b50919050565b7f4e6f204b594320726571756573742065786973747320666f722074686973206360008201527f7573746f6d65722e20506c6561736520757365206164644b594352657175657360208201527f742066756e6374696f6e00000000000000000000000000000000000000000000604082015250565b600061106a604a83610cf1565b915061107582610fe8565b606082019050919050565b600060208201905081810360008301526110998161105d565b9050919050565b7f4e487b7100000000000000000000000000000000000000000000000000000000600052601160045260246000fd5b6000819050919050565b60006110e4826110cf565b915060008214156110f8576110f76110a0565b5b600182039050919050565b6000602082019050818103600083015261111d8184610d35565b905092915050565b7f55736572206578697374732e20506c656173652063616c6c206d6f646966794360008201527f7573746f6d657220746f206d616b6520616e79206368616e6765730000000000602082015250565b6000611181603b83610cf1565b915061118c82611125565b604082019050919050565b600060208201905081810360008301526111b081611174565b9050919050565b600060408201905081810360008301526111d18185610d35565b905081810360208301526111e58184610d35565b90509392505050565b7f41204b5943207265717565737420616c72656164792065786973747320666f7260008201527f207468697320757365722066726f6d20746869732062616e6b00000000000000602082015250565b600061124a603983610cf1565b9150611255826111ee565b604082019050919050565b600060208201905081810360008301526112798161123d565b9050919050565b600061128b826110cf565b91507fffffffffffffffffffffffffffffffffffffffffffffffffffffffffffffffff8214156112be576112bd6110a0565b5b600182019050919050565b7f5573657220646f65736e27742065786973742e20506c656173652063616c6c2060008201527f616464437573746f6d657220746f20637265617465206e657720757365720000602082015250565b6000611325603e83610cf1565b9150611330826112c9565b604082019050919050565b6000602082019050818103600083015261135481611318565b905091905056fea2646970667358221220dcc498cacd65ce05d0f473f5c51686761e7365d71680ea8b569ce7654668ecf564736f6c63430008090033",
  "immutableReferences": {},
  "source": "// SPDX-License-Identifier: MIT\n\npragma solidity ^0.8.9;\n\ncontract KYC_Contract {\n    constructor() {\n        admin = msg.sender;\n    }\n\n    address admin;\n\n    modifier onlyAdmin() {\n        require(\n            msg.sender == admin,\n            \"You must have admin priviledges to run this\"\n        );\n        _;\n    }\n\n    struct Customer {\n        string username;\n        // hash that points to customer documents in secure storage\n        string customerData;\n        // status of KYC request. if conditions are met, set to true. else false\n        bool kycRequest;\n        // number of upvotes from other banks to customer data\n        uint256 upVotes;\n        // number of downvotes from other banks to customer data\n        uint256 downVotes;\n        // unique address of the validating bank\n        address validatorBankAddress;\n    }\n\n    struct Bank {\n        string name;\n        // unique ethereum address of the bank\n        address ethAddress;\n        // total complaints against the bank by other banks in the network\n        uint256 complaintsReported;\n        //number of KYC requests initiated by bank\n        uint256 KYC_count;\n        // status. if false, bank cannot up/down vote any more customers\n        bool isAllowedToVote;\n        // registration number of the bank\n        string regNumber;\n    }\n\n    // count of total banks in the network\n    uint256 totalBanks;\n\n    struct KYC_Request {\n        // map KYC request to customer data\n        string username;\n        // hash that points to customer documents in secure storage\n        string customerData;\n        // unique account address of the bank\n        address bankAddress;\n    }\n\n    /* Mappings */\n\n    // customer name to view customer details\n    mapping(string => Customer) customers;\n\n    // unique bank address to view bank details\n    mapping(address => Bank) banks;\n\n    // customer name to view KYC requests\n    mapping(string => KYC_Request) KYC_requests;\n\n    /* Events */\n\n    event AddKYCRequest(string _customerName, string _customerData);\n    event RemoveKYCRequest(string _customerName);\n    event AddCustomer(string _customerName, string _customerData);\n    event ModifyCustomer(string _customerName, string _newCustomerData);\n\n    /*\n     * Record a new KYC request on behalf of a customer\n     * Bank is the sender of this request\n     * @param {string}   _customerName The name of the customer for whom KYC is to be done\n     * @param {string}  _customerData The hash of the customer data being requested\n     * returns {bool}  returns true\n     */\n    function addKYCRequest(\n        string memory _customerName,\n        string memory _customerData\n    ) public returns (bool) {\n        // require that the request the bank is making isn't a duplicate\n        require(\n            !(KYC_requests[_customerName].bankAddress == msg.sender),\n            \"A KYC request already exists for this user from this bank\"\n        );\n\n        // update KYC requests mapping\n        KYC_requests[_customerName].username = _customerName;\n        KYC_requests[_customerName].customerData = _customerData;\n        KYC_requests[_customerName].bankAddress = msg.sender;\n\n        // add KYC requests made by this bank\n        banks[msg.sender].KYC_count++;\n\n        emit AddKYCRequest(_customerName, _customerData);\n        return true;\n    }\n\n    /*\n     * Remove KYC request\n     * @param {string} _customerName The name of the customer for whom KYC is to be removed\n     * @param  {string} _customerData Hash of the customer's data\n     * returns {bool}  returns true\n     */\n    function removeKYCRequest(string memory _customerName)\n        public\n        returns (bool)\n    {\n        // require that the username in fact exists as a KYC request\n        require(\n            !(KYC_requests[_customerName].bankAddress == msg.sender),\n            \"No KYC request exists for this customer. Please use addKYCRequest function\"\n        );\n\n        // delete the customer's KYC request\n        delete KYC_requests[_customerName];\n\n        // reduce KYC requests made by this bank\n        banks[msg.sender].KYC_count--;\n\n        emit RemoveKYCRequest(_customerName);\n        return true;\n    }\n\n    /*\n     * View customer information\n     * @param  {public}  _customerName Name of the customer\n     * @return {Customer} The customer struct as an object\n     */\n    function viewCustomer(string memory _customerName)\n        public\n        view\n        returns (\n            string memory,\n            string memory,\n            address\n        )\n    {\n        require(\n            customers[_customerName].validatorBankAddress == address(0),\n            \"User doesn't exist on this database\"\n        );\n\n        return (\n            customers[_customerName].username,\n            customers[_customerName].customerData,\n            customers[_customerName].validatorBankAddress\n        );\n    }\n\n    /*\n     * Add a new customer\n     * @param {string} _userName Name of the customer\n     * @param {string} _customerData Hash of the customer docs\n     * returns {bool}  returns true\n     */\n    function addCustomer(\n        string memory _customerName,\n        string memory _customerData\n    ) public returns (bool) {\n        require(\n            customers[_customerName].validatorBankAddress == address(0),\n            \"User exists. Please call modifyCustomer to make any changes\"\n        );\n\n        customers[_customerName].username = _customerName;\n        customers[_customerName].customerData = _customerData;\n        customers[_customerName].validatorBankAddress = msg.sender;\n\n        emit AddCustomer(_customerName, _customerData);\n        return true;\n    }\n\n    /*\n     * Modify customer data\n     * @param  {string} _customerName Name of the customer\n     * @param  {string} _newCustomerData New hash of the updated docs\n     */\n    function modifyCustomer(\n        string memory _customerName,\n        string memory _newCustomerData\n    ) public returns (bool) {\n        require(\n            customers[_customerName].validatorBankAddress == address(0),\n            \"User doesn't exist. Please call addCustomer to create new user\"\n        );\n\n        customers[_customerName].customerData = _newCustomerData;\n\n        emit ModifyCustomer(_customerName, _newCustomerData);\n        return true;\n    }\n}\n",
  "sourcePath": "/home/dhruv/Desktop/projects/dApp/KYC/contracts/KYC_Contract.sol",
  "compiler": {
    "name": "solc",
    "version": "0.8.9+commit.e5eed63a.Emscripten.clang"
  },
  "schemaVersion": "3.4.3",
  "updatedAt": "2021-12-03T16:09:11.438Z",
  "networkType": "ethereum",
  "devdoc": {
    "kind": "dev",
    "methods": {},
    "version": 1
  },
  "userdoc": {
    "kind": "user",
    "methods": {},
    "version": 1
  }
}