{
  "contractName": "KYC_Contract",
  "abi": [
    {
      "inputs": [],
      "stateMutability": "nonpayable",
      "type": "constructor"
    },
    {
      "anonymous": false,
      "inputs": [
        {
          "indexed": false,
          "internalType": "string",
          "name": "_bankName",
          "type": "string"
        },
        {
          "indexed": false,
          "internalType": "address",
          "name": "_bankAddress",
          "type": "address"
        },
        {
          "indexed": false,
          "internalType": "string",
          "name": "_bankRegistration",
          "type": "string"
        },
        {
          "indexed": false,
          "internalType": "uint32",
          "name": "_complaintsReported",
          "type": "uint32"
        },
        {
          "indexed": false,
          "internalType": "bool",
          "name": "_KYCPermission",
          "type": "bool"
        }
      ],
      "name": "AddBank",
      "type": "event"
    },
    {
      "anonymous": false,
      "inputs": [
        {
          "indexed": false,
          "internalType": "string",
          "name": "_customerName",
          "type": "string"
        },
        {
          "indexed": false,
          "internalType": "string",
          "name": "_customerData",
          "type": "string"
        },
        {
          "indexed": false,
          "internalType": "address",
          "name": "validatorBank",
          "type": "address"
        }
      ],
      "name": "AddCustomer",
      "type": "event"
    },
    {
      "anonymous": false,
      "inputs": [
        {
          "indexed": false,
          "internalType": "string",
          "name": "_customerName",
          "type": "string"
        },
        {
          "indexed": false,
          "internalType": "string",
          "name": "_customerData",
          "type": "string"
        },
        {
          "indexed": false,
          "internalType": "address",
          "name": "KYCRequestingBank",
          "type": "address"
        }
      ],
      "name": "AddKYCRequest",
      "type": "event"
    },
    {
      "anonymous": false,
      "inputs": [
        {
          "indexed": false,
          "internalType": "string",
          "name": "_customerName",
          "type": "string"
        },
        {
          "indexed": false,
          "internalType": "bool",
          "name": "_KYCStatus",
          "type": "bool"
        }
      ],
      "name": "CustomerKYCStatus",
      "type": "event"
    },
    {
      "anonymous": false,
      "inputs": [
        {
          "indexed": false,
          "internalType": "string",
          "name": "_customerName",
          "type": "string"
        },
        {
          "indexed": false,
          "internalType": "address",
          "name": "bankAddress",
          "type": "address"
        }
      ],
      "name": "DownVoteCustomer",
      "type": "event"
    },
    {
      "anonymous": false,
      "inputs": [
        {
          "indexed": false,
          "internalType": "string",
          "name": "_customerName",
          "type": "string"
        },
        {
          "indexed": false,
          "internalType": "string",
          "name": "_newCustomerData",
          "type": "string"
        },
        {
          "indexed": false,
          "internalType": "address",
          "name": "bankAddress",
          "type": "address"
        }
      ],
      "name": "ModifyCustomer",
      "type": "event"
    },
    {
      "anonymous": false,
      "inputs": [
        {
          "indexed": false,
          "internalType": "address",
          "name": "_bankAddress",
          "type": "address"
        },
        {
          "indexed": false,
          "internalType": "bool",
          "name": "_isAllowedToVote",
          "type": "bool"
        }
      ],
      "name": "ModifyIfBankAllowedToVote",
      "type": "event"
    },
    {
      "anonymous": false,
      "inputs": [
        {
          "indexed": false,
          "internalType": "address",
          "name": "_bankAddress",
          "type": "address"
        }
      ],
      "name": "RemoveBank",
      "type": "event"
    },
    {
      "anonymous": false,
      "inputs": [
        {
          "indexed": false,
          "internalType": "string",
          "name": "_customerName",
          "type": "string"
        },
        {
          "indexed": false,
          "internalType": "address",
          "name": "bankAddress",
          "type": "address"
        }
      ],
      "name": "RemoveDownVoteCustomer",
      "type": "event"
    },
    {
      "anonymous": false,
      "inputs": [
        {
          "indexed": false,
          "internalType": "string",
          "name": "_customerName",
          "type": "string"
        },
        {
          "indexed": false,
          "internalType": "address",
          "name": "KYCRemovingBank",
          "type": "address"
        }
      ],
      "name": "RemoveKYCRequest",
      "type": "event"
    },
    {
      "anonymous": false,
      "inputs": [
        {
          "indexed": false,
          "internalType": "string",
          "name": "_customerName",
          "type": "string"
        },
        {
          "indexed": false,
          "internalType": "address",
          "name": "bankAddress",
          "type": "address"
        }
      ],
      "name": "RemoveUpVoteCustomer",
      "type": "event"
    },
    {
      "anonymous": false,
      "inputs": [
        {
          "indexed": false,
          "internalType": "address",
          "name": "_bankAddress",
          "type": "address"
        },
        {
          "indexed": false,
          "internalType": "address",
          "name": "reportingBank",
          "type": "address"
        },
        {
          "indexed": false,
          "internalType": "bool",
          "name": "isAllowedToVote",
          "type": "bool"
        }
      ],
      "name": "ReportBank",
      "type": "event"
    },
    {
      "anonymous": false,
      "inputs": [
        {
          "indexed": false,
          "internalType": "string",
          "name": "_customerName",
          "type": "string"
        },
        {
          "indexed": false,
          "internalType": "address",
          "name": "bankAddress",
          "type": "address"
        }
      ],
      "name": "UpVoteCustomer",
      "type": "event"
    },
    {
      "inputs": [
        {
          "internalType": "string",
          "name": "_customerName",
          "type": "string"
        },
        {
          "internalType": "string",
          "name": "_customerData",
          "type": "string"
        }
      ],
      "name": "addKYCRequest",
      "outputs": [
        {
          "internalType": "bool",
          "name": "",
          "type": "bool"
        }
      ],
      "stateMutability": "nonpayable",
      "type": "function"
    },
    {
      "inputs": [
        {
          "internalType": "string",
          "name": "_customerName",
          "type": "string"
        }
      ],
      "name": "removeKYCRequest",
      "outputs": [
        {
          "internalType": "bool",
          "name": "",
          "type": "bool"
        }
      ],
      "stateMutability": "nonpayable",
      "type": "function"
    },
    {
      "inputs": [
        {
          "internalType": "string",
          "name": "_customerName",
          "type": "string"
        }
      ],
      "name": "viewCustomer",
      "outputs": [
        {
          "internalType": "string",
          "name": "",
          "type": "string"
        },
        {
          "internalType": "string",
          "name": "",
          "type": "string"
        },
        {
          "internalType": "address",
          "name": "",
          "type": "address"
        },
        {
          "internalType": "uint32",
          "name": "",
          "type": "uint32"
        },
        {
          "internalType": "uint32",
          "name": "",
          "type": "uint32"
        }
      ],
      "stateMutability": "view",
      "type": "function",
      "constant": true
    },
    {
      "inputs": [
        {
          "internalType": "string",
          "name": "_customerName",
          "type": "string"
        },
        {
          "internalType": "string",
          "name": "_customerData",
          "type": "string"
        }
      ],
      "name": "addCustomer",
      "outputs": [
        {
          "internalType": "bool",
          "name": "",
          "type": "bool"
        }
      ],
      "stateMutability": "nonpayable",
      "type": "function"
    },
    {
      "inputs": [
        {
          "internalType": "string",
          "name": "_customerName",
          "type": "string"
        },
        {
          "internalType": "string",
          "name": "_newCustomerData",
          "type": "string"
        }
      ],
      "name": "modifyCustomer",
      "outputs": [
        {
          "internalType": "bool",
          "name": "",
          "type": "bool"
        }
      ],
      "stateMutability": "nonpayable",
      "type": "function"
    },
    {
      "inputs": [
        {
          "internalType": "string",
          "name": "_customerName",
          "type": "string"
        }
      ],
      "name": "customerKYCStatus",
      "outputs": [
        {
          "internalType": "bool",
          "name": "",
          "type": "bool"
        }
      ],
      "stateMutability": "nonpayable",
      "type": "function"
    },
    {
      "inputs": [
        {
          "internalType": "string",
          "name": "_customerName",
          "type": "string"
        }
      ],
      "name": "upVoteCustomer",
      "outputs": [
        {
          "internalType": "bool",
          "name": "",
          "type": "bool"
        }
      ],
      "stateMutability": "nonpayable",
      "type": "function"
    },
    {
      "inputs": [
        {
          "internalType": "string",
          "name": "_customerName",
          "type": "string"
        }
      ],
      "name": "removeUpVoteCustomer",
      "outputs": [
        {
          "internalType": "bool",
          "name": "",
          "type": "bool"
        }
      ],
      "stateMutability": "nonpayable",
      "type": "function"
    },
    {
      "inputs": [
        {
          "internalType": "string",
          "name": "_customerName",
          "type": "string"
        }
      ],
      "name": "downVoteCustomer",
      "outputs": [
        {
          "internalType": "bool",
          "name": "",
          "type": "bool"
        }
      ],
      "stateMutability": "nonpayable",
      "type": "function"
    },
    {
      "inputs": [
        {
          "internalType": "string",
          "name": "_customerName",
          "type": "string"
        }
      ],
      "name": "removeDownVoteCustomer",
      "outputs": [
        {
          "internalType": "bool",
          "name": "",
          "type": "bool"
        }
      ],
      "stateMutability": "nonpayable",
      "type": "function"
    },
    {
      "inputs": [
        {
          "internalType": "address",
          "name": "_bankAddress",
          "type": "address"
        }
      ],
      "name": "getBankDetails",
      "outputs": [
        {
          "internalType": "string",
          "name": "",
          "type": "string"
        },
        {
          "internalType": "address",
          "name": "",
          "type": "address"
        },
        {
          "internalType": "uint32",
          "name": "",
          "type": "uint32"
        },
        {
          "internalType": "uint32",
          "name": "",
          "type": "uint32"
        },
        {
          "internalType": "bool",
          "name": "",
          "type": "bool"
        },
        {
          "internalType": "string",
          "name": "",
          "type": "string"
        }
      ],
      "stateMutability": "view",
      "type": "function",
      "constant": true
    },
    {
      "inputs": [
        {
          "internalType": "address",
          "name": "_bankAddress",
          "type": "address"
        }
      ],
      "name": "reportBank",
      "outputs": [
        {
          "internalType": "bool",
          "name": "",
          "type": "bool"
        }
      ],
      "stateMutability": "nonpayable",
      "type": "function"
    },
    {
      "inputs": [
        {
          "internalType": "address",
          "name": "_bankAddress",
          "type": "address"
        }
      ],
      "name": "getBankComplaints",
      "outputs": [
        {
          "internalType": "uint32",
          "name": "",
          "type": "uint32"
        }
      ],
      "stateMutability": "view",
      "type": "function",
      "constant": true
    },
    {
      "inputs": [
        {
          "internalType": "string",
          "name": "_bankName",
          "type": "string"
        },
        {
          "internalType": "address",
          "name": "_bankAddress",
          "type": "address"
        },
        {
          "internalType": "string",
          "name": "_bankRegistration",
          "type": "string"
        }
      ],
      "name": "addBank",
      "outputs": [
        {
          "internalType": "bool",
          "name": "",
          "type": "bool"
        }
      ],
      "stateMutability": "nonpayable",
      "type": "function"
    },
    {
      "inputs": [
        {
          "internalType": "address",
          "name": "_bankAddress",
          "type": "address"
        },
        {
          "internalType": "bool",
          "name": "_isAllowedToVote",
          "type": "bool"
        }
      ],
      "name": "modifyIfBankAllowedToVote",
      "outputs": [
        {
          "internalType": "bool",
          "name": "",
          "type": "bool"
        }
      ],
      "stateMutability": "nonpayable",
      "type": "function"
    },
    {
      "inputs": [
        {
          "internalType": "address",
          "name": "_bankAddress",
          "type": "address"
        }
      ],
      "name": "removeBank",
      "outputs": [
        {
          "internalType": "bool",
          "name": "",
          "type": "bool"
        }
      ],
      "stateMutability": "nonpayable",
      "type": "function"
    }
  ],
  "bytecode": "0x608060405234801561001057600080fd5b50336000806101000a81548173ffffffffffffffffffffffffffffffffffffffff021916908373ffffffffffffffffffffffffffffffffffffffff160217905550614914806100606000396000f3fe608060405234801561001057600080fd5b50600436106101005760003560e01c8063a5a4980011610097578063c924059a11610066578063c924059a1461034e578063cae55c3f1461037e578063ccfa8e71146103ae578063f72860ca146103de57610100565b8063a5a498001461028e578063b7d12190146102be578063ba03ef3a146102ee578063bd561e141461031e57610100565b8063569e64bc116100d3578063569e64bc146101ce5780635ec2a7f2146101fe57806382e0438a1461022e5780639649650c1461025e57610100565b8063107925bb1461010557806315101e02146101395780631e8eba6e1461016e5780633190abc01461019e575b600080fd5b61011f600480360381019061011a919061351a565b61040e565b60405161013095949392919061364b565b60405180910390f35b610153600480360381019061014e91906136d8565b6106d8565b60405161016596959493929190613720565b60405180910390f35b6101886004803603810190610183919061351a565b610abc565b604051610195919061378f565b60405180910390f35b6101b860048036038101906101b391906137aa565b610d8a565b6040516101c5919061378f565b60405180910390f35b6101e860048036038101906101e3919061351a565b610f57565b6040516101f5919061378f565b60405180910390f35b610218600480360381019061021391906136d8565b61130c565b6040516102259190613822565b60405180910390f35b6102486004803603810190610243919061351a565b611438565b604051610255919061378f565b60405180910390f35b610278600480360381019061027391906136d8565b6117ed565b604051610285919061378f565b60405180910390f35b6102a860048036038101906102a391906136d8565b611a59565b6040516102b5919061378f565b60405180910390f35b6102d860048036038101906102d39190613869565b611d36565b6040516102e5919061378f565b60405180910390f35b6103086004803603810190610303919061351a565b611f34565b604051610315919061378f565b60405180910390f35b610338600480360381019061033391906137aa565b6122e9565b604051610345919061378f565b60405180910390f35b6103686004803603810190610363919061351a565b61261f565b604051610375919061378f565b60405180910390f35b6103986004803603810190610393919061351a565b6127fa565b6040516103a5919061378f565b60405180910390f35b6103c860048036038101906103c391906138a9565b612baf565b6040516103d5919061378f565b60405180910390f35b6103f860048036038101906103f391906137aa565b613158565b604051610405919061378f565b60405180910390f35b60608060008060003373ffffffffffffffffffffffffffffffffffffffff1660018760405161043d9190613970565b908152602001604051809103902060020160099054906101000a900473ffffffffffffffffffffffffffffffffffffffff1673ffffffffffffffffffffffffffffffffffffffff16146104c5576040517f08c379a00000000000000000000000000000000000000000000000000000000081526004016104bc90613a1f565b60405180910390fd5b6001866040516104d59190613970565b90815260200160405180910390206000016001876040516104f69190613970565b90815260200160405180910390206001016001886040516105179190613970565b908152602001604051809103902060020160099054906101000a900473ffffffffffffffffffffffffffffffffffffffff166001896040516105599190613970565b908152602001604051809103902060020160019054906101000a900463ffffffff1660018a60405161058b9190613970565b908152602001604051809103902060020160059054906101000a900463ffffffff168480546105b990613a6e565b80601f01602080910402602001604051908101604052809291908181526020018280546105e590613a6e565b80156106325780601f1061060757610100808354040283529160200191610632565b820191906000526020600020905b81548152906001019060200180831161061557829003601f168201915b5050505050945083805461064590613a6e565b80601f016020809104026020016040519081016040528092919081815260200182805461067190613a6e565b80156106be5780601f10610693576101008083540402835291602001916106be565b820191906000526020600020905b8154815290600101906020018083116106a157829003601f168201915b505050505093509450945094509450945091939590929450565b606060008060008060608673ffffffffffffffffffffffffffffffffffffffff16600260008973ffffffffffffffffffffffffffffffffffffffff1673ffffffffffffffffffffffffffffffffffffffff16815260200190815260200160002060010160009054906101000a900473ffffffffffffffffffffffffffffffffffffffff1673ffffffffffffffffffffffffffffffffffffffff16146107b2576040517f08c379a00000000000000000000000000000000000000000000000000000000081526004016107a990613b12565b60405180910390fd5b600260008873ffffffffffffffffffffffffffffffffffffffff1673ffffffffffffffffffffffffffffffffffffffff168152602001908152602001600020600001600260008973ffffffffffffffffffffffffffffffffffffffff1673ffffffffffffffffffffffffffffffffffffffff16815260200190815260200160002060010160009054906101000a900473ffffffffffffffffffffffffffffffffffffffff16600260008a73ffffffffffffffffffffffffffffffffffffffff1673ffffffffffffffffffffffffffffffffffffffff16815260200190815260200160002060010160149054906101000a900463ffffffff16600260008b73ffffffffffffffffffffffffffffffffffffffff1673ffffffffffffffffffffffffffffffffffffffff16815260200190815260200160002060010160189054906101000a900463ffffffff16600260008c73ffffffffffffffffffffffffffffffffffffffff1673ffffffffffffffffffffffffffffffffffffffff168152602001908152602001600020600101601c9054906101000a900460ff16600260008d73ffffffffffffffffffffffffffffffffffffffff1673ffffffffffffffffffffffffffffffffffffffff16815260200190815260200160002060020185805461099b90613a6e565b80601f01602080910402602001604051908101604052809291908181526020018280546109c790613a6e565b8015610a145780601f106109e957610100808354040283529160200191610a14565b820191906000526020600020905b8154815290600101906020018083116109f757829003601f168201915b50505050509550808054610a2790613a6e565b80601f0160208091040260200160405190810160405280929190818152602001828054610a5390613a6e565b8015610aa05780601f10610a7557610100808354040283529160200191610aa0565b820191906000526020600020905b815481529060010190602001808311610a8357829003601f168201915b5050505050905095509550955095509550955091939550919395565b60003373ffffffffffffffffffffffffffffffffffffffff16600383604051610ae59190613970565b908152602001604051809103902060020160009054906101000a900473ffffffffffffffffffffffffffffffffffffffff1673ffffffffffffffffffffffffffffffffffffffff1614610b6d576040517f08c379a0000000000000000000000000000000000000000000000000000000008152600401610b6490613bca565b60405180910390fd5b610c20600183604051610b809190613970565b90815260200160405180910390206000018054610b9c90613a6e565b80601f0160208091040260200160405190810160405280929190818152602001828054610bc890613a6e565b8015610c155780601f10610bea57610100808354040283529160200191610c15565b820191906000526020600020905b815481529060010190602001808311610bf857829003601f168201915b505050505083613284565b610c5f576040517f08c379a0000000000000000000000000000000000000000000000000000000008152600401610c5690613c82565b60405180910390fd5b600382604051610c6f9190613970565b908152602001604051809103902060008082016000610c8e91906132dd565b600182016000610c9e91906132dd565b6002820160006101000a81549073ffffffffffffffffffffffffffffffffffffffff02191690555050600260003373ffffffffffffffffffffffffffffffffffffffff1673ffffffffffffffffffffffffffffffffffffffff168152602001908152602001600020600101601881819054906101000a900463ffffffff1680929190610d2990613cd1565b91906101000a81548163ffffffff021916908363ffffffff160217905550507f496d5d5434647bc8da1b957c8a39657a0fe5021a5ee01bfb6566ee87c56639dd8233604051610d79929190613cfb565b60405180910390a160019050919050565b60008073ffffffffffffffffffffffffffffffffffffffff16600184604051610db39190613970565b908152602001604051809103902060020160099054906101000a900473ffffffffffffffffffffffffffffffffffffffff1673ffffffffffffffffffffffffffffffffffffffff1614610e3b576040517f08c379a0000000000000000000000000000000000000000000000000000000008152600401610e3290613d9d565b60405180910390fd5b82600184604051610e4c9190613970565b90815260200160405180910390206000019080519060200190610e7092919061331d565b5081600184604051610e829190613970565b90815260200160405180910390206001019080519060200190610ea692919061331d565b5033600184604051610eb89190613970565b908152602001604051809103902060020160096101000a81548173ffffffffffffffffffffffffffffffffffffffff021916908373ffffffffffffffffffffffffffffffffffffffff160217905550610f1183836122e9565b507f720f91ef7267a7db0cf726ddb013dd753364a2e1e65319cd32e1d96c3aa38dbd838333604051610f4593929190613dbd565b60405180910390a16001905092915050565b600061100c82600184604051610f6d9190613970565b90815260200160405180910390206000018054610f8990613a6e565b80601f0160208091040260200160405190810160405280929190818152602001828054610fb590613a6e565b80156110025780601f10610fd757610100808354040283529160200191611002565b820191906000526020600020905b815481529060010190602001808311610fe557829003601f168201915b5050505050613284565b61104b576040517f08c379a000000000000000000000000000000000000000000000000000000000815260040161104290613e74565b60405180910390fd5b6110fe60038360405161105e9190613970565b9081526020016040518091039020600001805461107a90613a6e565b80601f01602080910402602001604051908101604052809291908181526020018280546110a690613a6e565b80156110f35780601f106110c8576101008083540402835291602001916110f3565b820191906000526020600020905b8154815290600101906020018083116110d657829003601f168201915b505050505083613284565b61113d576040517f08c379a000000000000000000000000000000000000000000000000000000000815260040161113490613f06565b60405180910390fd5b600060048360405161114f9190613970565b908152602001604051809103902060003373ffffffffffffffffffffffffffffffffffffffff1673ffffffffffffffffffffffffffffffffffffffff16815260200190815260200160002060009054906101000a900460ff1660ff16146111eb576040517f08c379a00000000000000000000000000000000000000000000000000000000081526004016111e290613f98565b60405180910390fd5b6001826040516111fb9190613970565b9081526020016040518091039020600201600181819054906101000a900463ffffffff168092919061122c90613fb8565b91906101000a81548163ffffffff021916908363ffffffff16021790555050600160048360405161125d9190613970565b908152602001604051809103902060003373ffffffffffffffffffffffffffffffffffffffff1673ffffffffffffffffffffffffffffffffffffffff16815260200190815260200160002060006101000a81548160ff021916908360ff1602179055506112c98261261f565b507f8204fd0d7ac1bb685e9147e1259497a085786f9ec68e8b44514f432d7d7fdfe182336040516112fb929190613cfb565b60405180910390a160019050919050565b60008173ffffffffffffffffffffffffffffffffffffffff16600260008473ffffffffffffffffffffffffffffffffffffffff1673ffffffffffffffffffffffffffffffffffffffff16815260200190815260200160002060010160009054906101000a900473ffffffffffffffffffffffffffffffffffffffff1673ffffffffffffffffffffffffffffffffffffffff16146113de576040517f08c379a00000000000000000000000000000000000000000000000000000000081526004016113d590613b12565b60405180910390fd5b600260008373ffffffffffffffffffffffffffffffffffffffff1673ffffffffffffffffffffffffffffffffffffffff16815260200190815260200160002060010160149054906101000a900463ffffffff169050919050565b60006114ed8260018460405161144e9190613970565b9081526020016040518091039020600001805461146a90613a6e565b80601f016020809104026020016040519081016040528092919081815260200182805461149690613a6e565b80156114e35780601f106114b8576101008083540402835291602001916114e3565b820191906000526020600020905b8154815290600101906020018083116114c657829003601f168201915b5050505050613284565b61152c576040517f08c379a000000000000000000000000000000000000000000000000000000000815260040161152390613e74565b60405180910390fd5b6115df60038360405161153f9190613970565b9081526020016040518091039020600001805461155b90613a6e565b80601f016020809104026020016040519081016040528092919081815260200182805461158790613a6e565b80156115d45780601f106115a9576101008083540402835291602001916115d4565b820191906000526020600020905b8154815290600101906020018083116115b757829003601f168201915b505050505083613284565b61161e576040517f08c379a000000000000000000000000000000000000000000000000000000000815260040161161590614057565b60405180910390fd5b60006005836040516116309190613970565b908152602001604051809103902060003373ffffffffffffffffffffffffffffffffffffffff1673ffffffffffffffffffffffffffffffffffffffff16815260200190815260200160002060009054906101000a900460ff1660ff16146116cc576040517f08c379a00000000000000000000000000000000000000000000000000000000081526004016116c3906140e9565b60405180910390fd5b6001826040516116dc9190613970565b9081526020016040518091039020600201600581819054906101000a900463ffffffff168092919061170d90613fb8565b91906101000a81548163ffffffff021916908363ffffffff16021790555050600160058360405161173e9190613970565b908152602001604051809103902060003373ffffffffffffffffffffffffffffffffffffffff1673ffffffffffffffffffffffffffffffffffffffff16815260200190815260200160002060006101000a81548160ff021916908360ff1602179055506117aa8261261f565b507ff76612a4db926c845e0a50031eb928cbbf707428872d88840995c7b8da5f414582336040516117dc929190613cfb565b60405180910390a160019050919050565b60008060009054906101000a900473ffffffffffffffffffffffffffffffffffffffff1673ffffffffffffffffffffffffffffffffffffffff163373ffffffffffffffffffffffffffffffffffffffff161461187e576040517f08c379a00000000000000000000000000000000000000000000000000000000081526004016118759061417b565b60405180910390fd5b8173ffffffffffffffffffffffffffffffffffffffff16600260008473ffffffffffffffffffffffffffffffffffffffff1673ffffffffffffffffffffffffffffffffffffffff16815260200190815260200160002060010160009054906101000a900473ffffffffffffffffffffffffffffffffffffffff1673ffffffffffffffffffffffffffffffffffffffff161461194e576040517f08c379a000000000000000000000000000000000000000000000000000000000815260040161194590613b12565b60405180910390fd5b600260008373ffffffffffffffffffffffffffffffffffffffff1673ffffffffffffffffffffffffffffffffffffffff1681526020019081526020016000206000808201600061199e91906132dd565b6001820160006101000a81549073ffffffffffffffffffffffffffffffffffffffff02191690556001820160146101000a81549063ffffffff02191690556001820160186101000a81549063ffffffff021916905560018201601c6101000a81549060ff0219169055600282016000611a1791906132dd565b50507f6767608704ef368658d85df2d4ab099786fa097072ca3721d0be392020360a7e82604051611a48919061419b565b60405180910390a160019050919050565b60008173ffffffffffffffffffffffffffffffffffffffff16600260008473ffffffffffffffffffffffffffffffffffffffff1673ffffffffffffffffffffffffffffffffffffffff16815260200190815260200160002060010160009054906101000a900473ffffffffffffffffffffffffffffffffffffffff1673ffffffffffffffffffffffffffffffffffffffff1614611b2b576040517f08c379a0000000000000000000000000000000000000000000000000000000008152600401611b2290613b12565b60405180910390fd5b600260008373ffffffffffffffffffffffffffffffffffffffff1673ffffffffffffffffffffffffffffffffffffffff168152602001908152602001600020600101601481819054906101000a900463ffffffff1680929190611b8d90613fb8565b91906101000a81548163ffffffff021916908363ffffffff1602179055505060006064600260008573ffffffffffffffffffffffffffffffffffffffff1673ffffffffffffffffffffffffffffffffffffffff16815260200190815260200160002060010160149054906101000a900463ffffffff16611c0d91906141b6565b905060008060149054906101000a900463ffffffff166021611c2f91906141b6565b90508063ffffffff168263ffffffff161115611ca1576000600260008673ffffffffffffffffffffffffffffffffffffffff1673ffffffffffffffffffffffffffffffffffffffff168152602001908152602001600020600101601c6101000a81548160ff0219169083151502179055505b7f65f47f0fa74a4b8d006ccd51dc625d47139721a7906092a96e0333d7bd684cd18433600260008873ffffffffffffffffffffffffffffffffffffffff1673ffffffffffffffffffffffffffffffffffffffff168152602001908152602001600020600101601c9054906101000a900460ff16604051611d23939291906141f4565b60405180910390a1600192505050919050565b60008060009054906101000a900473ffffffffffffffffffffffffffffffffffffffff1673ffffffffffffffffffffffffffffffffffffffff163373ffffffffffffffffffffffffffffffffffffffff1614611dc7576040517f08c379a0000000000000000000000000000000000000000000000000000000008152600401611dbe9061417b565b60405180910390fd5b8273ffffffffffffffffffffffffffffffffffffffff16600260008573ffffffffffffffffffffffffffffffffffffffff1673ffffffffffffffffffffffffffffffffffffffff16815260200190815260200160002060010160009054906101000a900473ffffffffffffffffffffffffffffffffffffffff1673ffffffffffffffffffffffffffffffffffffffff1614611e97576040517f08c379a0000000000000000000000000000000000000000000000000000000008152600401611e8e90613b12565b60405180910390fd5b81600260008573ffffffffffffffffffffffffffffffffffffffff1673ffffffffffffffffffffffffffffffffffffffff168152602001908152602001600020600101601c6101000a81548160ff0219169083151502179055507f1562979b03fccfb5bb5189a02f4dbef9f48c35bf52a47c09e23271e92ed7bcc38383604051611f2292919061422b565b60405180910390a16001905092915050565b6000611fe982600184604051611f4a9190613970565b90815260200160405180910390206000018054611f6690613a6e565b80601f0160208091040260200160405190810160405280929190818152602001828054611f9290613a6e565b8015611fdf5780601f10611fb457610100808354040283529160200191611fdf565b820191906000526020600020905b815481529060010190602001808311611fc257829003601f168201915b5050505050613284565b612028576040517f08c379a000000000000000000000000000000000000000000000000000000000815260040161201f90613e74565b60405180910390fd5b6120db60038360405161203b9190613970565b9081526020016040518091039020600001805461205790613a6e565b80601f016020809104026020016040519081016040528092919081815260200182805461208390613a6e565b80156120d05780601f106120a5576101008083540402835291602001916120d0565b820191906000526020600020905b8154815290600101906020018083116120b357829003601f168201915b505050505083613284565b61211a576040517f08c379a0000000000000000000000000000000000000000000000000000000008152600401612111906142c6565b60405180910390fd5b600160058360405161212c9190613970565b908152602001604051809103902060003373ffffffffffffffffffffffffffffffffffffffff1673ffffffffffffffffffffffffffffffffffffffff16815260200190815260200160002060009054906101000a900460ff1660ff16146121c8576040517f08c379a00000000000000000000000000000000000000000000000000000000081526004016121bf90614358565b60405180910390fd5b6001826040516121d89190613970565b9081526020016040518091039020600201600581819054906101000a900463ffffffff168092919061220990613cd1565b91906101000a81548163ffffffff021916908363ffffffff16021790555050600060058360405161223a9190613970565b908152602001604051809103902060003373ffffffffffffffffffffffffffffffffffffffff1673ffffffffffffffffffffffffffffffffffffffff16815260200190815260200160002060006101000a81548160ff021916908360ff1602179055506122a68261261f565b507f884e374f9a1d1ef39e4f98a04c2a047354902ad3143ff7a278d9937b56e114d082336040516122d8929190613cfb565b60405180910390a160019050919050565b60003373ffffffffffffffffffffffffffffffffffffffff166003846040516123129190613970565b908152602001604051809103902060020160009054906101000a900473ffffffffffffffffffffffffffffffffffffffff1673ffffffffffffffffffffffffffffffffffffffff16141561239b576040517f08c379a0000000000000000000000000000000000000000000000000000000008152600401612392906143ea565b60405180910390fd5b61244e6001846040516123ae9190613970565b908152602001604051809103902060010180546123ca90613a6e565b80601f01602080910402602001604051908101604052809291908181526020018280546123f690613a6e565b80156124435780601f1061241857610100808354040283529160200191612443565b820191906000526020600020905b81548152906001019060200180831161242657829003601f168201915b505050505083613284565b61248d576040517f08c379a00000000000000000000000000000000000000000000000000000000081526004016124849061447c565b60405180910390fd5b8260038460405161249e9190613970565b908152602001604051809103902060000190805190602001906124c292919061331d565b50816003846040516124d49190613970565b908152602001604051809103902060010190805190602001906124f892919061331d565b503360038460405161250a9190613970565b908152602001604051809103902060020160006101000a81548173ffffffffffffffffffffffffffffffffffffffff021916908373ffffffffffffffffffffffffffffffffffffffff160217905550600260003373ffffffffffffffffffffffffffffffffffffffff1673ffffffffffffffffffffffffffffffffffffffff168152602001908152602001600020600101601881819054906101000a900463ffffffff16809291906125bb90613fb8565b91906101000a81548163ffffffff021916908363ffffffff160217905550507f7fbec8867635bbaab7103c5d6cc8b0ef0767df0159177b6a07b8dbd5afba08cf83833360405161260d93929190613dbd565b60405180910390a16001905092915050565b60008060646001846040516126349190613970565b908152602001604051809103902060020160059054906101000a900463ffffffff1661266091906141b6565b905060008060149054906101000a900463ffffffff16602161268291906141b6565b90508063ffffffff168263ffffffff161015612788576001846040516126a89190613970565b908152602001604051809103902060020160059054906101000a900463ffffffff1663ffffffff166001856040516126e09190613970565b908152602001604051809103902060020160019054906101000a900463ffffffff1663ffffffff16111561274c576001808560405161271f9190613970565b908152602001604051809103902060020160006101000a81548160ff021916908315150217905550612787565b600060018560405161275e9190613970565b908152602001604051809103902060020160006101000a81548160ff0219169083151502179055505b5b7f01e100d0a829e863025b93f03221900ea97cc91afa79d8941528a2a3daea15ff846001866040516127ba9190613970565b908152602001604051809103902060020160009054906101000a900460ff166040516127e792919061449c565b60405180910390a1600192505050919050565b60006128af826001846040516128109190613970565b9081526020016040518091039020600001805461282c90613a6e565b80601f016020809104026020016040519081016040528092919081815260200182805461285890613a6e565b80156128a55780601f1061287a576101008083540402835291602001916128a5565b820191906000526020600020905b81548152906001019060200180831161288857829003601f168201915b5050505050613284565b6128ee576040517f08c379a00000000000000000000000000000000000000000000000000000000081526004016128e590613e74565b60405180910390fd5b6129a16003836040516129019190613970565b9081526020016040518091039020600001805461291d90613a6e565b80601f016020809104026020016040519081016040528092919081815260200182805461294990613a6e565b80156129965780601f1061296b57610100808354040283529160200191612996565b820191906000526020600020905b81548152906001019060200180831161297957829003601f168201915b505050505083613284565b6129e0576040517f08c379a00000000000000000000000000000000000000000000000000000000081526004016129d79061453e565b60405180910390fd5b60016004836040516129f29190613970565b908152602001604051809103902060003373ffffffffffffffffffffffffffffffffffffffff1673ffffffffffffffffffffffffffffffffffffffff16815260200190815260200160002060009054906101000a900460ff1660ff1614612a8e576040517f08c379a0000000000000000000000000000000000000000000000000000000008152600401612a85906145d0565b60405180910390fd5b600182604051612a9e9190613970565b9081526020016040518091039020600201600181819054906101000a900463ffffffff1680929190612acf90613cd1565b91906101000a81548163ffffffff021916908363ffffffff160217905550506000600483604051612b009190613970565b908152602001604051809103902060003373ffffffffffffffffffffffffffffffffffffffff1673ffffffffffffffffffffffffffffffffffffffff16815260200190815260200160002060006101000a81548160ff021916908360ff160217905550612b6c8261261f565b507fb16a6a90c9dc1e72f7d5f1fd2bb19bfe10570dd0f64cc907ba4561c1b252e9878233604051612b9e929190613cfb565b60405180910390a160019050919050565b60008060009054906101000a900473ffffffffffffffffffffffffffffffffffffffff1673ffffffffffffffffffffffffffffffffffffffff163373ffffffffffffffffffffffffffffffffffffffff1614612c40576040517f08c379a0000000000000000000000000000000000000000000000000000000008152600401612c379061417b565b60405180910390fd5b60001515600760008573ffffffffffffffffffffffffffffffffffffffff1673ffffffffffffffffffffffffffffffffffffffff16815260200190815260200160002060009054906101000a900460ff16151514612cd3576040517f08c379a0000000000000000000000000000000000000000000000000000000008152600401612cca9061463c565b60405180910390fd5b60001515600683604051612ce79190613970565b908152602001604051809103902060009054906101000a900460ff16151514612d45576040517f08c379a0000000000000000000000000000000000000000000000000000000008152600401612d3c906146f4565b60405180910390fd5b60001515600885604051612d599190613970565b908152602001604051809103902060009054906101000a900460ff16151514612db7576040517f08c379a0000000000000000000000000000000000000000000000000000000008152600401612dae90614786565b60405180910390fd5b83600260008573ffffffffffffffffffffffffffffffffffffffff1673ffffffffffffffffffffffffffffffffffffffff1681526020019081526020016000206000019080519060200190612e0d92919061331d565b5082600260008573ffffffffffffffffffffffffffffffffffffffff1673ffffffffffffffffffffffffffffffffffffffff16815260200190815260200160002060010160006101000a81548173ffffffffffffffffffffffffffffffffffffffff021916908373ffffffffffffffffffffffffffffffffffffffff1602179055506000600260008573ffffffffffffffffffffffffffffffffffffffff1673ffffffffffffffffffffffffffffffffffffffff16815260200190815260200160002060010160146101000a81548163ffffffff021916908363ffffffff1602179055506000600260008573ffffffffffffffffffffffffffffffffffffffff1673ffffffffffffffffffffffffffffffffffffffff16815260200190815260200160002060010160186101000a81548163ffffffff021916908363ffffffff1602179055506001600260008573ffffffffffffffffffffffffffffffffffffffff1673ffffffffffffffffffffffffffffffffffffffff168152602001908152602001600020600101601c6101000a81548160ff02191690831515021790555081600260008573ffffffffffffffffffffffffffffffffffffffff1673ffffffffffffffffffffffffffffffffffffffff168152602001908152602001600020600201908051906020019061300492919061331d565b5060016006836040516130179190613970565b908152602001604051809103902060006101000a81548160ff0219169083151502179055506001600760008573ffffffffffffffffffffffffffffffffffffffff1673ffffffffffffffffffffffffffffffffffffffff16815260200190815260200160002060006101000a81548160ff02191690831515021790555060016008856040516130a69190613970565b908152602001604051809103902060006101000a81548160ff0219169083151502179055506000601481819054906101000a900463ffffffff16809291906130ed90613fb8565b91906101000a81548163ffffffff021916908363ffffffff160217905550507fdc6397ebcff1d3cd4d51b023f775b4c6c94fd13339bc330fd0275673b618974b848484600060016040516131459594939291906147eb565b60405180910390a1600190509392505050565b60003373ffffffffffffffffffffffffffffffffffffffff166001846040516131819190613970565b908152602001604051809103902060020160099054906101000a900473ffffffffffffffffffffffffffffffffffffffff1673ffffffffffffffffffffffffffffffffffffffff1614613209576040517f08c379a0000000000000000000000000000000000000000000000000000000008152600401613200906148be565b60405180910390fd5b8160018460405161321a9190613970565b9081526020016040518091039020600101908051906020019061323e92919061331d565b507f31d240a9505c05976d93451a6c6c97988c5719ef448ebed149c0e8e534a4812983833360405161327293929190613dbd565b60405180910390a16001905092915050565b6000816040516020016132979190613970565b60405160208183030381529060405280519060200120836040516020016132be9190613970565b6040516020818303038152906040528051906020012014905092915050565b5080546132e990613a6e565b6000825580601f106132fb575061331a565b601f01602090049060005260206000209081019061331991906133a3565b5b50565b82805461332990613a6e565b90600052602060002090601f01602090048101928261334b5760008555613392565b82601f1061336457805160ff1916838001178555613392565b82800160010185558215613392579182015b82811115613391578251825591602001919060010190613376565b5b50905061339f91906133a3565b5090565b5b808211156133bc5760008160009055506001016133a4565b5090565b6000604051905090565b600080fd5b600080fd5b600080fd5b600080fd5b6000601f19601f8301169050919050565b7f4e487b7100000000000000000000000000000000000000000000000000000000600052604160045260246000fd5b613427826133de565b810181811067ffffffffffffffff82111715613446576134456133ef565b5b80604052505050565b60006134596133c0565b9050613465828261341e565b919050565b600067ffffffffffffffff821115613485576134846133ef565b5b61348e826133de565b9050602081019050919050565b82818337600083830152505050565b60006134bd6134b88461346a565b61344f565b9050828152602081018484840111156134d9576134d86133d9565b5b6134e484828561349b565b509392505050565b600082601f830112613501576135006133d4565b5b81356135118482602086016134aa565b91505092915050565b6000602082840312156135305761352f6133ca565b5b600082013567ffffffffffffffff81111561354e5761354d6133cf565b5b61355a848285016134ec565b91505092915050565b600081519050919050565b600082825260208201905092915050565b60005b8381101561359d578082015181840152602081019050613582565b838111156135ac576000848401525b50505050565b60006135bd82613563565b6135c7818561356e565b93506135d781856020860161357f565b6135e0816133de565b840191505092915050565b600073ffffffffffffffffffffffffffffffffffffffff82169050919050565b6000613616826135eb565b9050919050565b6136268161360b565b82525050565b600063ffffffff82169050919050565b6136458161362c565b82525050565b600060a082019050818103600083015261366581886135b2565b9050818103602083015261367981876135b2565b9050613688604083018661361d565b613695606083018561363c565b6136a2608083018461363c565b9695505050505050565b6136b58161360b565b81146136c057600080fd5b50565b6000813590506136d2816136ac565b92915050565b6000602082840312156136ee576136ed6133ca565b5b60006136fc848285016136c3565b91505092915050565b60008115159050919050565b61371a81613705565b82525050565b600060c082019050818103600083015261373a81896135b2565b9050613749602083018861361d565b613756604083018761363c565b613763606083018661363c565b6137706080830185613711565b81810360a083015261378281846135b2565b9050979650505050505050565b60006020820190506137a46000830184613711565b92915050565b600080604083850312156137c1576137c06133ca565b5b600083013567ffffffffffffffff8111156137df576137de6133cf565b5b6137eb858286016134ec565b925050602083013567ffffffffffffffff81111561380c5761380b6133cf565b5b613818858286016134ec565b9150509250929050565b6000602082019050613837600083018461363c565b92915050565b61384681613705565b811461385157600080fd5b50565b6000813590506138638161383d565b92915050565b600080604083850312156138805761387f6133ca565b5b600061388e858286016136c3565b925050602061389f85828601613854565b9150509250929050565b6000806000606084860312156138c2576138c16133ca565b5b600084013567ffffffffffffffff8111156138e0576138df6133cf565b5b6138ec868287016134ec565b93505060206138fd868287016136c3565b925050604084013567ffffffffffffffff81111561391e5761391d6133cf565b5b61392a868287016134ec565b9150509250925092565b600081905092915050565b600061394a82613563565b6139548185613934565b935061396481856020860161357f565b80840191505092915050565b600061397c828461393f565b915081905092915050565b7f5573657220646f65736e2774206578697374206f6e207468697320646174616260008201527f6173652e2055736520616464437573746f6d657220746f20637265617465207560208201527f7365720000000000000000000000000000000000000000000000000000000000604082015250565b6000613a0960438361356e565b9150613a1482613987565b606082019050919050565b60006020820190508181036000830152613a38816139fc565b9050919050565b7f4e487b7100000000000000000000000000000000000000000000000000000000600052602260045260246000fd5b60006002820490506001821680613a8657607f821691505b60208210811415613a9a57613a99613a3f565b5b50919050565b7f42616e6b206164647265737320697320696e636f72726563742e204e6f20737560008201527f6368207265636f72642065786973747300000000000000000000000000000000602082015250565b6000613afc60308361356e565b9150613b0782613aa0565b604082019050919050565b60006020820190508181036000830152613b2b81613aef565b9050919050565b7f4e6f204b594320726571756573742065786973747320666f722074686973206360008201527f7573746f6d65722e20506c6561736520757365206164644b594352657175657360208201527f742066756e6374696f6e00000000000000000000000000000000000000000000604082015250565b6000613bb4604a8361356e565b9150613bbf82613b32565b606082019050919050565b60006020820190508181036000830152613be381613ba7565b9050919050565b7f4e6f20726571756573742065786973747320666f72207468697320637573746f60008201527f6d65722e20506c6561736520757365206164644b59435265717565737420667560208201527f6e6374696f6e0000000000000000000000000000000000000000000000000000604082015250565b6000613c6c60468361356e565b9150613c7782613bea565b606082019050919050565b60006020820190508181036000830152613c9b81613c5f565b9050919050565b7f4e487b7100000000000000000000000000000000000000000000000000000000600052601160045260246000fd5b6000613cdc8261362c565b91506000821415613cf057613cef613ca2565b5b600182039050919050565b60006040820190508181036000830152613d1581856135b2565b9050613d24602083018461361d565b9392505050565b7f55736572206578697374732e20506c656173652063616c6c206d6f646966794360008201527f7573746f6d657220746f206d616b6520616e79206368616e6765730000000000602082015250565b6000613d87603b8361356e565b9150613d9282613d2b565b604082019050919050565b60006020820190508181036000830152613db681613d7a565b9050919050565b60006060820190508181036000830152613dd781866135b2565b90508181036020830152613deb81856135b2565b9050613dfa604083018461361d565b949350505050565b7f437573746f6d657220646f65736e27742065786973742e20557365206164644360008201527f7573746f6d657220746f20637265617465206e65772075736572000000000000602082015250565b6000613e5e603a8361356e565b9150613e6982613e02565b604082019050919050565b60006020820190508181036000830152613e8d81613e51565b9050919050565b7f43616e6e6f74207570766f7465206173206e6f204b594320657869737473206660008201527f6f72207468697320637573746f6d6572207965742e0000000000000000000000602082015250565b6000613ef060358361356e565b9150613efb82613e94565b604082019050919050565b60006020820190508181036000830152613f1f81613ee3565b9050919050565b7f437573746f6d65722068617320616c7265616479206265656e207570766f746560008201527f6420627920796f752e0000000000000000000000000000000000000000000000602082015250565b6000613f8260298361356e565b9150613f8d82613f26565b604082019050919050565b60006020820190508181036000830152613fb181613f75565b9050919050565b6000613fc38261362c565b915063ffffffff821415613fda57613fd9613ca2565b5b600182019050919050565b7f43616e6e6f7420646f776e766f7465206173206e6f204b59432065786973747360008201527f20666f72207468697320637573746f6d6572207965742e000000000000000000602082015250565b600061404160378361356e565b915061404c82613fe5565b604082019050919050565b6000602082019050818103600083015261407081614034565b9050919050565b7f437573746f6d65722068617320616c7265616479206265656e20646f776e207660008201527f6f74656420627920796f752e0000000000000000000000000000000000000000602082015250565b60006140d3602c8361356e565b91506140de82614077565b604082019050919050565b60006020820190508181036000830152614102816140c6565b9050919050565b7f596f75206d75737420686176652061646d696e2070726976696c65646765732060008201527f746f2072756e2074686973000000000000000000000000000000000000000000602082015250565b6000614165602b8361356e565b915061417082614109565b604082019050919050565b6000602082019050818103600083015261419481614158565b9050919050565b60006020820190506141b0600083018461361d565b92915050565b60006141c18261362c565b91506141cc8361362c565b92508163ffffffff04831182151516156141e9576141e8613ca2565b5b828202905092915050565b6000606082019050614209600083018661361d565b614216602083018561361d565b6142236040830184613711565b949350505050565b6000604082019050614240600083018561361d565b61424d6020830184613711565b9392505050565b7f43616e6e6f742072656d6f766520646f776e766f7465206173206e6f204b594360008201527f2065786973747320666f72207468697320637573746f6d6572207965742e0000602082015250565b60006142b0603e8361356e565b91506142bb82614254565b604082019050919050565b600060208201905081810360008301526142df816142a3565b9050919050565b7f437573746f6d6572206861736e2774206265656e20646f776e20766f7465642060008201527f627920796f752e2055736520646f776e566f7465437573746f6d65722e000000602082015250565b6000614342603d8361356e565b915061434d826142e6565b604082019050919050565b6000602082019050818103600083015261437181614335565b9050919050565b7f41204b5943207265717565737420616c72656164792065786973747320666f7260008201527f207468697320757365722066726f6d20746869732062616e6b00000000000000602082015250565b60006143d460398361356e565b91506143df82614378565b604082019050919050565b60006020820190508181036000830152614403816143c7565b9050919050565b7f506c6561736520636865636b20686173682e2054686973207265636f7264206460008201527f6f65736e27742065786973740000000000000000000000000000000000000000602082015250565b6000614466602c8361356e565b91506144718261440a565b604082019050919050565b6000602082019050818103600083015261449581614459565b9050919050565b600060408201905081810360008301526144b681856135b2565b90506144c56020830184613711565b9392505050565b7f43616e6e6f742072656d6f7665207570766f7465206173206e6f204b5943206560008201527f786973747320666f72207468697320637573746f6d6572207965742e00000000602082015250565b6000614528603c8361356e565b9150614533826144cc565b604082019050919050565b600060208201905081810360008301526145578161451b565b9050919050565b7f437573746f6d6572206861736e2774206265656e207570766f7465642062792060008201527f796f752e20757365207570566f7465437573746f6d6572000000000000000000602082015250565b60006145ba60378361356e565b91506145c58261455e565b604082019050919050565b600060208201905081810360008301526145e9816145ad565b9050919050565b7f546869732062616e6b2068617320616c7265616479206265656e206164646564600082015250565b600061462660208361356e565b9150614631826145f0565b602082019050919050565b6000602082019050818103600083015261465581614619565b9050919050565b7f5468697320726567697374726174696f6e206e756d626572206861732062656560008201527f6e2074616b656e2e20506c6561736520656e74657220616e6f74686572206f6e60208201527f652e000000000000000000000000000000000000000000000000000000000000604082015250565b60006146de60428361356e565b91506146e98261465c565b606082019050919050565b6000602082019050818103600083015261470d816146d1565b9050919050565b7f412062616e6b206f662074686973206e616d6520616c7265616479206578697360008201527f747320696e20746865206e6574776f726b000000000000000000000000000000602082015250565b600061477060318361356e565b915061477b82614714565b604082019050919050565b6000602082019050818103600083015261479f81614763565b9050919050565b6000819050919050565b6000819050919050565b60006147d56147d06147cb846147a6565b6147b0565b61362c565b9050919050565b6147e5816147ba565b82525050565b600060a082019050818103600083015261480581886135b2565b9050614814602083018761361d565b818103604083015261482681866135b2565b905061483560608301856147dc565b6148426080830184613711565b9695505050505050565b7f5573657220646f65736e27742065786973742e20506c656173652063616c6c2060008201527f616464437573746f6d657220746f20637265617465206e657720757365720000602082015250565b60006148a8603e8361356e565b91506148b38261484c565b604082019050919050565b600060208201905081810360008301526148d78161489b565b905091905056fea26469706673582212208d326e614248606808bf0b31c96810e74ceecea7363a888fe36d223446824d2764736f6c63430008090033",
  "immutableReferences": {},
  "source": "// SPDX-License-Identifier: MIT\n\npragma solidity ^0.8.9;\n\ncontract KYC_Contract {\n    constructor() {\n        admin = msg.sender;\n    }\n\n    address admin;\n\n    modifier onlyAdmin() {\n        require(\n            msg.sender == admin,\n            \"You must have admin priviledges to run this\"\n        );\n        _;\n    }\n\n    struct Customer {\n        string username;\n        // hash that points to customer documents in secure storage\n        string customerData;\n        // status of KYC request. if conditions are met, set to true. else false\n        bool kycStatus;\n        // number of upvotes from other banks to customer data\n        uint32 upVotes;\n        // number of downvotes from other banks to customer data\n        uint32 downVotes;\n        // unique address of the validating bank\n        address validatorBankAddress;\n    }\n\n    struct Bank {\n        string name;\n        // unique ethereum address of the bank\n        address ethAddress;\n        // total complaints against the bank by other banks in the network\n        uint32 complaintsReported;\n        //number of KYC requests initiated by bank\n        uint32 KYC_count;\n        // status. if false, bank cannot up/down vote any more customers\n        bool isAllowedToVote;\n        // registration number of the bank\n        string regNumber;\n    }\n\n    struct KYC_Request {\n        // map KYC request to customer data\n        string username;\n        // hash that points to customer documents in secure storage\n        string customerData;\n        // unique account address of the bank\n        address bankAddress;\n    }\n\n    // count of total banks in the network\n    uint32 totalBanks;\n\n    /* Mappings */\n\n    // customer name to view customer details\n    mapping(string => Customer) customers;\n\n    // unique bank address to view bank details\n    mapping(address => Bank) banks;\n\n    // customer name to view KYC requests\n    mapping(string => KYC_Request) KYC_requests;\n\n    // keep track of up votes for the customer by all the banks in the network\n    mapping(string => mapping(address => uint8)) up_votes;\n\n    // keep track of down votes for the customer by all the banks in the network\n    mapping(string => mapping(address => uint8)) down_votes;\n\n    // make sure all bank registration numbers are unique\n    mapping(string => bool) bank_registration_numbers;\n\n    // keep track of banks added to the network\n    mapping(address => bool) added_banks;\n\n    // keep track of bank names added to the system\n    mapping(string => bool) bank_names;\n\n    /* Events */\n\n    event AddKYCRequest(\n        string _customerName,\n        string _customerData,\n        address KYCRequestingBank\n    );\n    event RemoveKYCRequest(string _customerName, address KYCRemovingBank);\n\n    event AddCustomer(\n        string _customerName,\n        string _customerData,\n        address validatorBank\n    );\n    event ModifyCustomer(\n        string _customerName,\n        string _newCustomerData,\n        address bankAddress\n    );\n\n    event CustomerKYCStatus(string _customerName, bool _KYCStatus);\n\n    event UpVoteCustomer(string _customerName, address bankAddress);\n    event RemoveUpVoteCustomer(string _customerName, address bankAddress);\n\n    event DownVoteCustomer(string _customerName, address bankAddress);\n    event RemoveDownVoteCustomer(string _customerName, address bankAddress);\n\n    event ReportBank(\n        address _bankAddress,\n        address reportingBank,\n        bool isAllowedToVote\n    );\n\n    event AddBank(\n        string _bankName,\n        address _bankAddress,\n        string _bankRegistration,\n        uint32 _complaintsReported,\n        bool _KYCPermission\n    );\n\n    event ModifyIfBankAllowedToVote(\n        address _bankAddress,\n        bool _isAllowedToVote\n    );\n\n    event RemoveBank(address _bankAddress);\n\n    /**\n     * Record a new KYC request on behalf of a customer\n     * Bank is the sender of this request\n     * @param _customerName The name of the customer for whom KYC is to be done\n     * @param _customerData The hash of the customer data being requested\n     * @return bool confirmation that KYC request was added\n     */\n    function addKYCRequest(\n        string memory _customerName,\n        string memory _customerData\n    ) public returns (bool) {\n        // require that the request the bank is making isn't a duplicate\n        require(\n            !(KYC_requests[_customerName].bankAddress == msg.sender),\n            \"A KYC request already exists for this user from this bank\"\n        );\n\n        require(\n            compareStringsbyBytes(\n                customers[_customerName].customerData,\n                _customerData\n            ),\n            \"Please check hash. This record doesn't exist\"\n        );\n\n        // update KYC requests mapping\n        KYC_requests[_customerName].username = _customerName;\n        KYC_requests[_customerName].customerData = _customerData;\n        KYC_requests[_customerName].bankAddress = msg.sender;\n\n        // add KYC requests made by this bank\n        banks[msg.sender].KYC_count++;\n\n        emit AddKYCRequest(_customerName, _customerData, msg.sender);\n        return true;\n    }\n\n    /**\n     * Remove KYC request\n     * @param _customerName The name of the customer for whom KYC is to be removed\n     * @return bool confirmation that KYC request was removed\n     */\n    function removeKYCRequest(string memory _customerName)\n        public\n        returns (bool)\n    {\n        // require that the username in fact exists as a KYC request\n        require(\n            (KYC_requests[_customerName].bankAddress == msg.sender),\n            \"No KYC request exists for this customer. Please use addKYCRequest function\"\n        );\n\n        require(\n            compareStringsbyBytes(\n                customers[_customerName].username,\n                _customerName\n            ),\n            \"No request exists for this customer. Please use addKYCRequest function\"\n        );\n\n        // delete the customer's KYC request\n        delete KYC_requests[_customerName];\n\n        // reduce KYC requests made by this bank\n        banks[msg.sender].KYC_count--;\n\n        emit RemoveKYCRequest(_customerName, msg.sender);\n        return true;\n    }\n\n    /**\n     * View customer information\n     * @param _customerName Name of the customer\n     * @return struct Customer\n     */\n    function viewCustomer(string memory _customerName)\n        public\n        view\n        returns (\n            string memory,\n            string memory,\n            address,\n            uint32,\n            uint32\n        )\n    {\n        require(\n            customers[_customerName].validatorBankAddress ==\n                address(msg.sender),\n            \"User doesn't exist on this database. Use addCustomer to create user\"\n        );\n\n        return (\n            customers[_customerName].username,\n            customers[_customerName].customerData,\n            customers[_customerName].validatorBankAddress,\n            customers[_customerName].upVotes,\n            customers[_customerName].downVotes\n        );\n    }\n\n    /**\n     * Add a new customer\n     * @param _customerName Name of the customer\n     * @param _customerData Hash of the customer docs\n     * @return bool confirmation that user was added\n     */\n    function addCustomer(\n        string memory _customerName,\n        string memory _customerData\n    ) public returns (bool) {\n        require(\n            customers[_customerName].validatorBankAddress == address(0x0),\n            \"User exists. Please call modifyCustomer to make any changes\"\n        );\n\n        customers[_customerName].username = _customerName;\n        customers[_customerName].customerData = _customerData;\n        customers[_customerName].validatorBankAddress = msg.sender;\n\n        // initiate KYC request on creation of customer\n        addKYCRequest(_customerName, _customerData);\n\n        emit AddCustomer(_customerName, _customerData, msg.sender);\n        return true;\n    }\n\n    /**\n     * Modify customer data\n     * @param _customerName Name of the customer\n     * @param _newCustomerData New hash of the updated docs\n     * @return bool confirmation that user was modified\n     */\n    function modifyCustomer(\n        string memory _customerName,\n        string memory _newCustomerData\n    ) public returns (bool) {\n        require(\n            customers[_customerName].validatorBankAddress ==\n                address(msg.sender),\n            \"User doesn't exist. Please call addCustomer to create new user\"\n        );\n\n        customers[_customerName].customerData = _newCustomerData;\n\n        emit ModifyCustomer(_customerName, _newCustomerData, msg.sender);\n        return true;\n    }\n\n    /**\n     * Function to change the KYC status of customer based on up or down votes\n     * @param _customerName Name of the customer to be upvoted\n     * @return bool true if KYC status was updated\n     */\n    function customerKYCStatus(string memory _customerName)\n        public\n        returns (bool)\n    {\n        // solidity doesn't support float or rational numbers\n        // hence we multiply 100 to both sides of the equation\n        uint32 condition1 = customers[_customerName].downVotes * 100;\n        uint32 condition2 = 33 * totalBanks;\n\n        if (condition1 < condition2) {\n            if (\n                customers[_customerName].upVotes >\n                customers[_customerName].downVotes\n            ) {\n                customers[_customerName].kycStatus = true;\n            } else {\n                customers[_customerName].kycStatus = false;\n            }\n        }\n\n        emit CustomerKYCStatus(\n            _customerName,\n            customers[_customerName].kycStatus\n        );\n        return true;\n    }\n\n    /**\n     * Function to add a new up vote for a customer\n     * @param _customerName Name of the customer to be upvoted\n     * @return bool confirmation that up votes were updated\n     */\n    function upVoteCustomer(string memory _customerName) public returns (bool) {\n        require(\n            compareStringsbyBytes(\n                _customerName,\n                customers[_customerName].username\n            ),\n            \"Customer doesn't exist. Use addCustomer to create new user\"\n        );\n\n        require(\n            compareStringsbyBytes(\n                KYC_requests[_customerName].username,\n                _customerName\n            ),\n            \"Cannot upvote as no KYC exists for this customer yet.\"\n        );\n\n        require(\n            up_votes[_customerName][msg.sender] == 0,\n            \"Customer has already been upvoted by you.\"\n        );\n\n        // update upVote count\n        customers[_customerName].upVotes++;\n        up_votes[_customerName][msg.sender] = 1;\n\n        // update customer KYC status in light of vote update\n        customerKYCStatus(_customerName);\n\n        emit UpVoteCustomer(_customerName, msg.sender);\n        return true;\n    }\n\n    /**\n     * Function to remove an up vote for a customer\n     * @param _customerName Name of the customer to be upvoted\n     * @return bool confirmation that up votes were updated\n     */\n    function removeUpVoteCustomer(string memory _customerName)\n        public\n        returns (bool)\n    {\n        require(\n            compareStringsbyBytes(\n                _customerName,\n                customers[_customerName].username\n            ),\n            \"Customer doesn't exist. Use addCustomer to create new user\"\n        );\n\n        require(\n            compareStringsbyBytes(\n                KYC_requests[_customerName].username,\n                _customerName\n            ),\n            \"Cannot remove upvote as no KYC exists for this customer yet.\"\n        );\n\n        require(\n            up_votes[_customerName][msg.sender] == 1,\n            \"Customer hasn't been upvoted by you. use upVoteCustomer\"\n        );\n\n        // update upVote count\n        customers[_customerName].upVotes--;\n        up_votes[_customerName][msg.sender] = 0;\n\n        // update customer KYC status in light of vote update\n        customerKYCStatus(_customerName);\n\n        emit RemoveUpVoteCustomer(_customerName, msg.sender);\n        return true;\n    }\n\n    /**\n     * Function to add a new down vote for a customer\n     * @param _customerName Name of the customer to be upvoted\n     * @return bool confirmation that down votes were updated\n     */\n    function downVoteCustomer(string memory _customerName)\n        public\n        returns (bool)\n    {\n        require(\n            compareStringsbyBytes(\n                _customerName,\n                customers[_customerName].username\n            ),\n            \"Customer doesn't exist. Use addCustomer to create new user\"\n        );\n\n        require(\n            compareStringsbyBytes(\n                KYC_requests[_customerName].username,\n                _customerName\n            ),\n            \"Cannot downvote as no KYC exists for this customer yet.\"\n        );\n\n        require(\n            down_votes[_customerName][msg.sender] == 0,\n            \"Customer has already been down voted by you.\"\n        );\n\n        // update downVote count\n        customers[_customerName].downVotes++;\n        down_votes[_customerName][msg.sender] = 1;\n\n        // update customer KYC status in light of vote update\n        customerKYCStatus(_customerName);\n\n        emit DownVoteCustomer(_customerName, msg.sender);\n        return true;\n    }\n\n    /**\n     * Function to remove a down vote for a customer\n     * @param _customerName Name of the customer to be upvoted\n     * @return bool confirmation that down votes were updated\n     */\n    function removeDownVoteCustomer(string memory _customerName)\n        public\n        returns (bool)\n    {\n        require(\n            compareStringsbyBytes(\n                _customerName,\n                customers[_customerName].username\n            ),\n            \"Customer doesn't exist. Use addCustomer to create new user\"\n        );\n\n        require(\n            compareStringsbyBytes(\n                KYC_requests[_customerName].username,\n                _customerName\n            ),\n            \"Cannot remove downvote as no KYC exists for this customer yet.\"\n        );\n\n        require(\n            down_votes[_customerName][msg.sender] == 1,\n            \"Customer hasn't been down voted by you. Use downVoteCustomer.\"\n        );\n\n        // update downVote count\n        customers[_customerName].downVotes--;\n        down_votes[_customerName][msg.sender] = 0;\n\n        // update customer KYC status in light of vote update\n        customerKYCStatus(_customerName);\n\n        emit RemoveDownVoteCustomer(_customerName, msg.sender);\n        return true;\n    }\n\n    /**\n     * View bank information\n     * @param _bankAddress Unique address of the bank\n     * @return struct Bank\n     */\n    function getBankDetails(address _bankAddress)\n        public\n        view\n        returns (\n            string memory,\n            address,\n            uint32,\n            uint32,\n            bool,\n            string memory\n        )\n    {\n        require(\n            banks[_bankAddress].ethAddress == _bankAddress,\n            \"Bank address is incorrect. No such record exists\"\n        );\n\n        return (\n            banks[_bankAddress].name,\n            banks[_bankAddress].ethAddress,\n            banks[_bankAddress].complaintsReported,\n            banks[_bankAddress].KYC_count,\n            banks[_bankAddress].isAllowedToVote,\n            banks[_bankAddress].regNumber\n        );\n    }\n\n    /**\n     * Report a complaint against a bank\n     * @param _bankAddress Unique address of the bank\n     * @return bool confirmation that report was submitted\n     */\n    function reportBank(address _bankAddress) public returns (bool) {\n        require(\n            banks[_bankAddress].ethAddress == _bankAddress,\n            \"Bank address is incorrect. No such record exists\"\n        );\n\n        // update count of the complaints reported\n        banks[_bankAddress].complaintsReported++;\n\n        // solidity doesn't support float or rational numbers\n        // hence we multiply 100 to both sides of the equation\n        uint32 condition1 = banks[_bankAddress].complaintsReported * 100;\n        uint32 condition2 = 33 * totalBanks;\n        if (condition1 > condition2) {\n            banks[_bankAddress].isAllowedToVote = false;\n        }\n\n        emit ReportBank(\n            _bankAddress,\n            msg.sender,\n            banks[_bankAddress].isAllowedToVote\n        );\n        return true;\n    }\n\n    /**\n     * View total number of bank complaints\n     * @param _bankAddress unique address of the bank\n     * @return uint32 total number of bank complaints\n     */\n    function getBankComplaints(address _bankAddress)\n        public\n        view\n        returns (uint32)\n    {\n        require(\n            banks[_bankAddress].ethAddress == _bankAddress,\n            \"Bank address is incorrect. No such record exists\"\n        );\n\n        return banks[_bankAddress].complaintsReported;\n    }\n\n    /**\n     * Add a new bank to the network\n     * @param _bankName name of the bank\n     * @param _bankAddress unique address of the bank\n     * @param _bankRegistration unique registration number of the bank\n     * @return bool New bank has been added to the network\n     */\n    function addBank(\n        string memory _bankName,\n        address _bankAddress,\n        string memory _bankRegistration\n    ) public onlyAdmin returns (bool) {\n        require(\n            added_banks[_bankAddress] == false,\n            \"This bank has already been added\"\n        );\n\n        // require a unique registration number\n        require(\n            bank_registration_numbers[_bankRegistration] == false,\n            \"This registration number has been taken. Please enter another one.\"\n        );\n\n        require(\n            bank_names[_bankName] == false,\n            \"A bank of this name already exists in the network\"\n        );\n\n        banks[_bankAddress].name = _bankName;\n        banks[_bankAddress].ethAddress = _bankAddress;\n        banks[_bankAddress].complaintsReported = 0;\n        banks[_bankAddress].KYC_count = 0;\n        banks[_bankAddress].isAllowedToVote = true;\n        banks[_bankAddress].regNumber = _bankRegistration;\n\n        // update registration number and name mappings\n        bank_registration_numbers[_bankRegistration] = true;\n        added_banks[_bankAddress] = true;\n        bank_names[_bankName] = true;\n\n        // update count of total banks in the network\n        totalBanks++;\n\n        emit AddBank(_bankName, _bankAddress, _bankRegistration, 0, true);\n        return true;\n    }\n\n    /**\n     * Modify if a bank is allowed to vote in the KYC process\n     * @param _bankAddress unique address of the bank\n     * @param _isAllowedToVote boolean value, true if bank is allowed, false if not\n     * @return bool true if bank's voting rights were revoked by admin\n     */\n\n    function modifyIfBankAllowedToVote(\n        address _bankAddress,\n        bool _isAllowedToVote\n    ) public onlyAdmin returns (bool) {\n        require(\n            banks[_bankAddress].ethAddress == _bankAddress,\n            \"Bank address is incorrect. No such record exists\"\n        );\n\n        banks[_bankAddress].isAllowedToVote = _isAllowedToVote;\n\n        emit ModifyIfBankAllowedToVote(_bankAddress, _isAllowedToVote);\n        return true;\n    }\n\n    /**\n     * Remove a bank from the network\n     * @param _bankAddress unique address of the bank\n     * @return bool true if bank has been removed from the network by admin\n     */\n    function removeBank(address _bankAddress) public onlyAdmin returns (bool) {\n        require(\n            banks[_bankAddress].ethAddress == _bankAddress,\n            \"Bank address is incorrect. No such record exists\"\n        );\n\n        delete banks[_bankAddress];\n\n        emit RemoveBank(_bankAddress);\n        return true;\n    }\n\n    // source: https://ethereum.stackexchange.com/questions/45813/compare-strings-in-solidity\n    function compareStringsbyBytes(string memory s1, string memory s2)\n        private\n        pure\n        returns (bool)\n    {\n        return\n            keccak256(abi.encodePacked(s1)) == keccak256(abi.encodePacked(s2));\n    }\n}\n",
  "sourcePath": "/home/dhruv/Desktop/projects/dApp/KYC/contracts/KYC_Contract.sol",
  "compiler": {
    "name": "solc",
    "version": "0.8.9+commit.e5eed63a.Emscripten.clang"
  },
  "schemaVersion": "3.4.3",
  "updatedAt": "2021-12-04T13:52:10.266Z",
  "networkType": "ethereum",
  "devdoc": {
    "kind": "dev",
    "methods": {
      "addBank(string,address,string)": {
        "params": {
          "_bankAddress": "unique address of the bank",
          "_bankName": "name of the bank",
          "_bankRegistration": "unique registration number of the bank"
        },
        "returns": {
          "_0": "bool New bank has been added to the network"
        }
      },
      "addCustomer(string,string)": {
        "params": {
          "_customerData": "Hash of the customer docs",
          "_customerName": "Name of the customer"
        },
        "returns": {
          "_0": "bool confirmation that user was added"
        }
      },
      "addKYCRequest(string,string)": {
        "params": {
          "_customerData": "The hash of the customer data being requested",
          "_customerName": "The name of the customer for whom KYC is to be done"
        },
        "returns": {
          "_0": "bool confirmation that KYC request was added"
        }
      },
      "customerKYCStatus(string)": {
        "params": {
          "_customerName": "Name of the customer to be upvoted"
        },
        "returns": {
          "_0": "bool true if KYC status was updated"
        }
      },
      "downVoteCustomer(string)": {
        "params": {
          "_customerName": "Name of the customer to be upvoted"
        },
        "returns": {
          "_0": "bool confirmation that down votes were updated"
        }
      },
      "getBankComplaints(address)": {
        "params": {
          "_bankAddress": "unique address of the bank"
        },
        "returns": {
          "_0": "uint32 total number of bank complaints"
        }
      },
      "getBankDetails(address)": {
        "params": {
          "_bankAddress": "Unique address of the bank"
        },
        "returns": {
          "_0": "struct Bank"
        }
      },
      "modifyCustomer(string,string)": {
        "params": {
          "_customerName": "Name of the customer",
          "_newCustomerData": "New hash of the updated docs"
        },
        "returns": {
          "_0": "bool confirmation that user was modified"
        }
      },
      "modifyIfBankAllowedToVote(address,bool)": {
        "params": {
          "_bankAddress": "unique address of the bank",
          "_isAllowedToVote": "boolean value, true if bank is allowed, false if not"
        },
        "returns": {
          "_0": "bool true if bank's voting rights were revoked by admin"
        }
      },
      "removeBank(address)": {
        "params": {
          "_bankAddress": "unique address of the bank"
        },
        "returns": {
          "_0": "bool true if bank has been removed from the network by admin"
        }
      },
      "removeDownVoteCustomer(string)": {
        "params": {
          "_customerName": "Name of the customer to be upvoted"
        },
        "returns": {
          "_0": "bool confirmation that down votes were updated"
        }
      },
      "removeKYCRequest(string)": {
        "params": {
          "_customerName": "The name of the customer for whom KYC is to be removed"
        },
        "returns": {
          "_0": "bool confirmation that KYC request was removed"
        }
      },
      "removeUpVoteCustomer(string)": {
        "params": {
          "_customerName": "Name of the customer to be upvoted"
        },
        "returns": {
          "_0": "bool confirmation that up votes were updated"
        }
      },
      "reportBank(address)": {
        "params": {
          "_bankAddress": "Unique address of the bank"
        },
        "returns": {
          "_0": "bool confirmation that report was submitted"
        }
      },
      "upVoteCustomer(string)": {
        "params": {
          "_customerName": "Name of the customer to be upvoted"
        },
        "returns": {
          "_0": "bool confirmation that up votes were updated"
        }
      },
      "viewCustomer(string)": {
        "params": {
          "_customerName": "Name of the customer"
        },
        "returns": {
          "_0": "struct Customer"
        }
      }
    },
    "version": 1
  },
  "userdoc": {
    "kind": "user",
    "methods": {
      "addBank(string,address,string)": {
        "notice": "Add a new bank to the network"
      },
      "addCustomer(string,string)": {
        "notice": "Add a new customer"
      },
      "addKYCRequest(string,string)": {
        "notice": "Record a new KYC request on behalf of a customer Bank is the sender of this request"
      },
      "customerKYCStatus(string)": {
        "notice": "Function to change the KYC status of customer based on up or down votes"
      },
      "downVoteCustomer(string)": {
        "notice": "Function to add a new down vote for a customer"
      },
      "getBankComplaints(address)": {
        "notice": "View total number of bank complaints"
      },
      "getBankDetails(address)": {
        "notice": "View bank information"
      },
      "modifyCustomer(string,string)": {
        "notice": "Modify customer data"
      },
      "modifyIfBankAllowedToVote(address,bool)": {
        "notice": "Modify if a bank is allowed to vote in the KYC process"
      },
      "removeBank(address)": {
        "notice": "Remove a bank from the network"
      },
      "removeDownVoteCustomer(string)": {
        "notice": "Function to remove a down vote for a customer"
      },
      "removeKYCRequest(string)": {
        "notice": "Remove KYC request"
      },
      "removeUpVoteCustomer(string)": {
        "notice": "Function to remove an up vote for a customer"
      },
      "reportBank(address)": {
        "notice": "Report a complaint against a bank"
      },
      "upVoteCustomer(string)": {
        "notice": "Function to add a new up vote for a customer"
      },
      "viewCustomer(string)": {
        "notice": "View customer information"
      }
    },
    "version": 1
  }
}