{
  "contractName": "KYC_Contract",
  "abi": [
    {
      "inputs": [],
      "stateMutability": "nonpayable",
      "type": "constructor"
    },
    {
      "anonymous": false,
      "inputs": [
        {
          "indexed": false,
          "internalType": "string",
          "name": "_bankName",
          "type": "string"
        },
        {
          "indexed": false,
          "internalType": "address",
          "name": "_bankAddress",
          "type": "address"
        },
        {
          "indexed": false,
          "internalType": "string",
          "name": "_bankRegistration",
          "type": "string"
        },
        {
          "indexed": false,
          "internalType": "uint32",
          "name": "_complaintsReported",
          "type": "uint32"
        },
        {
          "indexed": false,
          "internalType": "bool",
          "name": "_KYCPermission",
          "type": "bool"
        }
      ],
      "name": "AddBank",
      "type": "event"
    },
    {
      "anonymous": false,
      "inputs": [
        {
          "indexed": false,
          "internalType": "string",
          "name": "_customerName",
          "type": "string"
        },
        {
          "indexed": false,
          "internalType": "string",
          "name": "_customerData",
          "type": "string"
        },
        {
          "indexed": false,
          "internalType": "address",
          "name": "validatorBank",
          "type": "address"
        }
      ],
      "name": "AddCustomer",
      "type": "event"
    },
    {
      "anonymous": false,
      "inputs": [
        {
          "indexed": false,
          "internalType": "string",
          "name": "_customerName",
          "type": "string"
        },
        {
          "indexed": false,
          "internalType": "string",
          "name": "_customerData",
          "type": "string"
        },
        {
          "indexed": false,
          "internalType": "address",
          "name": "KYCRequestingBank",
          "type": "address"
        }
      ],
      "name": "AddKYCRequest",
      "type": "event"
    },
    {
      "anonymous": false,
      "inputs": [
        {
          "indexed": false,
          "internalType": "string",
          "name": "_customerName",
          "type": "string"
        },
        {
          "indexed": false,
          "internalType": "address",
          "name": "bankAddress",
          "type": "address"
        }
      ],
      "name": "DownVoteCustomer",
      "type": "event"
    },
    {
      "anonymous": false,
      "inputs": [
        {
          "indexed": false,
          "internalType": "string",
          "name": "_customerName",
          "type": "string"
        },
        {
          "indexed": false,
          "internalType": "string",
          "name": "_newCustomerData",
          "type": "string"
        },
        {
          "indexed": false,
          "internalType": "address",
          "name": "bankAddress",
          "type": "address"
        }
      ],
      "name": "ModifyCustomer",
      "type": "event"
    },
    {
      "anonymous": false,
      "inputs": [
        {
          "indexed": false,
          "internalType": "address",
          "name": "_bankAddress",
          "type": "address"
        },
        {
          "indexed": false,
          "internalType": "bool",
          "name": "_isAllowedToVote",
          "type": "bool"
        },
        {
          "indexed": false,
          "internalType": "address",
          "name": "_revokingBank",
          "type": "address"
        }
      ],
      "name": "ModifyIfBankAllowedToVote",
      "type": "event"
    },
    {
      "anonymous": false,
      "inputs": [
        {
          "indexed": false,
          "internalType": "string",
          "name": "_customerName",
          "type": "string"
        },
        {
          "indexed": false,
          "internalType": "address",
          "name": "bankAddress",
          "type": "address"
        }
      ],
      "name": "RemoveDownVoteCustomer",
      "type": "event"
    },
    {
      "anonymous": false,
      "inputs": [
        {
          "indexed": false,
          "internalType": "string",
          "name": "_customerName",
          "type": "string"
        },
        {
          "indexed": false,
          "internalType": "address",
          "name": "KYCRemovingBank",
          "type": "address"
        }
      ],
      "name": "RemoveKYCRequest",
      "type": "event"
    },
    {
      "anonymous": false,
      "inputs": [
        {
          "indexed": false,
          "internalType": "string",
          "name": "_customerName",
          "type": "string"
        },
        {
          "indexed": false,
          "internalType": "address",
          "name": "bankAddress",
          "type": "address"
        }
      ],
      "name": "RemoveUpVoteCustomer",
      "type": "event"
    },
    {
      "anonymous": false,
      "inputs": [
        {
          "indexed": false,
          "internalType": "address",
          "name": "_bankAddress",
          "type": "address"
        },
        {
          "indexed": false,
          "internalType": "address",
          "name": "reportingBank",
          "type": "address"
        },
        {
          "indexed": false,
          "internalType": "bool",
          "name": "isAllowedToVote",
          "type": "bool"
        }
      ],
      "name": "ReportBank",
      "type": "event"
    },
    {
      "anonymous": false,
      "inputs": [
        {
          "indexed": false,
          "internalType": "string",
          "name": "_customerName",
          "type": "string"
        },
        {
          "indexed": false,
          "internalType": "address",
          "name": "bankAddress",
          "type": "address"
        }
      ],
      "name": "UpVoteCustomer",
      "type": "event"
    },
    {
      "inputs": [
        {
          "internalType": "string",
          "name": "_customerName",
          "type": "string"
        },
        {
          "internalType": "string",
          "name": "_customerData",
          "type": "string"
        }
      ],
      "name": "addKYCRequest",
      "outputs": [
        {
          "internalType": "bool",
          "name": "",
          "type": "bool"
        }
      ],
      "stateMutability": "nonpayable",
      "type": "function"
    },
    {
      "inputs": [
        {
          "internalType": "string",
          "name": "_customerName",
          "type": "string"
        }
      ],
      "name": "removeKYCRequest",
      "outputs": [
        {
          "internalType": "bool",
          "name": "",
          "type": "bool"
        }
      ],
      "stateMutability": "nonpayable",
      "type": "function"
    },
    {
      "inputs": [
        {
          "internalType": "string",
          "name": "_customerName",
          "type": "string"
        }
      ],
      "name": "viewCustomer",
      "outputs": [
        {
          "internalType": "string",
          "name": "",
          "type": "string"
        },
        {
          "internalType": "string",
          "name": "",
          "type": "string"
        },
        {
          "internalType": "address",
          "name": "",
          "type": "address"
        },
        {
          "internalType": "uint32",
          "name": "",
          "type": "uint32"
        },
        {
          "internalType": "uint32",
          "name": "",
          "type": "uint32"
        }
      ],
      "stateMutability": "view",
      "type": "function",
      "constant": true
    },
    {
      "inputs": [
        {
          "internalType": "string",
          "name": "_customerName",
          "type": "string"
        },
        {
          "internalType": "string",
          "name": "_customerData",
          "type": "string"
        }
      ],
      "name": "addCustomer",
      "outputs": [
        {
          "internalType": "bool",
          "name": "",
          "type": "bool"
        }
      ],
      "stateMutability": "nonpayable",
      "type": "function"
    },
    {
      "inputs": [
        {
          "internalType": "string",
          "name": "_customerName",
          "type": "string"
        },
        {
          "internalType": "string",
          "name": "_newCustomerData",
          "type": "string"
        }
      ],
      "name": "modifyCustomer",
      "outputs": [
        {
          "internalType": "bool",
          "name": "",
          "type": "bool"
        }
      ],
      "stateMutability": "nonpayable",
      "type": "function"
    },
    {
      "inputs": [
        {
          "internalType": "string",
          "name": "_customerName",
          "type": "string"
        }
      ],
      "name": "upVoteCustomer",
      "outputs": [
        {
          "internalType": "bool",
          "name": "",
          "type": "bool"
        }
      ],
      "stateMutability": "nonpayable",
      "type": "function"
    },
    {
      "inputs": [
        {
          "internalType": "string",
          "name": "_customerName",
          "type": "string"
        }
      ],
      "name": "removeUpVoteCustomer",
      "outputs": [
        {
          "internalType": "bool",
          "name": "",
          "type": "bool"
        }
      ],
      "stateMutability": "nonpayable",
      "type": "function"
    },
    {
      "inputs": [
        {
          "internalType": "string",
          "name": "_customerName",
          "type": "string"
        }
      ],
      "name": "downVoteCustomer",
      "outputs": [
        {
          "internalType": "bool",
          "name": "",
          "type": "bool"
        }
      ],
      "stateMutability": "nonpayable",
      "type": "function"
    },
    {
      "inputs": [
        {
          "internalType": "string",
          "name": "_customerName",
          "type": "string"
        }
      ],
      "name": "removeDownVoteCustomer",
      "outputs": [
        {
          "internalType": "bool",
          "name": "",
          "type": "bool"
        }
      ],
      "stateMutability": "nonpayable",
      "type": "function"
    },
    {
      "inputs": [
        {
          "internalType": "address",
          "name": "_bankAddress",
          "type": "address"
        }
      ],
      "name": "getBankDetails",
      "outputs": [
        {
          "internalType": "string",
          "name": "",
          "type": "string"
        },
        {
          "internalType": "address",
          "name": "",
          "type": "address"
        },
        {
          "internalType": "uint32",
          "name": "",
          "type": "uint32"
        },
        {
          "internalType": "uint32",
          "name": "",
          "type": "uint32"
        },
        {
          "internalType": "bool",
          "name": "",
          "type": "bool"
        },
        {
          "internalType": "string",
          "name": "",
          "type": "string"
        }
      ],
      "stateMutability": "view",
      "type": "function",
      "constant": true
    },
    {
      "inputs": [
        {
          "internalType": "address",
          "name": "_bankAddress",
          "type": "address"
        }
      ],
      "name": "reportBank",
      "outputs": [
        {
          "internalType": "bool",
          "name": "",
          "type": "bool"
        }
      ],
      "stateMutability": "nonpayable",
      "type": "function"
    },
    {
      "inputs": [
        {
          "internalType": "address",
          "name": "_bankAddress",
          "type": "address"
        }
      ],
      "name": "getBankComplaints",
      "outputs": [
        {
          "internalType": "uint32",
          "name": "",
          "type": "uint32"
        }
      ],
      "stateMutability": "view",
      "type": "function",
      "constant": true
    },
    {
      "inputs": [
        {
          "internalType": "string",
          "name": "_bankName",
          "type": "string"
        },
        {
          "internalType": "address",
          "name": "_bankAddress",
          "type": "address"
        },
        {
          "internalType": "string",
          "name": "_bankRegistration",
          "type": "string"
        }
      ],
      "name": "addBank",
      "outputs": [
        {
          "internalType": "bool",
          "name": "",
          "type": "bool"
        }
      ],
      "stateMutability": "nonpayable",
      "type": "function"
    },
    {
      "inputs": [
        {
          "internalType": "address",
          "name": "_bankAddress",
          "type": "address"
        },
        {
          "internalType": "bool",
          "name": "_isAllowedToVote",
          "type": "bool"
        }
      ],
      "name": "modifyIfBankAllowedToVote",
      "outputs": [
        {
          "internalType": "bool",
          "name": "",
          "type": "bool"
        }
      ],
      "stateMutability": "nonpayable",
      "type": "function"
    }
  ],
  "bytecode": "0x608060405234801561001057600080fd5b50336000806101000a81548173ffffffffffffffffffffffffffffffffffffffff021916908373ffffffffffffffffffffffffffffffffffffffff160217905550613dd9806100606000396000f3fe608060405234801561001057600080fd5b50600436106100ea5760003560e01c8063a5a498001161008c578063bd561e1411610066578063bd561e14146102d8578063cae55c3f14610308578063ccfa8e7114610338578063f72860ca14610368576100ea565b8063a5a4980014610248578063b7d1219014610278578063ba03ef3a146102a8576100ea565b80633190abc0116100c85780633190abc014610188578063569e64bc146101b85780635ec2a7f2146101e857806382e0438a14610218576100ea565b8063107925bb146100ef57806315101e02146101235780631e8eba6e14610158575b600080fd5b61010960048036038101906101049190612c64565b610398565b60405161011a959493929190612d95565b60405180910390f35b61013d60048036038101906101389190612e22565b610662565b60405161014f96959493929190612e6a565b60405180910390f35b610172600480360381019061016d9190612c64565b610a46565b60405161017f9190612ed9565b60405180910390f35b6101a2600480360381019061019d9190612ef4565b610d14565b6040516101af9190612ed9565b60405180910390f35b6101d260048036038101906101cd9190612c64565b610ed6565b6040516101df9190612ed9565b60405180910390f35b61020260048036038101906101fd9190612e22565b61118f565b60405161020f9190612f6c565b60405180910390f35b610232600480360381019061022d9190612c64565b6112bb565b60405161023f9190612ed9565b60405180910390f35b610262600480360381019061025d9190612e22565b611574565b60405161026f9190612ed9565b60405180910390f35b610292600480360381019061028d9190612fb3565b611851565b60405161029f9190612ed9565b60405180910390f35b6102c260048036038101906102bd9190612c64565b611a51565b6040516102cf9190612ed9565b60405180910390f35b6102f260048036038101906102ed9190612ef4565b611d0a565b6040516102ff9190612ed9565b60405180910390f35b610322600480360381019061031d9190612c64565b612040565b60405161032f9190612ed9565b60405180910390f35b610352600480360381019061034d9190612ff3565b6122f9565b60405161035f9190612ed9565b60405180910390f35b610382600480360381019061037d9190612ef4565b6128a2565b60405161038f9190612ed9565b60405180910390f35b60608060008060003373ffffffffffffffffffffffffffffffffffffffff166001876040516103c791906130ba565b908152602001604051809103902060020160099054906101000a900473ffffffffffffffffffffffffffffffffffffffff1673ffffffffffffffffffffffffffffffffffffffff161461044f576040517f08c379a000000000000000000000000000000000000000000000000000000000815260040161044690613169565b60405180910390fd5b60018660405161045f91906130ba565b908152602001604051809103902060000160018760405161048091906130ba565b90815260200160405180910390206001016001886040516104a191906130ba565b908152602001604051809103902060020160099054906101000a900473ffffffffffffffffffffffffffffffffffffffff166001896040516104e391906130ba565b908152602001604051809103902060020160019054906101000a900463ffffffff1660018a60405161051591906130ba565b908152602001604051809103902060020160059054906101000a900463ffffffff16848054610543906131b8565b80601f016020809104026020016040519081016040528092919081815260200182805461056f906131b8565b80156105bc5780601f10610591576101008083540402835291602001916105bc565b820191906000526020600020905b81548152906001019060200180831161059f57829003601f168201915b505050505094508380546105cf906131b8565b80601f01602080910402602001604051908101604052809291908181526020018280546105fb906131b8565b80156106485780601f1061061d57610100808354040283529160200191610648565b820191906000526020600020905b81548152906001019060200180831161062b57829003601f168201915b505050505093509450945094509450945091939590929450565b606060008060008060608673ffffffffffffffffffffffffffffffffffffffff16600260008973ffffffffffffffffffffffffffffffffffffffff1673ffffffffffffffffffffffffffffffffffffffff16815260200190815260200160002060010160009054906101000a900473ffffffffffffffffffffffffffffffffffffffff1673ffffffffffffffffffffffffffffffffffffffff161461073c576040517f08c379a00000000000000000000000000000000000000000000000000000000081526004016107339061325c565b60405180910390fd5b600260008873ffffffffffffffffffffffffffffffffffffffff1673ffffffffffffffffffffffffffffffffffffffff168152602001908152602001600020600001600260008973ffffffffffffffffffffffffffffffffffffffff1673ffffffffffffffffffffffffffffffffffffffff16815260200190815260200160002060010160009054906101000a900473ffffffffffffffffffffffffffffffffffffffff16600260008a73ffffffffffffffffffffffffffffffffffffffff1673ffffffffffffffffffffffffffffffffffffffff16815260200190815260200160002060010160149054906101000a900463ffffffff16600260008b73ffffffffffffffffffffffffffffffffffffffff1673ffffffffffffffffffffffffffffffffffffffff16815260200190815260200160002060010160189054906101000a900463ffffffff16600260008c73ffffffffffffffffffffffffffffffffffffffff1673ffffffffffffffffffffffffffffffffffffffff168152602001908152602001600020600101601c9054906101000a900460ff16600260008d73ffffffffffffffffffffffffffffffffffffffff1673ffffffffffffffffffffffffffffffffffffffff168152602001908152602001600020600201858054610925906131b8565b80601f0160208091040260200160405190810160405280929190818152602001828054610951906131b8565b801561099e5780601f106109735761010080835404028352916020019161099e565b820191906000526020600020905b81548152906001019060200180831161098157829003601f168201915b505050505095508080546109b1906131b8565b80601f01602080910402602001604051908101604052809291908181526020018280546109dd906131b8565b8015610a2a5780601f106109ff57610100808354040283529160200191610a2a565b820191906000526020600020905b815481529060010190602001808311610a0d57829003601f168201915b5050505050905095509550955095509550955091939550919395565b60003373ffffffffffffffffffffffffffffffffffffffff16600383604051610a6f91906130ba565b908152602001604051809103902060020160009054906101000a900473ffffffffffffffffffffffffffffffffffffffff1673ffffffffffffffffffffffffffffffffffffffff1614610af7576040517f08c379a0000000000000000000000000000000000000000000000000000000008152600401610aee90613314565b60405180910390fd5b610baa600183604051610b0a91906130ba565b90815260200160405180910390206000018054610b26906131b8565b80601f0160208091040260200160405190810160405280929190818152602001828054610b52906131b8565b8015610b9f5780601f10610b7457610100808354040283529160200191610b9f565b820191906000526020600020905b815481529060010190602001808311610b8257829003601f168201915b5050505050836129ce565b610be9576040517f08c379a0000000000000000000000000000000000000000000000000000000008152600401610be0906133cc565b60405180910390fd5b600382604051610bf991906130ba565b908152602001604051809103902060008082016000610c189190612a27565b600182016000610c289190612a27565b6002820160006101000a81549073ffffffffffffffffffffffffffffffffffffffff02191690555050600260003373ffffffffffffffffffffffffffffffffffffffff1673ffffffffffffffffffffffffffffffffffffffff168152602001908152602001600020600101601881819054906101000a900463ffffffff1680929190610cb39061341b565b91906101000a81548163ffffffff021916908363ffffffff160217905550507f496d5d5434647bc8da1b957c8a39657a0fe5021a5ee01bfb6566ee87c56639dd8233604051610d03929190613445565b60405180910390a160019050919050565b60008073ffffffffffffffffffffffffffffffffffffffff16600184604051610d3d91906130ba565b908152602001604051809103902060020160099054906101000a900473ffffffffffffffffffffffffffffffffffffffff1673ffffffffffffffffffffffffffffffffffffffff1614610dc5576040517f08c379a0000000000000000000000000000000000000000000000000000000008152600401610dbc906134e7565b60405180910390fd5b82600184604051610dd691906130ba565b90815260200160405180910390206000019080519060200190610dfa929190612a67565b5081600184604051610e0c91906130ba565b90815260200160405180910390206001019080519060200190610e30929190612a67565b5033600184604051610e4291906130ba565b908152602001604051809103902060020160096101000a81548173ffffffffffffffffffffffffffffffffffffffff021916908373ffffffffffffffffffffffffffffffffffffffff1602179055507f720f91ef7267a7db0cf726ddb013dd753364a2e1e65319cd32e1d96c3aa38dbd838333604051610ec493929190613507565b60405180910390a16001905092915050565b6000610f8b82600184604051610eec91906130ba565b90815260200160405180910390206000018054610f08906131b8565b80601f0160208091040260200160405190810160405280929190818152602001828054610f34906131b8565b8015610f815780601f10610f5657610100808354040283529160200191610f81565b820191906000526020600020905b815481529060010190602001808311610f6457829003601f168201915b50505050506129ce565b610fca576040517f08c379a0000000000000000000000000000000000000000000000000000000008152600401610fc1906135be565b60405180910390fd5b6000600483604051610fdc91906130ba565b908152602001604051809103902060003373ffffffffffffffffffffffffffffffffffffffff1673ffffffffffffffffffffffffffffffffffffffff16815260200190815260200160002060009054906101000a900460ff1660ff1614611078576040517f08c379a000000000000000000000000000000000000000000000000000000000815260040161106f90613650565b60405180910390fd5b60018260405161108891906130ba565b9081526020016040518091039020600201600181819054906101000a900463ffffffff16809291906110b990613670565b91906101000a81548163ffffffff021916908363ffffffff1602179055505060016004836040516110ea91906130ba565b908152602001604051809103902060003373ffffffffffffffffffffffffffffffffffffffff1673ffffffffffffffffffffffffffffffffffffffff16815260200190815260200160002060006101000a81548160ff021916908360ff1602179055507f8204fd0d7ac1bb685e9147e1259497a085786f9ec68e8b44514f432d7d7fdfe1823360405161117e929190613445565b60405180910390a160019050919050565b60008173ffffffffffffffffffffffffffffffffffffffff16600260008473ffffffffffffffffffffffffffffffffffffffff1673ffffffffffffffffffffffffffffffffffffffff16815260200190815260200160002060010160009054906101000a900473ffffffffffffffffffffffffffffffffffffffff1673ffffffffffffffffffffffffffffffffffffffff1614611261576040517f08c379a00000000000000000000000000000000000000000000000000000000081526004016112589061325c565b60405180910390fd5b600260008373ffffffffffffffffffffffffffffffffffffffff1673ffffffffffffffffffffffffffffffffffffffff16815260200190815260200160002060010160149054906101000a900463ffffffff169050919050565b6000611370826001846040516112d191906130ba565b908152602001604051809103902060000180546112ed906131b8565b80601f0160208091040260200160405190810160405280929190818152602001828054611319906131b8565b80156113665780601f1061133b57610100808354040283529160200191611366565b820191906000526020600020905b81548152906001019060200180831161134957829003601f168201915b50505050506129ce565b6113af576040517f08c379a00000000000000000000000000000000000000000000000000000000081526004016113a6906135be565b60405180910390fd5b60006005836040516113c191906130ba565b908152602001604051809103902060003373ffffffffffffffffffffffffffffffffffffffff1673ffffffffffffffffffffffffffffffffffffffff16815260200190815260200160002060009054906101000a900460ff1660ff161461145d576040517f08c379a00000000000000000000000000000000000000000000000000000000081526004016114549061370f565b60405180910390fd5b60018260405161146d91906130ba565b9081526020016040518091039020600201600581819054906101000a900463ffffffff168092919061149e90613670565b91906101000a81548163ffffffff021916908363ffffffff1602179055505060016005836040516114cf91906130ba565b908152602001604051809103902060003373ffffffffffffffffffffffffffffffffffffffff1673ffffffffffffffffffffffffffffffffffffffff16815260200190815260200160002060006101000a81548160ff021916908360ff1602179055507ff76612a4db926c845e0a50031eb928cbbf707428872d88840995c7b8da5f41458233604051611563929190613445565b60405180910390a160019050919050565b60008173ffffffffffffffffffffffffffffffffffffffff16600260008473ffffffffffffffffffffffffffffffffffffffff1673ffffffffffffffffffffffffffffffffffffffff16815260200190815260200160002060010160009054906101000a900473ffffffffffffffffffffffffffffffffffffffff1673ffffffffffffffffffffffffffffffffffffffff1614611646576040517f08c379a000000000000000000000000000000000000000000000000000000000815260040161163d9061325c565b60405180910390fd5b600260008373ffffffffffffffffffffffffffffffffffffffff1673ffffffffffffffffffffffffffffffffffffffff168152602001908152602001600020600101601481819054906101000a900463ffffffff16809291906116a890613670565b91906101000a81548163ffffffff021916908363ffffffff1602179055505060006064600260008573ffffffffffffffffffffffffffffffffffffffff1673ffffffffffffffffffffffffffffffffffffffff16815260200190815260200160002060010160149054906101000a900463ffffffff16611728919061372f565b905060008060149054906101000a900463ffffffff16602161174a919061372f565b90508063ffffffff168263ffffffff1611156117bc576000600260008673ffffffffffffffffffffffffffffffffffffffff1673ffffffffffffffffffffffffffffffffffffffff168152602001908152602001600020600101601c6101000a81548160ff0219169083151502179055505b7f65f47f0fa74a4b8d006ccd51dc625d47139721a7906092a96e0333d7bd684cd18433600260008873ffffffffffffffffffffffffffffffffffffffff1673ffffffffffffffffffffffffffffffffffffffff168152602001908152602001600020600101601c9054906101000a900460ff1660405161183e9392919061376d565b60405180910390a1600192505050919050565b60008060009054906101000a900473ffffffffffffffffffffffffffffffffffffffff1673ffffffffffffffffffffffffffffffffffffffff163373ffffffffffffffffffffffffffffffffffffffff16146118e2576040517f08c379a00000000000000000000000000000000000000000000000000000000081526004016118d990613816565b60405180910390fd5b8273ffffffffffffffffffffffffffffffffffffffff16600260008573ffffffffffffffffffffffffffffffffffffffff1673ffffffffffffffffffffffffffffffffffffffff16815260200190815260200160002060010160009054906101000a900473ffffffffffffffffffffffffffffffffffffffff1673ffffffffffffffffffffffffffffffffffffffff16146119b2576040517f08c379a00000000000000000000000000000000000000000000000000000000081526004016119a99061325c565b60405180910390fd5b81600260008573ffffffffffffffffffffffffffffffffffffffff1673ffffffffffffffffffffffffffffffffffffffff168152602001908152602001600020600101601c6101000a81548160ff0219169083151502179055507ffe5fe3b560d7701d89231a295ad0664481b379860b757ccfe7fe9e45817290c5838333604051611a3f93929190613836565b60405180910390a16001905092915050565b6000611b0682600184604051611a6791906130ba565b90815260200160405180910390206000018054611a83906131b8565b80601f0160208091040260200160405190810160405280929190818152602001828054611aaf906131b8565b8015611afc5780601f10611ad157610100808354040283529160200191611afc565b820191906000526020600020905b815481529060010190602001808311611adf57829003601f168201915b50505050506129ce565b611b45576040517f08c379a0000000000000000000000000000000000000000000000000000000008152600401611b3c906135be565b60405180910390fd5b6001600583604051611b5791906130ba565b908152602001604051809103902060003373ffffffffffffffffffffffffffffffffffffffff1673ffffffffffffffffffffffffffffffffffffffff16815260200190815260200160002060009054906101000a900460ff1660ff1614611bf3576040517f08c379a0000000000000000000000000000000000000000000000000000000008152600401611bea906138df565b60405180910390fd5b600182604051611c0391906130ba565b9081526020016040518091039020600201600581819054906101000a900463ffffffff1680929190611c349061341b565b91906101000a81548163ffffffff021916908363ffffffff160217905550506000600583604051611c6591906130ba565b908152602001604051809103902060003373ffffffffffffffffffffffffffffffffffffffff1673ffffffffffffffffffffffffffffffffffffffff16815260200190815260200160002060006101000a81548160ff021916908360ff1602179055507f884e374f9a1d1ef39e4f98a04c2a047354902ad3143ff7a278d9937b56e114d08233604051611cf9929190613445565b60405180910390a160019050919050565b60003373ffffffffffffffffffffffffffffffffffffffff16600384604051611d3391906130ba565b908152602001604051809103902060020160009054906101000a900473ffffffffffffffffffffffffffffffffffffffff1673ffffffffffffffffffffffffffffffffffffffff161415611dbc576040517f08c379a0000000000000000000000000000000000000000000000000000000008152600401611db390613971565b60405180910390fd5b611e6f600184604051611dcf91906130ba565b90815260200160405180910390206001018054611deb906131b8565b80601f0160208091040260200160405190810160405280929190818152602001828054611e17906131b8565b8015611e645780601f10611e3957610100808354040283529160200191611e64565b820191906000526020600020905b815481529060010190602001808311611e4757829003601f168201915b5050505050836129ce565b611eae576040517f08c379a0000000000000000000000000000000000000000000000000000000008152600401611ea590613a03565b60405180910390fd5b82600384604051611ebf91906130ba565b90815260200160405180910390206000019080519060200190611ee3929190612a67565b5081600384604051611ef591906130ba565b90815260200160405180910390206001019080519060200190611f19929190612a67565b5033600384604051611f2b91906130ba565b908152602001604051809103902060020160006101000a81548173ffffffffffffffffffffffffffffffffffffffff021916908373ffffffffffffffffffffffffffffffffffffffff160217905550600260003373ffffffffffffffffffffffffffffffffffffffff1673ffffffffffffffffffffffffffffffffffffffff168152602001908152602001600020600101601881819054906101000a900463ffffffff1680929190611fdc90613670565b91906101000a81548163ffffffff021916908363ffffffff160217905550507f7fbec8867635bbaab7103c5d6cc8b0ef0767df0159177b6a07b8dbd5afba08cf83833360405161202e93929190613507565b60405180910390a16001905092915050565b60006120f58260018460405161205691906130ba565b90815260200160405180910390206000018054612072906131b8565b80601f016020809104026020016040519081016040528092919081815260200182805461209e906131b8565b80156120eb5780601f106120c0576101008083540402835291602001916120eb565b820191906000526020600020905b8154815290600101906020018083116120ce57829003601f168201915b50505050506129ce565b612134576040517f08c379a000000000000000000000000000000000000000000000000000000000815260040161212b906135be565b60405180910390fd5b600160048360405161214691906130ba565b908152602001604051809103902060003373ffffffffffffffffffffffffffffffffffffffff1673ffffffffffffffffffffffffffffffffffffffff16815260200190815260200160002060009054906101000a900460ff1660ff16146121e2576040517f08c379a00000000000000000000000000000000000000000000000000000000081526004016121d990613a95565b60405180910390fd5b6001826040516121f291906130ba565b9081526020016040518091039020600201600181819054906101000a900463ffffffff16809291906122239061341b565b91906101000a81548163ffffffff021916908363ffffffff16021790555050600060048360405161225491906130ba565b908152602001604051809103902060003373ffffffffffffffffffffffffffffffffffffffff1673ffffffffffffffffffffffffffffffffffffffff16815260200190815260200160002060006101000a81548160ff021916908360ff1602179055507fb16a6a90c9dc1e72f7d5f1fd2bb19bfe10570dd0f64cc907ba4561c1b252e98782336040516122e8929190613445565b60405180910390a160019050919050565b60008060009054906101000a900473ffffffffffffffffffffffffffffffffffffffff1673ffffffffffffffffffffffffffffffffffffffff163373ffffffffffffffffffffffffffffffffffffffff161461238a576040517f08c379a000000000000000000000000000000000000000000000000000000000815260040161238190613816565b60405180910390fd5b60001515600760008573ffffffffffffffffffffffffffffffffffffffff1673ffffffffffffffffffffffffffffffffffffffff16815260200190815260200160002060009054906101000a900460ff1615151461241d576040517f08c379a000000000000000000000000000000000000000000000000000000000815260040161241490613b01565b60405180910390fd5b6000151560068360405161243191906130ba565b908152602001604051809103902060009054906101000a900460ff1615151461248f576040517f08c379a000000000000000000000000000000000000000000000000000000000815260040161248690613bb9565b60405180910390fd5b600015156008856040516124a391906130ba565b908152602001604051809103902060009054906101000a900460ff16151514612501576040517f08c379a00000000000000000000000000000000000000000000000000000000081526004016124f890613c4b565b60405180910390fd5b83600260008573ffffffffffffffffffffffffffffffffffffffff1673ffffffffffffffffffffffffffffffffffffffff1681526020019081526020016000206000019080519060200190612557929190612a67565b5082600260008573ffffffffffffffffffffffffffffffffffffffff1673ffffffffffffffffffffffffffffffffffffffff16815260200190815260200160002060010160006101000a81548173ffffffffffffffffffffffffffffffffffffffff021916908373ffffffffffffffffffffffffffffffffffffffff1602179055506000600260008573ffffffffffffffffffffffffffffffffffffffff1673ffffffffffffffffffffffffffffffffffffffff16815260200190815260200160002060010160146101000a81548163ffffffff021916908363ffffffff1602179055506000600260008573ffffffffffffffffffffffffffffffffffffffff1673ffffffffffffffffffffffffffffffffffffffff16815260200190815260200160002060010160186101000a81548163ffffffff021916908363ffffffff1602179055506001600260008573ffffffffffffffffffffffffffffffffffffffff1673ffffffffffffffffffffffffffffffffffffffff168152602001908152602001600020600101601c6101000a81548160ff02191690831515021790555081600260008573ffffffffffffffffffffffffffffffffffffffff1673ffffffffffffffffffffffffffffffffffffffff168152602001908152602001600020600201908051906020019061274e929190612a67565b50600160068360405161276191906130ba565b908152602001604051809103902060006101000a81548160ff0219169083151502179055506001600760008573ffffffffffffffffffffffffffffffffffffffff1673ffffffffffffffffffffffffffffffffffffffff16815260200190815260200160002060006101000a81548160ff02191690831515021790555060016008856040516127f091906130ba565b908152602001604051809103902060006101000a81548160ff0219169083151502179055506000601481819054906101000a900463ffffffff168092919061283790613670565b91906101000a81548163ffffffff021916908363ffffffff160217905550507fdc6397ebcff1d3cd4d51b023f775b4c6c94fd13339bc330fd0275673b618974b8484846000600160405161288f959493929190613cb0565b60405180910390a1600190509392505050565b60003373ffffffffffffffffffffffffffffffffffffffff166001846040516128cb91906130ba565b908152602001604051809103902060020160099054906101000a900473ffffffffffffffffffffffffffffffffffffffff1673ffffffffffffffffffffffffffffffffffffffff1614612953576040517f08c379a000000000000000000000000000000000000000000000000000000000815260040161294a90613d83565b60405180910390fd5b8160018460405161296491906130ba565b90815260200160405180910390206001019080519060200190612988929190612a67565b507f31d240a9505c05976d93451a6c6c97988c5719ef448ebed149c0e8e534a481298383336040516129bc93929190613507565b60405180910390a16001905092915050565b6000816040516020016129e191906130ba565b6040516020818303038152906040528051906020012083604051602001612a0891906130ba565b6040516020818303038152906040528051906020012014905092915050565b508054612a33906131b8565b6000825580601f10612a455750612a64565b601f016020900490600052602060002090810190612a639190612aed565b5b50565b828054612a73906131b8565b90600052602060002090601f016020900481019282612a955760008555612adc565b82601f10612aae57805160ff1916838001178555612adc565b82800160010185558215612adc579182015b82811115612adb578251825591602001919060010190612ac0565b5b509050612ae99190612aed565b5090565b5b80821115612b06576000816000905550600101612aee565b5090565b6000604051905090565b600080fd5b600080fd5b600080fd5b600080fd5b6000601f19601f8301169050919050565b7f4e487b7100000000000000000000000000000000000000000000000000000000600052604160045260246000fd5b612b7182612b28565b810181811067ffffffffffffffff82111715612b9057612b8f612b39565b5b80604052505050565b6000612ba3612b0a565b9050612baf8282612b68565b919050565b600067ffffffffffffffff821115612bcf57612bce612b39565b5b612bd882612b28565b9050602081019050919050565b82818337600083830152505050565b6000612c07612c0284612bb4565b612b99565b905082815260208101848484011115612c2357612c22612b23565b5b612c2e848285612be5565b509392505050565b600082601f830112612c4b57612c4a612b1e565b5b8135612c5b848260208601612bf4565b91505092915050565b600060208284031215612c7a57612c79612b14565b5b600082013567ffffffffffffffff811115612c9857612c97612b19565b5b612ca484828501612c36565b91505092915050565b600081519050919050565b600082825260208201905092915050565b60005b83811015612ce7578082015181840152602081019050612ccc565b83811115612cf6576000848401525b50505050565b6000612d0782612cad565b612d118185612cb8565b9350612d21818560208601612cc9565b612d2a81612b28565b840191505092915050565b600073ffffffffffffffffffffffffffffffffffffffff82169050919050565b6000612d6082612d35565b9050919050565b612d7081612d55565b82525050565b600063ffffffff82169050919050565b612d8f81612d76565b82525050565b600060a0820190508181036000830152612daf8188612cfc565b90508181036020830152612dc38187612cfc565b9050612dd26040830186612d67565b612ddf6060830185612d86565b612dec6080830184612d86565b9695505050505050565b612dff81612d55565b8114612e0a57600080fd5b50565b600081359050612e1c81612df6565b92915050565b600060208284031215612e3857612e37612b14565b5b6000612e4684828501612e0d565b91505092915050565b60008115159050919050565b612e6481612e4f565b82525050565b600060c0820190508181036000830152612e848189612cfc565b9050612e936020830188612d67565b612ea06040830187612d86565b612ead6060830186612d86565b612eba6080830185612e5b565b81810360a0830152612ecc8184612cfc565b9050979650505050505050565b6000602082019050612eee6000830184612e5b565b92915050565b60008060408385031215612f0b57612f0a612b14565b5b600083013567ffffffffffffffff811115612f2957612f28612b19565b5b612f3585828601612c36565b925050602083013567ffffffffffffffff811115612f5657612f55612b19565b5b612f6285828601612c36565b9150509250929050565b6000602082019050612f816000830184612d86565b92915050565b612f9081612e4f565b8114612f9b57600080fd5b50565b600081359050612fad81612f87565b92915050565b60008060408385031215612fca57612fc9612b14565b5b6000612fd885828601612e0d565b9250506020612fe985828601612f9e565b9150509250929050565b60008060006060848603121561300c5761300b612b14565b5b600084013567ffffffffffffffff81111561302a57613029612b19565b5b61303686828701612c36565b935050602061304786828701612e0d565b925050604084013567ffffffffffffffff81111561306857613067612b19565b5b61307486828701612c36565b9150509250925092565b600081905092915050565b600061309482612cad565b61309e818561307e565b93506130ae818560208601612cc9565b80840191505092915050565b60006130c68284613089565b915081905092915050565b7f5573657220646f65736e2774206578697374206f6e207468697320646174616260008201527f6173652e2055736520616464437573746f6d657220746f20637265617465207560208201527f7365720000000000000000000000000000000000000000000000000000000000604082015250565b6000613153604383612cb8565b915061315e826130d1565b606082019050919050565b6000602082019050818103600083015261318281613146565b9050919050565b7f4e487b7100000000000000000000000000000000000000000000000000000000600052602260045260246000fd5b600060028204905060018216806131d057607f821691505b602082108114156131e4576131e3613189565b5b50919050565b7f42616e6b206164647265737320697320696e636f72726563742e204e6f20737560008201527f6368207265636f72642065786973747300000000000000000000000000000000602082015250565b6000613246603083612cb8565b9150613251826131ea565b604082019050919050565b6000602082019050818103600083015261327581613239565b9050919050565b7f4e6f204b594320726571756573742065786973747320666f722074686973206360008201527f7573746f6d65722e20506c6561736520757365206164644b594352657175657360208201527f742066756e6374696f6e00000000000000000000000000000000000000000000604082015250565b60006132fe604a83612cb8565b91506133098261327c565b606082019050919050565b6000602082019050818103600083015261332d816132f1565b9050919050565b7f4e6f20726571756573742065786973747320666f72207468697320637573746f60008201527f6d65722e20506c6561736520757365206164644b59435265717565737420667560208201527f6e6374696f6e0000000000000000000000000000000000000000000000000000604082015250565b60006133b6604683612cb8565b91506133c182613334565b606082019050919050565b600060208201905081810360008301526133e5816133a9565b9050919050565b7f4e487b7100000000000000000000000000000000000000000000000000000000600052601160045260246000fd5b600061342682612d76565b9150600082141561343a576134396133ec565b5b600182039050919050565b6000604082019050818103600083015261345f8185612cfc565b905061346e6020830184612d67565b9392505050565b7f55736572206578697374732e20506c656173652063616c6c206d6f646966794360008201527f7573746f6d657220746f206d616b6520616e79206368616e6765730000000000602082015250565b60006134d1603b83612cb8565b91506134dc82613475565b604082019050919050565b60006020820190508181036000830152613500816134c4565b9050919050565b600060608201905081810360008301526135218186612cfc565b905081810360208301526135358185612cfc565b90506135446040830184612d67565b949350505050565b7f437573746f6d657220646f65736e27742065786973742e20557365206164644360008201527f7573746f6d657220746f20637265617465206e65772075736572000000000000602082015250565b60006135a8603a83612cb8565b91506135b38261354c565b604082019050919050565b600060208201905081810360008301526135d78161359b565b9050919050565b7f437573746f6d65722068617320616c7265616479206265656e207570766f746560008201527f6420627920796f752e0000000000000000000000000000000000000000000000602082015250565b600061363a602983612cb8565b9150613645826135de565b604082019050919050565b600060208201905081810360008301526136698161362d565b9050919050565b600061367b82612d76565b915063ffffffff821415613692576136916133ec565b5b600182019050919050565b7f437573746f6d65722068617320616c7265616479206265656e20646f776e207660008201527f6f74656420627920796f752e0000000000000000000000000000000000000000602082015250565b60006136f9602c83612cb8565b91506137048261369d565b604082019050919050565b60006020820190508181036000830152613728816136ec565b9050919050565b600061373a82612d76565b915061374583612d76565b92508163ffffffff0483118215151615613762576137616133ec565b5b828202905092915050565b60006060820190506137826000830186612d67565b61378f6020830185612d67565b61379c6040830184612e5b565b949350505050565b7f596f75206d75737420686176652061646d696e2070726976696c65646765732060008201527f746f2072756e2074686973000000000000000000000000000000000000000000602082015250565b6000613800602b83612cb8565b915061380b826137a4565b604082019050919050565b6000602082019050818103600083015261382f816137f3565b9050919050565b600060608201905061384b6000830186612d67565b6138586020830185612e5b565b6138656040830184612d67565b949350505050565b7f437573746f6d6572206861736e2774206265656e20646f776e20766f7465642060008201527f627920796f752e2055736520646f776e566f7465437573746f6d65722e000000602082015250565b60006138c9603d83612cb8565b91506138d48261386d565b604082019050919050565b600060208201905081810360008301526138f8816138bc565b9050919050565b7f41204b5943207265717565737420616c72656164792065786973747320666f7260008201527f207468697320757365722066726f6d20746869732062616e6b00000000000000602082015250565b600061395b603983612cb8565b9150613966826138ff565b604082019050919050565b6000602082019050818103600083015261398a8161394e565b9050919050565b7f506c6561736520636865636b20686173682e2054686973207265636f7264206460008201527f6f65736e27742065786973740000000000000000000000000000000000000000602082015250565b60006139ed602c83612cb8565b91506139f882613991565b604082019050919050565b60006020820190508181036000830152613a1c816139e0565b9050919050565b7f437573746f6d6572206861736e2774206265656e207570766f7465642062792060008201527f796f752e20757365207570566f7465437573746f6d6572000000000000000000602082015250565b6000613a7f603783612cb8565b9150613a8a82613a23565b604082019050919050565b60006020820190508181036000830152613aae81613a72565b9050919050565b7f546869732062616e6b2068617320616c7265616479206265656e206164646564600082015250565b6000613aeb602083612cb8565b9150613af682613ab5565b602082019050919050565b60006020820190508181036000830152613b1a81613ade565b9050919050565b7f5468697320726567697374726174696f6e206e756d626572206861732062656560008201527f6e2074616b656e2e20506c6561736520656e74657220616e6f74686572206f6e60208201527f652e000000000000000000000000000000000000000000000000000000000000604082015250565b6000613ba3604283612cb8565b9150613bae82613b21565b606082019050919050565b60006020820190508181036000830152613bd281613b96565b9050919050565b7f412062616e6b206f662074686973206e616d6520616c7265616479206578697360008201527f747320696e20746865206e6574776f726b000000000000000000000000000000602082015250565b6000613c35603183612cb8565b9150613c4082613bd9565b604082019050919050565b60006020820190508181036000830152613c6481613c28565b9050919050565b6000819050919050565b6000819050919050565b6000613c9a613c95613c9084613c6b565b613c75565b612d76565b9050919050565b613caa81613c7f565b82525050565b600060a0820190508181036000830152613cca8188612cfc565b9050613cd96020830187612d67565b8181036040830152613ceb8186612cfc565b9050613cfa6060830185613ca1565b613d076080830184612e5b565b9695505050505050565b7f5573657220646f65736e27742065786973742e20506c656173652063616c6c2060008201527f616464437573746f6d657220746f20637265617465206e657720757365720000602082015250565b6000613d6d603e83612cb8565b9150613d7882613d11565b604082019050919050565b60006020820190508181036000830152613d9c81613d60565b905091905056fea26469706673582212205d835dc9792398722e93ecc4ca79094f3508a8db9f1f192470d55b2c6d0f83e864736f6c63430008090033",
  "immutableReferences": {},
  "source": "// SPDX-License-Identifier: MIT\n\npragma solidity ^0.8.9;\n\ncontract KYC_Contract {\n    constructor() {\n        admin = msg.sender;\n    }\n\n    address admin;\n\n    modifier onlyAdmin() {\n        require(\n            msg.sender == admin,\n            \"You must have admin priviledges to run this\"\n        );\n        _;\n    }\n\n    struct Customer {\n        string username;\n        // hash that points to customer documents in secure storage\n        string customerData;\n        // status of KYC request. if conditions are met, set to true. else false\n        bool kycRequest;\n        // number of upvotes from other banks to customer data\n        uint32 upVotes;\n        // number of downvotes from other banks to customer data\n        uint32 downVotes;\n        // unique address of the validating bank\n        address validatorBankAddress;\n    }\n\n    struct Bank {\n        string name;\n        // unique ethereum address of the bank\n        address ethAddress;\n        // total complaints against the bank by other banks in the network\n        uint32 complaintsReported;\n        //number of KYC requests initiated by bank\n        uint32 KYC_count;\n        // status. if false, bank cannot up/down vote any more customers\n        bool isAllowedToVote;\n        // registration number of the bank\n        string regNumber;\n    }\n\n    struct KYC_Request {\n        // map KYC request to customer data\n        string username;\n        // hash that points to customer documents in secure storage\n        string customerData;\n        // unique account address of the bank\n        address bankAddress;\n    }\n\n    // count of total banks in the network\n    uint32 totalBanks;\n\n    /* Mappings */\n\n    // customer name to view customer details\n    mapping(string => Customer) customers;\n\n    // unique bank address to view bank details\n    mapping(address => Bank) banks;\n\n    // customer name to view KYC requests\n    mapping(string => KYC_Request) KYC_requests;\n\n    // keep track of up votes for the customer by all the banks in the network\n    mapping(string => mapping(address => uint8)) up_votes;\n\n    // keep track of down votes for the customer by all the banks in the network\n    mapping(string => mapping(address => uint8)) down_votes;\n\n    // make sure all bank registration numbers are unique\n    mapping(string => bool) bank_registration_numbers;\n\n    // keep track of banks added to the network\n    mapping(address => bool) added_banks;\n\n    // keep track of bank names added to the system\n    mapping(string => bool) bank_names;\n\n    /* Events */\n\n    event AddKYCRequest(\n        string _customerName,\n        string _customerData,\n        address KYCRequestingBank\n    );\n    event RemoveKYCRequest(string _customerName, address KYCRemovingBank);\n\n    event AddCustomer(\n        string _customerName,\n        string _customerData,\n        address validatorBank\n    );\n    event ModifyCustomer(\n        string _customerName,\n        string _newCustomerData,\n        address bankAddress\n    );\n\n    event UpVoteCustomer(string _customerName, address bankAddress);\n    event RemoveUpVoteCustomer(string _customerName, address bankAddress);\n\n    event DownVoteCustomer(string _customerName, address bankAddress);\n    event RemoveDownVoteCustomer(string _customerName, address bankAddress);\n\n    event ReportBank(\n        address _bankAddress,\n        address reportingBank,\n        bool isAllowedToVote\n    );\n\n    event AddBank(\n        string _bankName,\n        address _bankAddress,\n        string _bankRegistration,\n        uint32 _complaintsReported,\n        bool _KYCPermission\n    );\n\n    event ModifyIfBankAllowedToVote(\n        address _bankAddress,\n        bool _isAllowedToVote,\n        address _revokingBank\n    );\n\n    /**\n     * Record a new KYC request on behalf of a customer\n     * Bank is the sender of this request\n     * @param _customerName The name of the customer for whom KYC is to be done\n     * @param _customerData The hash of the customer data being requested\n     * @return bool confirmation that KYC request was added\n     */\n    function addKYCRequest(\n        string memory _customerName,\n        string memory _customerData\n    ) public returns (bool) {\n        // require that the request the bank is making isn't a duplicate\n        require(\n            !(KYC_requests[_customerName].bankAddress == msg.sender),\n            \"A KYC request already exists for this user from this bank\"\n        );\n\n        require(\n            compareStringsbyBytes(\n                customers[_customerName].customerData,\n                _customerData\n            ),\n            \"Please check hash. This record doesn't exist\"\n        );\n\n        // update KYC requests mapping\n        KYC_requests[_customerName].username = _customerName;\n        KYC_requests[_customerName].customerData = _customerData;\n        KYC_requests[_customerName].bankAddress = msg.sender;\n\n        // add KYC requests made by this bank\n        banks[msg.sender].KYC_count++;\n\n        emit AddKYCRequest(_customerName, _customerData, msg.sender);\n        return true;\n    }\n\n    /**\n     * Remove KYC request\n     * @param _customerName The name of the customer for whom KYC is to be removed\n     * @return bool confirmation that KYC request was removed\n     */\n    function removeKYCRequest(string memory _customerName)\n        public\n        returns (bool)\n    {\n        // require that the username in fact exists as a KYC request\n        require(\n            (KYC_requests[_customerName].bankAddress == msg.sender),\n            \"No KYC request exists for this customer. Please use addKYCRequest function\"\n        );\n\n        require(\n            compareStringsbyBytes(\n                customers[_customerName].username,\n                _customerName\n            ),\n            \"No request exists for this customer. Please use addKYCRequest function\"\n        );\n\n        // delete the customer's KYC request\n        delete KYC_requests[_customerName];\n\n        // reduce KYC requests made by this bank\n        banks[msg.sender].KYC_count--;\n\n        emit RemoveKYCRequest(_customerName, msg.sender);\n        return true;\n    }\n\n    /**\n     * View customer information\n     * @param _customerName Name of the customer\n     * @return struct Customer\n     */\n    function viewCustomer(string memory _customerName)\n        public\n        view\n        returns (\n            string memory,\n            string memory,\n            address,\n            uint32,\n            uint32\n        )\n    {\n        require(\n            customers[_customerName].validatorBankAddress ==\n                address(msg.sender),\n            \"User doesn't exist on this database. Use addCustomer to create user\"\n        );\n\n        return (\n            customers[_customerName].username,\n            customers[_customerName].customerData,\n            customers[_customerName].validatorBankAddress,\n            customers[_customerName].upVotes,\n            customers[_customerName].downVotes\n        );\n    }\n\n    /**\n     * Add a new customer\n     * @param _customerName Name of the customer\n     * @param _customerData Hash of the customer docs\n     * @return bool confirmation that user was added\n     */\n    function addCustomer(\n        string memory _customerName,\n        string memory _customerData\n    ) public returns (bool) {\n        require(\n            customers[_customerName].validatorBankAddress == address(0x0),\n            \"User exists. Please call modifyCustomer to make any changes\"\n        );\n\n        customers[_customerName].username = _customerName;\n        customers[_customerName].customerData = _customerData;\n        customers[_customerName].validatorBankAddress = msg.sender;\n\n        emit AddCustomer(_customerName, _customerData, msg.sender);\n        return true;\n    }\n\n    /**\n     * Modify customer data\n     * @param _customerName Name of the customer\n     * @param _newCustomerData New hash of the updated docs\n     * @return bool confirmation that user was modified\n     */\n    function modifyCustomer(\n        string memory _customerName,\n        string memory _newCustomerData\n    ) public returns (bool) {\n        require(\n            customers[_customerName].validatorBankAddress ==\n                address(msg.sender),\n            \"User doesn't exist. Please call addCustomer to create new user\"\n        );\n\n        customers[_customerName].customerData = _newCustomerData;\n\n        emit ModifyCustomer(_customerName, _newCustomerData, msg.sender);\n        return true;\n    }\n\n    /**\n     * Function to add a new up vote for a customer\n     * @param _customerName Name of the customer to be upvoted\n     * @return bool confirmation that up votes were updated\n     */\n    function upVoteCustomer(string memory _customerName) public returns (bool) {\n        require(\n            compareStringsbyBytes(\n                _customerName,\n                customers[_customerName].username\n            ),\n            \"Customer doesn't exist. Use addCustomer to create new user\"\n        );\n\n        require(\n            up_votes[_customerName][msg.sender] == 0,\n            \"Customer has already been upvoted by you.\"\n        );\n\n        // update upVote count\n        customers[_customerName].upVotes++;\n        up_votes[_customerName][msg.sender] = 1;\n\n        emit UpVoteCustomer(_customerName, msg.sender);\n        return true;\n    }\n\n    /**\n     * Function to remove an up vote for a customer\n     * @param _customerName Name of the customer to be upvoted\n     * @return bool confirmation that up votes were updated\n     */\n    function removeUpVoteCustomer(string memory _customerName)\n        public\n        returns (bool)\n    {\n        require(\n            compareStringsbyBytes(\n                _customerName,\n                customers[_customerName].username\n            ),\n            \"Customer doesn't exist. Use addCustomer to create new user\"\n        );\n\n        require(\n            up_votes[_customerName][msg.sender] == 1,\n            \"Customer hasn't been upvoted by you. use upVoteCustomer\"\n        );\n\n        // update upVote count\n        customers[_customerName].upVotes--;\n        up_votes[_customerName][msg.sender] = 0;\n\n        emit RemoveUpVoteCustomer(_customerName, msg.sender);\n        return true;\n    }\n\n    /**\n     * Function to add a new down vote for a customer\n     * @param _customerName Name of the customer to be upvoted\n     * @return bool confirmation that down votes were updated\n     */\n    function downVoteCustomer(string memory _customerName)\n        public\n        returns (bool)\n    {\n        require(\n            compareStringsbyBytes(\n                _customerName,\n                customers[_customerName].username\n            ),\n            \"Customer doesn't exist. Use addCustomer to create new user\"\n        );\n\n        require(\n            down_votes[_customerName][msg.sender] == 0,\n            \"Customer has already been down voted by you.\"\n        );\n\n        // update downVote count\n        customers[_customerName].downVotes++;\n        down_votes[_customerName][msg.sender] = 1;\n\n        emit DownVoteCustomer(_customerName, msg.sender);\n        return true;\n    }\n\n    /**\n     * Function to remove a down vote for a customer\n     * @param _customerName Name of the customer to be upvoted\n     * @return bool confirmation that down votes were updated\n     */\n    function removeDownVoteCustomer(string memory _customerName)\n        public\n        returns (bool)\n    {\n        require(\n            compareStringsbyBytes(\n                _customerName,\n                customers[_customerName].username\n            ),\n            \"Customer doesn't exist. Use addCustomer to create new user\"\n        );\n\n        require(\n            down_votes[_customerName][msg.sender] == 1,\n            \"Customer hasn't been down voted by you. Use downVoteCustomer.\"\n        );\n\n        // update downVote count\n        customers[_customerName].downVotes--;\n        down_votes[_customerName][msg.sender] = 0;\n\n        emit RemoveDownVoteCustomer(_customerName, msg.sender);\n        return true;\n    }\n\n    /**\n     * View bank information\n     * @param _bankAddress Unique address of the bank\n     * @return struct Bank\n     */\n    function getBankDetails(address _bankAddress)\n        public\n        view\n        returns (\n            string memory,\n            address,\n            uint32,\n            uint32,\n            bool,\n            string memory\n        )\n    {\n        require(\n            banks[_bankAddress].ethAddress == _bankAddress,\n            \"Bank address is incorrect. No such record exists\"\n        );\n\n        return (\n            banks[_bankAddress].name,\n            banks[_bankAddress].ethAddress,\n            banks[_bankAddress].complaintsReported,\n            banks[_bankAddress].KYC_count,\n            banks[_bankAddress].isAllowedToVote,\n            banks[_bankAddress].regNumber\n        );\n    }\n\n    /**\n     * Report a complaint against a bank\n     * @param _bankAddress Unique address of the bank\n     * @return bool confirmation that report was submitted\n     */\n    function reportBank(address _bankAddress) public returns (bool) {\n        require(\n            banks[_bankAddress].ethAddress == _bankAddress,\n            \"Bank address is incorrect. No such record exists\"\n        );\n\n        // update count of the complaints reported\n        banks[_bankAddress].complaintsReported++;\n\n        // solidity doesn't support float or rational numbers\n        // hence we multiply 100 to both sides of the equation\n        uint32 condition1 = banks[_bankAddress].complaintsReported * 100;\n        uint32 condition2 = 33 * totalBanks;\n        if (condition1 > condition2) {\n            banks[_bankAddress].isAllowedToVote = false;\n        }\n\n        emit ReportBank(\n            _bankAddress,\n            msg.sender,\n            banks[_bankAddress].isAllowedToVote\n        );\n        return true;\n    }\n\n    /**\n     * View total number of bank complaints\n     * @param _bankAddress unique address of the bank\n     * @return uint32 total number of bank complaints\n     */\n    function getBankComplaints(address _bankAddress)\n        public\n        view\n        returns (uint32)\n    {\n        require(\n            banks[_bankAddress].ethAddress == _bankAddress,\n            \"Bank address is incorrect. No such record exists\"\n        );\n\n        return banks[_bankAddress].complaintsReported;\n    }\n\n    /**\n     * Add a new bank to the network\n     * @param _bankName name of the bank\n     * @param _bankAddress unique address of the bank\n     * @param _bankRegistration unique registration number of the bank\n     * @return bool New bank has been added to the network\n     */\n    function addBank(\n        string memory _bankName,\n        address _bankAddress,\n        string memory _bankRegistration\n    ) public onlyAdmin returns (bool) {\n        require(\n            added_banks[_bankAddress] == false,\n            \"This bank has already been added\"\n        );\n\n        // require a unique registration number\n        require(\n            bank_registration_numbers[_bankRegistration] == false,\n            \"This registration number has been taken. Please enter another one.\"\n        );\n\n        require(\n            bank_names[_bankName] == false,\n            \"A bank of this name already exists in the network\"\n        );\n\n        banks[_bankAddress].name = _bankName;\n        banks[_bankAddress].ethAddress = _bankAddress;\n        banks[_bankAddress].complaintsReported = 0;\n        banks[_bankAddress].KYC_count = 0;\n        banks[_bankAddress].isAllowedToVote = true;\n        banks[_bankAddress].regNumber = _bankRegistration;\n\n        // update registration number and name mappings\n        bank_registration_numbers[_bankRegistration] = true;\n        added_banks[_bankAddress] = true;\n        bank_names[_bankName] = true;\n\n        // update count of total banks in the network\n        totalBanks++;\n\n        emit AddBank(_bankName, _bankAddress, _bankRegistration, 0, true);\n        return true;\n    }\n\n    /**\n     * Modify if a bank is allowed to vote in the KYC process\n     * @param _bankAddress unique address of the bank\n     * @param _isAllowedToVote boolean value, true if bank is allowed, false if not\n     * @return bool true if bank's voting rights were revoked by admin\n     */\n\n    function modifyIfBankAllowedToVote(\n        address _bankAddress,\n        bool _isAllowedToVote\n    ) public onlyAdmin returns (bool) {\n        require(\n            banks[_bankAddress].ethAddress == _bankAddress,\n            \"Bank address is incorrect. No such record exists\"\n        );\n\n        banks[_bankAddress].isAllowedToVote = _isAllowedToVote;\n\n        emit ModifyIfBankAllowedToVote(\n            _bankAddress,\n            _isAllowedToVote,\n            msg.sender\n        );\n        return true;\n    }\n\n    // source: https://ethereum.stackexchange.com/questions/45813/compare-strings-in-solidity\n    function compareStringsbyBytes(string memory s1, string memory s2)\n        private\n        pure\n        returns (bool)\n    {\n        return\n            keccak256(abi.encodePacked(s1)) == keccak256(abi.encodePacked(s2));\n    }\n}\n",
  "sourcePath": "/home/dhruv/Desktop/projects/dApp/KYC/contracts/KYC_Contract.sol",
  "compiler": {
    "name": "solc",
    "version": "0.8.9+commit.e5eed63a.Emscripten.clang"
  },
  "schemaVersion": "3.4.3",
  "updatedAt": "2021-12-04T13:07:11.846Z",
  "networkType": "ethereum",
  "devdoc": {
    "kind": "dev",
    "methods": {
      "addBank(string,address,string)": {
        "params": {
          "_bankAddress": "unique address of the bank",
          "_bankName": "name of the bank",
          "_bankRegistration": "unique registration number of the bank"
        },
        "returns": {
          "_0": "bool New bank has been added to the network"
        }
      },
      "addCustomer(string,string)": {
        "params": {
          "_customerData": "Hash of the customer docs",
          "_customerName": "Name of the customer"
        },
        "returns": {
          "_0": "bool confirmation that user was added"
        }
      },
      "addKYCRequest(string,string)": {
        "params": {
          "_customerData": "The hash of the customer data being requested",
          "_customerName": "The name of the customer for whom KYC is to be done"
        },
        "returns": {
          "_0": "bool confirmation that KYC request was added"
        }
      },
      "downVoteCustomer(string)": {
        "params": {
          "_customerName": "Name of the customer to be upvoted"
        },
        "returns": {
          "_0": "bool confirmation that down votes were updated"
        }
      },
      "getBankComplaints(address)": {
        "params": {
          "_bankAddress": "unique address of the bank"
        },
        "returns": {
          "_0": "uint32 total number of bank complaints"
        }
      },
      "getBankDetails(address)": {
        "params": {
          "_bankAddress": "Unique address of the bank"
        },
        "returns": {
          "_0": "struct Bank"
        }
      },
      "modifyCustomer(string,string)": {
        "params": {
          "_customerName": "Name of the customer",
          "_newCustomerData": "New hash of the updated docs"
        },
        "returns": {
          "_0": "bool confirmation that user was modified"
        }
      },
      "modifyIfBankAllowedToVote(address,bool)": {
        "params": {
          "_bankAddress": "unique address of the bank",
          "_isAllowedToVote": "boolean value, true if bank is allowed, false if not"
        },
        "returns": {
          "_0": "bool true if bank's voting rights were revoked by admin"
        }
      },
      "removeDownVoteCustomer(string)": {
        "params": {
          "_customerName": "Name of the customer to be upvoted"
        },
        "returns": {
          "_0": "bool confirmation that down votes were updated"
        }
      },
      "removeKYCRequest(string)": {
        "params": {
          "_customerName": "The name of the customer for whom KYC is to be removed"
        },
        "returns": {
          "_0": "bool confirmation that KYC request was removed"
        }
      },
      "removeUpVoteCustomer(string)": {
        "params": {
          "_customerName": "Name of the customer to be upvoted"
        },
        "returns": {
          "_0": "bool confirmation that up votes were updated"
        }
      },
      "reportBank(address)": {
        "params": {
          "_bankAddress": "Unique address of the bank"
        },
        "returns": {
          "_0": "bool confirmation that report was submitted"
        }
      },
      "upVoteCustomer(string)": {
        "params": {
          "_customerName": "Name of the customer to be upvoted"
        },
        "returns": {
          "_0": "bool confirmation that up votes were updated"
        }
      },
      "viewCustomer(string)": {
        "params": {
          "_customerName": "Name of the customer"
        },
        "returns": {
          "_0": "struct Customer"
        }
      }
    },
    "version": 1
  },
  "userdoc": {
    "kind": "user",
    "methods": {
      "addBank(string,address,string)": {
        "notice": "Add a new bank to the network"
      },
      "addCustomer(string,string)": {
        "notice": "Add a new customer"
      },
      "addKYCRequest(string,string)": {
        "notice": "Record a new KYC request on behalf of a customer Bank is the sender of this request"
      },
      "downVoteCustomer(string)": {
        "notice": "Function to add a new down vote for a customer"
      },
      "getBankComplaints(address)": {
        "notice": "View total number of bank complaints"
      },
      "getBankDetails(address)": {
        "notice": "View bank information"
      },
      "modifyCustomer(string,string)": {
        "notice": "Modify customer data"
      },
      "modifyIfBankAllowedToVote(address,bool)": {
        "notice": "Modify if a bank is allowed to vote in the KYC process"
      },
      "removeDownVoteCustomer(string)": {
        "notice": "Function to remove a down vote for a customer"
      },
      "removeKYCRequest(string)": {
        "notice": "Remove KYC request"
      },
      "removeUpVoteCustomer(string)": {
        "notice": "Function to remove an up vote for a customer"
      },
      "reportBank(address)": {
        "notice": "Report a complaint against a bank"
      },
      "upVoteCustomer(string)": {
        "notice": "Function to add a new up vote for a customer"
      },
      "viewCustomer(string)": {
        "notice": "View customer information"
      }
    },
    "version": 1
  }
}