{
  "contractName": "KYC_Contract",
  "abi": [
    {
      "inputs": [],
      "stateMutability": "nonpayable",
      "type": "constructor"
    },
    {
      "anonymous": false,
      "inputs": [
        {
          "indexed": false,
          "internalType": "string",
          "name": "_customerName",
          "type": "string"
        },
        {
          "indexed": false,
          "internalType": "string",
          "name": "_customerData",
          "type": "string"
        },
        {
          "indexed": false,
          "internalType": "address",
          "name": "validatorBank",
          "type": "address"
        }
      ],
      "name": "AddCustomer",
      "type": "event"
    },
    {
      "anonymous": false,
      "inputs": [
        {
          "indexed": false,
          "internalType": "string",
          "name": "_customerName",
          "type": "string"
        },
        {
          "indexed": false,
          "internalType": "string",
          "name": "_customerData",
          "type": "string"
        },
        {
          "indexed": false,
          "internalType": "address",
          "name": "KYCRequestingBank",
          "type": "address"
        }
      ],
      "name": "AddKYCRequest",
      "type": "event"
    },
    {
      "anonymous": false,
      "inputs": [
        {
          "indexed": false,
          "internalType": "string",
          "name": "_customerName",
          "type": "string"
        },
        {
          "indexed": false,
          "internalType": "address",
          "name": "bankAddress",
          "type": "address"
        }
      ],
      "name": "DownVoteCustomer",
      "type": "event"
    },
    {
      "anonymous": false,
      "inputs": [
        {
          "indexed": false,
          "internalType": "string",
          "name": "_customerName",
          "type": "string"
        },
        {
          "indexed": false,
          "internalType": "string",
          "name": "_newCustomerData",
          "type": "string"
        },
        {
          "indexed": false,
          "internalType": "address",
          "name": "bankAddress",
          "type": "address"
        }
      ],
      "name": "ModifyCustomer",
      "type": "event"
    },
    {
      "anonymous": false,
      "inputs": [
        {
          "indexed": false,
          "internalType": "string",
          "name": "_customerName",
          "type": "string"
        },
        {
          "indexed": false,
          "internalType": "address",
          "name": "bankAddress",
          "type": "address"
        }
      ],
      "name": "RemoveDownVoteCustomer",
      "type": "event"
    },
    {
      "anonymous": false,
      "inputs": [
        {
          "indexed": false,
          "internalType": "string",
          "name": "_customerName",
          "type": "string"
        },
        {
          "indexed": false,
          "internalType": "address",
          "name": "KYCRemovingBank",
          "type": "address"
        }
      ],
      "name": "RemoveKYCRequest",
      "type": "event"
    },
    {
      "anonymous": false,
      "inputs": [
        {
          "indexed": false,
          "internalType": "string",
          "name": "_customerName",
          "type": "string"
        },
        {
          "indexed": false,
          "internalType": "address",
          "name": "bankAddress",
          "type": "address"
        }
      ],
      "name": "RemoveUpVoteCustomer",
      "type": "event"
    },
    {
      "anonymous": false,
      "inputs": [
        {
          "indexed": false,
          "internalType": "string",
          "name": "_customerName",
          "type": "string"
        },
        {
          "indexed": false,
          "internalType": "address",
          "name": "bankAddress",
          "type": "address"
        }
      ],
      "name": "UpVoteCustomer",
      "type": "event"
    },
    {
      "inputs": [
        {
          "internalType": "string",
          "name": "_customerName",
          "type": "string"
        },
        {
          "internalType": "string",
          "name": "_customerData",
          "type": "string"
        }
      ],
      "name": "addKYCRequest",
      "outputs": [
        {
          "internalType": "bool",
          "name": "",
          "type": "bool"
        }
      ],
      "stateMutability": "nonpayable",
      "type": "function"
    },
    {
      "inputs": [
        {
          "internalType": "string",
          "name": "_customerName",
          "type": "string"
        }
      ],
      "name": "removeKYCRequest",
      "outputs": [
        {
          "internalType": "bool",
          "name": "",
          "type": "bool"
        }
      ],
      "stateMutability": "nonpayable",
      "type": "function"
    },
    {
      "inputs": [
        {
          "internalType": "string",
          "name": "_customerName",
          "type": "string"
        }
      ],
      "name": "viewCustomer",
      "outputs": [
        {
          "internalType": "string",
          "name": "",
          "type": "string"
        },
        {
          "internalType": "string",
          "name": "",
          "type": "string"
        },
        {
          "internalType": "address",
          "name": "",
          "type": "address"
        },
        {
          "internalType": "uint32",
          "name": "",
          "type": "uint32"
        },
        {
          "internalType": "uint32",
          "name": "",
          "type": "uint32"
        }
      ],
      "stateMutability": "view",
      "type": "function",
      "constant": true
    },
    {
      "inputs": [
        {
          "internalType": "string",
          "name": "_customerName",
          "type": "string"
        },
        {
          "internalType": "string",
          "name": "_customerData",
          "type": "string"
        }
      ],
      "name": "addCustomer",
      "outputs": [
        {
          "internalType": "bool",
          "name": "",
          "type": "bool"
        }
      ],
      "stateMutability": "nonpayable",
      "type": "function"
    },
    {
      "inputs": [
        {
          "internalType": "string",
          "name": "_customerName",
          "type": "string"
        },
        {
          "internalType": "string",
          "name": "_newCustomerData",
          "type": "string"
        }
      ],
      "name": "modifyCustomer",
      "outputs": [
        {
          "internalType": "bool",
          "name": "",
          "type": "bool"
        }
      ],
      "stateMutability": "nonpayable",
      "type": "function"
    },
    {
      "inputs": [
        {
          "internalType": "string",
          "name": "_customerName",
          "type": "string"
        }
      ],
      "name": "upVoteCustomer",
      "outputs": [
        {
          "internalType": "bool",
          "name": "",
          "type": "bool"
        }
      ],
      "stateMutability": "nonpayable",
      "type": "function"
    },
    {
      "inputs": [
        {
          "internalType": "string",
          "name": "_customerName",
          "type": "string"
        }
      ],
      "name": "removeUpVoteCustomer",
      "outputs": [
        {
          "internalType": "bool",
          "name": "",
          "type": "bool"
        }
      ],
      "stateMutability": "nonpayable",
      "type": "function"
    },
    {
      "inputs": [
        {
          "internalType": "string",
          "name": "_customerName",
          "type": "string"
        }
      ],
      "name": "downVoteCustomer",
      "outputs": [
        {
          "internalType": "bool",
          "name": "",
          "type": "bool"
        }
      ],
      "stateMutability": "nonpayable",
      "type": "function"
    },
    {
      "inputs": [
        {
          "internalType": "string",
          "name": "_customerName",
          "type": "string"
        }
      ],
      "name": "removeDownVoteCustomer",
      "outputs": [
        {
          "internalType": "bool",
          "name": "",
          "type": "bool"
        }
      ],
      "stateMutability": "nonpayable",
      "type": "function"
    },
    {
      "inputs": [
        {
          "internalType": "address",
          "name": "_bankAddress",
          "type": "address"
        }
      ],
      "name": "getBankComplaints",
      "outputs": [
        {
          "internalType": "uint32",
          "name": "",
          "type": "uint32"
        }
      ],
      "stateMutability": "view",
      "type": "function",
      "constant": true
    },
    {
      "inputs": [
        {
          "internalType": "address",
          "name": "_bankAddress",
          "type": "address"
        }
      ],
      "name": "getBankDetails",
      "outputs": [
        {
          "internalType": "string",
          "name": "",
          "type": "string"
        },
        {
          "internalType": "address",
          "name": "",
          "type": "address"
        },
        {
          "internalType": "uint32",
          "name": "",
          "type": "uint32"
        },
        {
          "internalType": "uint32",
          "name": "",
          "type": "uint32"
        },
        {
          "internalType": "bool",
          "name": "",
          "type": "bool"
        },
        {
          "internalType": "string",
          "name": "",
          "type": "string"
        }
      ],
      "stateMutability": "view",
      "type": "function",
      "constant": true
    }
  ],
  "bytecode": "0x608060405234801561001057600080fd5b50336000806101000a81548173ffffffffffffffffffffffffffffffffffffffff021916908373ffffffffffffffffffffffffffffffffffffffff160217905550612df1806100606000396000f3fe608060405234801561001057600080fd5b50600436106100a95760003560e01c80635ec2a7f2116100715780635ec2a7f2146101a757806382e0438a146101d7578063ba03ef3a14610207578063bd561e1414610237578063cae55c3f14610267578063f72860ca14610297576100a9565b8063107925bb146100ae57806315101e02146100e25780631e8eba6e146101175780633190abc014610147578063569e64bc14610177575b600080fd5b6100c860048036038101906100c3919061210d565b6102c7565b6040516100d995949392919061223e565b60405180910390f35b6100fc60048036038101906100f791906122cb565b610591565b60405161010e96959493929190612313565b60405180910390f35b610131600480360381019061012c919061210d565b610975565b60405161013e9190612382565b60405180910390f35b610161600480360381019061015c919061239d565b610c43565b60405161016e9190612382565b60405180910390f35b610191600480360381019061018c919061210d565b610e05565b60405161019e9190612382565b60405180910390f35b6101c160048036038101906101bc91906122cb565b6110be565b6040516101ce9190612415565b60405180910390f35b6101f160048036038101906101ec919061210d565b6111ea565b6040516101fe9190612382565b60405180910390f35b610221600480360381019061021c919061210d565b6114a3565b60405161022e9190612382565b60405180910390f35b610251600480360381019061024c919061239d565b61175c565b60405161025e9190612382565b60405180910390f35b610281600480360381019061027c919061210d565b611a92565b60405161028e9190612382565b60405180910390f35b6102b160048036038101906102ac919061239d565b611d4b565b6040516102be9190612382565b60405180910390f35b60608060008060003373ffffffffffffffffffffffffffffffffffffffff166001876040516102f6919061246c565b908152602001604051809103902060020160099054906101000a900473ffffffffffffffffffffffffffffffffffffffff1673ffffffffffffffffffffffffffffffffffffffff161461037e576040517f08c379a00000000000000000000000000000000000000000000000000000000081526004016103759061251b565b60405180910390fd5b60018660405161038e919061246c565b90815260200160405180910390206000016001876040516103af919061246c565b90815260200160405180910390206001016001886040516103d0919061246c565b908152602001604051809103902060020160099054906101000a900473ffffffffffffffffffffffffffffffffffffffff16600189604051610412919061246c565b908152602001604051809103902060020160019054906101000a900463ffffffff1660018a604051610444919061246c565b908152602001604051809103902060020160059054906101000a900463ffffffff168480546104729061256a565b80601f016020809104026020016040519081016040528092919081815260200182805461049e9061256a565b80156104eb5780601f106104c0576101008083540402835291602001916104eb565b820191906000526020600020905b8154815290600101906020018083116104ce57829003601f168201915b505050505094508380546104fe9061256a565b80601f016020809104026020016040519081016040528092919081815260200182805461052a9061256a565b80156105775780601f1061054c57610100808354040283529160200191610577565b820191906000526020600020905b81548152906001019060200180831161055a57829003601f168201915b505050505093509450945094509450945091939590929450565b606060008060008060608673ffffffffffffffffffffffffffffffffffffffff16600260008973ffffffffffffffffffffffffffffffffffffffff1673ffffffffffffffffffffffffffffffffffffffff16815260200190815260200160002060010160009054906101000a900473ffffffffffffffffffffffffffffffffffffffff1673ffffffffffffffffffffffffffffffffffffffff161461066b576040517f08c379a00000000000000000000000000000000000000000000000000000000081526004016106629061260e565b60405180910390fd5b600260008873ffffffffffffffffffffffffffffffffffffffff1673ffffffffffffffffffffffffffffffffffffffff168152602001908152602001600020600001600260008973ffffffffffffffffffffffffffffffffffffffff1673ffffffffffffffffffffffffffffffffffffffff16815260200190815260200160002060010160009054906101000a900473ffffffffffffffffffffffffffffffffffffffff16600260008a73ffffffffffffffffffffffffffffffffffffffff1673ffffffffffffffffffffffffffffffffffffffff16815260200190815260200160002060010160149054906101000a900463ffffffff16600260008b73ffffffffffffffffffffffffffffffffffffffff1673ffffffffffffffffffffffffffffffffffffffff16815260200190815260200160002060010160189054906101000a900463ffffffff16600260008c73ffffffffffffffffffffffffffffffffffffffff1673ffffffffffffffffffffffffffffffffffffffff168152602001908152602001600020600101601c9054906101000a900460ff16600260008d73ffffffffffffffffffffffffffffffffffffffff1673ffffffffffffffffffffffffffffffffffffffff1681526020019081526020016000206002018580546108549061256a565b80601f01602080910402602001604051908101604052809291908181526020018280546108809061256a565b80156108cd5780601f106108a2576101008083540402835291602001916108cd565b820191906000526020600020905b8154815290600101906020018083116108b057829003601f168201915b505050505095508080546108e09061256a565b80601f016020809104026020016040519081016040528092919081815260200182805461090c9061256a565b80156109595780601f1061092e57610100808354040283529160200191610959565b820191906000526020600020905b81548152906001019060200180831161093c57829003601f168201915b5050505050905095509550955095509550955091939550919395565b60003373ffffffffffffffffffffffffffffffffffffffff1660038360405161099e919061246c565b908152602001604051809103902060020160009054906101000a900473ffffffffffffffffffffffffffffffffffffffff1673ffffffffffffffffffffffffffffffffffffffff1614610a26576040517f08c379a0000000000000000000000000000000000000000000000000000000008152600401610a1d906126c6565b60405180910390fd5b610ad9600183604051610a39919061246c565b90815260200160405180910390206000018054610a559061256a565b80601f0160208091040260200160405190810160405280929190818152602001828054610a819061256a565b8015610ace5780601f10610aa357610100808354040283529160200191610ace565b820191906000526020600020905b815481529060010190602001808311610ab157829003601f168201915b505050505083611e77565b610b18576040517f08c379a0000000000000000000000000000000000000000000000000000000008152600401610b0f9061277e565b60405180910390fd5b600382604051610b28919061246c565b908152602001604051809103902060008082016000610b479190611ed0565b600182016000610b579190611ed0565b6002820160006101000a81549073ffffffffffffffffffffffffffffffffffffffff02191690555050600260003373ffffffffffffffffffffffffffffffffffffffff1673ffffffffffffffffffffffffffffffffffffffff168152602001908152602001600020600101601881819054906101000a900463ffffffff1680929190610be2906127cd565b91906101000a81548163ffffffff021916908363ffffffff160217905550507f496d5d5434647bc8da1b957c8a39657a0fe5021a5ee01bfb6566ee87c56639dd8233604051610c329291906127f7565b60405180910390a160019050919050565b60008073ffffffffffffffffffffffffffffffffffffffff16600184604051610c6c919061246c565b908152602001604051809103902060020160099054906101000a900473ffffffffffffffffffffffffffffffffffffffff1673ffffffffffffffffffffffffffffffffffffffff1614610cf4576040517f08c379a0000000000000000000000000000000000000000000000000000000008152600401610ceb90612899565b60405180910390fd5b82600184604051610d05919061246c565b90815260200160405180910390206000019080519060200190610d29929190611f10565b5081600184604051610d3b919061246c565b90815260200160405180910390206001019080519060200190610d5f929190611f10565b5033600184604051610d71919061246c565b908152602001604051809103902060020160096101000a81548173ffffffffffffffffffffffffffffffffffffffff021916908373ffffffffffffffffffffffffffffffffffffffff1602179055507f720f91ef7267a7db0cf726ddb013dd753364a2e1e65319cd32e1d96c3aa38dbd838333604051610df3939291906128b9565b60405180910390a16001905092915050565b6000610eba82600184604051610e1b919061246c565b90815260200160405180910390206000018054610e379061256a565b80601f0160208091040260200160405190810160405280929190818152602001828054610e639061256a565b8015610eb05780601f10610e8557610100808354040283529160200191610eb0565b820191906000526020600020905b815481529060010190602001808311610e9357829003601f168201915b5050505050611e77565b610ef9576040517f08c379a0000000000000000000000000000000000000000000000000000000008152600401610ef090612970565b60405180910390fd5b6000600483604051610f0b919061246c565b908152602001604051809103902060003373ffffffffffffffffffffffffffffffffffffffff1673ffffffffffffffffffffffffffffffffffffffff16815260200190815260200160002060009054906101000a900460ff1660ff1614610fa7576040517f08c379a0000000000000000000000000000000000000000000000000000000008152600401610f9e90612a02565b60405180910390fd5b600182604051610fb7919061246c565b9081526020016040518091039020600201600181819054906101000a900463ffffffff1680929190610fe890612a22565b91906101000a81548163ffffffff021916908363ffffffff160217905550506001600483604051611019919061246c565b908152602001604051809103902060003373ffffffffffffffffffffffffffffffffffffffff1673ffffffffffffffffffffffffffffffffffffffff16815260200190815260200160002060006101000a81548160ff021916908360ff1602179055507f8204fd0d7ac1bb685e9147e1259497a085786f9ec68e8b44514f432d7d7fdfe182336040516110ad9291906127f7565b60405180910390a160019050919050565b60008173ffffffffffffffffffffffffffffffffffffffff16600260008473ffffffffffffffffffffffffffffffffffffffff1673ffffffffffffffffffffffffffffffffffffffff16815260200190815260200160002060010160009054906101000a900473ffffffffffffffffffffffffffffffffffffffff1673ffffffffffffffffffffffffffffffffffffffff1614611190576040517f08c379a00000000000000000000000000000000000000000000000000000000081526004016111879061260e565b60405180910390fd5b600260008373ffffffffffffffffffffffffffffffffffffffff1673ffffffffffffffffffffffffffffffffffffffff16815260200190815260200160002060010160149054906101000a900463ffffffff169050919050565b600061129f82600184604051611200919061246c565b9081526020016040518091039020600001805461121c9061256a565b80601f01602080910402602001604051908101604052809291908181526020018280546112489061256a565b80156112955780601f1061126a57610100808354040283529160200191611295565b820191906000526020600020905b81548152906001019060200180831161127857829003601f168201915b5050505050611e77565b6112de576040517f08c379a00000000000000000000000000000000000000000000000000000000081526004016112d590612970565b60405180910390fd5b60006005836040516112f0919061246c565b908152602001604051809103902060003373ffffffffffffffffffffffffffffffffffffffff1673ffffffffffffffffffffffffffffffffffffffff16815260200190815260200160002060009054906101000a900460ff1660ff161461138c576040517f08c379a000000000000000000000000000000000000000000000000000000000815260040161138390612ac1565b60405180910390fd5b60018260405161139c919061246c565b9081526020016040518091039020600201600581819054906101000a900463ffffffff16809291906113cd90612a22565b91906101000a81548163ffffffff021916908363ffffffff1602179055505060016005836040516113fe919061246c565b908152602001604051809103902060003373ffffffffffffffffffffffffffffffffffffffff1673ffffffffffffffffffffffffffffffffffffffff16815260200190815260200160002060006101000a81548160ff021916908360ff1602179055507ff76612a4db926c845e0a50031eb928cbbf707428872d88840995c7b8da5f414582336040516114929291906127f7565b60405180910390a160019050919050565b6000611558826001846040516114b9919061246c565b908152602001604051809103902060000180546114d59061256a565b80601f01602080910402602001604051908101604052809291908181526020018280546115019061256a565b801561154e5780601f106115235761010080835404028352916020019161154e565b820191906000526020600020905b81548152906001019060200180831161153157829003601f168201915b5050505050611e77565b611597576040517f08c379a000000000000000000000000000000000000000000000000000000000815260040161158e90612970565b60405180910390fd5b60016005836040516115a9919061246c565b908152602001604051809103902060003373ffffffffffffffffffffffffffffffffffffffff1673ffffffffffffffffffffffffffffffffffffffff16815260200190815260200160002060009054906101000a900460ff1660ff1614611645576040517f08c379a000000000000000000000000000000000000000000000000000000000815260040161163c90612b53565b60405180910390fd5b600182604051611655919061246c565b9081526020016040518091039020600201600581819054906101000a900463ffffffff1680929190611686906127cd565b91906101000a81548163ffffffff021916908363ffffffff1602179055505060006005836040516116b7919061246c565b908152602001604051809103902060003373ffffffffffffffffffffffffffffffffffffffff1673ffffffffffffffffffffffffffffffffffffffff16815260200190815260200160002060006101000a81548160ff021916908360ff1602179055507f884e374f9a1d1ef39e4f98a04c2a047354902ad3143ff7a278d9937b56e114d0823360405161174b9291906127f7565b60405180910390a160019050919050565b60003373ffffffffffffffffffffffffffffffffffffffff16600384604051611785919061246c565b908152602001604051809103902060020160009054906101000a900473ffffffffffffffffffffffffffffffffffffffff1673ffffffffffffffffffffffffffffffffffffffff16141561180e576040517f08c379a000000000000000000000000000000000000000000000000000000000815260040161180590612be5565b60405180910390fd5b6118c1600184604051611821919061246c565b9081526020016040518091039020600101805461183d9061256a565b80601f01602080910402602001604051908101604052809291908181526020018280546118699061256a565b80156118b65780601f1061188b576101008083540402835291602001916118b6565b820191906000526020600020905b81548152906001019060200180831161189957829003601f168201915b505050505083611e77565b611900576040517f08c379a00000000000000000000000000000000000000000000000000000000081526004016118f790612c77565b60405180910390fd5b82600384604051611911919061246c565b90815260200160405180910390206000019080519060200190611935929190611f10565b5081600384604051611947919061246c565b9081526020016040518091039020600101908051906020019061196b929190611f10565b503360038460405161197d919061246c565b908152602001604051809103902060020160006101000a81548173ffffffffffffffffffffffffffffffffffffffff021916908373ffffffffffffffffffffffffffffffffffffffff160217905550600260003373ffffffffffffffffffffffffffffffffffffffff1673ffffffffffffffffffffffffffffffffffffffff168152602001908152602001600020600101601881819054906101000a900463ffffffff1680929190611a2e90612a22565b91906101000a81548163ffffffff021916908363ffffffff160217905550507f7fbec8867635bbaab7103c5d6cc8b0ef0767df0159177b6a07b8dbd5afba08cf838333604051611a80939291906128b9565b60405180910390a16001905092915050565b6000611b4782600184604051611aa8919061246c565b90815260200160405180910390206000018054611ac49061256a565b80601f0160208091040260200160405190810160405280929190818152602001828054611af09061256a565b8015611b3d5780601f10611b1257610100808354040283529160200191611b3d565b820191906000526020600020905b815481529060010190602001808311611b2057829003601f168201915b5050505050611e77565b611b86576040517f08c379a0000000000000000000000000000000000000000000000000000000008152600401611b7d90612970565b60405180910390fd5b6001600483604051611b98919061246c565b908152602001604051809103902060003373ffffffffffffffffffffffffffffffffffffffff1673ffffffffffffffffffffffffffffffffffffffff16815260200190815260200160002060009054906101000a900460ff1660ff1614611c34576040517f08c379a0000000000000000000000000000000000000000000000000000000008152600401611c2b90612d09565b60405180910390fd5b600182604051611c44919061246c565b9081526020016040518091039020600201600181819054906101000a900463ffffffff1680929190611c75906127cd565b91906101000a81548163ffffffff021916908363ffffffff160217905550506000600483604051611ca6919061246c565b908152602001604051809103902060003373ffffffffffffffffffffffffffffffffffffffff1673ffffffffffffffffffffffffffffffffffffffff16815260200190815260200160002060006101000a81548160ff021916908360ff1602179055507fb16a6a90c9dc1e72f7d5f1fd2bb19bfe10570dd0f64cc907ba4561c1b252e9878233604051611d3a9291906127f7565b60405180910390a160019050919050565b60003373ffffffffffffffffffffffffffffffffffffffff16600184604051611d74919061246c565b908152602001604051809103902060020160099054906101000a900473ffffffffffffffffffffffffffffffffffffffff1673ffffffffffffffffffffffffffffffffffffffff1614611dfc576040517f08c379a0000000000000000000000000000000000000000000000000000000008152600401611df390612d9b565b60405180910390fd5b81600184604051611e0d919061246c565b90815260200160405180910390206001019080519060200190611e31929190611f10565b507f31d240a9505c05976d93451a6c6c97988c5719ef448ebed149c0e8e534a48129838333604051611e65939291906128b9565b60405180910390a16001905092915050565b600081604051602001611e8a919061246c565b6040516020818303038152906040528051906020012083604051602001611eb1919061246c565b6040516020818303038152906040528051906020012014905092915050565b508054611edc9061256a565b6000825580601f10611eee5750611f0d565b601f016020900490600052602060002090810190611f0c9190611f96565b5b50565b828054611f1c9061256a565b90600052602060002090601f016020900481019282611f3e5760008555611f85565b82601f10611f5757805160ff1916838001178555611f85565b82800160010185558215611f85579182015b82811115611f84578251825591602001919060010190611f69565b5b509050611f929190611f96565b5090565b5b80821115611faf576000816000905550600101611f97565b5090565b6000604051905090565b600080fd5b600080fd5b600080fd5b600080fd5b6000601f19601f8301169050919050565b7f4e487b7100000000000000000000000000000000000000000000000000000000600052604160045260246000fd5b61201a82611fd1565b810181811067ffffffffffffffff8211171561203957612038611fe2565b5b80604052505050565b600061204c611fb3565b90506120588282612011565b919050565b600067ffffffffffffffff82111561207857612077611fe2565b5b61208182611fd1565b9050602081019050919050565b82818337600083830152505050565b60006120b06120ab8461205d565b612042565b9050828152602081018484840111156120cc576120cb611fcc565b5b6120d784828561208e565b509392505050565b600082601f8301126120f4576120f3611fc7565b5b813561210484826020860161209d565b91505092915050565b60006020828403121561212357612122611fbd565b5b600082013567ffffffffffffffff81111561214157612140611fc2565b5b61214d848285016120df565b91505092915050565b600081519050919050565b600082825260208201905092915050565b60005b83811015612190578082015181840152602081019050612175565b8381111561219f576000848401525b50505050565b60006121b082612156565b6121ba8185612161565b93506121ca818560208601612172565b6121d381611fd1565b840191505092915050565b600073ffffffffffffffffffffffffffffffffffffffff82169050919050565b6000612209826121de565b9050919050565b612219816121fe565b82525050565b600063ffffffff82169050919050565b6122388161221f565b82525050565b600060a082019050818103600083015261225881886121a5565b9050818103602083015261226c81876121a5565b905061227b6040830186612210565b612288606083018561222f565b612295608083018461222f565b9695505050505050565b6122a8816121fe565b81146122b357600080fd5b50565b6000813590506122c58161229f565b92915050565b6000602082840312156122e1576122e0611fbd565b5b60006122ef848285016122b6565b91505092915050565b60008115159050919050565b61230d816122f8565b82525050565b600060c082019050818103600083015261232d81896121a5565b905061233c6020830188612210565b612349604083018761222f565b612356606083018661222f565b6123636080830185612304565b81810360a083015261237581846121a5565b9050979650505050505050565b60006020820190506123976000830184612304565b92915050565b600080604083850312156123b4576123b3611fbd565b5b600083013567ffffffffffffffff8111156123d2576123d1611fc2565b5b6123de858286016120df565b925050602083013567ffffffffffffffff8111156123ff576123fe611fc2565b5b61240b858286016120df565b9150509250929050565b600060208201905061242a600083018461222f565b92915050565b600081905092915050565b600061244682612156565b6124508185612430565b9350612460818560208601612172565b80840191505092915050565b6000612478828461243b565b915081905092915050565b7f5573657220646f65736e2774206578697374206f6e207468697320646174616260008201527f6173652e2055736520616464437573746f6d657220746f20637265617465207560208201527f7365720000000000000000000000000000000000000000000000000000000000604082015250565b6000612505604383612161565b915061251082612483565b606082019050919050565b60006020820190508181036000830152612534816124f8565b9050919050565b7f4e487b7100000000000000000000000000000000000000000000000000000000600052602260045260246000fd5b6000600282049050600182168061258257607f821691505b602082108114156125965761259561253b565b5b50919050565b7f42616e6b206164647265737320697320696e636f72726563742e204e6f20737560008201527f6368207265636f72642065786973747300000000000000000000000000000000602082015250565b60006125f8603083612161565b91506126038261259c565b604082019050919050565b60006020820190508181036000830152612627816125eb565b9050919050565b7f4e6f204b594320726571756573742065786973747320666f722074686973206360008201527f7573746f6d65722e20506c6561736520757365206164644b594352657175657360208201527f742066756e6374696f6e00000000000000000000000000000000000000000000604082015250565b60006126b0604a83612161565b91506126bb8261262e565b606082019050919050565b600060208201905081810360008301526126df816126a3565b9050919050565b7f4e6f20726571756573742065786973747320666f72207468697320637573746f60008201527f6d65722e20506c6561736520757365206164644b59435265717565737420667560208201527f6e6374696f6e0000000000000000000000000000000000000000000000000000604082015250565b6000612768604683612161565b9150612773826126e6565b606082019050919050565b600060208201905081810360008301526127978161275b565b9050919050565b7f4e487b7100000000000000000000000000000000000000000000000000000000600052601160045260246000fd5b60006127d88261221f565b915060008214156127ec576127eb61279e565b5b600182039050919050565b6000604082019050818103600083015261281181856121a5565b90506128206020830184612210565b9392505050565b7f55736572206578697374732e20506c656173652063616c6c206d6f646966794360008201527f7573746f6d657220746f206d616b6520616e79206368616e6765730000000000602082015250565b6000612883603b83612161565b915061288e82612827565b604082019050919050565b600060208201905081810360008301526128b281612876565b9050919050565b600060608201905081810360008301526128d381866121a5565b905081810360208301526128e781856121a5565b90506128f66040830184612210565b949350505050565b7f437573746f6d657220646f65736e27742065786973742e20557365206164644360008201527f7573746f6d657220746f20637265617465206e65772075736572000000000000602082015250565b600061295a603a83612161565b9150612965826128fe565b604082019050919050565b600060208201905081810360008301526129898161294d565b9050919050565b7f437573746f6d65722068617320616c7265616479206265656e207570766f746560008201527f6420627920796f752e0000000000000000000000000000000000000000000000602082015250565b60006129ec602983612161565b91506129f782612990565b604082019050919050565b60006020820190508181036000830152612a1b816129df565b9050919050565b6000612a2d8261221f565b915063ffffffff821415612a4457612a4361279e565b5b600182019050919050565b7f437573746f6d65722068617320616c7265616479206265656e20646f776e207660008201527f6f74656420627920796f752e0000000000000000000000000000000000000000602082015250565b6000612aab602c83612161565b9150612ab682612a4f565b604082019050919050565b60006020820190508181036000830152612ada81612a9e565b9050919050565b7f437573746f6d6572206861736e2774206265656e20646f776e20766f7465642060008201527f627920796f752e2055736520646f776e566f7465437573746f6d65722e000000602082015250565b6000612b3d603d83612161565b9150612b4882612ae1565b604082019050919050565b60006020820190508181036000830152612b6c81612b30565b9050919050565b7f41204b5943207265717565737420616c72656164792065786973747320666f7260008201527f207468697320757365722066726f6d20746869732062616e6b00000000000000602082015250565b6000612bcf603983612161565b9150612bda82612b73565b604082019050919050565b60006020820190508181036000830152612bfe81612bc2565b9050919050565b7f506c6561736520636865636b20686173682e2054686973207265636f7264206460008201527f6f65736e27742065786973740000000000000000000000000000000000000000602082015250565b6000612c61602c83612161565b9150612c6c82612c05565b604082019050919050565b60006020820190508181036000830152612c9081612c54565b9050919050565b7f437573746f6d6572206861736e2774206265656e207570766f7465642062792060008201527f796f752e20757365207570566f7465437573746f6d6572000000000000000000602082015250565b6000612cf3603783612161565b9150612cfe82612c97565b604082019050919050565b60006020820190508181036000830152612d2281612ce6565b9050919050565b7f5573657220646f65736e27742065786973742e20506c656173652063616c6c2060008201527f616464437573746f6d657220746f20637265617465206e657720757365720000602082015250565b6000612d85603e83612161565b9150612d9082612d29565b604082019050919050565b60006020820190508181036000830152612db481612d78565b905091905056fea2646970667358221220ae0d2eb4952a8e2d5a2e902708fc287e9e49a2f8539a9b33d45b1df2ceafa34264736f6c63430008090033",
  "immutableReferences": {},
  "source": "// SPDX-License-Identifier: MIT\n\npragma solidity ^0.8.9;\n\ncontract KYC_Contract {\n    constructor() {\n        admin = msg.sender;\n    }\n\n    address admin;\n\n    modifier onlyAdmin() {\n        require(\n            msg.sender == admin,\n            \"You must have admin priviledges to run this\"\n        );\n        _;\n    }\n\n    struct Customer {\n        string username;\n        // hash that points to customer documents in secure storage\n        string customerData;\n        // status of KYC request. if conditions are met, set to true. else false\n        bool kycRequest;\n        // number of upvotes from other banks to customer data\n        uint32 upVotes;\n        // number of downvotes from other banks to customer data\n        uint32 downVotes;\n        // unique address of the validating bank\n        address validatorBankAddress;\n    }\n\n    struct Bank {\n        string name;\n        // unique ethereum address of the bank\n        address ethAddress;\n        // total complaints against the bank by other banks in the network\n        uint32 complaintsReported;\n        //number of KYC requests initiated by bank\n        uint32 KYC_count;\n        // status. if false, bank cannot up/down vote any more customers\n        bool isAllowedToVote;\n        // registration number of the bank\n        string regNumber;\n    }\n\n    // count of total banks in the network\n    uint32 totalBanks;\n\n    struct KYC_Request {\n        // map KYC request to customer data\n        string username;\n        // hash that points to customer documents in secure storage\n        string customerData;\n        // unique account address of the bank\n        address bankAddress;\n    }\n\n    /* Mappings */\n\n    // customer name to view customer details\n    mapping(string => Customer) customers;\n\n    // unique bank address to view bank details\n    mapping(address => Bank) banks;\n\n    // customer name to view KYC requests\n    mapping(string => KYC_Request) KYC_requests;\n\n    // keep track of up votes for the customer by all the banks in the network\n    mapping(string => mapping(address => uint8)) up_votes;\n\n    // keep track of down votes for the customer by all the banks in the network\n    mapping(string => mapping(address => uint8)) down_votes;\n\n    /* Events */\n\n    event AddKYCRequest(\n        string _customerName,\n        string _customerData,\n        address KYCRequestingBank\n    );\n    event RemoveKYCRequest(string _customerName, address KYCRemovingBank);\n\n    event AddCustomer(\n        string _customerName,\n        string _customerData,\n        address validatorBank\n    );\n    event ModifyCustomer(\n        string _customerName,\n        string _newCustomerData,\n        address bankAddress\n    );\n\n    event UpVoteCustomer(string _customerName, address bankAddress);\n    event RemoveUpVoteCustomer(string _customerName, address bankAddress);\n\n    event DownVoteCustomer(string _customerName, address bankAddress);\n    event RemoveDownVoteCustomer(string _customerName, address bankAddress);\n\n    /**\n     * Record a new KYC request on behalf of a customer\n     * Bank is the sender of this request\n     * @param _customerName The name of the customer for whom KYC is to be done\n     * @param _customerData The hash of the customer data being requested\n     * @return bool\n     */\n    function addKYCRequest(\n        string memory _customerName,\n        string memory _customerData\n    ) public returns (bool) {\n        // require that the request the bank is making isn't a duplicate\n        require(\n            !(KYC_requests[_customerName].bankAddress == msg.sender),\n            \"A KYC request already exists for this user from this bank\"\n        );\n\n        require(\n            compareStringsbyBytes(\n                customers[_customerName].customerData,\n                _customerData\n            ),\n            \"Please check hash. This record doesn't exist\"\n        );\n\n        // update KYC requests mapping\n        KYC_requests[_customerName].username = _customerName;\n        KYC_requests[_customerName].customerData = _customerData;\n        KYC_requests[_customerName].bankAddress = msg.sender;\n\n        // add KYC requests made by this bank\n        banks[msg.sender].KYC_count++;\n\n        emit AddKYCRequest(_customerName, _customerData, msg.sender);\n        return true;\n    }\n\n    /**\n     * Remove KYC request\n     * @param _customerName The name of the customer for whom KYC is to be removed\n     * @return bool\n     */\n    function removeKYCRequest(string memory _customerName)\n        public\n        returns (bool)\n    {\n        // require that the username in fact exists as a KYC request\n        require(\n            (KYC_requests[_customerName].bankAddress == msg.sender),\n            \"No KYC request exists for this customer. Please use addKYCRequest function\"\n        );\n\n        require(\n            compareStringsbyBytes(\n                customers[_customerName].username,\n                _customerName\n            ),\n            \"No request exists for this customer. Please use addKYCRequest function\"\n        );\n\n        // delete the customer's KYC request\n        delete KYC_requests[_customerName];\n\n        // reduce KYC requests made by this bank\n        banks[msg.sender].KYC_count--;\n\n        emit RemoveKYCRequest(_customerName, msg.sender);\n        return true;\n    }\n\n    /**\n     * View customer information\n     * @param _customerName Name of the customer\n     * @return struct Customer\n     */\n    function viewCustomer(string memory _customerName)\n        public\n        view\n        returns (\n            string memory,\n            string memory,\n            address,\n            uint32,\n            uint32\n        )\n    {\n        require(\n            customers[_customerName].validatorBankAddress ==\n                address(msg.sender),\n            \"User doesn't exist on this database. Use addCustomer to create user\"\n        );\n\n        return (\n            customers[_customerName].username,\n            customers[_customerName].customerData,\n            customers[_customerName].validatorBankAddress,\n            customers[_customerName].upVotes,\n            customers[_customerName].downVotes\n        );\n    }\n\n    /**\n     * Add a new customer\n     * @param _customerName Name of the customer\n     * @param _customerData Hash of the customer docs\n     * @return bool\n     */\n    function addCustomer(\n        string memory _customerName,\n        string memory _customerData\n    ) public returns (bool) {\n        require(\n            customers[_customerName].validatorBankAddress == address(0x0),\n            \"User exists. Please call modifyCustomer to make any changes\"\n        );\n\n        customers[_customerName].username = _customerName;\n        customers[_customerName].customerData = _customerData;\n        customers[_customerName].validatorBankAddress = msg.sender;\n\n        emit AddCustomer(_customerName, _customerData, msg.sender);\n        return true;\n    }\n\n    /**\n     * Modify customer data\n     * @param _customerName Name of the customer\n     * @param _newCustomerData New hash of the updated docs\n     * @return bool\n     */\n    function modifyCustomer(\n        string memory _customerName,\n        string memory _newCustomerData\n    ) public returns (bool) {\n        require(\n            customers[_customerName].validatorBankAddress ==\n                address(msg.sender),\n            \"User doesn't exist. Please call addCustomer to create new user\"\n        );\n\n        customers[_customerName].customerData = _newCustomerData;\n\n        emit ModifyCustomer(_customerName, _newCustomerData, msg.sender);\n        return true;\n    }\n\n    /**\n     * Function to add a new up vote for a customer\n     * @param _customerName Name of the customer to be upvoted\n     * @return bool\n     */\n    function upVoteCustomer(string memory _customerName) public returns (bool) {\n        require(\n            compareStringsbyBytes(\n                _customerName,\n                customers[_customerName].username\n            ),\n            \"Customer doesn't exist. Use addCustomer to create new user\"\n        );\n\n        require(\n            up_votes[_customerName][msg.sender] == 0,\n            \"Customer has already been upvoted by you.\"\n        );\n\n        // update upVote count\n        customers[_customerName].upVotes++;\n        up_votes[_customerName][msg.sender] = 1;\n\n        emit UpVoteCustomer(_customerName, msg.sender);\n        return true;\n    }\n\n    /**\n     * Function to remove an up vote for a customer\n     * @param _customerName Name of the customer to be upvoted\n     * @return bool\n     */\n    function removeUpVoteCustomer(string memory _customerName)\n        public\n        returns (bool)\n    {\n        require(\n            compareStringsbyBytes(\n                _customerName,\n                customers[_customerName].username\n            ),\n            \"Customer doesn't exist. Use addCustomer to create new user\"\n        );\n\n        require(\n            up_votes[_customerName][msg.sender] == 1,\n            \"Customer hasn't been upvoted by you. use upVoteCustomer\"\n        );\n\n        // update upVote count\n        customers[_customerName].upVotes--;\n        up_votes[_customerName][msg.sender] = 0;\n\n        emit RemoveUpVoteCustomer(_customerName, msg.sender);\n        return true;\n    }\n\n    /**\n     * Function to add a new down vote for a customer\n     * @param _customerName Name of the customer to be upvoted\n     * @return bool\n     */\n    function downVoteCustomer(string memory _customerName)\n        public\n        returns (bool)\n    {\n        require(\n            compareStringsbyBytes(\n                _customerName,\n                customers[_customerName].username\n            ),\n            \"Customer doesn't exist. Use addCustomer to create new user\"\n        );\n\n        require(\n            down_votes[_customerName][msg.sender] == 0,\n            \"Customer has already been down voted by you.\"\n        );\n\n        // update downVote count\n        customers[_customerName].downVotes++;\n        down_votes[_customerName][msg.sender] = 1;\n\n        emit DownVoteCustomer(_customerName, msg.sender);\n        return true;\n    }\n\n    /**\n     * Function to remove a down vote for a customer\n     * @param _customerName Name of the customer to be upvoted\n     * @return bool\n     */\n    function removeDownVoteCustomer(string memory _customerName)\n        public\n        returns (bool)\n    {\n        require(\n            compareStringsbyBytes(\n                _customerName,\n                customers[_customerName].username\n            ),\n            \"Customer doesn't exist. Use addCustomer to create new user\"\n        );\n\n        require(\n            down_votes[_customerName][msg.sender] == 1,\n            \"Customer hasn't been down voted by you. Use downVoteCustomer.\"\n        );\n\n        // update downVote count\n        customers[_customerName].downVotes--;\n        down_votes[_customerName][msg.sender] = 0;\n\n        emit RemoveDownVoteCustomer(_customerName, msg.sender);\n        return true;\n    }\n\n    /**\n     * View total number of bank complaints\n     * @param _bankAddress unique address of the bank\n     * @return uint32 total number of bank complaints\n     */\n    function getBankComplaints(address _bankAddress)\n        public\n        view\n        returns (uint32)\n    {\n        require(\n            banks[_bankAddress].ethAddress == _bankAddress,\n            \"Bank address is incorrect. No such record exists\"\n        );\n\n        return banks[_bankAddress].complaintsReported;\n    }\n\n    /**\n     * View bank information\n     * @param _bankAddress Unique address of the bank\n     * @return struct Bank\n     */\n    function getBankDetails(address _bankAddress)\n        public\n        view\n        returns (\n            string memory,\n            address,\n            uint32,\n            uint32,\n            bool,\n            string memory\n        )\n    {\n        require(\n            banks[_bankAddress].ethAddress == _bankAddress,\n            \"Bank address is incorrect. No such record exists\"\n        );\n\n        return (\n            banks[_bankAddress].name,\n            banks[_bankAddress].ethAddress,\n            banks[_bankAddress].complaintsReported,\n            banks[_bankAddress].KYC_count,\n            banks[_bankAddress].isAllowedToVote,\n            banks[_bankAddress].regNumber\n        );\n    }\n\n    // source: https://ethereum.stackexchange.com/questions/45813/compare-strings-in-solidity\n    function compareStringsbyBytes(string memory s1, string memory s2)\n        private\n        pure\n        returns (bool)\n    {\n        return\n            keccak256(abi.encodePacked(s1)) == keccak256(abi.encodePacked(s2));\n    }\n}\n",
  "sourcePath": "/home/dhruv/Desktop/projects/dApp/KYC/contracts/KYC_Contract.sol",
  "compiler": {
    "name": "solc",
    "version": "0.8.9+commit.e5eed63a.Emscripten.clang"
  },
  "schemaVersion": "3.4.3",
  "updatedAt": "2021-12-04T07:10:08.798Z",
  "networkType": "ethereum",
  "devdoc": {
    "kind": "dev",
    "methods": {
      "addCustomer(string,string)": {
        "params": {
          "_customerData": "Hash of the customer docs",
          "_customerName": "Name of the customer"
        },
        "returns": {
          "_0": "bool"
        }
      },
      "addKYCRequest(string,string)": {
        "params": {
          "_customerData": "The hash of the customer data being requested",
          "_customerName": "The name of the customer for whom KYC is to be done"
        },
        "returns": {
          "_0": "bool"
        }
      },
      "downVoteCustomer(string)": {
        "params": {
          "_customerName": "Name of the customer to be upvoted"
        },
        "returns": {
          "_0": "bool"
        }
      },
      "getBankComplaints(address)": {
        "params": {
          "_bankAddress": "unique address of the bank"
        },
        "returns": {
          "_0": "uint32 total number of bank complaints"
        }
      },
      "getBankDetails(address)": {
        "params": {
          "_bankAddress": "Unique address of the bank"
        },
        "returns": {
          "_0": "struct Bank"
        }
      },
      "modifyCustomer(string,string)": {
        "params": {
          "_customerName": "Name of the customer",
          "_newCustomerData": "New hash of the updated docs"
        },
        "returns": {
          "_0": "bool"
        }
      },
      "removeDownVoteCustomer(string)": {
        "params": {
          "_customerName": "Name of the customer to be upvoted"
        },
        "returns": {
          "_0": "bool"
        }
      },
      "removeKYCRequest(string)": {
        "params": {
          "_customerName": "The name of the customer for whom KYC is to be removed"
        },
        "returns": {
          "_0": "bool"
        }
      },
      "removeUpVoteCustomer(string)": {
        "params": {
          "_customerName": "Name of the customer to be upvoted"
        },
        "returns": {
          "_0": "bool"
        }
      },
      "upVoteCustomer(string)": {
        "params": {
          "_customerName": "Name of the customer to be upvoted"
        },
        "returns": {
          "_0": "bool"
        }
      },
      "viewCustomer(string)": {
        "params": {
          "_customerName": "Name of the customer"
        },
        "returns": {
          "_0": "struct Customer"
        }
      }
    },
    "version": 1
  },
  "userdoc": {
    "kind": "user",
    "methods": {
      "addCustomer(string,string)": {
        "notice": "Add a new customer"
      },
      "addKYCRequest(string,string)": {
        "notice": "Record a new KYC request on behalf of a customer Bank is the sender of this request"
      },
      "downVoteCustomer(string)": {
        "notice": "Function to add a new down vote for a customer"
      },
      "getBankComplaints(address)": {
        "notice": "View total number of bank complaints"
      },
      "getBankDetails(address)": {
        "notice": "View bank information"
      },
      "modifyCustomer(string,string)": {
        "notice": "Modify customer data"
      },
      "removeDownVoteCustomer(string)": {
        "notice": "Function to remove a down vote for a customer"
      },
      "removeKYCRequest(string)": {
        "notice": "Remove KYC request"
      },
      "removeUpVoteCustomer(string)": {
        "notice": "Function to remove an up vote for a customer"
      },
      "upVoteCustomer(string)": {
        "notice": "Function to add a new up vote for a customer"
      },
      "viewCustomer(string)": {
        "notice": "View customer information"
      }
    },
    "version": 1
  }
}