{
  "contractName": "KYC_Contract",
  "abi": [
    {
      "inputs": [],
      "stateMutability": "nonpayable",
      "type": "constructor"
    },
    {
      "anonymous": false,
      "inputs": [
        {
          "indexed": false,
          "internalType": "string",
          "name": "_customerName",
          "type": "string"
        },
        {
          "indexed": false,
          "internalType": "string",
          "name": "_customerData",
          "type": "string"
        },
        {
          "indexed": false,
          "internalType": "address",
          "name": "validatorBank",
          "type": "address"
        }
      ],
      "name": "AddCustomer",
      "type": "event"
    },
    {
      "anonymous": false,
      "inputs": [
        {
          "indexed": false,
          "internalType": "string",
          "name": "_customerName",
          "type": "string"
        },
        {
          "indexed": false,
          "internalType": "string",
          "name": "_customerData",
          "type": "string"
        },
        {
          "indexed": false,
          "internalType": "address",
          "name": "KYCRequestingBank",
          "type": "address"
        }
      ],
      "name": "AddKYCRequest",
      "type": "event"
    },
    {
      "anonymous": false,
      "inputs": [
        {
          "indexed": false,
          "internalType": "string",
          "name": "_customerName",
          "type": "string"
        },
        {
          "indexed": false,
          "internalType": "address",
          "name": "bankAddress",
          "type": "address"
        }
      ],
      "name": "DownVoteCustomer",
      "type": "event"
    },
    {
      "anonymous": false,
      "inputs": [
        {
          "indexed": false,
          "internalType": "string",
          "name": "_customerName",
          "type": "string"
        },
        {
          "indexed": false,
          "internalType": "string",
          "name": "_newCustomerData",
          "type": "string"
        },
        {
          "indexed": false,
          "internalType": "address",
          "name": "bankAddress",
          "type": "address"
        }
      ],
      "name": "ModifyCustomer",
      "type": "event"
    },
    {
      "anonymous": false,
      "inputs": [
        {
          "indexed": false,
          "internalType": "string",
          "name": "_customerName",
          "type": "string"
        },
        {
          "indexed": false,
          "internalType": "address",
          "name": "bankAddress",
          "type": "address"
        }
      ],
      "name": "RemoveDownVoteCustomer",
      "type": "event"
    },
    {
      "anonymous": false,
      "inputs": [
        {
          "indexed": false,
          "internalType": "string",
          "name": "_customerName",
          "type": "string"
        },
        {
          "indexed": false,
          "internalType": "address",
          "name": "KYCRemovingBank",
          "type": "address"
        }
      ],
      "name": "RemoveKYCRequest",
      "type": "event"
    },
    {
      "anonymous": false,
      "inputs": [
        {
          "indexed": false,
          "internalType": "string",
          "name": "_customerName",
          "type": "string"
        },
        {
          "indexed": false,
          "internalType": "address",
          "name": "bankAddress",
          "type": "address"
        }
      ],
      "name": "RemoveUpVoteCustomer",
      "type": "event"
    },
    {
      "anonymous": false,
      "inputs": [
        {
          "indexed": false,
          "internalType": "address",
          "name": "_bankAddress",
          "type": "address"
        },
        {
          "indexed": false,
          "internalType": "string",
          "name": "bankName",
          "type": "string"
        },
        {
          "indexed": false,
          "internalType": "address",
          "name": "reportingBank",
          "type": "address"
        }
      ],
      "name": "ReportBank",
      "type": "event"
    },
    {
      "anonymous": false,
      "inputs": [
        {
          "indexed": false,
          "internalType": "string",
          "name": "_customerName",
          "type": "string"
        },
        {
          "indexed": false,
          "internalType": "address",
          "name": "bankAddress",
          "type": "address"
        }
      ],
      "name": "UpVoteCustomer",
      "type": "event"
    },
    {
      "inputs": [
        {
          "internalType": "string",
          "name": "_customerName",
          "type": "string"
        },
        {
          "internalType": "string",
          "name": "_customerData",
          "type": "string"
        }
      ],
      "name": "addKYCRequest",
      "outputs": [
        {
          "internalType": "bool",
          "name": "",
          "type": "bool"
        }
      ],
      "stateMutability": "nonpayable",
      "type": "function"
    },
    {
      "inputs": [
        {
          "internalType": "string",
          "name": "_customerName",
          "type": "string"
        }
      ],
      "name": "removeKYCRequest",
      "outputs": [
        {
          "internalType": "bool",
          "name": "",
          "type": "bool"
        }
      ],
      "stateMutability": "nonpayable",
      "type": "function"
    },
    {
      "inputs": [
        {
          "internalType": "string",
          "name": "_customerName",
          "type": "string"
        }
      ],
      "name": "viewCustomer",
      "outputs": [
        {
          "internalType": "string",
          "name": "",
          "type": "string"
        },
        {
          "internalType": "string",
          "name": "",
          "type": "string"
        },
        {
          "internalType": "address",
          "name": "",
          "type": "address"
        },
        {
          "internalType": "uint32",
          "name": "",
          "type": "uint32"
        },
        {
          "internalType": "uint32",
          "name": "",
          "type": "uint32"
        }
      ],
      "stateMutability": "view",
      "type": "function",
      "constant": true
    },
    {
      "inputs": [
        {
          "internalType": "string",
          "name": "_customerName",
          "type": "string"
        },
        {
          "internalType": "string",
          "name": "_customerData",
          "type": "string"
        }
      ],
      "name": "addCustomer",
      "outputs": [
        {
          "internalType": "bool",
          "name": "",
          "type": "bool"
        }
      ],
      "stateMutability": "nonpayable",
      "type": "function"
    },
    {
      "inputs": [
        {
          "internalType": "string",
          "name": "_customerName",
          "type": "string"
        },
        {
          "internalType": "string",
          "name": "_newCustomerData",
          "type": "string"
        }
      ],
      "name": "modifyCustomer",
      "outputs": [
        {
          "internalType": "bool",
          "name": "",
          "type": "bool"
        }
      ],
      "stateMutability": "nonpayable",
      "type": "function"
    },
    {
      "inputs": [
        {
          "internalType": "string",
          "name": "_customerName",
          "type": "string"
        }
      ],
      "name": "upVoteCustomer",
      "outputs": [
        {
          "internalType": "bool",
          "name": "",
          "type": "bool"
        }
      ],
      "stateMutability": "nonpayable",
      "type": "function"
    },
    {
      "inputs": [
        {
          "internalType": "string",
          "name": "_customerName",
          "type": "string"
        }
      ],
      "name": "removeUpVoteCustomer",
      "outputs": [
        {
          "internalType": "bool",
          "name": "",
          "type": "bool"
        }
      ],
      "stateMutability": "nonpayable",
      "type": "function"
    },
    {
      "inputs": [
        {
          "internalType": "string",
          "name": "_customerName",
          "type": "string"
        }
      ],
      "name": "downVoteCustomer",
      "outputs": [
        {
          "internalType": "bool",
          "name": "",
          "type": "bool"
        }
      ],
      "stateMutability": "nonpayable",
      "type": "function"
    },
    {
      "inputs": [
        {
          "internalType": "string",
          "name": "_customerName",
          "type": "string"
        }
      ],
      "name": "removeDownVoteCustomer",
      "outputs": [
        {
          "internalType": "bool",
          "name": "",
          "type": "bool"
        }
      ],
      "stateMutability": "nonpayable",
      "type": "function"
    },
    {
      "inputs": [
        {
          "internalType": "address",
          "name": "_bankAddress",
          "type": "address"
        }
      ],
      "name": "getBankDetails",
      "outputs": [
        {
          "internalType": "string",
          "name": "",
          "type": "string"
        },
        {
          "internalType": "address",
          "name": "",
          "type": "address"
        },
        {
          "internalType": "uint32",
          "name": "",
          "type": "uint32"
        },
        {
          "internalType": "uint32",
          "name": "",
          "type": "uint32"
        },
        {
          "internalType": "bool",
          "name": "",
          "type": "bool"
        },
        {
          "internalType": "string",
          "name": "",
          "type": "string"
        }
      ],
      "stateMutability": "view",
      "type": "function",
      "constant": true
    },
    {
      "inputs": [
        {
          "internalType": "address",
          "name": "_bankAddress",
          "type": "address"
        },
        {
          "internalType": "string",
          "name": "_bankName",
          "type": "string"
        }
      ],
      "name": "reportBank",
      "outputs": [
        {
          "internalType": "bool",
          "name": "",
          "type": "bool"
        }
      ],
      "stateMutability": "nonpayable",
      "type": "function"
    },
    {
      "inputs": [
        {
          "internalType": "address",
          "name": "_bankAddress",
          "type": "address"
        }
      ],
      "name": "getBankComplaints",
      "outputs": [
        {
          "internalType": "uint32",
          "name": "",
          "type": "uint32"
        }
      ],
      "stateMutability": "view",
      "type": "function",
      "constant": true
    }
  ],
  "bytecode": "0x608060405234801561001057600080fd5b50336000806101000a81548173ffffffffffffffffffffffffffffffffffffffff021916908373ffffffffffffffffffffffffffffffffffffffff16021790555061305e806100606000396000f3fe608060405234801561001057600080fd5b50600436106100b45760003560e01c806382e0438a1161007157806382e0438a146101e2578063b238520414610212578063ba03ef3a14610242578063bd561e1414610272578063cae55c3f146102a2578063f72860ca146102d2576100b4565b8063107925bb146100b957806315101e02146100ed5780631e8eba6e146101225780633190abc014610152578063569e64bc146101825780635ec2a7f2146101b2575b600080fd5b6100d360048036038101906100ce91906122e0565b610302565b6040516100e4959493929190612411565b60405180910390f35b6101076004803603810190610102919061249e565b6105cc565b604051610119969594939291906124e6565b60405180910390f35b61013c600480360381019061013791906122e0565b6109b0565b6040516101499190612555565b60405180910390f35b61016c60048036038101906101679190612570565b610c7e565b6040516101799190612555565b60405180910390f35b61019c600480360381019061019791906122e0565b610e40565b6040516101a99190612555565b60405180910390f35b6101cc60048036038101906101c7919061249e565b6110f9565b6040516101d991906125e8565b60405180910390f35b6101fc60048036038101906101f791906122e0565b611225565b6040516102099190612555565b60405180910390f35b61022c60048036038101906102279190612603565b6114de565b6040516102399190612555565b60405180910390f35b61025c600480360381019061025791906122e0565b611676565b6040516102699190612555565b60405180910390f35b61028c60048036038101906102879190612570565b61192f565b6040516102999190612555565b60405180910390f35b6102bc60048036038101906102b791906122e0565b611c65565b6040516102c99190612555565b60405180910390f35b6102ec60048036038101906102e79190612570565b611f1e565b6040516102f99190612555565b60405180910390f35b60608060008060003373ffffffffffffffffffffffffffffffffffffffff16600187604051610331919061269b565b908152602001604051809103902060020160099054906101000a900473ffffffffffffffffffffffffffffffffffffffff1673ffffffffffffffffffffffffffffffffffffffff16146103b9576040517f08c379a00000000000000000000000000000000000000000000000000000000081526004016103b09061274a565b60405180910390fd5b6001866040516103c9919061269b565b90815260200160405180910390206000016001876040516103ea919061269b565b908152602001604051809103902060010160018860405161040b919061269b565b908152602001604051809103902060020160099054906101000a900473ffffffffffffffffffffffffffffffffffffffff1660018960405161044d919061269b565b908152602001604051809103902060020160019054906101000a900463ffffffff1660018a60405161047f919061269b565b908152602001604051809103902060020160059054906101000a900463ffffffff168480546104ad90612799565b80601f01602080910402602001604051908101604052809291908181526020018280546104d990612799565b80156105265780601f106104fb57610100808354040283529160200191610526565b820191906000526020600020905b81548152906001019060200180831161050957829003601f168201915b5050505050945083805461053990612799565b80601f016020809104026020016040519081016040528092919081815260200182805461056590612799565b80156105b25780601f10610587576101008083540402835291602001916105b2565b820191906000526020600020905b81548152906001019060200180831161059557829003601f168201915b505050505093509450945094509450945091939590929450565b606060008060008060608673ffffffffffffffffffffffffffffffffffffffff16600260008973ffffffffffffffffffffffffffffffffffffffff1673ffffffffffffffffffffffffffffffffffffffff16815260200190815260200160002060010160009054906101000a900473ffffffffffffffffffffffffffffffffffffffff1673ffffffffffffffffffffffffffffffffffffffff16146106a6576040517f08c379a000000000000000000000000000000000000000000000000000000000815260040161069d9061283d565b60405180910390fd5b600260008873ffffffffffffffffffffffffffffffffffffffff1673ffffffffffffffffffffffffffffffffffffffff168152602001908152602001600020600001600260008973ffffffffffffffffffffffffffffffffffffffff1673ffffffffffffffffffffffffffffffffffffffff16815260200190815260200160002060010160009054906101000a900473ffffffffffffffffffffffffffffffffffffffff16600260008a73ffffffffffffffffffffffffffffffffffffffff1673ffffffffffffffffffffffffffffffffffffffff16815260200190815260200160002060010160149054906101000a900463ffffffff16600260008b73ffffffffffffffffffffffffffffffffffffffff1673ffffffffffffffffffffffffffffffffffffffff16815260200190815260200160002060010160189054906101000a900463ffffffff16600260008c73ffffffffffffffffffffffffffffffffffffffff1673ffffffffffffffffffffffffffffffffffffffff168152602001908152602001600020600101601c9054906101000a900460ff16600260008d73ffffffffffffffffffffffffffffffffffffffff1673ffffffffffffffffffffffffffffffffffffffff16815260200190815260200160002060020185805461088f90612799565b80601f01602080910402602001604051908101604052809291908181526020018280546108bb90612799565b80156109085780601f106108dd57610100808354040283529160200191610908565b820191906000526020600020905b8154815290600101906020018083116108eb57829003601f168201915b5050505050955080805461091b90612799565b80601f016020809104026020016040519081016040528092919081815260200182805461094790612799565b80156109945780601f1061096957610100808354040283529160200191610994565b820191906000526020600020905b81548152906001019060200180831161097757829003601f168201915b5050505050905095509550955095509550955091939550919395565b60003373ffffffffffffffffffffffffffffffffffffffff166003836040516109d9919061269b565b908152602001604051809103902060020160009054906101000a900473ffffffffffffffffffffffffffffffffffffffff1673ffffffffffffffffffffffffffffffffffffffff1614610a61576040517f08c379a0000000000000000000000000000000000000000000000000000000008152600401610a58906128f5565b60405180910390fd5b610b14600183604051610a74919061269b565b90815260200160405180910390206000018054610a9090612799565b80601f0160208091040260200160405190810160405280929190818152602001828054610abc90612799565b8015610b095780601f10610ade57610100808354040283529160200191610b09565b820191906000526020600020905b815481529060010190602001808311610aec57829003601f168201915b50505050508361204a565b610b53576040517f08c379a0000000000000000000000000000000000000000000000000000000008152600401610b4a906129ad565b60405180910390fd5b600382604051610b63919061269b565b908152602001604051809103902060008082016000610b8291906120a3565b600182016000610b9291906120a3565b6002820160006101000a81549073ffffffffffffffffffffffffffffffffffffffff02191690555050600260003373ffffffffffffffffffffffffffffffffffffffff1673ffffffffffffffffffffffffffffffffffffffff168152602001908152602001600020600101601881819054906101000a900463ffffffff1680929190610c1d906129fc565b91906101000a81548163ffffffff021916908363ffffffff160217905550507f496d5d5434647bc8da1b957c8a39657a0fe5021a5ee01bfb6566ee87c56639dd8233604051610c6d929190612a26565b60405180910390a160019050919050565b60008073ffffffffffffffffffffffffffffffffffffffff16600184604051610ca7919061269b565b908152602001604051809103902060020160099054906101000a900473ffffffffffffffffffffffffffffffffffffffff1673ffffffffffffffffffffffffffffffffffffffff1614610d2f576040517f08c379a0000000000000000000000000000000000000000000000000000000008152600401610d2690612ac8565b60405180910390fd5b82600184604051610d40919061269b565b90815260200160405180910390206000019080519060200190610d649291906120e3565b5081600184604051610d76919061269b565b90815260200160405180910390206001019080519060200190610d9a9291906120e3565b5033600184604051610dac919061269b565b908152602001604051809103902060020160096101000a81548173ffffffffffffffffffffffffffffffffffffffff021916908373ffffffffffffffffffffffffffffffffffffffff1602179055507f720f91ef7267a7db0cf726ddb013dd753364a2e1e65319cd32e1d96c3aa38dbd838333604051610e2e93929190612ae8565b60405180910390a16001905092915050565b6000610ef582600184604051610e56919061269b565b90815260200160405180910390206000018054610e7290612799565b80601f0160208091040260200160405190810160405280929190818152602001828054610e9e90612799565b8015610eeb5780601f10610ec057610100808354040283529160200191610eeb565b820191906000526020600020905b815481529060010190602001808311610ece57829003601f168201915b505050505061204a565b610f34576040517f08c379a0000000000000000000000000000000000000000000000000000000008152600401610f2b90612b9f565b60405180910390fd5b6000600483604051610f46919061269b565b908152602001604051809103902060003373ffffffffffffffffffffffffffffffffffffffff1673ffffffffffffffffffffffffffffffffffffffff16815260200190815260200160002060009054906101000a900460ff1660ff1614610fe2576040517f08c379a0000000000000000000000000000000000000000000000000000000008152600401610fd990612c31565b60405180910390fd5b600182604051610ff2919061269b565b9081526020016040518091039020600201600181819054906101000a900463ffffffff168092919061102390612c51565b91906101000a81548163ffffffff021916908363ffffffff160217905550506001600483604051611054919061269b565b908152602001604051809103902060003373ffffffffffffffffffffffffffffffffffffffff1673ffffffffffffffffffffffffffffffffffffffff16815260200190815260200160002060006101000a81548160ff021916908360ff1602179055507f8204fd0d7ac1bb685e9147e1259497a085786f9ec68e8b44514f432d7d7fdfe182336040516110e8929190612a26565b60405180910390a160019050919050565b60008173ffffffffffffffffffffffffffffffffffffffff16600260008473ffffffffffffffffffffffffffffffffffffffff1673ffffffffffffffffffffffffffffffffffffffff16815260200190815260200160002060010160009054906101000a900473ffffffffffffffffffffffffffffffffffffffff1673ffffffffffffffffffffffffffffffffffffffff16146111cb576040517f08c379a00000000000000000000000000000000000000000000000000000000081526004016111c29061283d565b60405180910390fd5b600260008373ffffffffffffffffffffffffffffffffffffffff1673ffffffffffffffffffffffffffffffffffffffff16815260200190815260200160002060010160149054906101000a900463ffffffff169050919050565b60006112da8260018460405161123b919061269b565b9081526020016040518091039020600001805461125790612799565b80601f016020809104026020016040519081016040528092919081815260200182805461128390612799565b80156112d05780601f106112a5576101008083540402835291602001916112d0565b820191906000526020600020905b8154815290600101906020018083116112b357829003601f168201915b505050505061204a565b611319576040517f08c379a000000000000000000000000000000000000000000000000000000000815260040161131090612b9f565b60405180910390fd5b600060058360405161132b919061269b565b908152602001604051809103902060003373ffffffffffffffffffffffffffffffffffffffff1673ffffffffffffffffffffffffffffffffffffffff16815260200190815260200160002060009054906101000a900460ff1660ff16146113c7576040517f08c379a00000000000000000000000000000000000000000000000000000000081526004016113be90612cf0565b60405180910390fd5b6001826040516113d7919061269b565b9081526020016040518091039020600201600581819054906101000a900463ffffffff168092919061140890612c51565b91906101000a81548163ffffffff021916908363ffffffff160217905550506001600583604051611439919061269b565b908152602001604051809103902060003373ffffffffffffffffffffffffffffffffffffffff1673ffffffffffffffffffffffffffffffffffffffff16815260200190815260200160002060006101000a81548160ff021916908360ff1602179055507ff76612a4db926c845e0a50031eb928cbbf707428872d88840995c7b8da5f414582336040516114cd929190612a26565b60405180910390a160019050919050565b60008273ffffffffffffffffffffffffffffffffffffffff16600260008573ffffffffffffffffffffffffffffffffffffffff1673ffffffffffffffffffffffffffffffffffffffff16815260200190815260200160002060010160009054906101000a900473ffffffffffffffffffffffffffffffffffffffff1673ffffffffffffffffffffffffffffffffffffffff16146115b0576040517f08c379a00000000000000000000000000000000000000000000000000000000081526004016115a79061283d565b60405180910390fd5b600260008473ffffffffffffffffffffffffffffffffffffffff1673ffffffffffffffffffffffffffffffffffffffff168152602001908152602001600020600101601481819054906101000a900463ffffffff168092919061161290612c51565b91906101000a81548163ffffffff021916908363ffffffff160217905550507f93e17474fafdb659d318c8f1cf0170d783e80f6a88ec66516e402ffee87cf6ec83833360405161166493929190612d10565b60405180910390a16001905092915050565b600061172b8260018460405161168c919061269b565b908152602001604051809103902060000180546116a890612799565b80601f01602080910402602001604051908101604052809291908181526020018280546116d490612799565b80156117215780601f106116f657610100808354040283529160200191611721565b820191906000526020600020905b81548152906001019060200180831161170457829003601f168201915b505050505061204a565b61176a576040517f08c379a000000000000000000000000000000000000000000000000000000000815260040161176190612b9f565b60405180910390fd5b600160058360405161177c919061269b565b908152602001604051809103902060003373ffffffffffffffffffffffffffffffffffffffff1673ffffffffffffffffffffffffffffffffffffffff16815260200190815260200160002060009054906101000a900460ff1660ff1614611818576040517f08c379a000000000000000000000000000000000000000000000000000000000815260040161180f90612dc0565b60405180910390fd5b600182604051611828919061269b565b9081526020016040518091039020600201600581819054906101000a900463ffffffff1680929190611859906129fc565b91906101000a81548163ffffffff021916908363ffffffff16021790555050600060058360405161188a919061269b565b908152602001604051809103902060003373ffffffffffffffffffffffffffffffffffffffff1673ffffffffffffffffffffffffffffffffffffffff16815260200190815260200160002060006101000a81548160ff021916908360ff1602179055507f884e374f9a1d1ef39e4f98a04c2a047354902ad3143ff7a278d9937b56e114d0823360405161191e929190612a26565b60405180910390a160019050919050565b60003373ffffffffffffffffffffffffffffffffffffffff16600384604051611958919061269b565b908152602001604051809103902060020160009054906101000a900473ffffffffffffffffffffffffffffffffffffffff1673ffffffffffffffffffffffffffffffffffffffff1614156119e1576040517f08c379a00000000000000000000000000000000000000000000000000000000081526004016119d890612e52565b60405180910390fd5b611a946001846040516119f4919061269b565b90815260200160405180910390206001018054611a1090612799565b80601f0160208091040260200160405190810160405280929190818152602001828054611a3c90612799565b8015611a895780601f10611a5e57610100808354040283529160200191611a89565b820191906000526020600020905b815481529060010190602001808311611a6c57829003601f168201915b50505050508361204a565b611ad3576040517f08c379a0000000000000000000000000000000000000000000000000000000008152600401611aca90612ee4565b60405180910390fd5b82600384604051611ae4919061269b565b90815260200160405180910390206000019080519060200190611b089291906120e3565b5081600384604051611b1a919061269b565b90815260200160405180910390206001019080519060200190611b3e9291906120e3565b5033600384604051611b50919061269b565b908152602001604051809103902060020160006101000a81548173ffffffffffffffffffffffffffffffffffffffff021916908373ffffffffffffffffffffffffffffffffffffffff160217905550600260003373ffffffffffffffffffffffffffffffffffffffff1673ffffffffffffffffffffffffffffffffffffffff168152602001908152602001600020600101601881819054906101000a900463ffffffff1680929190611c0190612c51565b91906101000a81548163ffffffff021916908363ffffffff160217905550507f7fbec8867635bbaab7103c5d6cc8b0ef0767df0159177b6a07b8dbd5afba08cf838333604051611c5393929190612ae8565b60405180910390a16001905092915050565b6000611d1a82600184604051611c7b919061269b565b90815260200160405180910390206000018054611c9790612799565b80601f0160208091040260200160405190810160405280929190818152602001828054611cc390612799565b8015611d105780601f10611ce557610100808354040283529160200191611d10565b820191906000526020600020905b815481529060010190602001808311611cf357829003601f168201915b505050505061204a565b611d59576040517f08c379a0000000000000000000000000000000000000000000000000000000008152600401611d5090612b9f565b60405180910390fd5b6001600483604051611d6b919061269b565b908152602001604051809103902060003373ffffffffffffffffffffffffffffffffffffffff1673ffffffffffffffffffffffffffffffffffffffff16815260200190815260200160002060009054906101000a900460ff1660ff1614611e07576040517f08c379a0000000000000000000000000000000000000000000000000000000008152600401611dfe90612f76565b60405180910390fd5b600182604051611e17919061269b565b9081526020016040518091039020600201600181819054906101000a900463ffffffff1680929190611e48906129fc565b91906101000a81548163ffffffff021916908363ffffffff160217905550506000600483604051611e79919061269b565b908152602001604051809103902060003373ffffffffffffffffffffffffffffffffffffffff1673ffffffffffffffffffffffffffffffffffffffff16815260200190815260200160002060006101000a81548160ff021916908360ff1602179055507fb16a6a90c9dc1e72f7d5f1fd2bb19bfe10570dd0f64cc907ba4561c1b252e9878233604051611f0d929190612a26565b60405180910390a160019050919050565b60003373ffffffffffffffffffffffffffffffffffffffff16600184604051611f47919061269b565b908152602001604051809103902060020160099054906101000a900473ffffffffffffffffffffffffffffffffffffffff1673ffffffffffffffffffffffffffffffffffffffff1614611fcf576040517f08c379a0000000000000000000000000000000000000000000000000000000008152600401611fc690613008565b60405180910390fd5b81600184604051611fe0919061269b565b908152602001604051809103902060010190805190602001906120049291906120e3565b507f31d240a9505c05976d93451a6c6c97988c5719ef448ebed149c0e8e534a4812983833360405161203893929190612ae8565b60405180910390a16001905092915050565b60008160405160200161205d919061269b565b6040516020818303038152906040528051906020012083604051602001612084919061269b565b6040516020818303038152906040528051906020012014905092915050565b5080546120af90612799565b6000825580601f106120c157506120e0565b601f0160209004906000526020600020908101906120df9190612169565b5b50565b8280546120ef90612799565b90600052602060002090601f0160209004810192826121115760008555612158565b82601f1061212a57805160ff1916838001178555612158565b82800160010185558215612158579182015b8281111561215757825182559160200191906001019061213c565b5b5090506121659190612169565b5090565b5b8082111561218257600081600090555060010161216a565b5090565b6000604051905090565b600080fd5b600080fd5b600080fd5b600080fd5b6000601f19601f8301169050919050565b7f4e487b7100000000000000000000000000000000000000000000000000000000600052604160045260246000fd5b6121ed826121a4565b810181811067ffffffffffffffff8211171561220c5761220b6121b5565b5b80604052505050565b600061221f612186565b905061222b82826121e4565b919050565b600067ffffffffffffffff82111561224b5761224a6121b5565b5b612254826121a4565b9050602081019050919050565b82818337600083830152505050565b600061228361227e84612230565b612215565b90508281526020810184848401111561229f5761229e61219f565b5b6122aa848285612261565b509392505050565b600082601f8301126122c7576122c661219a565b5b81356122d7848260208601612270565b91505092915050565b6000602082840312156122f6576122f5612190565b5b600082013567ffffffffffffffff81111561231457612313612195565b5b612320848285016122b2565b91505092915050565b600081519050919050565b600082825260208201905092915050565b60005b83811015612363578082015181840152602081019050612348565b83811115612372576000848401525b50505050565b600061238382612329565b61238d8185612334565b935061239d818560208601612345565b6123a6816121a4565b840191505092915050565b600073ffffffffffffffffffffffffffffffffffffffff82169050919050565b60006123dc826123b1565b9050919050565b6123ec816123d1565b82525050565b600063ffffffff82169050919050565b61240b816123f2565b82525050565b600060a082019050818103600083015261242b8188612378565b9050818103602083015261243f8187612378565b905061244e60408301866123e3565b61245b6060830185612402565b6124686080830184612402565b9695505050505050565b61247b816123d1565b811461248657600080fd5b50565b60008135905061249881612472565b92915050565b6000602082840312156124b4576124b3612190565b5b60006124c284828501612489565b91505092915050565b60008115159050919050565b6124e0816124cb565b82525050565b600060c08201905081810360008301526125008189612378565b905061250f60208301886123e3565b61251c6040830187612402565b6125296060830186612402565b61253660808301856124d7565b81810360a08301526125488184612378565b9050979650505050505050565b600060208201905061256a60008301846124d7565b92915050565b6000806040838503121561258757612586612190565b5b600083013567ffffffffffffffff8111156125a5576125a4612195565b5b6125b1858286016122b2565b925050602083013567ffffffffffffffff8111156125d2576125d1612195565b5b6125de858286016122b2565b9150509250929050565b60006020820190506125fd6000830184612402565b92915050565b6000806040838503121561261a57612619612190565b5b600061262885828601612489565b925050602083013567ffffffffffffffff81111561264957612648612195565b5b612655858286016122b2565b9150509250929050565b600081905092915050565b600061267582612329565b61267f818561265f565b935061268f818560208601612345565b80840191505092915050565b60006126a7828461266a565b915081905092915050565b7f5573657220646f65736e2774206578697374206f6e207468697320646174616260008201527f6173652e2055736520616464437573746f6d657220746f20637265617465207560208201527f7365720000000000000000000000000000000000000000000000000000000000604082015250565b6000612734604383612334565b915061273f826126b2565b606082019050919050565b6000602082019050818103600083015261276381612727565b9050919050565b7f4e487b7100000000000000000000000000000000000000000000000000000000600052602260045260246000fd5b600060028204905060018216806127b157607f821691505b602082108114156127c5576127c461276a565b5b50919050565b7f42616e6b206164647265737320697320696e636f72726563742e204e6f20737560008201527f6368207265636f72642065786973747300000000000000000000000000000000602082015250565b6000612827603083612334565b9150612832826127cb565b604082019050919050565b600060208201905081810360008301526128568161281a565b9050919050565b7f4e6f204b594320726571756573742065786973747320666f722074686973206360008201527f7573746f6d65722e20506c6561736520757365206164644b594352657175657360208201527f742066756e6374696f6e00000000000000000000000000000000000000000000604082015250565b60006128df604a83612334565b91506128ea8261285d565b606082019050919050565b6000602082019050818103600083015261290e816128d2565b9050919050565b7f4e6f20726571756573742065786973747320666f72207468697320637573746f60008201527f6d65722e20506c6561736520757365206164644b59435265717565737420667560208201527f6e6374696f6e0000000000000000000000000000000000000000000000000000604082015250565b6000612997604683612334565b91506129a282612915565b606082019050919050565b600060208201905081810360008301526129c68161298a565b9050919050565b7f4e487b7100000000000000000000000000000000000000000000000000000000600052601160045260246000fd5b6000612a07826123f2565b91506000821415612a1b57612a1a6129cd565b5b600182039050919050565b60006040820190508181036000830152612a408185612378565b9050612a4f60208301846123e3565b9392505050565b7f55736572206578697374732e20506c656173652063616c6c206d6f646966794360008201527f7573746f6d657220746f206d616b6520616e79206368616e6765730000000000602082015250565b6000612ab2603b83612334565b9150612abd82612a56565b604082019050919050565b60006020820190508181036000830152612ae181612aa5565b9050919050565b60006060820190508181036000830152612b028186612378565b90508181036020830152612b168185612378565b9050612b2560408301846123e3565b949350505050565b7f437573746f6d657220646f65736e27742065786973742e20557365206164644360008201527f7573746f6d657220746f20637265617465206e65772075736572000000000000602082015250565b6000612b89603a83612334565b9150612b9482612b2d565b604082019050919050565b60006020820190508181036000830152612bb881612b7c565b9050919050565b7f437573746f6d65722068617320616c7265616479206265656e207570766f746560008201527f6420627920796f752e0000000000000000000000000000000000000000000000602082015250565b6000612c1b602983612334565b9150612c2682612bbf565b604082019050919050565b60006020820190508181036000830152612c4a81612c0e565b9050919050565b6000612c5c826123f2565b915063ffffffff821415612c7357612c726129cd565b5b600182019050919050565b7f437573746f6d65722068617320616c7265616479206265656e20646f776e207660008201527f6f74656420627920796f752e0000000000000000000000000000000000000000602082015250565b6000612cda602c83612334565b9150612ce582612c7e565b604082019050919050565b60006020820190508181036000830152612d0981612ccd565b9050919050565b6000606082019050612d2560008301866123e3565b8181036020830152612d378185612378565b9050612d4660408301846123e3565b949350505050565b7f437573746f6d6572206861736e2774206265656e20646f776e20766f7465642060008201527f627920796f752e2055736520646f776e566f7465437573746f6d65722e000000602082015250565b6000612daa603d83612334565b9150612db582612d4e565b604082019050919050565b60006020820190508181036000830152612dd981612d9d565b9050919050565b7f41204b5943207265717565737420616c72656164792065786973747320666f7260008201527f207468697320757365722066726f6d20746869732062616e6b00000000000000602082015250565b6000612e3c603983612334565b9150612e4782612de0565b604082019050919050565b60006020820190508181036000830152612e6b81612e2f565b9050919050565b7f506c6561736520636865636b20686173682e2054686973207265636f7264206460008201527f6f65736e27742065786973740000000000000000000000000000000000000000602082015250565b6000612ece602c83612334565b9150612ed982612e72565b604082019050919050565b60006020820190508181036000830152612efd81612ec1565b9050919050565b7f437573746f6d6572206861736e2774206265656e207570766f7465642062792060008201527f796f752e20757365207570566f7465437573746f6d6572000000000000000000602082015250565b6000612f60603783612334565b9150612f6b82612f04565b604082019050919050565b60006020820190508181036000830152612f8f81612f53565b9050919050565b7f5573657220646f65736e27742065786973742e20506c656173652063616c6c2060008201527f616464437573746f6d657220746f20637265617465206e657720757365720000602082015250565b6000612ff2603e83612334565b9150612ffd82612f96565b604082019050919050565b6000602082019050818103600083015261302181612fe5565b905091905056fea2646970667358221220f0fa8690a4fec6199826936927be2ff9589d9b475dd949b78907e4cd56fa09ca64736f6c63430008090033",
  "immutableReferences": {},
  "source": "// SPDX-License-Identifier: MIT\n\npragma solidity ^0.8.9;\n\ncontract KYC_Contract {\n    constructor() {\n        admin = msg.sender;\n    }\n\n    address admin;\n\n    modifier onlyAdmin() {\n        require(\n            msg.sender == admin,\n            \"You must have admin priviledges to run this\"\n        );\n        _;\n    }\n\n    struct Customer {\n        string username;\n        // hash that points to customer documents in secure storage\n        string customerData;\n        // status of KYC request. if conditions are met, set to true. else false\n        bool kycRequest;\n        // number of upvotes from other banks to customer data\n        uint32 upVotes;\n        // number of downvotes from other banks to customer data\n        uint32 downVotes;\n        // unique address of the validating bank\n        address validatorBankAddress;\n    }\n\n    struct Bank {\n        string name;\n        // unique ethereum address of the bank\n        address ethAddress;\n        // total complaints against the bank by other banks in the network\n        uint32 complaintsReported;\n        //number of KYC requests initiated by bank\n        uint32 KYC_count;\n        // status. if false, bank cannot up/down vote any more customers\n        bool isAllowedToVote;\n        // registration number of the bank\n        string regNumber;\n    }\n\n    // count of total banks in the network\n    uint32 totalBanks;\n\n    struct KYC_Request {\n        // map KYC request to customer data\n        string username;\n        // hash that points to customer documents in secure storage\n        string customerData;\n        // unique account address of the bank\n        address bankAddress;\n    }\n\n    /* Mappings */\n\n    // customer name to view customer details\n    mapping(string => Customer) customers;\n\n    // unique bank address to view bank details\n    mapping(address => Bank) banks;\n\n    // customer name to view KYC requests\n    mapping(string => KYC_Request) KYC_requests;\n\n    // keep track of up votes for the customer by all the banks in the network\n    mapping(string => mapping(address => uint8)) up_votes;\n\n    // keep track of down votes for the customer by all the banks in the network\n    mapping(string => mapping(address => uint8)) down_votes;\n\n    /* Events */\n\n    event AddKYCRequest(\n        string _customerName,\n        string _customerData,\n        address KYCRequestingBank\n    );\n    event RemoveKYCRequest(string _customerName, address KYCRemovingBank);\n\n    event AddCustomer(\n        string _customerName,\n        string _customerData,\n        address validatorBank\n    );\n    event ModifyCustomer(\n        string _customerName,\n        string _newCustomerData,\n        address bankAddress\n    );\n\n    event UpVoteCustomer(string _customerName, address bankAddress);\n    event RemoveUpVoteCustomer(string _customerName, address bankAddress);\n\n    event DownVoteCustomer(string _customerName, address bankAddress);\n    event RemoveDownVoteCustomer(string _customerName, address bankAddress);\n\n    event ReportBank(\n        address _bankAddress,\n        string bankName,\n        address reportingBank\n    );\n\n    /**\n     * Record a new KYC request on behalf of a customer\n     * Bank is the sender of this request\n     * @param _customerName The name of the customer for whom KYC is to be done\n     * @param _customerData The hash of the customer data being requested\n     * @return bool confirmation that KYC request was added\n     */\n    function addKYCRequest(\n        string memory _customerName,\n        string memory _customerData\n    ) public returns (bool) {\n        // require that the request the bank is making isn't a duplicate\n        require(\n            !(KYC_requests[_customerName].bankAddress == msg.sender),\n            \"A KYC request already exists for this user from this bank\"\n        );\n\n        require(\n            compareStringsbyBytes(\n                customers[_customerName].customerData,\n                _customerData\n            ),\n            \"Please check hash. This record doesn't exist\"\n        );\n\n        // update KYC requests mapping\n        KYC_requests[_customerName].username = _customerName;\n        KYC_requests[_customerName].customerData = _customerData;\n        KYC_requests[_customerName].bankAddress = msg.sender;\n\n        // add KYC requests made by this bank\n        banks[msg.sender].KYC_count++;\n\n        emit AddKYCRequest(_customerName, _customerData, msg.sender);\n        return true;\n    }\n\n    /**\n     * Remove KYC request\n     * @param _customerName The name of the customer for whom KYC is to be removed\n     * @return bool confirmation that KYC request was removed\n     */\n    function removeKYCRequest(string memory _customerName)\n        public\n        returns (bool)\n    {\n        // require that the username in fact exists as a KYC request\n        require(\n            (KYC_requests[_customerName].bankAddress == msg.sender),\n            \"No KYC request exists for this customer. Please use addKYCRequest function\"\n        );\n\n        require(\n            compareStringsbyBytes(\n                customers[_customerName].username,\n                _customerName\n            ),\n            \"No request exists for this customer. Please use addKYCRequest function\"\n        );\n\n        // delete the customer's KYC request\n        delete KYC_requests[_customerName];\n\n        // reduce KYC requests made by this bank\n        banks[msg.sender].KYC_count--;\n\n        emit RemoveKYCRequest(_customerName, msg.sender);\n        return true;\n    }\n\n    /**\n     * View customer information\n     * @param _customerName Name of the customer\n     * @return struct Customer\n     */\n    function viewCustomer(string memory _customerName)\n        public\n        view\n        returns (\n            string memory,\n            string memory,\n            address,\n            uint32,\n            uint32\n        )\n    {\n        require(\n            customers[_customerName].validatorBankAddress ==\n                address(msg.sender),\n            \"User doesn't exist on this database. Use addCustomer to create user\"\n        );\n\n        return (\n            customers[_customerName].username,\n            customers[_customerName].customerData,\n            customers[_customerName].validatorBankAddress,\n            customers[_customerName].upVotes,\n            customers[_customerName].downVotes\n        );\n    }\n\n    /**\n     * Add a new customer\n     * @param _customerName Name of the customer\n     * @param _customerData Hash of the customer docs\n     * @return bool confirmation that user was added\n     */\n    function addCustomer(\n        string memory _customerName,\n        string memory _customerData\n    ) public returns (bool) {\n        require(\n            customers[_customerName].validatorBankAddress == address(0x0),\n            \"User exists. Please call modifyCustomer to make any changes\"\n        );\n\n        customers[_customerName].username = _customerName;\n        customers[_customerName].customerData = _customerData;\n        customers[_customerName].validatorBankAddress = msg.sender;\n\n        emit AddCustomer(_customerName, _customerData, msg.sender);\n        return true;\n    }\n\n    /**\n     * Modify customer data\n     * @param _customerName Name of the customer\n     * @param _newCustomerData New hash of the updated docs\n     * @return bool confirmation that user was modified\n     */\n    function modifyCustomer(\n        string memory _customerName,\n        string memory _newCustomerData\n    ) public returns (bool) {\n        require(\n            customers[_customerName].validatorBankAddress ==\n                address(msg.sender),\n            \"User doesn't exist. Please call addCustomer to create new user\"\n        );\n\n        customers[_customerName].customerData = _newCustomerData;\n\n        emit ModifyCustomer(_customerName, _newCustomerData, msg.sender);\n        return true;\n    }\n\n    /**\n     * Function to add a new up vote for a customer\n     * @param _customerName Name of the customer to be upvoted\n     * @return bool confirmation that up votes were updated\n     */\n    function upVoteCustomer(string memory _customerName) public returns (bool) {\n        require(\n            compareStringsbyBytes(\n                _customerName,\n                customers[_customerName].username\n            ),\n            \"Customer doesn't exist. Use addCustomer to create new user\"\n        );\n\n        require(\n            up_votes[_customerName][msg.sender] == 0,\n            \"Customer has already been upvoted by you.\"\n        );\n\n        // update upVote count\n        customers[_customerName].upVotes++;\n        up_votes[_customerName][msg.sender] = 1;\n\n        emit UpVoteCustomer(_customerName, msg.sender);\n        return true;\n    }\n\n    /**\n     * Function to remove an up vote for a customer\n     * @param _customerName Name of the customer to be upvoted\n     * @return bool confirmation that up votes were updated\n     */\n    function removeUpVoteCustomer(string memory _customerName)\n        public\n        returns (bool)\n    {\n        require(\n            compareStringsbyBytes(\n                _customerName,\n                customers[_customerName].username\n            ),\n            \"Customer doesn't exist. Use addCustomer to create new user\"\n        );\n\n        require(\n            up_votes[_customerName][msg.sender] == 1,\n            \"Customer hasn't been upvoted by you. use upVoteCustomer\"\n        );\n\n        // update upVote count\n        customers[_customerName].upVotes--;\n        up_votes[_customerName][msg.sender] = 0;\n\n        emit RemoveUpVoteCustomer(_customerName, msg.sender);\n        return true;\n    }\n\n    /**\n     * Function to add a new down vote for a customer\n     * @param _customerName Name of the customer to be upvoted\n     * @return bool confirmation that down votes were updated\n     */\n    function downVoteCustomer(string memory _customerName)\n        public\n        returns (bool)\n    {\n        require(\n            compareStringsbyBytes(\n                _customerName,\n                customers[_customerName].username\n            ),\n            \"Customer doesn't exist. Use addCustomer to create new user\"\n        );\n\n        require(\n            down_votes[_customerName][msg.sender] == 0,\n            \"Customer has already been down voted by you.\"\n        );\n\n        // update downVote count\n        customers[_customerName].downVotes++;\n        down_votes[_customerName][msg.sender] = 1;\n\n        emit DownVoteCustomer(_customerName, msg.sender);\n        return true;\n    }\n\n    /**\n     * Function to remove a down vote for a customer\n     * @param _customerName Name of the customer to be upvoted\n     * @return bool confirmation that down votes were updated\n     */\n    function removeDownVoteCustomer(string memory _customerName)\n        public\n        returns (bool)\n    {\n        require(\n            compareStringsbyBytes(\n                _customerName,\n                customers[_customerName].username\n            ),\n            \"Customer doesn't exist. Use addCustomer to create new user\"\n        );\n\n        require(\n            down_votes[_customerName][msg.sender] == 1,\n            \"Customer hasn't been down voted by you. Use downVoteCustomer.\"\n        );\n\n        // update downVote count\n        customers[_customerName].downVotes--;\n        down_votes[_customerName][msg.sender] = 0;\n\n        emit RemoveDownVoteCustomer(_customerName, msg.sender);\n        return true;\n    }\n\n    /**\n     * View bank information\n     * @param _bankAddress Unique address of the bank\n     * @return struct Bank\n     */\n    function getBankDetails(address _bankAddress)\n        public\n        view\n        returns (\n            string memory,\n            address,\n            uint32,\n            uint32,\n            bool,\n            string memory\n        )\n    {\n        require(\n            banks[_bankAddress].ethAddress == _bankAddress,\n            \"Bank address is incorrect. No such record exists\"\n        );\n\n        return (\n            banks[_bankAddress].name,\n            banks[_bankAddress].ethAddress,\n            banks[_bankAddress].complaintsReported,\n            banks[_bankAddress].KYC_count,\n            banks[_bankAddress].isAllowedToVote,\n            banks[_bankAddress].regNumber\n        );\n    }\n\n    /**\n     * Report a complaint against a bank\n     * @param _bankAddress Unique address of the bank\n     * @param _bankName Name of the bank\n     * @return bool confirmation that report was submitted\n     */\n    function reportBank(address _bankAddress, string memory _bankName)\n        public\n        returns (bool)\n    {\n        require(\n            banks[_bankAddress].ethAddress == _bankAddress,\n            \"Bank address is incorrect. No such record exists\"\n        );\n\n        // update count of the complaints reported\n        banks[_bankAddress].complaintsReported++;\n\n        // TODO: update isAllowedToVote status\n\n        emit ReportBank(_bankAddress, _bankName, msg.sender);\n        return true;\n    }\n\n    /**\n     * View total number of bank complaints\n     * @param _bankAddress unique address of the bank\n     * @return uint32 total number of bank complaints\n     */\n    function getBankComplaints(address _bankAddress)\n        public\n        view\n        returns (uint32)\n    {\n        require(\n            banks[_bankAddress].ethAddress == _bankAddress,\n            \"Bank address is incorrect. No such record exists\"\n        );\n\n        return banks[_bankAddress].complaintsReported;\n    }\n\n    // source: https://ethereum.stackexchange.com/questions/45813/compare-strings-in-solidity\n    function compareStringsbyBytes(string memory s1, string memory s2)\n        private\n        pure\n        returns (bool)\n    {\n        return\n            keccak256(abi.encodePacked(s1)) == keccak256(abi.encodePacked(s2));\n    }\n}\n",
  "sourcePath": "/home/dhruv/Desktop/projects/dApp/KYC/contracts/KYC_Contract.sol",
  "compiler": {
    "name": "solc",
    "version": "0.8.9+commit.e5eed63a.Emscripten.clang"
  },
  "schemaVersion": "3.4.3",
  "updatedAt": "2021-12-04T07:20:50.166Z",
  "networkType": "ethereum",
  "devdoc": {
    "kind": "dev",
    "methods": {
      "addCustomer(string,string)": {
        "params": {
          "_customerData": "Hash of the customer docs",
          "_customerName": "Name of the customer"
        },
        "returns": {
          "_0": "bool confirmation that user was added"
        }
      },
      "addKYCRequest(string,string)": {
        "params": {
          "_customerData": "The hash of the customer data being requested",
          "_customerName": "The name of the customer for whom KYC is to be done"
        },
        "returns": {
          "_0": "bool confirmation that KYC request was added"
        }
      },
      "downVoteCustomer(string)": {
        "params": {
          "_customerName": "Name of the customer to be upvoted"
        },
        "returns": {
          "_0": "bool confirmation that down votes were updated"
        }
      },
      "getBankComplaints(address)": {
        "params": {
          "_bankAddress": "unique address of the bank"
        },
        "returns": {
          "_0": "uint32 total number of bank complaints"
        }
      },
      "getBankDetails(address)": {
        "params": {
          "_bankAddress": "Unique address of the bank"
        },
        "returns": {
          "_0": "struct Bank"
        }
      },
      "modifyCustomer(string,string)": {
        "params": {
          "_customerName": "Name of the customer",
          "_newCustomerData": "New hash of the updated docs"
        },
        "returns": {
          "_0": "bool confirmation that user was modified"
        }
      },
      "removeDownVoteCustomer(string)": {
        "params": {
          "_customerName": "Name of the customer to be upvoted"
        },
        "returns": {
          "_0": "bool confirmation that down votes were updated"
        }
      },
      "removeKYCRequest(string)": {
        "params": {
          "_customerName": "The name of the customer for whom KYC is to be removed"
        },
        "returns": {
          "_0": "bool confirmation that KYC request was removed"
        }
      },
      "removeUpVoteCustomer(string)": {
        "params": {
          "_customerName": "Name of the customer to be upvoted"
        },
        "returns": {
          "_0": "bool confirmation that up votes were updated"
        }
      },
      "reportBank(address,string)": {
        "params": {
          "_bankAddress": "Unique address of the bank",
          "_bankName": "Name of the bank"
        },
        "returns": {
          "_0": "bool confirmation that report was submitted"
        }
      },
      "upVoteCustomer(string)": {
        "params": {
          "_customerName": "Name of the customer to be upvoted"
        },
        "returns": {
          "_0": "bool confirmation that up votes were updated"
        }
      },
      "viewCustomer(string)": {
        "params": {
          "_customerName": "Name of the customer"
        },
        "returns": {
          "_0": "struct Customer"
        }
      }
    },
    "version": 1
  },
  "userdoc": {
    "kind": "user",
    "methods": {
      "addCustomer(string,string)": {
        "notice": "Add a new customer"
      },
      "addKYCRequest(string,string)": {
        "notice": "Record a new KYC request on behalf of a customer Bank is the sender of this request"
      },
      "downVoteCustomer(string)": {
        "notice": "Function to add a new down vote for a customer"
      },
      "getBankComplaints(address)": {
        "notice": "View total number of bank complaints"
      },
      "getBankDetails(address)": {
        "notice": "View bank information"
      },
      "modifyCustomer(string,string)": {
        "notice": "Modify customer data"
      },
      "removeDownVoteCustomer(string)": {
        "notice": "Function to remove a down vote for a customer"
      },
      "removeKYCRequest(string)": {
        "notice": "Remove KYC request"
      },
      "removeUpVoteCustomer(string)": {
        "notice": "Function to remove an up vote for a customer"
      },
      "reportBank(address,string)": {
        "notice": "Report a complaint against a bank"
      },
      "upVoteCustomer(string)": {
        "notice": "Function to add a new up vote for a customer"
      },
      "viewCustomer(string)": {
        "notice": "View customer information"
      }
    },
    "version": 1
  }
}