{
  "contractName": "KYC_Contract",
  "abi": [
    {
      "inputs": [],
      "stateMutability": "nonpayable",
      "type": "constructor"
    },
    {
      "anonymous": false,
      "inputs": [
        {
          "indexed": false,
          "internalType": "string",
          "name": "_customerName",
          "type": "string"
        },
        {
          "indexed": false,
          "internalType": "string",
          "name": "_customerData",
          "type": "string"
        }
      ],
      "name": "AddCustomer",
      "type": "event"
    },
    {
      "anonymous": false,
      "inputs": [
        {
          "indexed": false,
          "internalType": "string",
          "name": "_customerName",
          "type": "string"
        },
        {
          "indexed": false,
          "internalType": "string",
          "name": "_customerData",
          "type": "string"
        }
      ],
      "name": "AddKYCRequest",
      "type": "event"
    },
    {
      "anonymous": false,
      "inputs": [
        {
          "indexed": false,
          "internalType": "string",
          "name": "_customerName",
          "type": "string"
        }
      ],
      "name": "DownVoteCustomer",
      "type": "event"
    },
    {
      "anonymous": false,
      "inputs": [
        {
          "indexed": false,
          "internalType": "string",
          "name": "_customerName",
          "type": "string"
        },
        {
          "indexed": false,
          "internalType": "string",
          "name": "_newCustomerData",
          "type": "string"
        }
      ],
      "name": "ModifyCustomer",
      "type": "event"
    },
    {
      "anonymous": false,
      "inputs": [
        {
          "indexed": false,
          "internalType": "string",
          "name": "_customerName",
          "type": "string"
        }
      ],
      "name": "RemoveKYCRequest",
      "type": "event"
    },
    {
      "anonymous": false,
      "inputs": [
        {
          "indexed": false,
          "internalType": "string",
          "name": "_customerName",
          "type": "string"
        }
      ],
      "name": "UpVoteCustomer",
      "type": "event"
    },
    {
      "inputs": [
        {
          "internalType": "string",
          "name": "_customerName",
          "type": "string"
        },
        {
          "internalType": "string",
          "name": "_customerData",
          "type": "string"
        }
      ],
      "name": "addKYCRequest",
      "outputs": [
        {
          "internalType": "bool",
          "name": "",
          "type": "bool"
        }
      ],
      "stateMutability": "nonpayable",
      "type": "function"
    },
    {
      "inputs": [
        {
          "internalType": "string",
          "name": "_customerName",
          "type": "string"
        }
      ],
      "name": "removeKYCRequest",
      "outputs": [
        {
          "internalType": "bool",
          "name": "",
          "type": "bool"
        }
      ],
      "stateMutability": "nonpayable",
      "type": "function"
    },
    {
      "inputs": [
        {
          "internalType": "string",
          "name": "_customerName",
          "type": "string"
        }
      ],
      "name": "viewCustomer",
      "outputs": [
        {
          "internalType": "string",
          "name": "",
          "type": "string"
        },
        {
          "internalType": "string",
          "name": "",
          "type": "string"
        },
        {
          "internalType": "address",
          "name": "",
          "type": "address"
        }
      ],
      "stateMutability": "view",
      "type": "function",
      "constant": true
    },
    {
      "inputs": [
        {
          "internalType": "string",
          "name": "_customerName",
          "type": "string"
        },
        {
          "internalType": "string",
          "name": "_customerData",
          "type": "string"
        }
      ],
      "name": "addCustomer",
      "outputs": [
        {
          "internalType": "bool",
          "name": "",
          "type": "bool"
        }
      ],
      "stateMutability": "nonpayable",
      "type": "function"
    },
    {
      "inputs": [
        {
          "internalType": "string",
          "name": "_customerName",
          "type": "string"
        },
        {
          "internalType": "string",
          "name": "_newCustomerData",
          "type": "string"
        }
      ],
      "name": "modifyCustomer",
      "outputs": [
        {
          "internalType": "bool",
          "name": "",
          "type": "bool"
        }
      ],
      "stateMutability": "nonpayable",
      "type": "function"
    },
    {
      "inputs": [
        {
          "internalType": "string",
          "name": "_customerName",
          "type": "string"
        }
      ],
      "name": "upVoteCustomer",
      "outputs": [
        {
          "internalType": "bool",
          "name": "",
          "type": "bool"
        }
      ],
      "stateMutability": "nonpayable",
      "type": "function"
    },
    {
      "inputs": [
        {
          "internalType": "string",
          "name": "_customerName",
          "type": "string"
        }
      ],
      "name": "downVoteCustomer",
      "outputs": [
        {
          "internalType": "bool",
          "name": "",
          "type": "bool"
        }
      ],
      "stateMutability": "nonpayable",
      "type": "function"
    },
    {
      "inputs": [
        {
          "internalType": "string",
          "name": "s1",
          "type": "string"
        },
        {
          "internalType": "string",
          "name": "s2",
          "type": "string"
        }
      ],
      "name": "compareStringsbyBytes",
      "outputs": [
        {
          "internalType": "bool",
          "name": "",
          "type": "bool"
        }
      ],
      "stateMutability": "pure",
      "type": "function",
      "constant": true
    }
  ],
  "bytecode": "0x608060405234801561001057600080fd5b50336000806101000a81548173ffffffffffffffffffffffffffffffffffffffff021916908373ffffffffffffffffffffffffffffffffffffffff160217905550611c0d806100606000396000f3fe608060405234801561001057600080fd5b50600436106100885760003560e01c806382e0438a1161005b57806382e0438a1461014f578063bd561e141461017f578063e9a734ff146101af578063f72860ca146101df57610088565b8063107925bb1461008d5780631e8eba6e146100bf5780633190abc0146100ef578063569e64bc1461011f575b600080fd5b6100a760048036038101906100a29190611379565b61020f565b6040516100b69392919061148b565b60405180910390f35b6100d960048036038101906100d49190611379565b61046c565b6040516100e691906114eb565b60405180910390f35b61010960048036038101906101049190611506565b610647565b60405161011691906114eb565b60405180910390f35b61013960048036038101906101349190611379565b610807565b60405161014691906114eb565b60405180910390f35b61016960048036038101906101649190611379565b610abf565b60405161017691906114eb565b60405180910390f35b61019960048036038101906101949190611506565b610d77565b6040516101a691906114eb565b60405180910390f35b6101c960048036038101906101c49190611506565b610fb9565b6040516101d691906114eb565b60405180910390f35b6101f960048036038101906101f49190611506565b611012565b60405161020691906114eb565b60405180910390f35b60608060008073ffffffffffffffffffffffffffffffffffffffff1660018560405161023b91906115ba565b908152602001604051809103902060020160099054906101000a900473ffffffffffffffffffffffffffffffffffffffff1673ffffffffffffffffffffffffffffffffffffffff16146102c3576040517f08c379a00000000000000000000000000000000000000000000000000000000081526004016102ba90611643565b60405180910390fd5b6001846040516102d391906115ba565b90815260200160405180910390206000016001856040516102f491906115ba565b908152602001604051809103902060010160018660405161031591906115ba565b908152602001604051809103902060020160099054906101000a900473ffffffffffffffffffffffffffffffffffffffff1682805461035390611692565b80601f016020809104026020016040519081016040528092919081815260200182805461037f90611692565b80156103cc5780601f106103a1576101008083540402835291602001916103cc565b820191906000526020600020905b8154815290600101906020018083116103af57829003601f168201915b505050505092508180546103df90611692565b80601f016020809104026020016040519081016040528092919081815260200182805461040b90611692565b80156104585780601f1061042d57610100808354040283529160200191610458565b820191906000526020600020905b81548152906001019060200180831161043b57829003601f168201915b505050505091509250925092509193909250565b60003373ffffffffffffffffffffffffffffffffffffffff1660038360405161049591906115ba565b908152602001604051809103902060020160009054906101000a900473ffffffffffffffffffffffffffffffffffffffff1673ffffffffffffffffffffffffffffffffffffffff16141561051e576040517f08c379a00000000000000000000000000000000000000000000000000000000081526004016105159061175c565b60405180910390fd5b60038260405161052e91906115ba565b90815260200160405180910390206000808201600061054d919061113c565b60018201600061055d919061113c565b6002820160006101000a81549073ffffffffffffffffffffffffffffffffffffffff02191690555050600260003373ffffffffffffffffffffffffffffffffffffffff1673ffffffffffffffffffffffffffffffffffffffff168152602001908152602001600020600101601881819054906101000a900463ffffffff16809291906105e8906117bb565b91906101000a81548163ffffffff021916908363ffffffff160217905550507f4bba66ef84cb3723d3f4762971f7d47f0e3f7980f014326beafd863bf980ffb48260405161063691906117e5565b60405180910390a160019050919050565b60008073ffffffffffffffffffffffffffffffffffffffff1660018460405161067091906115ba565b908152602001604051809103902060020160099054906101000a900473ffffffffffffffffffffffffffffffffffffffff1673ffffffffffffffffffffffffffffffffffffffff16146106f8576040517f08c379a00000000000000000000000000000000000000000000000000000000081526004016106ef90611879565b60405180910390fd5b8260018460405161070991906115ba565b9081526020016040518091039020600001908051906020019061072d92919061117c565b508160018460405161073f91906115ba565b9081526020016040518091039020600101908051906020019061076392919061117c565b503360018460405161077591906115ba565b908152602001604051809103902060020160096101000a81548173ffffffffffffffffffffffffffffffffffffffff021916908373ffffffffffffffffffffffffffffffffffffffff1602179055507f2b06f997d2898d0de2363f32aa3cd8075c2b64c82055fb37fdd8581d3f613b4483836040516107f5929190611899565b60405180910390a16001905092915050565b60006108bc8260018460405161081d91906115ba565b9081526020016040518091039020600001805461083990611692565b80601f016020809104026020016040519081016040528092919081815260200182805461086590611692565b80156108b25780601f10610887576101008083540402835291602001916108b2565b820191906000526020600020905b81548152906001019060200180831161089557829003601f168201915b5050505050610fb9565b6108fb576040517f08c379a00000000000000000000000000000000000000000000000000000000081526004016108f290611942565b60405180910390fd5b600060048360405161090d91906115ba565b908152602001604051809103902060003373ffffffffffffffffffffffffffffffffffffffff1673ffffffffffffffffffffffffffffffffffffffff16815260200190815260200160002060009054906101000a900460ff1660ff1614156109aa576040517f08c379a00000000000000000000000000000000000000000000000000000000081526004016109a1906119d4565b60405180910390fd5b6001826040516109ba91906115ba565b9081526020016040518091039020600201600181819054906101000a900463ffffffff16809291906109eb906119f4565b91906101000a81548163ffffffff021916908363ffffffff160217905550506001600483604051610a1c91906115ba565b908152602001604051809103902060003373ffffffffffffffffffffffffffffffffffffffff1673ffffffffffffffffffffffffffffffffffffffff16815260200190815260200160002060006101000a81548160ff021916908360ff1602179055507f1e25b243f504f341f67a7c0b763db28d8f99e22de1461639ab14efd9636190c482604051610aae91906117e5565b60405180910390a160019050919050565b6000610b7482600184604051610ad591906115ba565b90815260200160405180910390206000018054610af190611692565b80601f0160208091040260200160405190810160405280929190818152602001828054610b1d90611692565b8015610b6a5780601f10610b3f57610100808354040283529160200191610b6a565b820191906000526020600020905b815481529060010190602001808311610b4d57829003601f168201915b5050505050610fb9565b610bb3576040517f08c379a0000000000000000000000000000000000000000000000000000000008152600401610baa90611942565b60405180910390fd5b6000600583604051610bc591906115ba565b908152602001604051809103902060003373ffffffffffffffffffffffffffffffffffffffff1673ffffffffffffffffffffffffffffffffffffffff16815260200190815260200160002060009054906101000a900460ff1660ff161415610c62576040517f08c379a0000000000000000000000000000000000000000000000000000000008152600401610c5990611a93565b60405180910390fd5b600182604051610c7291906115ba565b9081526020016040518091039020600201600581819054906101000a900463ffffffff1680929190610ca3906119f4565b91906101000a81548163ffffffff021916908363ffffffff160217905550506001600583604051610cd491906115ba565b908152602001604051809103902060003373ffffffffffffffffffffffffffffffffffffffff1673ffffffffffffffffffffffffffffffffffffffff16815260200190815260200160002060006101000a81548160ff021916908360ff1602179055507ffa4a55934da9b7525b5f003e4e0289ae61b842c918abfefa71c416c564d2de4d82604051610d6691906117e5565b60405180910390a160019050919050565b60003373ffffffffffffffffffffffffffffffffffffffff16600384604051610da091906115ba565b908152602001604051809103902060020160009054906101000a900473ffffffffffffffffffffffffffffffffffffffff1673ffffffffffffffffffffffffffffffffffffffff161415610e29576040517f08c379a0000000000000000000000000000000000000000000000000000000008152600401610e2090611b25565b60405180910390fd5b82600384604051610e3a91906115ba565b90815260200160405180910390206000019080519060200190610e5e92919061117c565b5081600384604051610e7091906115ba565b90815260200160405180910390206001019080519060200190610e9492919061117c565b5033600384604051610ea691906115ba565b908152602001604051809103902060020160006101000a81548173ffffffffffffffffffffffffffffffffffffffff021916908373ffffffffffffffffffffffffffffffffffffffff160217905550600260003373ffffffffffffffffffffffffffffffffffffffff1673ffffffffffffffffffffffffffffffffffffffff168152602001908152602001600020600101601881819054906101000a900463ffffffff1680929190610f57906119f4565b91906101000a81548163ffffffff021916908363ffffffff160217905550507fdbd57561554790b59a04e04ad4435d9a876e5bad96da4b3c3bf756d77d8546648383604051610fa7929190611899565b60405180910390a16001905092915050565b600081604051602001610fcc91906115ba565b6040516020818303038152906040528051906020012083604051602001610ff391906115ba565b6040516020818303038152906040528051906020012014905092915050565b60008073ffffffffffffffffffffffffffffffffffffffff1660018460405161103b91906115ba565b908152602001604051809103902060020160099054906101000a900473ffffffffffffffffffffffffffffffffffffffff1673ffffffffffffffffffffffffffffffffffffffff16146110c3576040517f08c379a00000000000000000000000000000000000000000000000000000000081526004016110ba90611bb7565b60405180910390fd5b816001846040516110d491906115ba565b908152602001604051809103902060010190805190602001906110f892919061117c565b507f35fa22c3cbfeda53e8cf27ba959db8820f415885ffe84b4acae0689c8da6b2f1838360405161112a929190611899565b60405180910390a16001905092915050565b50805461114890611692565b6000825580601f1061115a5750611179565b601f0160209004906000526020600020908101906111789190611202565b5b50565b82805461118890611692565b90600052602060002090601f0160209004810192826111aa57600085556111f1565b82601f106111c357805160ff19168380011785556111f1565b828001600101855582156111f1579182015b828111156111f05782518255916020019190600101906111d5565b5b5090506111fe9190611202565b5090565b5b8082111561121b576000816000905550600101611203565b5090565b6000604051905090565b600080fd5b600080fd5b600080fd5b600080fd5b6000601f19601f8301169050919050565b7f4e487b7100000000000000000000000000000000000000000000000000000000600052604160045260246000fd5b6112868261123d565b810181811067ffffffffffffffff821117156112a5576112a461124e565b5b80604052505050565b60006112b861121f565b90506112c4828261127d565b919050565b600067ffffffffffffffff8211156112e4576112e361124e565b5b6112ed8261123d565b9050602081019050919050565b82818337600083830152505050565b600061131c611317846112c9565b6112ae565b90508281526020810184848401111561133857611337611238565b5b6113438482856112fa565b509392505050565b600082601f8301126113605761135f611233565b5b8135611370848260208601611309565b91505092915050565b60006020828403121561138f5761138e611229565b5b600082013567ffffffffffffffff8111156113ad576113ac61122e565b5b6113b98482850161134b565b91505092915050565b600081519050919050565b600082825260208201905092915050565b60005b838110156113fc5780820151818401526020810190506113e1565b8381111561140b576000848401525b50505050565b600061141c826113c2565b61142681856113cd565b93506114368185602086016113de565b61143f8161123d565b840191505092915050565b600073ffffffffffffffffffffffffffffffffffffffff82169050919050565b60006114758261144a565b9050919050565b6114858161146a565b82525050565b600060608201905081810360008301526114a58186611411565b905081810360208301526114b98185611411565b90506114c8604083018461147c565b949350505050565b60008115159050919050565b6114e5816114d0565b82525050565b600060208201905061150060008301846114dc565b92915050565b6000806040838503121561151d5761151c611229565b5b600083013567ffffffffffffffff81111561153b5761153a61122e565b5b6115478582860161134b565b925050602083013567ffffffffffffffff8111156115685761156761122e565b5b6115748582860161134b565b9150509250929050565b600081905092915050565b6000611594826113c2565b61159e818561157e565b93506115ae8185602086016113de565b80840191505092915050565b60006115c68284611589565b915081905092915050565b7f5573657220646f65736e2774206578697374206f6e207468697320646174616260008201527f6173650000000000000000000000000000000000000000000000000000000000602082015250565b600061162d6023836113cd565b9150611638826115d1565b604082019050919050565b6000602082019050818103600083015261165c81611620565b9050919050565b7f4e487b7100000000000000000000000000000000000000000000000000000000600052602260045260246000fd5b600060028204905060018216806116aa57607f821691505b602082108114156116be576116bd611663565b5b50919050565b7f4e6f204b594320726571756573742065786973747320666f722074686973206360008201527f7573746f6d65722e20506c6561736520757365206164644b594352657175657360208201527f742066756e6374696f6e00000000000000000000000000000000000000000000604082015250565b6000611746604a836113cd565b9150611751826116c4565b606082019050919050565b6000602082019050818103600083015261177581611739565b9050919050565b7f4e487b7100000000000000000000000000000000000000000000000000000000600052601160045260246000fd5b600063ffffffff82169050919050565b60006117c6826117ab565b915060008214156117da576117d961177c565b5b600182039050919050565b600060208201905081810360008301526117ff8184611411565b905092915050565b7f55736572206578697374732e20506c656173652063616c6c206d6f646966794360008201527f7573746f6d657220746f206d616b6520616e79206368616e6765730000000000602082015250565b6000611863603b836113cd565b915061186e82611807565b604082019050919050565b6000602082019050818103600083015261189281611856565b9050919050565b600060408201905081810360008301526118b38185611411565b905081810360208301526118c78184611411565b90509392505050565b7f437573746f6d657220646f65736e27742065786973742e20557365206164644360008201527f7573746f6d657220746f20637265617465206e65772075736572000000000000602082015250565b600061192c603a836113cd565b9150611937826118d0565b604082019050919050565b6000602082019050818103600083015261195b8161191f565b9050919050565b7f437573746f6d65722068617320616c7265616479206265656e207570766f746560008201527f6420627920796f752e0000000000000000000000000000000000000000000000602082015250565b60006119be6029836113cd565b91506119c982611962565b604082019050919050565b600060208201905081810360008301526119ed816119b1565b9050919050565b60006119ff826117ab565b915063ffffffff821415611a1657611a1561177c565b5b600182019050919050565b7f437573746f6d65722068617320616c7265616479206265656e20646f776e207660008201527f6f74656420627920796f752e0000000000000000000000000000000000000000602082015250565b6000611a7d602c836113cd565b9150611a8882611a21565b604082019050919050565b60006020820190508181036000830152611aac81611a70565b9050919050565b7f41204b5943207265717565737420616c72656164792065786973747320666f7260008201527f207468697320757365722066726f6d20746869732062616e6b00000000000000602082015250565b6000611b0f6039836113cd565b9150611b1a82611ab3565b604082019050919050565b60006020820190508181036000830152611b3e81611b02565b9050919050565b7f5573657220646f65736e27742065786973742e20506c656173652063616c6c2060008201527f616464437573746f6d657220746f20637265617465206e657720757365720000602082015250565b6000611ba1603e836113cd565b9150611bac82611b45565b604082019050919050565b60006020820190508181036000830152611bd081611b94565b905091905056fea26469706673582212204e91d81172774e21115b3349fbdfa354ba93a6d8ff3c66e7e8901194a673cf6464736f6c63430008090033",
  "immutableReferences": {},
  "source": "// SPDX-License-Identifier: MIT\n\npragma solidity ^0.8.9;\n\ncontract KYC_Contract {\n    constructor() {\n        admin = msg.sender;\n    }\n\n    address admin;\n\n    modifier onlyAdmin() {\n        require(\n            msg.sender == admin,\n            \"You must have admin priviledges to run this\"\n        );\n        _;\n    }\n\n    struct Customer {\n        string username;\n        // hash that points to customer documents in secure storage\n        string customerData;\n        // status of KYC request. if conditions are met, set to true. else false\n        bool kycRequest;\n        // number of upvotes from other banks to customer data\n        uint32 upVotes;\n        // number of downvotes from other banks to customer data\n        uint32 downVotes;\n        // unique address of the validating bank\n        address validatorBankAddress;\n    }\n\n    struct Bank {\n        string name;\n        // unique ethereum address of the bank\n        address ethAddress;\n        // total complaints against the bank by other banks in the network\n        uint32 complaintsReported;\n        //number of KYC requests initiated by bank\n        uint32 KYC_count;\n        // status. if false, bank cannot up/down vote any more customers\n        bool isAllowedToVote;\n        // registration number of the bank\n        string regNumber;\n    }\n\n    // count of total banks in the network\n    uint32 totalBanks;\n\n    struct KYC_Request {\n        // map KYC request to customer data\n        string username;\n        // hash that points to customer documents in secure storage\n        string customerData;\n        // unique account address of the bank\n        address bankAddress;\n    }\n\n    /* Mappings */\n\n    // customer name to view customer details\n    mapping(string => Customer) customers;\n\n    // unique bank address to view bank details\n    mapping(address => Bank) banks;\n\n    // customer name to view KYC requests\n    mapping(string => KYC_Request) KYC_requests;\n\n    // keep track of up votes for the customer by all banks in the network\n    mapping(string => mapping(address => uint8)) up_votes;\n\n    // keep track of down votes for the customer by all banks in the network\n    mapping(string => mapping(address => uint8)) down_votes;\n\n    /* Events */\n\n    event AddKYCRequest(string _customerName, string _customerData);\n    event RemoveKYCRequest(string _customerName);\n    event AddCustomer(string _customerName, string _customerData);\n    event ModifyCustomer(string _customerName, string _newCustomerData);\n    event UpVoteCustomer(string _customerName);\n    event DownVoteCustomer(string _customerName);\n\n    /**\n     * Record a new KYC request on behalf of a customer\n     * Bank is the sender of this request\n     * @param _customerName The name of the customer for whom KYC is to be done\n     * @param _customerData The hash of the customer data being requested\n     * @return bool\n     */\n    function addKYCRequest(\n        string memory _customerName,\n        string memory _customerData\n    ) public returns (bool) {\n        // require that the request the bank is making isn't a duplicate\n        require(\n            !(KYC_requests[_customerName].bankAddress == msg.sender),\n            \"A KYC request already exists for this user from this bank\"\n        );\n\n        // update KYC requests mapping\n        KYC_requests[_customerName].username = _customerName;\n        KYC_requests[_customerName].customerData = _customerData;\n        KYC_requests[_customerName].bankAddress = msg.sender;\n\n        // add KYC requests made by this bank\n        banks[msg.sender].KYC_count++;\n\n        emit AddKYCRequest(_customerName, _customerData);\n        return true;\n    }\n\n    /**\n     * Remove KYC request\n     * @param _customerName The name of the customer for whom KYC is to be removed\n     * @return bool\n     */\n    function removeKYCRequest(string memory _customerName)\n        public\n        returns (bool)\n    {\n        // require that the username in fact exists as a KYC request\n        require(\n            !(KYC_requests[_customerName].bankAddress == msg.sender),\n            \"No KYC request exists for this customer. Please use addKYCRequest function\"\n        );\n\n        // delete the customer's KYC request\n        delete KYC_requests[_customerName];\n\n        // reduce KYC requests made by this bank\n        banks[msg.sender].KYC_count--;\n\n        emit RemoveKYCRequest(_customerName);\n        return true;\n    }\n\n    /**\n     * View customer information\n     * @param _customerName Name of the customer\n     * @return struct Customer - The customer struct as an object\n     */\n    function viewCustomer(string memory _customerName)\n        public\n        view\n        returns (\n            string memory,\n            string memory,\n            address\n        )\n    {\n        require(\n            customers[_customerName].validatorBankAddress == address(0),\n            \"User doesn't exist on this database\"\n        );\n\n        return (\n            customers[_customerName].username,\n            customers[_customerName].customerData,\n            customers[_customerName].validatorBankAddress\n        );\n    }\n\n    /**\n     * Add a new customer\n     * @param _customerName Name of the customer\n     * @param _customerData Hash of the customer docs\n     * @return bool\n     */\n    function addCustomer(\n        string memory _customerName,\n        string memory _customerData\n    ) public returns (bool) {\n        require(\n            customers[_customerName].validatorBankAddress == address(0),\n            \"User exists. Please call modifyCustomer to make any changes\"\n        );\n\n        customers[_customerName].username = _customerName;\n        customers[_customerName].customerData = _customerData;\n        customers[_customerName].validatorBankAddress = msg.sender;\n\n        emit AddCustomer(_customerName, _customerData);\n        return true;\n    }\n\n    /**\n     * Modify customer data\n     * @param _customerName Name of the customer\n     * @param _newCustomerData New hash of the updated docs\n     * @return bool\n     */\n    function modifyCustomer(\n        string memory _customerName,\n        string memory _newCustomerData\n    ) public returns (bool) {\n        require(\n            customers[_customerName].validatorBankAddress == address(0),\n            \"User doesn't exist. Please call addCustomer to create new user\"\n        );\n\n        customers[_customerName].customerData = _newCustomerData;\n\n        emit ModifyCustomer(_customerName, _newCustomerData);\n        return true;\n    }\n\n    /**\n     * Function to add a new upvote from a bank\n     * @param _customerName Name of the customer to be upvoted\n     * @return bool\n     */\n    function upVoteCustomer(string memory _customerName) public returns (bool) {\n        require(\n            compareStringsbyBytes(\n                _customerName,\n                customers[_customerName].username\n            ),\n            \"Customer doesn't exist. Use addCustomer to create new user\"\n        );\n\n        require(\n            up_votes[_customerName][msg.sender] != 0,\n            \"Customer has already been upvoted by you.\"\n        );\n\n        // update upVote count\n        customers[_customerName].upVotes++;\n        up_votes[_customerName][msg.sender] = 1;\n\n        emit UpVoteCustomer(_customerName);\n        return true;\n    }\n\n    /**\n     * Function to add a new upvote from a bank\n     * @param _customerName Name of the customer to be upvoted\n     * @return bool\n     */\n    function downVoteCustomer(string memory _customerName)\n        public\n        returns (bool)\n    {\n        require(\n            compareStringsbyBytes(\n                _customerName,\n                customers[_customerName].username\n            ),\n            \"Customer doesn't exist. Use addCustomer to create new user\"\n        );\n\n        require(\n            down_votes[_customerName][msg.sender] != 0,\n            \"Customer has already been down voted by you.\"\n        );\n\n        // update upVote count\n        customers[_customerName].downVotes++;\n        down_votes[_customerName][msg.sender] = 1;\n\n        emit DownVoteCustomer(_customerName);\n        return true;\n    }\n\n    // source: https://ethereum.stackexchange.com/questions/45813/compare-strings-in-solidity\n    function compareStringsbyBytes(string memory s1, string memory s2)\n        public\n        pure\n        returns (bool)\n    {\n        return\n            keccak256(abi.encodePacked(s1)) == keccak256(abi.encodePacked(s2));\n    }\n}\n",
  "sourcePath": "/home/dhruv/Desktop/projects/dApp/KYC/contracts/KYC_Contract.sol",
  "compiler": {
    "name": "solc",
    "version": "0.8.9+commit.e5eed63a.Emscripten.clang"
  },
  "schemaVersion": "3.4.3",
  "updatedAt": "2021-12-03T16:56:06.525Z",
  "networkType": "ethereum",
  "devdoc": {
    "kind": "dev",
    "methods": {
      "addCustomer(string,string)": {
        "params": {
          "_customerData": "Hash of the customer docs",
          "_customerName": "Name of the customer"
        },
        "returns": {
          "_0": "bool"
        }
      },
      "addKYCRequest(string,string)": {
        "params": {
          "_customerData": "The hash of the customer data being requested",
          "_customerName": "The name of the customer for whom KYC is to be done"
        },
        "returns": {
          "_0": "bool"
        }
      },
      "downVoteCustomer(string)": {
        "params": {
          "_customerName": "Name of the customer to be upvoted"
        },
        "returns": {
          "_0": "bool"
        }
      },
      "modifyCustomer(string,string)": {
        "params": {
          "_customerName": "Name of the customer",
          "_newCustomerData": "New hash of the updated docs"
        },
        "returns": {
          "_0": "bool"
        }
      },
      "removeKYCRequest(string)": {
        "params": {
          "_customerName": "The name of the customer for whom KYC is to be removed"
        },
        "returns": {
          "_0": "bool"
        }
      },
      "upVoteCustomer(string)": {
        "params": {
          "_customerName": "Name of the customer to be upvoted"
        },
        "returns": {
          "_0": "bool"
        }
      },
      "viewCustomer(string)": {
        "params": {
          "_customerName": "Name of the customer"
        },
        "returns": {
          "_0": "struct Customer - The customer struct as an object"
        }
      }
    },
    "version": 1
  },
  "userdoc": {
    "kind": "user",
    "methods": {
      "addCustomer(string,string)": {
        "notice": "Add a new customer"
      },
      "addKYCRequest(string,string)": {
        "notice": "Record a new KYC request on behalf of a customer Bank is the sender of this request"
      },
      "downVoteCustomer(string)": {
        "notice": "Function to add a new upvote from a bank"
      },
      "modifyCustomer(string,string)": {
        "notice": "Modify customer data"
      },
      "removeKYCRequest(string)": {
        "notice": "Remove KYC request"
      },
      "upVoteCustomer(string)": {
        "notice": "Function to add a new upvote from a bank"
      },
      "viewCustomer(string)": {
        "notice": "View customer information"
      }
    },
    "version": 1
  }
}