{
  "contractName": "KYC_Contract",
  "abi": [
    {
      "inputs": [],
      "stateMutability": "nonpayable",
      "type": "constructor"
    },
    {
      "inputs": [],
      "name": "customer",
      "outputs": [
        {
          "internalType": "string",
          "name": "",
          "type": "string"
        }
      ],
      "stateMutability": "view",
      "type": "function",
      "constant": true
    },
    {
      "inputs": [
        {
          "internalType": "string",
          "name": "_customerName",
          "type": "string"
        },
        {
          "internalType": "string",
          "name": "_customerData",
          "type": "string"
        }
      ],
      "name": "addKYCRequest",
      "outputs": [],
      "stateMutability": "nonpayable",
      "type": "function"
    },
    {
      "inputs": [
        {
          "internalType": "string",
          "name": "_customerName",
          "type": "string"
        }
      ],
      "name": "viewCustomer",
      "outputs": [
        {
          "internalType": "string",
          "name": "",
          "type": "string"
        },
        {
          "internalType": "string",
          "name": "",
          "type": "string"
        },
        {
          "internalType": "address",
          "name": "",
          "type": "address"
        }
      ],
      "stateMutability": "view",
      "type": "function",
      "constant": true
    },
    {
      "inputs": [
        {
          "internalType": "string",
          "name": "_customerName",
          "type": "string"
        },
        {
          "internalType": "string",
          "name": "_customerData",
          "type": "string"
        }
      ],
      "name": "addCustomer",
      "outputs": [],
      "stateMutability": "nonpayable",
      "type": "function"
    },
    {
      "inputs": [
        {
          "internalType": "string",
          "name": "_customerName",
          "type": "string"
        },
        {
          "internalType": "string",
          "name": "_newCustomerData",
          "type": "string"
        }
      ],
      "name": "modifyCustomer",
      "outputs": [],
      "stateMutability": "nonpayable",
      "type": "function"
    }
  ],
  "bytecode": "0x60806040523480156200001157600080fd5b506040518060400160405280600381526020017f4142530000000000000000000000000000000000000000000000000000000000815250600190805190602001906200005f92919062000066565b506200017b565b828054620000749062000145565b90600052602060002090601f016020900481019282620000985760008555620000e4565b82601f10620000b357805160ff1916838001178555620000e4565b82800160010185558215620000e4579182015b82811115620000e3578251825591602001919060010190620000c6565b5b509050620000f39190620000f7565b5090565b5b8082111562000112576000816000905550600101620000f8565b5090565b7f4e487b7100000000000000000000000000000000000000000000000000000000600052602260045260246000fd5b600060028204905060018216806200015e57607f821691505b6020821081141562000175576200017462000116565b5b50919050565b610fcf806200018b6000396000f3fe608060405234801561001057600080fd5b50600436106100575760003560e01c8063107925bb1461005c5780632804b2c01461008e5780633190abc0146100ac578063bd561e14146100c8578063f72860ca146100e4575b600080fd5b61007660048036038101906100719190610a2a565b610100565b60405161008593929190610b3c565b60405180910390f35b61009661035d565b6040516100a39190610b81565b60405180910390f35b6100c660048036038101906100c19190610ba3565b6103eb565b005b6100e260048036038101906100dd9190610ba3565b61056b565b005b6100fe60048036038101906100f99190610ba3565b610743565b005b60608060008073ffffffffffffffffffffffffffffffffffffffff1660028560405161012c9190610c57565b908152602001604051809103902060050160009054906101000a900473ffffffffffffffffffffffffffffffffffffffff1673ffffffffffffffffffffffffffffffffffffffff16146101b4576040517f08c379a00000000000000000000000000000000000000000000000000000000081526004016101ab90610ce0565b60405180910390fd5b6002846040516101c49190610c57565b90815260200160405180910390206000016002856040516101e59190610c57565b90815260200160405180910390206001016002866040516102069190610c57565b908152602001604051809103902060050160009054906101000a900473ffffffffffffffffffffffffffffffffffffffff1682805461024490610d2f565b80601f016020809104026020016040519081016040528092919081815260200182805461027090610d2f565b80156102bd5780601f10610292576101008083540402835291602001916102bd565b820191906000526020600020905b8154815290600101906020018083116102a057829003601f168201915b505050505092508180546102d090610d2f565b80601f01602080910402602001604051908101604052809291908181526020018280546102fc90610d2f565b80156103495780601f1061031e57610100808354040283529160200191610349565b820191906000526020600020905b81548152906001019060200180831161032c57829003601f168201915b505050505091509250925092509193909250565b6001805461036a90610d2f565b80601f016020809104026020016040519081016040528092919081815260200182805461039690610d2f565b80156103e35780601f106103b8576101008083540402835291602001916103e3565b820191906000526020600020905b8154815290600101906020018083116103c657829003601f168201915b505050505081565b600073ffffffffffffffffffffffffffffffffffffffff166002836040516104139190610c57565b908152602001604051809103902060050160009054906101000a900473ffffffffffffffffffffffffffffffffffffffff1673ffffffffffffffffffffffffffffffffffffffff161461049b576040517f08c379a000000000000000000000000000000000000000000000000000000000815260040161049290610dd3565b60405180910390fd5b816002836040516104ac9190610c57565b908152602001604051809103902060000190805190602001906104d092919061082d565b50806002836040516104e29190610c57565b9081526020016040518091039020600101908051906020019061050692919061082d565b50336002836040516105189190610c57565b908152602001604051809103902060050160006101000a81548173ffffffffffffffffffffffffffffffffffffffff021916908373ffffffffffffffffffffffffffffffffffffffff1602179055505050565b3373ffffffffffffffffffffffffffffffffffffffff166004836040516105929190610c57565b908152602001604051809103902060020160009054906101000a900473ffffffffffffffffffffffffffffffffffffffff1673ffffffffffffffffffffffffffffffffffffffff16141561061b576040517f08c379a000000000000000000000000000000000000000000000000000000000815260040161061290610e65565b60405180910390fd5b8160048360405161062c9190610c57565b9081526020016040518091039020600001908051906020019061065092919061082d565b50806004836040516106629190610c57565b9081526020016040518091039020600101908051906020019061068692919061082d565b50336004836040516106989190610c57565b908152602001604051809103902060020160006101000a81548173ffffffffffffffffffffffffffffffffffffffff021916908373ffffffffffffffffffffffffffffffffffffffff160217905550600360003373ffffffffffffffffffffffffffffffffffffffff1673ffffffffffffffffffffffffffffffffffffffff168152602001908152602001600020600301600081548092919061073a90610ebe565b91905055505050565b600073ffffffffffffffffffffffffffffffffffffffff1660028360405161076b9190610c57565b908152602001604051809103902060050160009054906101000a900473ffffffffffffffffffffffffffffffffffffffff1673ffffffffffffffffffffffffffffffffffffffff16146107f3576040517f08c379a00000000000000000000000000000000000000000000000000000000081526004016107ea90610f79565b60405180910390fd5b806002836040516108049190610c57565b9081526020016040518091039020600101908051906020019061082892919061082d565b505050565b82805461083990610d2f565b90600052602060002090601f01602090048101928261085b57600085556108a2565b82601f1061087457805160ff19168380011785556108a2565b828001600101855582156108a2579182015b828111156108a1578251825591602001919060010190610886565b5b5090506108af91906108b3565b5090565b5b808211156108cc5760008160009055506001016108b4565b5090565b6000604051905090565b600080fd5b600080fd5b600080fd5b600080fd5b6000601f19601f8301169050919050565b7f4e487b7100000000000000000000000000000000000000000000000000000000600052604160045260246000fd5b610937826108ee565b810181811067ffffffffffffffff82111715610956576109556108ff565b5b80604052505050565b60006109696108d0565b9050610975828261092e565b919050565b600067ffffffffffffffff821115610995576109946108ff565b5b61099e826108ee565b9050602081019050919050565b82818337600083830152505050565b60006109cd6109c88461097a565b61095f565b9050828152602081018484840111156109e9576109e86108e9565b5b6109f48482856109ab565b509392505050565b600082601f830112610a1157610a106108e4565b5b8135610a218482602086016109ba565b91505092915050565b600060208284031215610a4057610a3f6108da565b5b600082013567ffffffffffffffff811115610a5e57610a5d6108df565b5b610a6a848285016109fc565b91505092915050565b600081519050919050565b600082825260208201905092915050565b60005b83811015610aad578082015181840152602081019050610a92565b83811115610abc576000848401525b50505050565b6000610acd82610a73565b610ad78185610a7e565b9350610ae7818560208601610a8f565b610af0816108ee565b840191505092915050565b600073ffffffffffffffffffffffffffffffffffffffff82169050919050565b6000610b2682610afb565b9050919050565b610b3681610b1b565b82525050565b60006060820190508181036000830152610b568186610ac2565b90508181036020830152610b6a8185610ac2565b9050610b796040830184610b2d565b949350505050565b60006020820190508181036000830152610b9b8184610ac2565b905092915050565b60008060408385031215610bba57610bb96108da565b5b600083013567ffffffffffffffff811115610bd857610bd76108df565b5b610be4858286016109fc565b925050602083013567ffffffffffffffff811115610c0557610c046108df565b5b610c11858286016109fc565b9150509250929050565b600081905092915050565b6000610c3182610a73565b610c3b8185610c1b565b9350610c4b818560208601610a8f565b80840191505092915050565b6000610c638284610c26565b915081905092915050565b7f5573657220646f65736e2774206578697374206f6e207468697320646174616260008201527f6173650000000000000000000000000000000000000000000000000000000000602082015250565b6000610cca602383610a7e565b9150610cd582610c6e565b604082019050919050565b60006020820190508181036000830152610cf981610cbd565b9050919050565b7f4e487b7100000000000000000000000000000000000000000000000000000000600052602260045260246000fd5b60006002820490506001821680610d4757607f821691505b60208210811415610d5b57610d5a610d00565b5b50919050565b7f55736572206578697374732e20506c656173652063616c6c206d6f646966794360008201527f7573746f6d657220746f206d616b6520616e79206368616e6765730000000000602082015250565b6000610dbd603b83610a7e565b9150610dc882610d61565b604082019050919050565b60006020820190508181036000830152610dec81610db0565b9050919050565b7f41204b5943207265717565737420616c72656164792065786973747320666f7260008201527f207468697320757365722066726f6d20746869732062616e6b00000000000000602082015250565b6000610e4f603983610a7e565b9150610e5a82610df3565b604082019050919050565b60006020820190508181036000830152610e7e81610e42565b9050919050565b7f4e487b7100000000000000000000000000000000000000000000000000000000600052601160045260246000fd5b6000819050919050565b6000610ec982610eb4565b91507fffffffffffffffffffffffffffffffffffffffffffffffffffffffffffffffff821415610efc57610efb610e85565b5b600182019050919050565b7f5573657220646f65736e27742065786973742e20506c656173652063616c6c2060008201527f616464437573746f6d657220746f20637265617465206e657720757365720000602082015250565b6000610f63603e83610a7e565b9150610f6e82610f07565b604082019050919050565b60006020820190508181036000830152610f9281610f56565b905091905056fea2646970667358221220f485d45520f795a72a530ba4e5ccdcc544e79dd42f6cdf3c70ccb66d58dfbce164736f6c63430008090033",
  "immutableReferences": {},
  "source": "// SPDX-License-Identifier: MIT\n\npragma solidity ^0.8.9;\n\ncontract KYC_Contract {\n    struct Customer {\n        string username;\n        // hash that points to customer documents in secure storage\n        string customerData;\n        // status of KYC request. if conditions are met, set to true. else false\n        bool kycRequest;\n        // number of upvotes from other banks to customer data\n        uint256 upVotes;\n        // number of downvotes from other banks to customer data\n        uint256 downVotes;\n        // unique address of the validating bank\n        address validatorBankAddress;\n    }\n\n    struct Bank {\n        string name;\n        // unique ethereum address of the bank\n        address ethAddress;\n        // total complaints against the bank by other banks in the network\n        uint256 complaintsReported;\n        //number of KYC requests initiated by bank\n        uint256 KYC_count;\n        // status. if false, bank cannot up/down vote any more customers\n        bool isAllowedToVote;\n        // registration number of the bank\n        string regNumber;\n    }\n\n    // count of total banks in the network\n    uint256 totalBanks;\n\n\n    struct KYC_Request {\n        // map KYC request to customer data\n        string username;\n        // hash that points to customer documents in secure storage\n        string customerData;\n        // unique account address of the bank\n        address bankAddress;\n    }\n\n    string public customer;\n\n    // customer name to view customer details\n    mapping(string => Customer) customers;\n\n    // unique bank address to view bank details\n    mapping(address => Bank) banks;\n\n    // customer document hash to view kyc requests\n    mapping(string => KYC_Request) KYCrequests;\n\n    constructor() {\n        customer = \"ABS\";\n    }\n\n    /*\n     * Record a new KYC request on behalf of a customer\n     * Bank is the sender of this request\n     * @param {string}   _customerName The name of the customer for whom KYC is to be done\n     * @param {string}  _customerData The hash of the customer data being requested\n     */\n    function addKYCRequest(\n        string memory _customerName,\n        string memory _customerData\n    ) public {\n        // require that the request the bank is making isn't a duplicate\n        require(\n            !(KYCrequests[_customerName].bankAddress == msg.sender),\n            \"A KYC request already exists for this user from this bank\"\n        );\n\n        // update KYC requests mapping\n        KYCrequests[_customerName].username = _customerName;\n        KYCrequests[_customerName].customerData = _customerData;\n        KYCrequests[_customerName].bankAddress = msg.sender;\n\n        // add KYC requests made by this bank\n        banks[msg.sender].KYC_count++;\n    }\n\n    /*\n     * View customer information\n     * @param  {public}  _customerName Name of the customer\n     * @return {Customer} The customer struct as an object\n     */\n    function viewCustomer(string memory _customerName)\n        public\n        view\n        returns (\n            string memory,\n            string memory,\n            address\n        )\n    {\n        require(\n            customers[_customerName].validatorBankAddress == address(0),\n            \"User doesn't exist on this database\"\n        );\n\n        return (\n            customers[_customerName].username,\n            customers[_customerName].customerData,\n            customers[_customerName].validatorBankAddress\n        );\n    }\n\n    /*\n     * Add a new customer\n     * @param {string} _userName Name of the customer\n     * @param {string} _customerData Hash of the customer docs\n     */\n    function addCustomer(\n        string memory _customerName,\n        string memory _customerData\n    ) public {\n        require(\n            customers[_customerName].validatorBankAddress == address(0),\n            \"User exists. Please call modifyCustomer to make any changes\"\n        );\n\n        customers[_customerName].username = _customerName;\n        customers[_customerName].customerData = _customerData;\n        customers[_customerName].validatorBankAddress = msg.sender;\n    }\n\n    /*\n     * Modify customer data\n     * @param  {string} _customerName Name of the customer\n     * @param  {string} _newCustomerData New hash of the updated docs\n     */\n    function modifyCustomer(\n        string memory _customerName,\n        string memory _newCustomerData\n    ) public {\n        require(\n            customers[_customerName].validatorBankAddress == address(0),\n            \"User doesn't exist. Please call addCustomer to create new user\"\n        );\n\n        customers[_customerName].customerData = _newCustomerData;\n    }\n}\n",
  "sourcePath": "/home/dhruv/Desktop/projects/dApp/KYC/contracts/KYC_Contract.sol",
  "compiler": {
    "name": "solc",
    "version": "0.8.9+commit.e5eed63a.Emscripten.clang"
  },
  "schemaVersion": "3.4.3",
  "updatedAt": "2021-12-03T14:41:25.855Z",
  "networkType": "ethereum",
  "devdoc": {
    "kind": "dev",
    "methods": {},
    "version": 1
  },
  "userdoc": {
    "kind": "user",
    "methods": {},
    "version": 1
  }
}