{
  "contractName": "KYC_Contract",
  "abi": [
    {
      "inputs": [],
      "stateMutability": "nonpayable",
      "type": "constructor"
    },
    {
      "anonymous": false,
      "inputs": [
        {
          "indexed": false,
          "internalType": "string",
          "name": "_bankName",
          "type": "string"
        },
        {
          "indexed": false,
          "internalType": "address",
          "name": "_bankAddress",
          "type": "address"
        },
        {
          "indexed": false,
          "internalType": "string",
          "name": "_bankRegistration",
          "type": "string"
        },
        {
          "indexed": false,
          "internalType": "uint32",
          "name": "_complaintsReported",
          "type": "uint32"
        },
        {
          "indexed": false,
          "internalType": "bool",
          "name": "_KYCPermission",
          "type": "bool"
        }
      ],
      "name": "AddBank",
      "type": "event"
    },
    {
      "anonymous": false,
      "inputs": [
        {
          "indexed": false,
          "internalType": "string",
          "name": "_customerName",
          "type": "string"
        },
        {
          "indexed": false,
          "internalType": "string",
          "name": "_customerData",
          "type": "string"
        },
        {
          "indexed": false,
          "internalType": "address",
          "name": "validatorBank",
          "type": "address"
        }
      ],
      "name": "AddCustomer",
      "type": "event"
    },
    {
      "anonymous": false,
      "inputs": [
        {
          "indexed": false,
          "internalType": "string",
          "name": "_customerName",
          "type": "string"
        },
        {
          "indexed": false,
          "internalType": "string",
          "name": "_customerData",
          "type": "string"
        },
        {
          "indexed": false,
          "internalType": "address",
          "name": "KYCRequestingBank",
          "type": "address"
        }
      ],
      "name": "AddKYCRequest",
      "type": "event"
    },
    {
      "anonymous": false,
      "inputs": [
        {
          "indexed": false,
          "internalType": "string",
          "name": "_customerName",
          "type": "string"
        },
        {
          "indexed": false,
          "internalType": "bool",
          "name": "_KYCStatus",
          "type": "bool"
        }
      ],
      "name": "CustomerKYCStatus",
      "type": "event"
    },
    {
      "anonymous": false,
      "inputs": [
        {
          "indexed": false,
          "internalType": "string",
          "name": "_customerName",
          "type": "string"
        },
        {
          "indexed": false,
          "internalType": "address",
          "name": "bankAddress",
          "type": "address"
        }
      ],
      "name": "DownVoteCustomer",
      "type": "event"
    },
    {
      "anonymous": false,
      "inputs": [
        {
          "indexed": false,
          "internalType": "string",
          "name": "_customerName",
          "type": "string"
        },
        {
          "indexed": false,
          "internalType": "string",
          "name": "_newCustomerData",
          "type": "string"
        },
        {
          "indexed": false,
          "internalType": "address",
          "name": "bankAddress",
          "type": "address"
        }
      ],
      "name": "ModifyCustomer",
      "type": "event"
    },
    {
      "anonymous": false,
      "inputs": [
        {
          "indexed": false,
          "internalType": "address",
          "name": "_bankAddress",
          "type": "address"
        },
        {
          "indexed": false,
          "internalType": "bool",
          "name": "_isAllowedToVote",
          "type": "bool"
        }
      ],
      "name": "ModifyIfBankAllowedToVote",
      "type": "event"
    },
    {
      "anonymous": false,
      "inputs": [
        {
          "indexed": false,
          "internalType": "address",
          "name": "_bankAddress",
          "type": "address"
        }
      ],
      "name": "RemoveBank",
      "type": "event"
    },
    {
      "anonymous": false,
      "inputs": [
        {
          "indexed": false,
          "internalType": "string",
          "name": "_customerName",
          "type": "string"
        },
        {
          "indexed": false,
          "internalType": "address",
          "name": "bankAddress",
          "type": "address"
        }
      ],
      "name": "RemoveDownVoteCustomer",
      "type": "event"
    },
    {
      "anonymous": false,
      "inputs": [
        {
          "indexed": false,
          "internalType": "string",
          "name": "_customerName",
          "type": "string"
        },
        {
          "indexed": false,
          "internalType": "address",
          "name": "KYCRemovingBank",
          "type": "address"
        }
      ],
      "name": "RemoveKYCRequest",
      "type": "event"
    },
    {
      "anonymous": false,
      "inputs": [
        {
          "indexed": false,
          "internalType": "string",
          "name": "_customerName",
          "type": "string"
        },
        {
          "indexed": false,
          "internalType": "address",
          "name": "bankAddress",
          "type": "address"
        }
      ],
      "name": "RemoveUpVoteCustomer",
      "type": "event"
    },
    {
      "anonymous": false,
      "inputs": [
        {
          "indexed": false,
          "internalType": "address",
          "name": "_bankAddress",
          "type": "address"
        },
        {
          "indexed": false,
          "internalType": "address",
          "name": "reportingBank",
          "type": "address"
        },
        {
          "indexed": false,
          "internalType": "bool",
          "name": "isAllowedToVote",
          "type": "bool"
        }
      ],
      "name": "ReportBank",
      "type": "event"
    },
    {
      "anonymous": false,
      "inputs": [
        {
          "indexed": false,
          "internalType": "string",
          "name": "_customerName",
          "type": "string"
        },
        {
          "indexed": false,
          "internalType": "address",
          "name": "bankAddress",
          "type": "address"
        }
      ],
      "name": "UpVoteCustomer",
      "type": "event"
    },
    {
      "inputs": [
        {
          "internalType": "string",
          "name": "_customerName",
          "type": "string"
        },
        {
          "internalType": "string",
          "name": "_customerData",
          "type": "string"
        }
      ],
      "name": "addKYCRequest",
      "outputs": [
        {
          "internalType": "bool",
          "name": "",
          "type": "bool"
        }
      ],
      "stateMutability": "nonpayable",
      "type": "function"
    },
    {
      "inputs": [
        {
          "internalType": "string",
          "name": "_customerName",
          "type": "string"
        }
      ],
      "name": "removeKYCRequest",
      "outputs": [
        {
          "internalType": "bool",
          "name": "",
          "type": "bool"
        }
      ],
      "stateMutability": "nonpayable",
      "type": "function"
    },
    {
      "inputs": [
        {
          "internalType": "string",
          "name": "_customerName",
          "type": "string"
        }
      ],
      "name": "viewCustomer",
      "outputs": [
        {
          "internalType": "string",
          "name": "",
          "type": "string"
        },
        {
          "internalType": "string",
          "name": "",
          "type": "string"
        },
        {
          "internalType": "address",
          "name": "",
          "type": "address"
        },
        {
          "internalType": "uint32",
          "name": "",
          "type": "uint32"
        },
        {
          "internalType": "uint32",
          "name": "",
          "type": "uint32"
        }
      ],
      "stateMutability": "view",
      "type": "function",
      "constant": true
    },
    {
      "inputs": [
        {
          "internalType": "string",
          "name": "_customerName",
          "type": "string"
        },
        {
          "internalType": "string",
          "name": "_customerData",
          "type": "string"
        }
      ],
      "name": "addCustomer",
      "outputs": [
        {
          "internalType": "bool",
          "name": "",
          "type": "bool"
        }
      ],
      "stateMutability": "nonpayable",
      "type": "function"
    },
    {
      "inputs": [
        {
          "internalType": "string",
          "name": "_customerName",
          "type": "string"
        },
        {
          "internalType": "string",
          "name": "_newCustomerData",
          "type": "string"
        }
      ],
      "name": "modifyCustomer",
      "outputs": [
        {
          "internalType": "bool",
          "name": "",
          "type": "bool"
        }
      ],
      "stateMutability": "nonpayable",
      "type": "function"
    },
    {
      "inputs": [
        {
          "internalType": "string",
          "name": "_customerName",
          "type": "string"
        }
      ],
      "name": "upVoteCustomer",
      "outputs": [
        {
          "internalType": "bool",
          "name": "",
          "type": "bool"
        }
      ],
      "stateMutability": "nonpayable",
      "type": "function"
    },
    {
      "inputs": [
        {
          "internalType": "string",
          "name": "_customerName",
          "type": "string"
        }
      ],
      "name": "removeUpVoteCustomer",
      "outputs": [
        {
          "internalType": "bool",
          "name": "",
          "type": "bool"
        }
      ],
      "stateMutability": "nonpayable",
      "type": "function"
    },
    {
      "inputs": [
        {
          "internalType": "string",
          "name": "_customerName",
          "type": "string"
        }
      ],
      "name": "downVoteCustomer",
      "outputs": [
        {
          "internalType": "bool",
          "name": "",
          "type": "bool"
        }
      ],
      "stateMutability": "nonpayable",
      "type": "function"
    },
    {
      "inputs": [
        {
          "internalType": "string",
          "name": "_customerName",
          "type": "string"
        }
      ],
      "name": "removeDownVoteCustomer",
      "outputs": [
        {
          "internalType": "bool",
          "name": "",
          "type": "bool"
        }
      ],
      "stateMutability": "nonpayable",
      "type": "function"
    },
    {
      "inputs": [
        {
          "internalType": "address",
          "name": "_bankAddress",
          "type": "address"
        }
      ],
      "name": "getBankDetails",
      "outputs": [
        {
          "internalType": "string",
          "name": "",
          "type": "string"
        },
        {
          "internalType": "address",
          "name": "",
          "type": "address"
        },
        {
          "internalType": "uint32",
          "name": "",
          "type": "uint32"
        },
        {
          "internalType": "uint32",
          "name": "",
          "type": "uint32"
        },
        {
          "internalType": "bool",
          "name": "",
          "type": "bool"
        },
        {
          "internalType": "string",
          "name": "",
          "type": "string"
        }
      ],
      "stateMutability": "view",
      "type": "function",
      "constant": true
    },
    {
      "inputs": [
        {
          "internalType": "address",
          "name": "_bankAddress",
          "type": "address"
        }
      ],
      "name": "reportBank",
      "outputs": [
        {
          "internalType": "bool",
          "name": "",
          "type": "bool"
        }
      ],
      "stateMutability": "nonpayable",
      "type": "function"
    },
    {
      "inputs": [
        {
          "internalType": "address",
          "name": "_bankAddress",
          "type": "address"
        }
      ],
      "name": "getBankComplaints",
      "outputs": [
        {
          "internalType": "uint32",
          "name": "",
          "type": "uint32"
        }
      ],
      "stateMutability": "view",
      "type": "function",
      "constant": true
    },
    {
      "inputs": [
        {
          "internalType": "string",
          "name": "_bankName",
          "type": "string"
        },
        {
          "internalType": "address",
          "name": "_bankAddress",
          "type": "address"
        },
        {
          "internalType": "string",
          "name": "_bankRegistration",
          "type": "string"
        }
      ],
      "name": "addBank",
      "outputs": [
        {
          "internalType": "bool",
          "name": "",
          "type": "bool"
        }
      ],
      "stateMutability": "nonpayable",
      "type": "function"
    },
    {
      "inputs": [
        {
          "internalType": "address",
          "name": "_bankAddress",
          "type": "address"
        },
        {
          "internalType": "bool",
          "name": "_isAllowedToVote",
          "type": "bool"
        }
      ],
      "name": "modifyIfBankAllowedToVote",
      "outputs": [
        {
          "internalType": "bool",
          "name": "",
          "type": "bool"
        }
      ],
      "stateMutability": "nonpayable",
      "type": "function"
    },
    {
      "inputs": [
        {
          "internalType": "address",
          "name": "_bankAddress",
          "type": "address"
        }
      ],
      "name": "removeBank",
      "outputs": [
        {
          "internalType": "bool",
          "name": "",
          "type": "bool"
        }
      ],
      "stateMutability": "nonpayable",
      "type": "function"
    }
  ],
  "bytecode": "0x608060405234801561001057600080fd5b50336000806101000a81548173ffffffffffffffffffffffffffffffffffffffff021916908373ffffffffffffffffffffffffffffffffffffffff160217905550615389806100606000396000f3fe608060405234801561001057600080fd5b50600436106100f55760003560e01c80639649650c11610097578063bd561e1411610066578063bd561e1414610313578063cae55c3f14610343578063ccfa8e7114610373578063f72860ca146103a3576100f5565b80639649650c14610253578063a5a4980014610283578063b7d12190146102b3578063ba03ef3a146102e3576100f5565b80633190abc0116100d35780633190abc014610193578063569e64bc146101c35780635ec2a7f2146101f357806382e0438a14610223576100f5565b8063107925bb146100fa57806315101e021461012e5780631e8eba6e14610163575b600080fd5b610114600480360381019061010f9190613e45565b6103d3565b604051610125959493929190613f76565b60405180910390f35b61014860048036038101906101439190614003565b610773565b60405161015a9695949392919061404b565b60405180910390f35b61017d60048036038101906101789190613e45565b610bea565b60405161018a91906140ba565b60405180910390f35b6101ad60048036038101906101a891906140d5565b610f4b565b6040516101ba91906140ba565b60405180910390f35b6101dd60048036038101906101d89190613e45565b6111ac565b6040516101ea91906140ba565b60405180910390f35b61020d60048036038101906102089190614003565b6116a2565b60405161021a919061414d565b60405180910390f35b61023d60048036038101906102389190613e45565b611861565b60405161024a91906140ba565b60405180910390f35b61026d60048036038101906102689190614003565b611d57565b60405161027a91906140ba565b60405180910390f35b61029d60048036038101906102989190614003565b611fc3565b6040516102aa91906140ba565b60405180910390f35b6102cd60048036038101906102c89190614194565b612333565b6040516102da91906140ba565b60405180910390f35b6102fd60048036038101906102f89190613e45565b612531565b60405161030a91906140ba565b60405180910390f35b61032d600480360381019061032891906140d5565b612979565b60405161033a91906140ba565b60405180910390f35b61035d60048036038101906103589190613e45565b612caf565b60405161036a91906140ba565b60405180910390f35b61038d600480360381019061038891906141d4565b6130f7565b60405161039a91906140ba565b60405180910390f35b6103bd60048036038101906103b891906140d5565b6136a0565b6040516103ca91906140ba565b60405180910390f35b606080600080600060011515600760003373ffffffffffffffffffffffffffffffffffffffff1673ffffffffffffffffffffffffffffffffffffffff16815260200190815260200160002060009054906101000a900460ff1615151461046e576040517f08c379a0000000000000000000000000000000000000000000000000000000008152600401610465906142d1565b60405180910390fd5b61052186600188604051610482919061432d565b9081526020016040518091039020600001805461049e90614373565b80601f01602080910402602001604051908101604052809291908181526020018280546104ca90614373565b80156105175780601f106104ec57610100808354040283529160200191610517565b820191906000526020600020905b8154815290600101906020018083116104fa57829003601f168201915b5050505050613995565b610560576040517f08c379a000000000000000000000000000000000000000000000000000000000815260040161055790614417565b60405180910390fd5b600186604051610570919061432d565b9081526020016040518091039020600001600187604051610591919061432d565b90815260200160405180910390206001016001886040516105b2919061432d565b908152602001604051809103902060020160099054906101000a900473ffffffffffffffffffffffffffffffffffffffff166001896040516105f4919061432d565b908152602001604051809103902060020160019054906101000a900463ffffffff1660018a604051610626919061432d565b908152602001604051809103902060020160059054906101000a900463ffffffff1684805461065490614373565b80601f016020809104026020016040519081016040528092919081815260200182805461068090614373565b80156106cd5780601f106106a2576101008083540402835291602001916106cd565b820191906000526020600020905b8154815290600101906020018083116106b057829003601f168201915b505050505094508380546106e090614373565b80601f016020809104026020016040519081016040528092919081815260200182805461070c90614373565b80156107595780601f1061072e57610100808354040283529160200191610759565b820191906000526020600020905b81548152906001019060200180831161073c57829003601f168201915b505050505093509450945094509450945091939590929450565b6060600080600080606060011515600760003373ffffffffffffffffffffffffffffffffffffffff1673ffffffffffffffffffffffffffffffffffffffff16815260200190815260200160002060009054906101000a900460ff16151514610810576040517f08c379a0000000000000000000000000000000000000000000000000000000008152600401610807906142d1565b60405180910390fd5b8673ffffffffffffffffffffffffffffffffffffffff16600260008973ffffffffffffffffffffffffffffffffffffffff1673ffffffffffffffffffffffffffffffffffffffff16815260200190815260200160002060010160009054906101000a900473ffffffffffffffffffffffffffffffffffffffff1673ffffffffffffffffffffffffffffffffffffffff16146108e0576040517f08c379a00000000000000000000000000000000000000000000000000000000081526004016108d7906144a9565b60405180910390fd5b600260008873ffffffffffffffffffffffffffffffffffffffff1673ffffffffffffffffffffffffffffffffffffffff168152602001908152602001600020600001600260008973ffffffffffffffffffffffffffffffffffffffff1673ffffffffffffffffffffffffffffffffffffffff16815260200190815260200160002060010160009054906101000a900473ffffffffffffffffffffffffffffffffffffffff16600260008a73ffffffffffffffffffffffffffffffffffffffff1673ffffffffffffffffffffffffffffffffffffffff16815260200190815260200160002060010160149054906101000a900463ffffffff16600260008b73ffffffffffffffffffffffffffffffffffffffff1673ffffffffffffffffffffffffffffffffffffffff16815260200190815260200160002060010160189054906101000a900463ffffffff16600260008c73ffffffffffffffffffffffffffffffffffffffff1673ffffffffffffffffffffffffffffffffffffffff168152602001908152602001600020600101601c9054906101000a900460ff16600260008d73ffffffffffffffffffffffffffffffffffffffff1673ffffffffffffffffffffffffffffffffffffffff168152602001908152602001600020600201858054610ac990614373565b80601f0160208091040260200160405190810160405280929190818152602001828054610af590614373565b8015610b425780601f10610b1757610100808354040283529160200191610b42565b820191906000526020600020905b815481529060010190602001808311610b2557829003601f168201915b50505050509550808054610b5590614373565b80601f0160208091040260200160405190810160405280929190818152602001828054610b8190614373565b8015610bce5780601f10610ba357610100808354040283529160200191610bce565b820191906000526020600020905b815481529060010190602001808311610bb157829003601f168201915b5050505050905095509550955095509550955091939550919395565b600060011515600760003373ffffffffffffffffffffffffffffffffffffffff1673ffffffffffffffffffffffffffffffffffffffff16815260200190815260200160002060009054906101000a900460ff16151514610c7f576040517f08c379a0000000000000000000000000000000000000000000000000000000008152600401610c76906142d1565b60405180910390fd5b3373ffffffffffffffffffffffffffffffffffffffff16600383604051610ca6919061432d565b908152602001604051809103902060020160009054906101000a900473ffffffffffffffffffffffffffffffffffffffff1673ffffffffffffffffffffffffffffffffffffffff1614610d2e576040517f08c379a0000000000000000000000000000000000000000000000000000000008152600401610d2590614561565b60405180910390fd5b610de1600183604051610d41919061432d565b90815260200160405180910390206000018054610d5d90614373565b80601f0160208091040260200160405190810160405280929190818152602001828054610d8990614373565b8015610dd65780601f10610dab57610100808354040283529160200191610dd6565b820191906000526020600020905b815481529060010190602001808311610db957829003601f168201915b505050505083613995565b610e20576040517f08c379a0000000000000000000000000000000000000000000000000000000008152600401610e1790614619565b60405180910390fd5b600382604051610e30919061432d565b908152602001604051809103902060008082016000610e4f9190613c08565b600182016000610e5f9190613c08565b6002820160006101000a81549073ffffffffffffffffffffffffffffffffffffffff02191690555050600260003373ffffffffffffffffffffffffffffffffffffffff1673ffffffffffffffffffffffffffffffffffffffff168152602001908152602001600020600101601881819054906101000a900463ffffffff1680929190610eea90614668565b91906101000a81548163ffffffff021916908363ffffffff160217905550507f496d5d5434647bc8da1b957c8a39657a0fe5021a5ee01bfb6566ee87c56639dd8233604051610f3a929190614692565b60405180910390a160019050919050565b600060011515600760003373ffffffffffffffffffffffffffffffffffffffff1673ffffffffffffffffffffffffffffffffffffffff16815260200190815260200160002060009054906101000a900460ff16151514610fe0576040517f08c379a0000000000000000000000000000000000000000000000000000000008152600401610fd7906142d1565b60405180910390fd5b600073ffffffffffffffffffffffffffffffffffffffff16600184604051611008919061432d565b908152602001604051809103902060020160099054906101000a900473ffffffffffffffffffffffffffffffffffffffff1673ffffffffffffffffffffffffffffffffffffffff1614611090576040517f08c379a000000000000000000000000000000000000000000000000000000000815260040161108790614734565b60405180910390fd5b826001846040516110a1919061432d565b908152602001604051809103902060000190805190602001906110c5929190613c48565b50816001846040516110d7919061432d565b908152602001604051809103902060010190805190602001906110fb929190613c48565b503360018460405161110d919061432d565b908152602001604051809103902060020160096101000a81548173ffffffffffffffffffffffffffffffffffffffff021916908373ffffffffffffffffffffffffffffffffffffffff1602179055506111668383612979565b507f720f91ef7267a7db0cf726ddb013dd753364a2e1e65319cd32e1d96c3aa38dbd83833360405161119a93929190614754565b60405180910390a16001905092915050565b600060011515600760003373ffffffffffffffffffffffffffffffffffffffff1673ffffffffffffffffffffffffffffffffffffffff16815260200190815260200160002060009054906101000a900460ff16151514611241576040517f08c379a0000000000000000000000000000000000000000000000000000000008152600401611238906142d1565b60405180910390fd5b6112f482600184604051611255919061432d565b9081526020016040518091039020600001805461127190614373565b80601f016020809104026020016040519081016040528092919081815260200182805461129d90614373565b80156112ea5780601f106112bf576101008083540402835291602001916112ea565b820191906000526020600020905b8154815290600101906020018083116112cd57829003601f168201915b5050505050613995565b611333576040517f08c379a000000000000000000000000000000000000000000000000000000000815260040161132a90614417565b60405180910390fd5b6113e6600383604051611346919061432d565b9081526020016040518091039020600001805461136290614373565b80601f016020809104026020016040519081016040528092919081815260200182805461138e90614373565b80156113db5780601f106113b0576101008083540402835291602001916113db565b820191906000526020600020905b8154815290600101906020018083116113be57829003601f168201915b505050505083613995565b611425576040517f08c379a000000000000000000000000000000000000000000000000000000000815260040161141c9061480b565b60405180910390fd5b6000600483604051611437919061432d565b908152602001604051809103902060003373ffffffffffffffffffffffffffffffffffffffff1673ffffffffffffffffffffffffffffffffffffffff16815260200190815260200160002060009054906101000a900460ff1660ff16146114d3576040517f08c379a00000000000000000000000000000000000000000000000000000000081526004016114ca9061489d565b60405180910390fd5b60016005836040516114e5919061432d565b908152602001604051809103902060003373ffffffffffffffffffffffffffffffffffffffff1673ffffffffffffffffffffffffffffffffffffffff16815260200190815260200160002060009054906101000a900460ff1660ff1614611581576040517f08c379a000000000000000000000000000000000000000000000000000000000815260040161157890614955565b60405180910390fd5b600182604051611591919061432d565b9081526020016040518091039020600201600181819054906101000a900463ffffffff16809291906115c290614975565b91906101000a81548163ffffffff021916908363ffffffff1602179055505060016004836040516115f3919061432d565b908152602001604051809103902060003373ffffffffffffffffffffffffffffffffffffffff1673ffffffffffffffffffffffffffffffffffffffff16815260200190815260200160002060006101000a81548160ff021916908360ff16021790555061165f826139ee565b507f8204fd0d7ac1bb685e9147e1259497a085786f9ec68e8b44514f432d7d7fdfe18233604051611691929190614692565b60405180910390a160019050919050565b600060011515600760003373ffffffffffffffffffffffffffffffffffffffff1673ffffffffffffffffffffffffffffffffffffffff16815260200190815260200160002060009054906101000a900460ff16151514611737576040517f08c379a000000000000000000000000000000000000000000000000000000000815260040161172e906142d1565b60405180910390fd5b8173ffffffffffffffffffffffffffffffffffffffff16600260008473ffffffffffffffffffffffffffffffffffffffff1673ffffffffffffffffffffffffffffffffffffffff16815260200190815260200160002060010160009054906101000a900473ffffffffffffffffffffffffffffffffffffffff1673ffffffffffffffffffffffffffffffffffffffff1614611807576040517f08c379a00000000000000000000000000000000000000000000000000000000081526004016117fe906144a9565b60405180910390fd5b600260008373ffffffffffffffffffffffffffffffffffffffff1673ffffffffffffffffffffffffffffffffffffffff16815260200190815260200160002060010160149054906101000a900463ffffffff169050919050565b600060011515600760003373ffffffffffffffffffffffffffffffffffffffff1673ffffffffffffffffffffffffffffffffffffffff16815260200190815260200160002060009054906101000a900460ff161515146118f6576040517f08c379a00000000000000000000000000000000000000000000000000000000081526004016118ed906142d1565b60405180910390fd5b6119a98260018460405161190a919061432d565b9081526020016040518091039020600001805461192690614373565b80601f016020809104026020016040519081016040528092919081815260200182805461195290614373565b801561199f5780601f106119745761010080835404028352916020019161199f565b820191906000526020600020905b81548152906001019060200180831161198257829003601f168201915b5050505050613995565b6119e8576040517f08c379a00000000000000000000000000000000000000000000000000000000081526004016119df90614417565b60405180910390fd5b611a9b6003836040516119fb919061432d565b90815260200160405180910390206000018054611a1790614373565b80601f0160208091040260200160405190810160405280929190818152602001828054611a4390614373565b8015611a905780601f10611a6557610100808354040283529160200191611a90565b820191906000526020600020905b815481529060010190602001808311611a7357829003601f168201915b505050505083613995565b611ada576040517f08c379a0000000000000000000000000000000000000000000000000000000008152600401611ad190614a14565b60405180910390fd5b6000600583604051611aec919061432d565b908152602001604051809103902060003373ffffffffffffffffffffffffffffffffffffffff1673ffffffffffffffffffffffffffffffffffffffff16815260200190815260200160002060009054906101000a900460ff1660ff1614611b88576040517f08c379a0000000000000000000000000000000000000000000000000000000008152600401611b7f90614aa6565b60405180910390fd5b6001600483604051611b9a919061432d565b908152602001604051809103902060003373ffffffffffffffffffffffffffffffffffffffff1673ffffffffffffffffffffffffffffffffffffffff16815260200190815260200160002060009054906101000a900460ff1660ff1614611c36576040517f08c379a0000000000000000000000000000000000000000000000000000000008152600401611c2d90614b5e565b60405180910390fd5b600182604051611c46919061432d565b9081526020016040518091039020600201600581819054906101000a900463ffffffff1680929190611c7790614975565b91906101000a81548163ffffffff021916908363ffffffff160217905550506001600583604051611ca8919061432d565b908152602001604051809103902060003373ffffffffffffffffffffffffffffffffffffffff1673ffffffffffffffffffffffffffffffffffffffff16815260200190815260200160002060006101000a81548160ff021916908360ff160217905550611d14826139ee565b507ff76612a4db926c845e0a50031eb928cbbf707428872d88840995c7b8da5f41458233604051611d46929190614692565b60405180910390a160019050919050565b60008060009054906101000a900473ffffffffffffffffffffffffffffffffffffffff1673ffffffffffffffffffffffffffffffffffffffff163373ffffffffffffffffffffffffffffffffffffffff1614611de8576040517f08c379a0000000000000000000000000000000000000000000000000000000008152600401611ddf90614bf0565b60405180910390fd5b8173ffffffffffffffffffffffffffffffffffffffff16600260008473ffffffffffffffffffffffffffffffffffffffff1673ffffffffffffffffffffffffffffffffffffffff16815260200190815260200160002060010160009054906101000a900473ffffffffffffffffffffffffffffffffffffffff1673ffffffffffffffffffffffffffffffffffffffff1614611eb8576040517f08c379a0000000000000000000000000000000000000000000000000000000008152600401611eaf906144a9565b60405180910390fd5b600260008373ffffffffffffffffffffffffffffffffffffffff1673ffffffffffffffffffffffffffffffffffffffff16815260200190815260200160002060008082016000611f089190613c08565b6001820160006101000a81549073ffffffffffffffffffffffffffffffffffffffff02191690556001820160146101000a81549063ffffffff02191690556001820160186101000a81549063ffffffff021916905560018201601c6101000a81549060ff0219169055600282016000611f819190613c08565b50507f6767608704ef368658d85df2d4ab099786fa097072ca3721d0be392020360a7e82604051611fb29190614c10565b60405180910390a160019050919050565b600060011515600760003373ffffffffffffffffffffffffffffffffffffffff1673ffffffffffffffffffffffffffffffffffffffff16815260200190815260200160002060009054906101000a900460ff16151514612058576040517f08c379a000000000000000000000000000000000000000000000000000000000815260040161204f906142d1565b60405180910390fd5b8173ffffffffffffffffffffffffffffffffffffffff16600260008473ffffffffffffffffffffffffffffffffffffffff1673ffffffffffffffffffffffffffffffffffffffff16815260200190815260200160002060010160009054906101000a900473ffffffffffffffffffffffffffffffffffffffff1673ffffffffffffffffffffffffffffffffffffffff1614612128576040517f08c379a000000000000000000000000000000000000000000000000000000000815260040161211f906144a9565b60405180910390fd5b600260008373ffffffffffffffffffffffffffffffffffffffff1673ffffffffffffffffffffffffffffffffffffffff168152602001908152602001600020600101601481819054906101000a900463ffffffff168092919061218a90614975565b91906101000a81548163ffffffff021916908363ffffffff1602179055505060006064600260008573ffffffffffffffffffffffffffffffffffffffff1673ffffffffffffffffffffffffffffffffffffffff16815260200190815260200160002060010160149054906101000a900463ffffffff1661220a9190614c2b565b905060008060149054906101000a900463ffffffff16602161222c9190614c2b565b90508063ffffffff168263ffffffff16111561229e576000600260008673ffffffffffffffffffffffffffffffffffffffff1673ffffffffffffffffffffffffffffffffffffffff168152602001908152602001600020600101601c6101000a81548160ff0219169083151502179055505b7f65f47f0fa74a4b8d006ccd51dc625d47139721a7906092a96e0333d7bd684cd18433600260008873ffffffffffffffffffffffffffffffffffffffff1673ffffffffffffffffffffffffffffffffffffffff168152602001908152602001600020600101601c9054906101000a900460ff1660405161232093929190614c69565b60405180910390a1600192505050919050565b60008060009054906101000a900473ffffffffffffffffffffffffffffffffffffffff1673ffffffffffffffffffffffffffffffffffffffff163373ffffffffffffffffffffffffffffffffffffffff16146123c4576040517f08c379a00000000000000000000000000000000000000000000000000000000081526004016123bb90614bf0565b60405180910390fd5b8273ffffffffffffffffffffffffffffffffffffffff16600260008573ffffffffffffffffffffffffffffffffffffffff1673ffffffffffffffffffffffffffffffffffffffff16815260200190815260200160002060010160009054906101000a900473ffffffffffffffffffffffffffffffffffffffff1673ffffffffffffffffffffffffffffffffffffffff1614612494576040517f08c379a000000000000000000000000000000000000000000000000000000000815260040161248b906144a9565b60405180910390fd5b81600260008573ffffffffffffffffffffffffffffffffffffffff1673ffffffffffffffffffffffffffffffffffffffff168152602001908152602001600020600101601c6101000a81548160ff0219169083151502179055507f1562979b03fccfb5bb5189a02f4dbef9f48c35bf52a47c09e23271e92ed7bcc3838360405161251f929190614ca0565b60405180910390a16001905092915050565b600060011515600760003373ffffffffffffffffffffffffffffffffffffffff1673ffffffffffffffffffffffffffffffffffffffff16815260200190815260200160002060009054906101000a900460ff161515146125c6576040517f08c379a00000000000000000000000000000000000000000000000000000000081526004016125bd906142d1565b60405180910390fd5b612679826001846040516125da919061432d565b908152602001604051809103902060000180546125f690614373565b80601f016020809104026020016040519081016040528092919081815260200182805461262290614373565b801561266f5780601f106126445761010080835404028352916020019161266f565b820191906000526020600020905b81548152906001019060200180831161265257829003601f168201915b5050505050613995565b6126b8576040517f08c379a00000000000000000000000000000000000000000000000000000000081526004016126af90614417565b60405180910390fd5b61276b6003836040516126cb919061432d565b908152602001604051809103902060000180546126e790614373565b80601f016020809104026020016040519081016040528092919081815260200182805461271390614373565b80156127605780601f1061273557610100808354040283529160200191612760565b820191906000526020600020905b81548152906001019060200180831161274357829003601f168201915b505050505083613995565b6127aa576040517f08c379a00000000000000000000000000000000000000000000000000000000081526004016127a190614d3b565b60405180910390fd5b60016005836040516127bc919061432d565b908152602001604051809103902060003373ffffffffffffffffffffffffffffffffffffffff1673ffffffffffffffffffffffffffffffffffffffff16815260200190815260200160002060009054906101000a900460ff1660ff1614612858576040517f08c379a000000000000000000000000000000000000000000000000000000000815260040161284f90614dcd565b60405180910390fd5b600182604051612868919061432d565b9081526020016040518091039020600201600581819054906101000a900463ffffffff168092919061289990614668565b91906101000a81548163ffffffff021916908363ffffffff1602179055505060006005836040516128ca919061432d565b908152602001604051809103902060003373ffffffffffffffffffffffffffffffffffffffff1673ffffffffffffffffffffffffffffffffffffffff16815260200190815260200160002060006101000a81548160ff021916908360ff160217905550612936826139ee565b507f884e374f9a1d1ef39e4f98a04c2a047354902ad3143ff7a278d9937b56e114d08233604051612968929190614692565b60405180910390a160019050919050565b60003373ffffffffffffffffffffffffffffffffffffffff166003846040516129a2919061432d565b908152602001604051809103902060020160009054906101000a900473ffffffffffffffffffffffffffffffffffffffff1673ffffffffffffffffffffffffffffffffffffffff161415612a2b576040517f08c379a0000000000000000000000000000000000000000000000000000000008152600401612a2290614e5f565b60405180910390fd5b612ade600184604051612a3e919061432d565b90815260200160405180910390206001018054612a5a90614373565b80601f0160208091040260200160405190810160405280929190818152602001828054612a8690614373565b8015612ad35780601f10612aa857610100808354040283529160200191612ad3565b820191906000526020600020905b815481529060010190602001808311612ab657829003601f168201915b505050505083613995565b612b1d576040517f08c379a0000000000000000000000000000000000000000000000000000000008152600401612b1490614ef1565b60405180910390fd5b82600384604051612b2e919061432d565b90815260200160405180910390206000019080519060200190612b52929190613c48565b5081600384604051612b64919061432d565b90815260200160405180910390206001019080519060200190612b88929190613c48565b5033600384604051612b9a919061432d565b908152602001604051809103902060020160006101000a81548173ffffffffffffffffffffffffffffffffffffffff021916908373ffffffffffffffffffffffffffffffffffffffff160217905550600260003373ffffffffffffffffffffffffffffffffffffffff1673ffffffffffffffffffffffffffffffffffffffff168152602001908152602001600020600101601881819054906101000a900463ffffffff1680929190612c4b90614975565b91906101000a81548163ffffffff021916908363ffffffff160217905550507f7fbec8867635bbaab7103c5d6cc8b0ef0767df0159177b6a07b8dbd5afba08cf838333604051612c9d93929190614754565b60405180910390a16001905092915050565b600060011515600760003373ffffffffffffffffffffffffffffffffffffffff1673ffffffffffffffffffffffffffffffffffffffff16815260200190815260200160002060009054906101000a900460ff16151514612d44576040517f08c379a0000000000000000000000000000000000000000000000000000000008152600401612d3b906142d1565b60405180910390fd5b612df782600184604051612d58919061432d565b90815260200160405180910390206000018054612d7490614373565b80601f0160208091040260200160405190810160405280929190818152602001828054612da090614373565b8015612ded5780601f10612dc257610100808354040283529160200191612ded565b820191906000526020600020905b815481529060010190602001808311612dd057829003601f168201915b5050505050613995565b612e36576040517f08c379a0000000000000000000000000000000000000000000000000000000008152600401612e2d90614417565b60405180910390fd5b612ee9600383604051612e49919061432d565b90815260200160405180910390206000018054612e6590614373565b80601f0160208091040260200160405190810160405280929190818152602001828054612e9190614373565b8015612ede5780601f10612eb357610100808354040283529160200191612ede565b820191906000526020600020905b815481529060010190602001808311612ec157829003601f168201915b505050505083613995565b612f28576040517f08c379a0000000000000000000000000000000000000000000000000000000008152600401612f1f90614f83565b60405180910390fd5b6001600483604051612f3a919061432d565b908152602001604051809103902060003373ffffffffffffffffffffffffffffffffffffffff1673ffffffffffffffffffffffffffffffffffffffff16815260200190815260200160002060009054906101000a900460ff1660ff1614612fd6576040517f08c379a0000000000000000000000000000000000000000000000000000000008152600401612fcd90615015565b60405180910390fd5b600182604051612fe6919061432d565b9081526020016040518091039020600201600181819054906101000a900463ffffffff168092919061301790614668565b91906101000a81548163ffffffff021916908363ffffffff160217905550506000600483604051613048919061432d565b908152602001604051809103902060003373ffffffffffffffffffffffffffffffffffffffff1673ffffffffffffffffffffffffffffffffffffffff16815260200190815260200160002060006101000a81548160ff021916908360ff1602179055506130b4826139ee565b507fb16a6a90c9dc1e72f7d5f1fd2bb19bfe10570dd0f64cc907ba4561c1b252e98782336040516130e6929190614692565b60405180910390a160019050919050565b60008060009054906101000a900473ffffffffffffffffffffffffffffffffffffffff1673ffffffffffffffffffffffffffffffffffffffff163373ffffffffffffffffffffffffffffffffffffffff1614613188576040517f08c379a000000000000000000000000000000000000000000000000000000000815260040161317f90614bf0565b60405180910390fd5b60001515600760008573ffffffffffffffffffffffffffffffffffffffff1673ffffffffffffffffffffffffffffffffffffffff16815260200190815260200160002060009054906101000a900460ff1615151461321b576040517f08c379a000000000000000000000000000000000000000000000000000000000815260040161321290615081565b60405180910390fd5b6000151560068360405161322f919061432d565b908152602001604051809103902060009054906101000a900460ff1615151461328d576040517f08c379a000000000000000000000000000000000000000000000000000000000815260040161328490615139565b60405180910390fd5b600015156008856040516132a1919061432d565b908152602001604051809103902060009054906101000a900460ff161515146132ff576040517f08c379a00000000000000000000000000000000000000000000000000000000081526004016132f6906151cb565b60405180910390fd5b83600260008573ffffffffffffffffffffffffffffffffffffffff1673ffffffffffffffffffffffffffffffffffffffff1681526020019081526020016000206000019080519060200190613355929190613c48565b5082600260008573ffffffffffffffffffffffffffffffffffffffff1673ffffffffffffffffffffffffffffffffffffffff16815260200190815260200160002060010160006101000a81548173ffffffffffffffffffffffffffffffffffffffff021916908373ffffffffffffffffffffffffffffffffffffffff1602179055506000600260008573ffffffffffffffffffffffffffffffffffffffff1673ffffffffffffffffffffffffffffffffffffffff16815260200190815260200160002060010160146101000a81548163ffffffff021916908363ffffffff1602179055506000600260008573ffffffffffffffffffffffffffffffffffffffff1673ffffffffffffffffffffffffffffffffffffffff16815260200190815260200160002060010160186101000a81548163ffffffff021916908363ffffffff1602179055506001600260008573ffffffffffffffffffffffffffffffffffffffff1673ffffffffffffffffffffffffffffffffffffffff168152602001908152602001600020600101601c6101000a81548160ff02191690831515021790555081600260008573ffffffffffffffffffffffffffffffffffffffff1673ffffffffffffffffffffffffffffffffffffffff168152602001908152602001600020600201908051906020019061354c929190613c48565b50600160068360405161355f919061432d565b908152602001604051809103902060006101000a81548160ff0219169083151502179055506001600760008573ffffffffffffffffffffffffffffffffffffffff1673ffffffffffffffffffffffffffffffffffffffff16815260200190815260200160002060006101000a81548160ff02191690831515021790555060016008856040516135ee919061432d565b908152602001604051809103902060006101000a81548160ff0219169083151502179055506000601481819054906101000a900463ffffffff168092919061363590614975565b91906101000a81548163ffffffff021916908363ffffffff160217905550507fdc6397ebcff1d3cd4d51b023f775b4c6c94fd13339bc330fd0275673b618974b8484846000600160405161368d959493929190615230565b60405180910390a1600190509392505050565b600060011515600760003373ffffffffffffffffffffffffffffffffffffffff1673ffffffffffffffffffffffffffffffffffffffff16815260200190815260200160002060009054906101000a900460ff16151514613735576040517f08c379a000000000000000000000000000000000000000000000000000000000815260040161372c906142d1565b60405180910390fd5b6137e883600185604051613749919061432d565b9081526020016040518091039020600001805461376590614373565b80601f016020809104026020016040519081016040528092919081815260200182805461379190614373565b80156137de5780601f106137b3576101008083540402835291602001916137de565b820191906000526020600020905b8154815290600101906020018083116137c157829003601f168201915b5050505050613995565b613827576040517f08c379a000000000000000000000000000000000000000000000000000000000815260040161381e90614417565b60405180910390fd5b6138da8260018560405161383b919061432d565b9081526020016040518091039020600101805461385790614373565b80601f016020809104026020016040519081016040528092919081815260200182805461388390614373565b80156138d05780601f106138a5576101008083540402835291602001916138d0565b820191906000526020600020905b8154815290600101906020018083116138b357829003601f168201915b5050505050613995565b1561391a576040517f08c379a000000000000000000000000000000000000000000000000000000000815260040161391190615303565b60405180910390fd5b8160018460405161392b919061432d565b9081526020016040518091039020600101908051906020019061394f929190613c48565b507f31d240a9505c05976d93451a6c6c97988c5719ef448ebed149c0e8e534a4812983833360405161398393929190614754565b60405180910390a16001905092915050565b6000816040516020016139a8919061432d565b60405160208183030381529060405280519060200120836040516020016139cf919061432d565b6040516020818303038152906040528051906020012014905092915050565b6000806064600184604051613a03919061432d565b908152602001604051809103902060020160059054906101000a900463ffffffff16613a2f9190614c2b565b905060008060149054906101000a900463ffffffff166021613a519190614c2b565b90508063ffffffff168263ffffffff161015613b5b57600184604051613a77919061432d565b908152602001604051809103902060020160059054906101000a900463ffffffff1663ffffffff16600185604051613aaf919061432d565b908152602001604051809103902060020160019054906101000a900463ffffffff1663ffffffff161115613b1b5760018085604051613aee919061432d565b908152602001604051809103902060020160006101000a81548160ff021916908315150217905550613b56565b6000600185604051613b2d919061432d565b908152602001604051809103902060020160006101000a81548160ff0219169083151502179055505b613b96565b6000600185604051613b6d919061432d565b908152602001604051809103902060020160006101000a81548160ff0219169083151502179055505b7f01e100d0a829e863025b93f03221900ea97cc91afa79d8941528a2a3daea15ff84600186604051613bc8919061432d565b908152602001604051809103902060020160009054906101000a900460ff16604051613bf5929190615323565b60405180910390a1600192505050919050565b508054613c1490614373565b6000825580601f10613c265750613c45565b601f016020900490600052602060002090810190613c449190613cce565b5b50565b828054613c5490614373565b90600052602060002090601f016020900481019282613c765760008555613cbd565b82601f10613c8f57805160ff1916838001178555613cbd565b82800160010185558215613cbd579182015b82811115613cbc578251825591602001919060010190613ca1565b5b509050613cca9190613cce565b5090565b5b80821115613ce7576000816000905550600101613ccf565b5090565b6000604051905090565b600080fd5b600080fd5b600080fd5b600080fd5b6000601f19601f8301169050919050565b7f4e487b7100000000000000000000000000000000000000000000000000000000600052604160045260246000fd5b613d5282613d09565b810181811067ffffffffffffffff82111715613d7157613d70613d1a565b5b80604052505050565b6000613d84613ceb565b9050613d908282613d49565b919050565b600067ffffffffffffffff821115613db057613daf613d1a565b5b613db982613d09565b9050602081019050919050565b82818337600083830152505050565b6000613de8613de384613d95565b613d7a565b905082815260208101848484011115613e0457613e03613d04565b5b613e0f848285613dc6565b509392505050565b600082601f830112613e2c57613e2b613cff565b5b8135613e3c848260208601613dd5565b91505092915050565b600060208284031215613e5b57613e5a613cf5565b5b600082013567ffffffffffffffff811115613e7957613e78613cfa565b5b613e8584828501613e17565b91505092915050565b600081519050919050565b600082825260208201905092915050565b60005b83811015613ec8578082015181840152602081019050613ead565b83811115613ed7576000848401525b50505050565b6000613ee882613e8e565b613ef28185613e99565b9350613f02818560208601613eaa565b613f0b81613d09565b840191505092915050565b600073ffffffffffffffffffffffffffffffffffffffff82169050919050565b6000613f4182613f16565b9050919050565b613f5181613f36565b82525050565b600063ffffffff82169050919050565b613f7081613f57565b82525050565b600060a0820190508181036000830152613f908188613edd565b90508181036020830152613fa48187613edd565b9050613fb36040830186613f48565b613fc06060830185613f67565b613fcd6080830184613f67565b9695505050505050565b613fe081613f36565b8114613feb57600080fd5b50565b600081359050613ffd81613fd7565b92915050565b60006020828403121561401957614018613cf5565b5b600061402784828501613fee565b91505092915050565b60008115159050919050565b61404581614030565b82525050565b600060c08201905081810360008301526140658189613edd565b90506140746020830188613f48565b6140816040830187613f67565b61408e6060830186613f67565b61409b608083018561403c565b81810360a08301526140ad8184613edd565b9050979650505050505050565b60006020820190506140cf600083018461403c565b92915050565b600080604083850312156140ec576140eb613cf5565b5b600083013567ffffffffffffffff81111561410a57614109613cfa565b5b61411685828601613e17565b925050602083013567ffffffffffffffff81111561413757614136613cfa565b5b61414385828601613e17565b9150509250929050565b60006020820190506141626000830184613f67565b92915050565b61417181614030565b811461417c57600080fd5b50565b60008135905061418e81614168565b92915050565b600080604083850312156141ab576141aa613cf5565b5b60006141b985828601613fee565b92505060206141ca8582860161417f565b9150509250929050565b6000806000606084860312156141ed576141ec613cf5565b5b600084013567ffffffffffffffff81111561420b5761420a613cfa565b5b61421786828701613e17565b935050602061422886828701613fee565b925050604084013567ffffffffffffffff81111561424957614248613cfa565b5b61425586828701613e17565b9150509250925092565b7f4f6e6c7920617070726f7665642062616e6b732061726520616c6c6f7765642060008201527f746f20706572666f726d2074686973206f7065726174696f6e00000000000000602082015250565b60006142bb603983613e99565b91506142c68261425f565b604082019050919050565b600060208201905081810360008301526142ea816142ae565b9050919050565b600081905092915050565b600061430782613e8e565b61431181856142f1565b9350614321818560208601613eaa565b80840191505092915050565b600061433982846142fc565b915081905092915050565b7f4e487b7100000000000000000000000000000000000000000000000000000000600052602260045260246000fd5b6000600282049050600182168061438b57607f821691505b6020821081141561439f5761439e614344565b5b50919050565b7f437573746f6d657220646f65736e27742065786973742e20557365206164644360008201527f7573746f6d657220746f20637265617465206e65772075736572000000000000602082015250565b6000614401603a83613e99565b915061440c826143a5565b604082019050919050565b60006020820190508181036000830152614430816143f4565b9050919050565b7f42616e6b206164647265737320697320696e636f72726563742e204e6f20737560008201527f6368207265636f72642065786973747300000000000000000000000000000000602082015250565b6000614493603083613e99565b915061449e82614437565b604082019050919050565b600060208201905081810360008301526144c281614486565b9050919050565b7f4e6f204b594320726571756573742065786973747320666f722074686973206360008201527f7573746f6d65722e20506c6561736520757365206164644b594352657175657360208201527f742066756e6374696f6e00000000000000000000000000000000000000000000604082015250565b600061454b604a83613e99565b9150614556826144c9565b606082019050919050565b6000602082019050818103600083015261457a8161453e565b9050919050565b7f4e6f20726571756573742065786973747320666f72207468697320637573746f60008201527f6d65722e20506c6561736520757365206164644b59435265717565737420667560208201527f6e6374696f6e0000000000000000000000000000000000000000000000000000604082015250565b6000614603604683613e99565b915061460e82614581565b606082019050919050565b60006020820190508181036000830152614632816145f6565b9050919050565b7f4e487b7100000000000000000000000000000000000000000000000000000000600052601160045260246000fd5b600061467382613f57565b9150600082141561468757614686614639565b5b600182039050919050565b600060408201905081810360008301526146ac8185613edd565b90506146bb6020830184613f48565b9392505050565b7f55736572206578697374732e20506c656173652063616c6c206d6f646966794360008201527f7573746f6d657220746f206d616b6520616e79206368616e6765730000000000602082015250565b600061471e603b83613e99565b9150614729826146c2565b604082019050919050565b6000602082019050818103600083015261474d81614711565b9050919050565b6000606082019050818103600083015261476e8186613edd565b905081810360208301526147828185613edd565b90506147916040830184613f48565b949350505050565b7f43616e6e6f74207570766f7465206173206e6f204b594320657869737473206660008201527f6f72207468697320637573746f6d6572207965742e0000000000000000000000602082015250565b60006147f5603583613e99565b915061480082614799565b604082019050919050565b60006020820190508181036000830152614824816147e8565b9050919050565b7f437573746f6d65722068617320616c7265616479206265656e207570766f746560008201527f6420627920796f752e0000000000000000000000000000000000000000000000602082015250565b6000614887602983613e99565b91506148928261482b565b604082019050919050565b600060208201905081810360008301526148b68161487a565b9050919050565b7f437573746f6d65722068617320646f776e20766f74656420627920796f752e2060008201527f506c656173652072656d6f766520646f776e20766f746520746f20706c61636560208201527f20616e20757020766f7465000000000000000000000000000000000000000000604082015250565b600061493f604b83613e99565b915061494a826148bd565b606082019050919050565b6000602082019050818103600083015261496e81614932565b9050919050565b600061498082613f57565b915063ffffffff82141561499757614996614639565b5b600182019050919050565b7f43616e6e6f7420646f776e766f7465206173206e6f204b59432065786973747360008201527f20666f72207468697320637573746f6d6572207965742e000000000000000000602082015250565b60006149fe603783613e99565b9150614a09826149a2565b604082019050919050565b60006020820190508181036000830152614a2d816149f1565b9050919050565b7f437573746f6d65722068617320616c7265616479206265656e20646f776e207660008201527f6f74656420627920796f752e0000000000000000000000000000000000000000602082015250565b6000614a90602c83613e99565b9150614a9b82614a34565b604082019050919050565b60006020820190508181036000830152614abf81614a83565b9050919050565b7f437573746f6d657220686173207570766f74656420627920796f752e20506c6560008201527f6173652072656d6f766520646f776e20766f746520746f20706c61636520616e60208201527f20757020766f7465000000000000000000000000000000000000000000000000604082015250565b6000614b48604883613e99565b9150614b5382614ac6565b606082019050919050565b60006020820190508181036000830152614b7781614b3b565b9050919050565b7f596f75206d75737420686176652061646d696e2070726976696c65646765732060008201527f746f2072756e2074686973000000000000000000000000000000000000000000602082015250565b6000614bda602b83613e99565b9150614be582614b7e565b604082019050919050565b60006020820190508181036000830152614c0981614bcd565b9050919050565b6000602082019050614c256000830184613f48565b92915050565b6000614c3682613f57565b9150614c4183613f57565b92508163ffffffff0483118215151615614c5e57614c5d614639565b5b828202905092915050565b6000606082019050614c7e6000830186613f48565b614c8b6020830185613f48565b614c98604083018461403c565b949350505050565b6000604082019050614cb56000830185613f48565b614cc2602083018461403c565b9392505050565b7f43616e6e6f742072656d6f766520646f776e766f7465206173206e6f204b594360008201527f2065786973747320666f72207468697320637573746f6d6572207965742e0000602082015250565b6000614d25603e83613e99565b9150614d3082614cc9565b604082019050919050565b60006020820190508181036000830152614d5481614d18565b9050919050565b7f437573746f6d6572206861736e2774206265656e20646f776e20766f7465642060008201527f627920796f752e2055736520646f776e566f7465437573746f6d65722e000000602082015250565b6000614db7603d83613e99565b9150614dc282614d5b565b604082019050919050565b60006020820190508181036000830152614de681614daa565b9050919050565b7f41204b5943207265717565737420616c72656164792065786973747320666f7260008201527f207468697320757365722066726f6d20746869732062616e6b00000000000000602082015250565b6000614e49603983613e99565b9150614e5482614ded565b604082019050919050565b60006020820190508181036000830152614e7881614e3c565b9050919050565b7f506c6561736520636865636b20686173682e2054686973207265636f7264206460008201527f6f65736e27742065786973740000000000000000000000000000000000000000602082015250565b6000614edb602c83613e99565b9150614ee682614e7f565b604082019050919050565b60006020820190508181036000830152614f0a81614ece565b9050919050565b7f43616e6e6f742072656d6f7665207570766f7465206173206e6f204b5943206560008201527f786973747320666f72207468697320637573746f6d6572207965742e00000000602082015250565b6000614f6d603c83613e99565b9150614f7882614f11565b604082019050919050565b60006020820190508181036000830152614f9c81614f60565b9050919050565b7f437573746f6d6572206861736e2774206265656e207570766f7465642062792060008201527f796f752e20757365207570566f7465437573746f6d6572000000000000000000602082015250565b6000614fff603783613e99565b915061500a82614fa3565b604082019050919050565b6000602082019050818103600083015261502e81614ff2565b9050919050565b7f546869732062616e6b2068617320616c7265616479206265656e206164646564600082015250565b600061506b602083613e99565b915061507682615035565b602082019050919050565b6000602082019050818103600083015261509a8161505e565b9050919050565b7f5468697320726567697374726174696f6e206e756d626572206861732062656560008201527f6e2074616b656e2e20506c6561736520656e74657220616e6f74686572206f6e60208201527f652e000000000000000000000000000000000000000000000000000000000000604082015250565b6000615123604283613e99565b915061512e826150a1565b606082019050919050565b6000602082019050818103600083015261515281615116565b9050919050565b7f412062616e6b206f662074686973206e616d6520616c7265616479206578697360008201527f747320696e20746865206e6574776f726b000000000000000000000000000000602082015250565b60006151b5603183613e99565b91506151c082615159565b604082019050919050565b600060208201905081810360008301526151e4816151a8565b9050919050565b6000819050919050565b6000819050919050565b600061521a615215615210846151eb565b6151f5565b613f57565b9050919050565b61522a816151ff565b82525050565b600060a082019050818103600083015261524a8188613edd565b90506152596020830187613f48565b818103604083015261526b8186613edd565b905061527a6060830185615221565b615287608083018461403c565b9695505050505050565b7f5468697320646f63756d656e7420616c72656164792065786973747320696e2060008201527f7468652073797374656d2e000000000000000000000000000000000000000000602082015250565b60006152ed602b83613e99565b91506152f882615291565b604082019050919050565b6000602082019050818103600083015261531c816152e0565b9050919050565b6000604082019050818103600083015261533d8185613edd565b905061534c602083018461403c565b939250505056fea2646970667358221220d590e7e35da86cc7c863fa43b1f411bea56e67bc7dd9423752164afc7b77493b64736f6c63430008090033",
  "immutableReferences": {},
  "source": "// SPDX-License-Identifier: MIT\n\npragma solidity ^0.8.9;\n\ncontract KYC_Contract {\n    constructor() {\n        admin = msg.sender;\n    }\n\n    address admin;\n\n    modifier onlyAdmin() {\n        require(\n            msg.sender == admin,\n            \"You must have admin priviledges to run this\"\n        );\n        _;\n    }\n\n    modifier onlyApprovedBank() {\n        require(\n            added_banks[msg.sender] == true,\n            \"Only approved banks are allowed to perform this operation\"\n        );\n        _;\n    }\n\n    struct Customer {\n        string username;\n        // hash that points to customer documents in secure storage\n        string customerData;\n        // status of KYC request. if conditions are met, set to true. else false\n        bool kycStatus;\n        // number of upvotes from other banks to customer data\n        uint32 upVotes;\n        // number of downvotes from other banks to customer data\n        uint32 downVotes;\n        // unique address of the validating bank\n        address validatorBankAddress;\n    }\n\n    struct Bank {\n        string name;\n        // unique ethereum address of the bank\n        address ethAddress;\n        // total complaints against the bank by other banks in the network\n        uint32 complaintsReported;\n        //number of KYC requests initiated by bank\n        uint32 KYC_count;\n        // status. if false, bank cannot up/down vote any more customers\n        bool isAllowedToVote;\n        // registration number of the bank\n        string regNumber;\n    }\n\n    struct KYC_Request {\n        // map KYC request to customer data\n        string username;\n        // hash that points to customer documents in secure storage\n        string customerData;\n        // unique account address of the bank\n        address bankAddress;\n    }\n\n    // count of total banks in the network\n    uint32 totalBanks;\n\n    /* Mappings */\n\n    // customer name to view customer details\n    mapping(string => Customer) customers;\n\n    // unique bank address to view bank details\n    mapping(address => Bank) banks;\n\n    // customer name to view KYC requests\n    mapping(string => KYC_Request) KYC_requests;\n\n    // keep track of up votes for the customer by all the banks in the network\n    mapping(string => mapping(address => uint8)) up_votes;\n\n    // keep track of down votes for the customer by all the banks in the network\n    mapping(string => mapping(address => uint8)) down_votes;\n\n    // make sure all bank registration numbers are unique\n    mapping(string => bool) bank_registration_numbers;\n\n    // keep track of banks added to the network\n    mapping(address => bool) added_banks;\n\n    // keep track of bank names added to the system\n    mapping(string => bool) bank_names;\n\n    /* Events */\n\n    event AddKYCRequest(\n        string _customerName,\n        string _customerData,\n        address KYCRequestingBank\n    );\n    event RemoveKYCRequest(string _customerName, address KYCRemovingBank);\n\n    event AddCustomer(\n        string _customerName,\n        string _customerData,\n        address validatorBank\n    );\n    event ModifyCustomer(\n        string _customerName,\n        string _newCustomerData,\n        address bankAddress\n    );\n\n    event CustomerKYCStatus(string _customerName, bool _KYCStatus);\n\n    event UpVoteCustomer(string _customerName, address bankAddress);\n    event RemoveUpVoteCustomer(string _customerName, address bankAddress);\n\n    event DownVoteCustomer(string _customerName, address bankAddress);\n    event RemoveDownVoteCustomer(string _customerName, address bankAddress);\n\n    event ReportBank(\n        address _bankAddress,\n        address reportingBank,\n        bool isAllowedToVote\n    );\n\n    event AddBank(\n        string _bankName,\n        address _bankAddress,\n        string _bankRegistration,\n        uint32 _complaintsReported,\n        bool _KYCPermission\n    );\n\n    event ModifyIfBankAllowedToVote(\n        address _bankAddress,\n        bool _isAllowedToVote\n    );\n\n    event RemoveBank(address _bankAddress);\n\n    /**\n     * Record a new KYC request on behalf of a customer\n     * Bank is the sender of this request\n     * @param _customerName The name of the customer for whom KYC is to be done\n     * @param _customerData The hash of the customer data being requested\n     * @return bool confirmation that KYC request was added\n     */\n    function addKYCRequest(\n        string memory _customerName,\n        string memory _customerData\n    ) public returns (bool) {\n        // require that the request the bank is making isn't a duplicate\n        require(\n            !(KYC_requests[_customerName].bankAddress == msg.sender),\n            \"A KYC request already exists for this user from this bank\"\n        );\n\n        require(\n            compareStringsbyBytes(\n                customers[_customerName].customerData,\n                _customerData\n            ),\n            \"Please check hash. This record doesn't exist\"\n        );\n\n        // update KYC requests mapping\n        KYC_requests[_customerName].username = _customerName;\n        KYC_requests[_customerName].customerData = _customerData;\n        KYC_requests[_customerName].bankAddress = msg.sender;\n\n        // add KYC requests made by this bank\n        banks[msg.sender].KYC_count++;\n\n        emit AddKYCRequest(_customerName, _customerData, msg.sender);\n        return true;\n    }\n\n    /**\n     * Remove KYC request\n     * @param _customerName The name of the customer for whom KYC is to be removed\n     * @return bool confirmation that KYC request was removed\n     */\n    function removeKYCRequest(string memory _customerName)\n        public\n        onlyApprovedBank\n        returns (bool)\n    {\n        // require that the username in fact exists as a KYC request\n        require(\n            (KYC_requests[_customerName].bankAddress == msg.sender),\n            \"No KYC request exists for this customer. Please use addKYCRequest function\"\n        );\n\n        require(\n            compareStringsbyBytes(\n                customers[_customerName].username,\n                _customerName\n            ),\n            \"No request exists for this customer. Please use addKYCRequest function\"\n        );\n\n        // delete the customer's KYC request\n        delete KYC_requests[_customerName];\n\n        // reduce KYC requests made by this bank\n        banks[msg.sender].KYC_count--;\n\n        emit RemoveKYCRequest(_customerName, msg.sender);\n        return true;\n    }\n\n    /**\n     * View customer information\n     * @param _customerName Name of the customer\n     * @return struct Customer\n     */\n    function viewCustomer(string memory _customerName)\n        public\n        view\n        onlyApprovedBank\n        returns (\n            string memory,\n            string memory,\n            address,\n            uint32,\n            uint32\n        )\n    {\n        require(\n            compareStringsbyBytes(\n                _customerName,\n                customers[_customerName].username\n            ),\n            \"Customer doesn't exist. Use addCustomer to create new user\"\n        );\n\n        return (\n            customers[_customerName].username,\n            customers[_customerName].customerData,\n            customers[_customerName].validatorBankAddress,\n            customers[_customerName].upVotes,\n            customers[_customerName].downVotes\n        );\n    }\n\n    /**\n     * Add a new customer\n     * @param _customerName Name of the customer\n     * @param _customerData Hash of the customer docs\n     * @return bool confirmation that user was added\n     */\n    function addCustomer(\n        string memory _customerName,\n        string memory _customerData\n    ) public onlyApprovedBank returns (bool) {\n        require(\n            customers[_customerName].validatorBankAddress == address(0x0),\n            \"User exists. Please call modifyCustomer to make any changes\"\n        );\n\n        customers[_customerName].username = _customerName;\n        customers[_customerName].customerData = _customerData;\n        customers[_customerName].validatorBankAddress = msg.sender;\n\n        // initiate KYC request on creation of customer\n        addKYCRequest(_customerName, _customerData);\n\n        emit AddCustomer(_customerName, _customerData, msg.sender);\n        return true;\n    }\n\n    /**\n     * Modify customer data\n     * @param _customerName Name of the customer\n     * @param _newCustomerData New hash of the updated docs\n     * @return bool confirmation that user was modified\n     */\n    function modifyCustomer(\n        string memory _customerName,\n        string memory _newCustomerData\n    ) public onlyApprovedBank returns (bool) {\n        require(\n            compareStringsbyBytes(\n                _customerName,\n                customers[_customerName].username\n            ),\n            \"Customer doesn't exist. Use addCustomer to create new user\"\n        );\n\n        require(\n            !compareStringsbyBytes(\n                _newCustomerData,\n                customers[_customerName].customerData\n            ),\n            \"This document already exists in the system.\"\n        );\n\n        customers[_customerName].customerData = _newCustomerData;\n\n        emit ModifyCustomer(_customerName, _newCustomerData, msg.sender);\n        return true;\n    }\n\n    /**\n     * Function to change the KYC status of customer based on up or down votes\n     * @param _customerName Name of the customer to be upvoted\n     * @return bool true if KYC status was updated\n     */\n    function customerKYCStatus(string memory _customerName)\n        private\n        returns (bool)\n    {\n        // solidity doesn't support float or rational numbers\n        // hence we multiply 100 to both sides of the equation\n        uint32 condition1 = customers[_customerName].downVotes * 100;\n        uint32 condition2 = 33 * totalBanks;\n\n        // if total down votes is lesser than a third of the total banks in the network\n        if (condition1 < condition2) {\n            // if upvotes is greater than down votes\n            if (\n                customers[_customerName].upVotes >\n                customers[_customerName].downVotes\n            ) {\n                customers[_customerName].kycStatus = true;\n            } else {\n                customers[_customerName].kycStatus = false;\n            }\n        } else {\n            customers[_customerName].kycStatus = false;\n        }\n\n        emit CustomerKYCStatus(\n            _customerName,\n            customers[_customerName].kycStatus\n        );\n        return true;\n    }\n\n    /**\n     * Function to add a new up vote for a customer\n     * @param _customerName Name of the customer to be upvoted\n     * @return bool confirmation that up votes were updated\n     */\n    function upVoteCustomer(string memory _customerName)\n        public\n        onlyApprovedBank\n        returns (bool)\n    {\n        require(\n            compareStringsbyBytes(\n                _customerName,\n                customers[_customerName].username\n            ),\n            \"Customer doesn't exist. Use addCustomer to create new user\"\n        );\n\n        require(\n            compareStringsbyBytes(\n                KYC_requests[_customerName].username,\n                _customerName\n            ),\n            \"Cannot upvote as no KYC exists for this customer yet.\"\n        );\n\n        require(\n            up_votes[_customerName][msg.sender] == 0,\n            \"Customer has already been upvoted by you.\"\n        );\n\n        require(\n            down_votes[_customerName][msg.sender] == 1,\n            \"Customer has down voted by you. Please remove down vote to place an up vote\"\n        );\n\n        // update upVote count\n        customers[_customerName].upVotes++;\n        up_votes[_customerName][msg.sender] = 1;\n\n        // update customer KYC status in light of vote update\n        customerKYCStatus(_customerName);\n\n        emit UpVoteCustomer(_customerName, msg.sender);\n        return true;\n    }\n\n    /**\n     * Function to remove an up vote for a customer\n     * @param _customerName Name of the customer to be upvoted\n     * @return bool confirmation that up votes were updated\n     */\n    function removeUpVoteCustomer(string memory _customerName)\n        public\n        onlyApprovedBank\n        returns (bool)\n    {\n        require(\n            compareStringsbyBytes(\n                _customerName,\n                customers[_customerName].username\n            ),\n            \"Customer doesn't exist. Use addCustomer to create new user\"\n        );\n\n        require(\n            compareStringsbyBytes(\n                KYC_requests[_customerName].username,\n                _customerName\n            ),\n            \"Cannot remove upvote as no KYC exists for this customer yet.\"\n        );\n\n        require(\n            up_votes[_customerName][msg.sender] == 1,\n            \"Customer hasn't been upvoted by you. use upVoteCustomer\"\n        );\n\n        // update upVote count\n        customers[_customerName].upVotes--;\n        up_votes[_customerName][msg.sender] = 0;\n\n        // update customer KYC status in light of vote update\n        customerKYCStatus(_customerName);\n\n        emit RemoveUpVoteCustomer(_customerName, msg.sender);\n        return true;\n    }\n\n    /**\n     * Function to add a new down vote for a customer\n     * @param _customerName Name of the customer to be upvoted\n     * @return bool confirmation that down votes were updated\n     */\n    function downVoteCustomer(string memory _customerName)\n        public\n        onlyApprovedBank\n        returns (bool)\n    {\n        require(\n            compareStringsbyBytes(\n                _customerName,\n                customers[_customerName].username\n            ),\n            \"Customer doesn't exist. Use addCustomer to create new user\"\n        );\n\n        require(\n            compareStringsbyBytes(\n                KYC_requests[_customerName].username,\n                _customerName\n            ),\n            \"Cannot downvote as no KYC exists for this customer yet.\"\n        );\n\n        require(\n            down_votes[_customerName][msg.sender] == 0,\n            \"Customer has already been down voted by you.\"\n        );\n\n        require(\n            up_votes[_customerName][msg.sender] == 1,\n            \"Customer has upvoted by you. Please remove down vote to place an up vote\"\n        );\n\n        // update downVote count\n        customers[_customerName].downVotes++;\n        down_votes[_customerName][msg.sender] = 1;\n\n        // update customer KYC status in light of vote update\n        customerKYCStatus(_customerName);\n\n        emit DownVoteCustomer(_customerName, msg.sender);\n        return true;\n    }\n\n    /**\n     * Function to remove a down vote for a customer\n     * @param _customerName Name of the customer to be upvoted\n     * @return bool confirmation that down votes were updated\n     */\n    function removeDownVoteCustomer(string memory _customerName)\n        public\n        onlyApprovedBank\n        returns (bool)\n    {\n        require(\n            compareStringsbyBytes(\n                _customerName,\n                customers[_customerName].username\n            ),\n            \"Customer doesn't exist. Use addCustomer to create new user\"\n        );\n\n        require(\n            compareStringsbyBytes(\n                KYC_requests[_customerName].username,\n                _customerName\n            ),\n            \"Cannot remove downvote as no KYC exists for this customer yet.\"\n        );\n\n        require(\n            down_votes[_customerName][msg.sender] == 1,\n            \"Customer hasn't been down voted by you. Use downVoteCustomer.\"\n        );\n\n        // update downVote count\n        customers[_customerName].downVotes--;\n        down_votes[_customerName][msg.sender] = 0;\n\n        // update customer KYC status in light of vote update\n        customerKYCStatus(_customerName);\n\n        emit RemoveDownVoteCustomer(_customerName, msg.sender);\n        return true;\n    }\n\n    /**\n     * View bank information\n     * @param _bankAddress Unique address of the bank\n     * @return struct Bank\n     */\n    function getBankDetails(address _bankAddress)\n        public\n        view\n        onlyApprovedBank\n        returns (\n            string memory,\n            address,\n            uint32,\n            uint32,\n            bool,\n            string memory\n        )\n    {\n        require(\n            banks[_bankAddress].ethAddress == _bankAddress,\n            \"Bank address is incorrect. No such record exists\"\n        );\n\n        return (\n            banks[_bankAddress].name,\n            banks[_bankAddress].ethAddress,\n            banks[_bankAddress].complaintsReported,\n            banks[_bankAddress].KYC_count,\n            banks[_bankAddress].isAllowedToVote,\n            banks[_bankAddress].regNumber\n        );\n    }\n\n    /**\n     * Report a complaint against a bank\n     * @param _bankAddress Unique address of the bank\n     * @return bool confirmation that report was submitted\n     */\n    function reportBank(address _bankAddress)\n        public\n        onlyApprovedBank\n        returns (bool)\n    {\n        require(\n            banks[_bankAddress].ethAddress == _bankAddress,\n            \"Bank address is incorrect. No such record exists\"\n        );\n\n        // update count of the complaints reported\n        banks[_bankAddress].complaintsReported++;\n\n        // solidity doesn't support float or rational numbers\n        // hence we multiply 100 to both sides of the equation\n        uint32 condition1 = banks[_bankAddress].complaintsReported * 100;\n        uint32 condition2 = 33 * totalBanks;\n        if (condition1 > condition2) {\n            banks[_bankAddress].isAllowedToVote = false;\n        }\n\n        emit ReportBank(\n            _bankAddress,\n            msg.sender,\n            banks[_bankAddress].isAllowedToVote\n        );\n        return true;\n    }\n\n    /**\n     * View total number of bank complaints\n     * @param _bankAddress unique address of the bank\n     * @return uint32 total number of bank complaints\n     */\n    function getBankComplaints(address _bankAddress)\n        public\n        view\n        onlyApprovedBank\n        returns (uint32)\n    {\n        require(\n            banks[_bankAddress].ethAddress == _bankAddress,\n            \"Bank address is incorrect. No such record exists\"\n        );\n\n        return banks[_bankAddress].complaintsReported;\n    }\n\n    /**\n     * Add a new bank to the network\n     * @param _bankName name of the bank\n     * @param _bankAddress unique address of the bank\n     * @param _bankRegistration unique registration number of the bank\n     * @return bool New bank has been added to the network\n     */\n    function addBank(\n        string memory _bankName,\n        address _bankAddress,\n        string memory _bankRegistration\n    ) public onlyAdmin returns (bool) {\n        require(\n            added_banks[_bankAddress] == false,\n            \"This bank has already been added\"\n        );\n\n        // require a unique registration number\n        require(\n            bank_registration_numbers[_bankRegistration] == false,\n            \"This registration number has been taken. Please enter another one.\"\n        );\n\n        require(\n            bank_names[_bankName] == false,\n            \"A bank of this name already exists in the network\"\n        );\n\n        banks[_bankAddress].name = _bankName;\n        banks[_bankAddress].ethAddress = _bankAddress;\n        banks[_bankAddress].complaintsReported = 0;\n        banks[_bankAddress].KYC_count = 0;\n        banks[_bankAddress].isAllowedToVote = true;\n        banks[_bankAddress].regNumber = _bankRegistration;\n\n        // update registration number and name mappings\n        bank_registration_numbers[_bankRegistration] = true;\n        added_banks[_bankAddress] = true;\n        bank_names[_bankName] = true;\n\n        // update count of total banks in the network\n        totalBanks++;\n\n        emit AddBank(_bankName, _bankAddress, _bankRegistration, 0, true);\n        return true;\n    }\n\n    /**\n     * Modify if a bank is allowed to vote in the KYC process\n     * @param _bankAddress unique address of the bank\n     * @param _isAllowedToVote boolean value, true if bank is allowed, false if not\n     * @return bool true if bank's voting rights were revoked by admin\n     */\n\n    function modifyIfBankAllowedToVote(\n        address _bankAddress,\n        bool _isAllowedToVote\n    ) public onlyAdmin returns (bool) {\n        require(\n            banks[_bankAddress].ethAddress == _bankAddress,\n            \"Bank address is incorrect. No such record exists\"\n        );\n\n        banks[_bankAddress].isAllowedToVote = _isAllowedToVote;\n\n        emit ModifyIfBankAllowedToVote(_bankAddress, _isAllowedToVote);\n        return true;\n    }\n\n    /**\n     * Remove a bank from the network\n     * @param _bankAddress unique address of the bank\n     * @return bool true if bank has been removed from the network by admin\n     */\n    function removeBank(address _bankAddress) public onlyAdmin returns (bool) {\n        require(\n            banks[_bankAddress].ethAddress == _bankAddress,\n            \"Bank address is incorrect. No such record exists\"\n        );\n\n        delete banks[_bankAddress];\n\n        emit RemoveBank(_bankAddress);\n        return true;\n    }\n\n    // source: https://ethereum.stackexchange.com/questions/45813/compare-strings-in-solidity\n    function compareStringsbyBytes(string memory s1, string memory s2)\n        private\n        pure\n        returns (bool)\n    {\n        return\n            keccak256(abi.encodePacked(s1)) == keccak256(abi.encodePacked(s2));\n    }\n}\n",
  "sourcePath": "/home/dhruv/Desktop/projects/dApp/KYC/contracts/KYC_Contract.sol",
  "compiler": {
    "name": "solc",
    "version": "0.8.9+commit.e5eed63a.Emscripten.clang"
  },
  "schemaVersion": "3.4.3",
  "updatedAt": "2021-12-05T02:30:51.383Z",
  "networkType": "ethereum",
  "devdoc": {
    "kind": "dev",
    "methods": {
      "addBank(string,address,string)": {
        "params": {
          "_bankAddress": "unique address of the bank",
          "_bankName": "name of the bank",
          "_bankRegistration": "unique registration number of the bank"
        },
        "returns": {
          "_0": "bool New bank has been added to the network"
        }
      },
      "addCustomer(string,string)": {
        "params": {
          "_customerData": "Hash of the customer docs",
          "_customerName": "Name of the customer"
        },
        "returns": {
          "_0": "bool confirmation that user was added"
        }
      },
      "addKYCRequest(string,string)": {
        "params": {
          "_customerData": "The hash of the customer data being requested",
          "_customerName": "The name of the customer for whom KYC is to be done"
        },
        "returns": {
          "_0": "bool confirmation that KYC request was added"
        }
      },
      "downVoteCustomer(string)": {
        "params": {
          "_customerName": "Name of the customer to be upvoted"
        },
        "returns": {
          "_0": "bool confirmation that down votes were updated"
        }
      },
      "getBankComplaints(address)": {
        "params": {
          "_bankAddress": "unique address of the bank"
        },
        "returns": {
          "_0": "uint32 total number of bank complaints"
        }
      },
      "getBankDetails(address)": {
        "params": {
          "_bankAddress": "Unique address of the bank"
        },
        "returns": {
          "_0": "struct Bank"
        }
      },
      "modifyCustomer(string,string)": {
        "params": {
          "_customerName": "Name of the customer",
          "_newCustomerData": "New hash of the updated docs"
        },
        "returns": {
          "_0": "bool confirmation that user was modified"
        }
      },
      "modifyIfBankAllowedToVote(address,bool)": {
        "params": {
          "_bankAddress": "unique address of the bank",
          "_isAllowedToVote": "boolean value, true if bank is allowed, false if not"
        },
        "returns": {
          "_0": "bool true if bank's voting rights were revoked by admin"
        }
      },
      "removeBank(address)": {
        "params": {
          "_bankAddress": "unique address of the bank"
        },
        "returns": {
          "_0": "bool true if bank has been removed from the network by admin"
        }
      },
      "removeDownVoteCustomer(string)": {
        "params": {
          "_customerName": "Name of the customer to be upvoted"
        },
        "returns": {
          "_0": "bool confirmation that down votes were updated"
        }
      },
      "removeKYCRequest(string)": {
        "params": {
          "_customerName": "The name of the customer for whom KYC is to be removed"
        },
        "returns": {
          "_0": "bool confirmation that KYC request was removed"
        }
      },
      "removeUpVoteCustomer(string)": {
        "params": {
          "_customerName": "Name of the customer to be upvoted"
        },
        "returns": {
          "_0": "bool confirmation that up votes were updated"
        }
      },
      "reportBank(address)": {
        "params": {
          "_bankAddress": "Unique address of the bank"
        },
        "returns": {
          "_0": "bool confirmation that report was submitted"
        }
      },
      "upVoteCustomer(string)": {
        "params": {
          "_customerName": "Name of the customer to be upvoted"
        },
        "returns": {
          "_0": "bool confirmation that up votes were updated"
        }
      },
      "viewCustomer(string)": {
        "params": {
          "_customerName": "Name of the customer"
        },
        "returns": {
          "_0": "struct Customer"
        }
      }
    },
    "version": 1
  },
  "userdoc": {
    "kind": "user",
    "methods": {
      "addBank(string,address,string)": {
        "notice": "Add a new bank to the network"
      },
      "addCustomer(string,string)": {
        "notice": "Add a new customer"
      },
      "addKYCRequest(string,string)": {
        "notice": "Record a new KYC request on behalf of a customer Bank is the sender of this request"
      },
      "downVoteCustomer(string)": {
        "notice": "Function to add a new down vote for a customer"
      },
      "getBankComplaints(address)": {
        "notice": "View total number of bank complaints"
      },
      "getBankDetails(address)": {
        "notice": "View bank information"
      },
      "modifyCustomer(string,string)": {
        "notice": "Modify customer data"
      },
      "modifyIfBankAllowedToVote(address,bool)": {
        "notice": "Modify if a bank is allowed to vote in the KYC process"
      },
      "removeBank(address)": {
        "notice": "Remove a bank from the network"
      },
      "removeDownVoteCustomer(string)": {
        "notice": "Function to remove a down vote for a customer"
      },
      "removeKYCRequest(string)": {
        "notice": "Remove KYC request"
      },
      "removeUpVoteCustomer(string)": {
        "notice": "Function to remove an up vote for a customer"
      },
      "reportBank(address)": {
        "notice": "Report a complaint against a bank"
      },
      "upVoteCustomer(string)": {
        "notice": "Function to add a new up vote for a customer"
      },
      "viewCustomer(string)": {
        "notice": "View customer information"
      }
    },
    "version": 1
  }
}