{
  "contractName": "kycContract",
  "abi": [
    {
      "inputs": [
        {
          "internalType": "string",
          "name": "_customerName",
          "type": "string"
        }
      ],
      "name": "viewCustomer",
      "outputs": [
        {
          "internalType": "string",
          "name": "",
          "type": "string"
        },
        {
          "internalType": "string",
          "name": "",
          "type": "string"
        },
        {
          "internalType": "address",
          "name": "",
          "type": "address"
        }
      ],
      "stateMutability": "view",
      "type": "function",
      "constant": true
    },
    {
      "inputs": [
        {
          "internalType": "string",
          "name": "_customerName",
          "type": "string"
        },
        {
          "internalType": "string",
          "name": "_customerData",
          "type": "string"
        }
      ],
      "name": "addCustomer",
      "outputs": [],
      "stateMutability": "nonpayable",
      "type": "function"
    },
    {
      "inputs": [
        {
          "internalType": "string",
          "name": "customerName",
          "type": "string"
        },
        {
          "internalType": "string",
          "name": "newDataHash",
          "type": "string"
        }
      ],
      "name": "modifyCustomer",
      "outputs": [
        {
          "internalType": "uint256",
          "name": "",
          "type": "uint256"
        }
      ],
      "stateMutability": "nonpayable",
      "type": "function"
    }
  ],
  "bytecode": "0x608060405234801561001057600080fd5b50610ab7806100206000396000f3fe608060405234801561001057600080fd5b50600436106100415760003560e01c8063107925bb146100465780633190abc014610078578063f72860ca14610094575b600080fd5b610060600480360381019061005b91906106a6565b6100c4565b60405161006f939291906107b8565b60405180910390f35b610092600480360381019061008d91906107fd565b610321565b005b6100ae60048036038101906100a991906107fd565b6104a1565b6040516100bb919061088e565b60405180910390f35b60608060008073ffffffffffffffffffffffffffffffffffffffff166000856040516100f091906108e5565b908152602001604051809103902060020160009054906101000a900473ffffffffffffffffffffffffffffffffffffffff1673ffffffffffffffffffffffffffffffffffffffff1614610178576040517f08c379a000000000000000000000000000000000000000000000000000000000815260040161016f9061096e565b60405180910390fd5b60008460405161018891906108e5565b90815260200160405180910390206000016000856040516101a991906108e5565b90815260200160405180910390206001016000866040516101ca91906108e5565b908152602001604051809103902060020160009054906101000a900473ffffffffffffffffffffffffffffffffffffffff16828054610208906109bd565b80601f0160208091040260200160405190810160405280929190818152602001828054610234906109bd565b80156102815780601f1061025657610100808354040283529160200191610281565b820191906000526020600020905b81548152906001019060200180831161026457829003601f168201915b50505050509250818054610294906109bd565b80601f01602080910402602001604051908101604052809291908181526020018280546102c0906109bd565b801561030d5780601f106102e25761010080835404028352916020019161030d565b820191906000526020600020905b8154815290600101906020018083116102f057829003601f168201915b505050505091509250925092509193909250565b600073ffffffffffffffffffffffffffffffffffffffff1660008360405161034991906108e5565b908152602001604051809103902060020160009054906101000a900473ffffffffffffffffffffffffffffffffffffffff1673ffffffffffffffffffffffffffffffffffffffff16146103d1576040517f08c379a00000000000000000000000000000000000000000000000000000000081526004016103c890610a61565b60405180910390fd5b816000836040516103e291906108e5565b908152602001604051809103902060000190805190602001906104069291906104a9565b508060008360405161041891906108e5565b9081526020016040518091039020600101908051906020019061043c9291906104a9565b503360008360405161044e91906108e5565b908152602001604051809103902060020160006101000a81548173ffffffffffffffffffffffffffffffffffffffff021916908373ffffffffffffffffffffffffffffffffffffffff1602179055505050565b600092915050565b8280546104b5906109bd565b90600052602060002090601f0160209004810192826104d7576000855561051e565b82601f106104f057805160ff191683800117855561051e565b8280016001018555821561051e579182015b8281111561051d578251825591602001919060010190610502565b5b50905061052b919061052f565b5090565b5b80821115610548576000816000905550600101610530565b5090565b6000604051905090565b600080fd5b600080fd5b600080fd5b600080fd5b6000601f19601f8301169050919050565b7f4e487b7100000000000000000000000000000000000000000000000000000000600052604160045260246000fd5b6105b38261056a565b810181811067ffffffffffffffff821117156105d2576105d161057b565b5b80604052505050565b60006105e561054c565b90506105f182826105aa565b919050565b600067ffffffffffffffff8211156106115761061061057b565b5b61061a8261056a565b9050602081019050919050565b82818337600083830152505050565b6000610649610644846105f6565b6105db565b90508281526020810184848401111561066557610664610565565b5b610670848285610627565b509392505050565b600082601f83011261068d5761068c610560565b5b813561069d848260208601610636565b91505092915050565b6000602082840312156106bc576106bb610556565b5b600082013567ffffffffffffffff8111156106da576106d961055b565b5b6106e684828501610678565b91505092915050565b600081519050919050565b600082825260208201905092915050565b60005b8381101561072957808201518184015260208101905061070e565b83811115610738576000848401525b50505050565b6000610749826106ef565b61075381856106fa565b935061076381856020860161070b565b61076c8161056a565b840191505092915050565b600073ffffffffffffffffffffffffffffffffffffffff82169050919050565b60006107a282610777565b9050919050565b6107b281610797565b82525050565b600060608201905081810360008301526107d2818661073e565b905081810360208301526107e6818561073e565b90506107f560408301846107a9565b949350505050565b6000806040838503121561081457610813610556565b5b600083013567ffffffffffffffff8111156108325761083161055b565b5b61083e85828601610678565b925050602083013567ffffffffffffffff81111561085f5761085e61055b565b5b61086b85828601610678565b9150509250929050565b6000819050919050565b61088881610875565b82525050565b60006020820190506108a3600083018461087f565b92915050565b600081905092915050565b60006108bf826106ef565b6108c981856108a9565b93506108d981856020860161070b565b80840191505092915050565b60006108f182846108b4565b915081905092915050565b7f5573657220646f65736e2774206578697374206f6e207468697320646174616260008201527f6173650000000000000000000000000000000000000000000000000000000000602082015250565b60006109586023836106fa565b9150610963826108fc565b604082019050919050565b600060208201905081810360008301526109878161094b565b9050919050565b7f4e487b7100000000000000000000000000000000000000000000000000000000600052602260045260246000fd5b600060028204905060018216806109d557607f821691505b602082108114156109e9576109e861098e565b5b50919050565b7f55736572206578697374732e20506c656173652063616c6c206d6f646966794360008201527f7573746f6d657220746f206d616b6520616e79206368616e6765730000000000602082015250565b6000610a4b603b836106fa565b9150610a56826109ef565b604082019050919050565b60006020820190508181036000830152610a7a81610a3e565b905091905056fea2646970667358221220ad91c3c9ad2de52c3c459d222779740c48865b186e35bc1f98c51136a707239564736f6c63430008090033",
  "immutableReferences": {},
  "source": "pragma solidity ^0.8.9;\n\ncontract kycContract {\n    struct Customer {\n        string username;\n        // hash of the documents submitted by the customer\n        string customerData;\n        // unique address of the validating bank\n        address validatorBankAddress;\n    }\n\n    struct Bank {\n        string name;\n        // unique ethereum address of the bank\n        address ethAddress;\n        // registration number of the bank\n        string regNumber;\n    }\n\n    mapping(string => Customer) customers;\n    mapping(address => Bank) banks;\n\n    // function to view customer\n    function viewCustomer(string memory _customerName)\n        public\n        view\n        returns (\n            string memory,\n            string memory,\n            address\n        )\n    {\n        require(\n            customers[_customerName].validatorBankAddress == address(0),\n            \"User doesn't exist on this database\"\n        );\n\n        return (\n            customers[_customerName].username,\n            customers[_customerName].customerData,\n            customers[_customerName].validatorBankAddress\n        );\n    }\n\n    // function to add customers mapped to their documents\n    function addCustomer(\n        string memory _customerName,\n        string memory _customerData\n    ) public {\n        require(\n            customers[_customerName].validatorBankAddress == address(0),\n            \"User exists. Please call modifyCustomer to make any changes\"\n        );\n\n        customers[_customerName].username = _customerName;\n        customers[_customerName].customerData = _customerData;\n        customers[_customerName].validatorBankAddress = msg.sender;\n    }\n\n    // function to edit customer details\n    function modifyCustomer(\n        string memory customerName,\n        string memory newDataHash\n    ) public returns (uint256) {}\n}\n",
  "sourcePath": "/home/dhruv/Desktop/projects/dApp/KYC/contracts/kycContract.sol",
  "compiler": {
    "name": "solc",
    "version": "0.8.9+commit.e5eed63a.Emscripten.clang"
  },
  "schemaVersion": "3.4.3",
  "updatedAt": "2021-12-02T12:02:13.545Z",
  "networkType": "ethereum",
  "devdoc": {
    "kind": "dev",
    "methods": {},
    "version": 1
  },
  "userdoc": {
    "kind": "user",
    "methods": {},
    "version": 1
  }
}