{
  "contractName": "kycContract",
  "abi": [
    {
      "inputs": [
        {
          "internalType": "string",
          "name": "customerName",
          "type": "string"
        }
      ],
      "name": "viewCustomer",
      "outputs": [
        {
          "internalType": "string",
          "name": "",
          "type": "string"
        }
      ],
      "stateMutability": "nonpayable",
      "type": "function"
    },
    {
      "inputs": [
        {
          "internalType": "string",
          "name": "_customerName",
          "type": "string"
        },
        {
          "internalType": "string",
          "name": "_customerData",
          "type": "string"
        }
      ],
      "name": "addCustomer",
      "outputs": [],
      "stateMutability": "nonpayable",
      "type": "function"
    },
    {
      "inputs": [
        {
          "internalType": "string",
          "name": "customerName",
          "type": "string"
        },
        {
          "internalType": "string",
          "name": "newDataHash",
          "type": "string"
        }
      ],
      "name": "modifyCustomer",
      "outputs": [
        {
          "internalType": "uint256",
          "name": "",
          "type": "uint256"
        }
      ],
      "stateMutability": "nonpayable",
      "type": "function"
    }
  ],
  "bytecode": "0x608060405234801561001057600080fd5b50610769806100206000396000f3fe608060405234801561001057600080fd5b50600436106100415760003560e01c8063107925bb146100465780633190abc014610076578063f72860ca14610092575b600080fd5b610060600480360381019061005b919061044e565b6100c2565b60405161006d919061051f565b60405180910390f35b610090600480360381019061008b9190610541565b6100c9565b005b6100ac60048036038101906100a79190610541565b610249565b6040516100b991906105d2565b60405180910390f35b6060919050565b600073ffffffffffffffffffffffffffffffffffffffff166000836040516100f19190610629565b908152602001604051809103902060020160009054906101000a900473ffffffffffffffffffffffffffffffffffffffff1673ffffffffffffffffffffffffffffffffffffffff1614610179576040517f08c379a0000000000000000000000000000000000000000000000000000000008152600401610170906106b2565b60405180910390fd5b8160008360405161018a9190610629565b908152602001604051809103902060000190805190602001906101ae929190610251565b50806000836040516101c09190610629565b908152602001604051809103902060010190805190602001906101e4929190610251565b50336000836040516101f69190610629565b908152602001604051809103902060020160006101000a81548173ffffffffffffffffffffffffffffffffffffffff021916908373ffffffffffffffffffffffffffffffffffffffff1602179055505050565b600092915050565b82805461025d90610701565b90600052602060002090601f01602090048101928261027f57600085556102c6565b82601f1061029857805160ff19168380011785556102c6565b828001600101855582156102c6579182015b828111156102c55782518255916020019190600101906102aa565b5b5090506102d391906102d7565b5090565b5b808211156102f05760008160009055506001016102d8565b5090565b6000604051905090565b600080fd5b600080fd5b600080fd5b600080fd5b6000601f19601f8301169050919050565b7f4e487b7100000000000000000000000000000000000000000000000000000000600052604160045260246000fd5b61035b82610312565b810181811067ffffffffffffffff8211171561037a57610379610323565b5b80604052505050565b600061038d6102f4565b90506103998282610352565b919050565b600067ffffffffffffffff8211156103b9576103b8610323565b5b6103c282610312565b9050602081019050919050565b82818337600083830152505050565b60006103f16103ec8461039e565b610383565b90508281526020810184848401111561040d5761040c61030d565b5b6104188482856103cf565b509392505050565b600082601f83011261043557610434610308565b5b81356104458482602086016103de565b91505092915050565b600060208284031215610464576104636102fe565b5b600082013567ffffffffffffffff81111561048257610481610303565b5b61048e84828501610420565b91505092915050565b600081519050919050565b600082825260208201905092915050565b60005b838110156104d15780820151818401526020810190506104b6565b838111156104e0576000848401525b50505050565b60006104f182610497565b6104fb81856104a2565b935061050b8185602086016104b3565b61051481610312565b840191505092915050565b6000602082019050818103600083015261053981846104e6565b905092915050565b60008060408385031215610558576105576102fe565b5b600083013567ffffffffffffffff81111561057657610575610303565b5b61058285828601610420565b925050602083013567ffffffffffffffff8111156105a3576105a2610303565b5b6105af85828601610420565b9150509250929050565b6000819050919050565b6105cc816105b9565b82525050565b60006020820190506105e760008301846105c3565b92915050565b600081905092915050565b600061060382610497565b61060d81856105ed565b935061061d8185602086016104b3565b80840191505092915050565b600061063582846105f8565b915081905092915050565b7f55736572206578697374732e20506c656173652063616c6c206d6f646966794360008201527f7573746f6d657220746f206d616b6520616e79206368616e6765730000000000602082015250565b600061069c603b836104a2565b91506106a782610640565b604082019050919050565b600060208201905081810360008301526106cb8161068f565b9050919050565b7f4e487b7100000000000000000000000000000000000000000000000000000000600052602260045260246000fd5b6000600282049050600182168061071957607f821691505b6020821081141561072d5761072c6106d2565b5b5091905056fea264697066735822122024821ed52624061ed18e6b8cdcee09a0e49a15366c68586e2bbe8de6f996578564736f6c63430008090033",
  "immutableReferences": {},
  "source": "pragma solidity ^0.8.9;\n\ncontract kycContract {\n    struct Customer {\n        string username;\n        // hash of the documents submitted by the customer\n        string customerData;\n        // unique address of the validating bank\n        address validatorBankAddress;\n    }\n\n    struct Bank {\n        string name;\n        // unique ethereum address of the bank\n        address ethAddress;\n        // registration number of the bank\n        string regNumber;\n    }\n\n    mapping(string => Customer) customers;\n    mapping(address => Bank) banks;\n\n    // function to view customer\n    function viewCustomer(string memory customerName)\n        public\n        returns (string memory)\n    {}\n\n    // function to add customers mapped to their documents\n    function addCustomer(\n        string memory _customerName,\n        string memory _customerData\n    ) public {\n        require(\n            customers[_customerName].validatorBankAddress == address(0),\n            \"User exists. Please call modifyCustomer to make any changes\"\n        );\n\n        customers[_customerName].username = _customerName;\n        customers[_customerName].customerData = _customerData;\n        customers[_customerName].validatorBankAddress = msg.sender;\n    }\n\n    // function to edit customer details\n    function modifyCustomer(\n        string memory customerName,\n        string memory newDataHash\n    ) public returns (uint256) {}\n\n}\n",
  "sourcePath": "/home/dhruv/Desktop/projects/dApp/KYC/contracts/kycContract.sol",
  "compiler": {
    "name": "solc",
    "version": "0.8.9+commit.e5eed63a.Emscripten.clang"
  },
  "schemaVersion": "3.4.3",
  "updatedAt": "2021-12-02T11:53:23.850Z",
  "networkType": "ethereum",
  "devdoc": {
    "kind": "dev",
    "methods": {},
    "version": 1
  },
  "userdoc": {
    "kind": "user",
    "methods": {},
    "version": 1
  }
}